{
  "_format": "hh-sol-artifact-1",
  "contractName": "CourseMarketplace",
  "sourceName": "contracts/CourseMarketplace.sol",
  "abi": [
    {
      "inputs": [],
      "stateMutability": "nonpayable",
      "type": "constructor"
    },
    {
      "inputs": [
        {
          "internalType": "address",
          "name": "owner",
          "type": "address"
        }
      ],
      "name": "OwnableInvalidOwner",
      "type": "error"
    },
    {
      "inputs": [
        {
          "internalType": "address",
          "name": "account",
          "type": "address"
        }
      ],
      "name": "OwnableUnauthorizedAccount",
      "type": "error"
    },
    {
      "anonymous": false,
      "inputs": [
        {
          "indexed": true,
          "internalType": "uint256",
          "name": "courseId",
          "type": "uint256"
        },
        {
          "indexed": true,
          "internalType": "address",
          "name": "instructor",
          "type": "address"
        }
      ],
      "name": "CourseCreated",
      "type": "event"
    },
    {
      "anonymous": false,
      "inputs": [
        {
          "indexed": true,
          "internalType": "uint256",
          "name": "courseId",
          "type": "uint256"
        },
        {
          "indexed": true,
          "internalType": "address",
          "name": "buyer",
          "type": "address"
        }
      ],
      "name": "CoursePurchased",
      "type": "event"
    },
    {
      "anonymous": false,
      "inputs": [
        {
          "indexed": true,
          "internalType": "address",
          "name": "previousOwner",
          "type": "address"
        },
        {
          "indexed": true,
          "internalType": "address",
          "name": "newOwner",
          "type": "address"
        }
      ],
      "name": "OwnershipTransferred",
      "type": "event"
    },
    {
      "inputs": [],
      "name": "certificateSBT",
      "outputs": [
        {
          "internalType": "contract CertificateSBT",
          "name": "",
          "type": "address"
        }
      ],
      "stateMutability": "view",
      "type": "function"
    },
    {
      "inputs": [],
      "name": "courseNFT",
      "outputs": [
        {
          "internalType": "contract CourseNFT",
          "name": "",
          "type": "address"
        }
      ],
      "stateMutability": "view",
      "type": "function"
    },
    {
      "inputs": [
        {
          "internalType": "string",
          "name": "_courseName",
          "type": "string"
        },
        {
          "internalType": "string",
          "name": "_ipfsLink",
          "type": "string"
        },
        {
          "internalType": "uint256",
          "name": "_price",
          "type": "uint256"
        }
      ],
      "name": "createCourse",
      "outputs": [
        {
          "internalType": "uint256",
          "name": "",
          "type": "uint256"
        }
      ],
      "stateMutability": "nonpayable",
      "type": "function"
    },
    {
      "inputs": [],
      "name": "getAllCourses",
      "outputs": [
        {
          "internalType": "uint256[]",
          "name": "courseIds",
          "type": "uint256[]"
        },
        {
          "internalType": "string[]",
          "name": "names",
          "type": "string[]"
        },
        {
          "internalType": "uint256[]",
          "name": "prices",
          "type": "uint256[]"
        },
        {
          "internalType": "address[]",
          "name": "instructors",
          "type": "address[]"
        }
      ],
      "stateMutability": "view",
      "type": "function"
    },
    {
      "inputs": [
        {
          "internalType": "uint256",
          "name": "courseId",
          "type": "uint256"
        }
      ],
      "name": "getCertificate",
      "outputs": [
        {
          "internalType": "string",
          "name": "",
          "type": "string"
        }
      ],
      "stateMutability": "view",
      "type": "function"
    },
    {
      "inputs": [
        {
          "internalType": "string",
          "name": "certificateId",
          "type": "string"
        }
      ],
      "name": "getCertificateURL",
      "outputs": [
        {
          "internalType": "string",
          "name": "",
          "type": "string"
        }
      ],
      "stateMutability": "view",
      "type": "function"
    },
    {
      "inputs": [],
      "name": "getCreatedCourses",
      "outputs": [
        {
          "internalType": "uint256[]",
          "name": "courseIds",
          "type": "uint256[]"
        },
        {
          "internalType": "string[]",
          "name": "names",
          "type": "string[]"
        },
        {
          "internalType": "uint256[]",
          "name": "prices",
          "type": "uint256[]"
        },
        {
          "internalType": "address[]",
          "name": "instructors",
          "type": "address[]"
        },
        {
          "internalType": "string[]",
          "name": "ipfsLinks",
          "type": "string[]"
        }
      ],
      "stateMutability": "view",
      "type": "function"
    },
    {
      "inputs": [],
      "name": "getPurchasedCourses",
      "outputs": [
        {
          "internalType": "uint256[]",
          "name": "courseIds",
          "type": "uint256[]"
        },
        {
          "internalType": "string[]",
          "name": "names",
          "type": "string[]"
        },
        {
          "internalType": "uint256[]",
          "name": "prices",
          "type": "uint256[]"
        },
        {
          "internalType": "address[]",
          "name": "instructors",
          "type": "address[]"
        },
        {
          "internalType": "string[]",
          "name": "ipfsLinks",
          "type": "string[]"
        }
      ],
      "stateMutability": "view",
      "type": "function"
    },
    {
      "inputs": [
        {
          "internalType": "uint256",
          "name": "courseId",
          "type": "uint256"
        },
        {
          "internalType": "string",
          "name": "uri",
          "type": "string"
        },
        {
          "internalType": "string",
          "name": "certificateId",
          "type": "string"
        }
      ],
      "name": "issueCertificate",
      "outputs": [
        {
          "internalType": "string",
          "name": "",
          "type": "string"
        }
      ],
      "stateMutability": "nonpayable",
      "type": "function"
    },
    {
      "inputs": [],
      "name": "loginUser",
      "outputs": [
        {
          "internalType": "address",
          "name": "",
          "type": "address"
        },
        {
          "internalType": "string",
          "name": "",
          "type": "string"
        },
        {
          "internalType": "bool",
          "name": "isInstructor",
          "type": "bool"
        }
      ],
      "stateMutability": "view",
      "type": "function"
    },
    {
      "inputs": [],
      "name": "owner",
      "outputs": [
        {
          "internalType": "address",
          "name": "",
          "type": "address"
        }
      ],
      "stateMutability": "view",
      "type": "function"
    },
    {
      "inputs": [
        {
          "internalType": "uint256",
          "name": "_courseId",
          "type": "uint256"
        }
      ],
      "name": "purchaseCourse",
      "outputs": [],
      "stateMutability": "payable",
      "type": "function"
    },
    {
      "inputs": [
        {
          "internalType": "string",
          "name": "_username",
          "type": "string"
        },
        {
          "internalType": "bool",
          "name": "_isInstructor",
          "type": "bool"
        }
      ],
      "name": "registerUser",
      "outputs": [],
      "stateMutability": "nonpayable",
      "type": "function"
    },
    {
      "inputs": [],
      "name": "renounceOwnership",
      "outputs": [],
      "stateMutability": "nonpayable",
      "type": "function"
    },
    {
      "inputs": [
        {
          "internalType": "address",
          "name": "newOwner",
          "type": "address"
        }
      ],
      "name": "transferOwnership",
      "outputs": [],
      "stateMutability": "nonpayable",
      "type": "function"
    },
    {
      "inputs": [],
      "name": "userRegistry",
      "outputs": [
        {
          "internalType": "contract UserRegistry",
          "name": "",
          "type": "address"
        }
      ],
      "stateMutability": "view",
      "type": "function"
    }
  ],
  "bytecode": "0x60806040523480156200001157600080fd5b5033600073ffffffffffffffffffffffffffffffffffffffff168173ffffffffffffffffffffffffffffffffffffffff1603620000885760006040517f1e4fbdf70000000000000000000000000000000000000000000000000000000081526004016200007f91906200047d565b60405180910390fd5b62000099816200034a60201b60201c565b50604051620000a8906200040e565b604051809103906000f080158015620000c5573d6000803e3d6000fd5b50600160006101000a81548173ffffffffffffffffffffffffffffffffffffffff021916908373ffffffffffffffffffffffffffffffffffffffff16021790555060405162000114906200041c565b604051809103906000f08015801562000131573d6000803e3d6000fd5b50600260006101000a81548173ffffffffffffffffffffffffffffffffffffffff021916908373ffffffffffffffffffffffffffffffffffffffff16021790555060405162000180906200042a565b604051809103906000f0801580156200019d573d6000803e3d6000fd5b50600360006101000a81548173ffffffffffffffffffffffffffffffffffffffff021916908373ffffffffffffffffffffffffffffffffffffffff160217905550600360009054906101000a900473ffffffffffffffffffffffffffffffffffffffff1673ffffffffffffffffffffffffffffffffffffffff166394e05dd7600160009054906101000a900473ffffffffffffffffffffffffffffffffffffffff166040518263ffffffff1660e01b81526004016200025d91906200047d565b600060405180830381600087803b1580156200027857600080fd5b505af11580156200028d573d6000803e3d6000fd5b50505050600260009054906101000a900473ffffffffffffffffffffffffffffffffffffffff1673ffffffffffffffffffffffffffffffffffffffff166394e05dd7600160009054906101000a900473ffffffffffffffffffffffffffffffffffffffff166040518263ffffffff1660e01b81526004016200031091906200047d565b600060405180830381600087803b1580156200032b57600080fd5b505af115801562000340573d6000803e3d6000fd5b505050506200049a565b60008060009054906101000a900473ffffffffffffffffffffffffffffffffffffffff169050816000806101000a81548173ffffffffffffffffffffffffffffffffffffffff021916908373ffffffffffffffffffffffffffffffffffffffff1602179055508173ffffffffffffffffffffffffffffffffffffffff168173ffffffffffffffffffffffffffffffffffffffff167f8be0079c531659141344cd1fd0a4f28419497f9722a3daafe3b4186f6b6457e060405160405180910390a35050565b613fe58062002d3d83390190565b6123af8062006d2283390190565b611f6080620090d183390190565b600073ffffffffffffffffffffffffffffffffffffffff82169050919050565b6000620004658262000438565b9050919050565b620004778162000458565b82525050565b60006020820190506200049460008301846200046c565b92915050565b61289380620004aa6000396000f3fe6080604052600436106100f35760003560e01c8063a19ed6861161008a578063c078c03011610059578063c078c03014610329578063cd13193814610354578063dbb03d1614610370578063f2fde38b146103ad576100f3565b8063a19ed68614610257578063a1b1e84c14610284578063a4adb24b146102c1578063a998ffb3146102fe576100f3565b80635c7460d6116100c65780635c7460d6146101c1578063715018a6146101ec57806379b233db146102035780638da5cb5b1461022c576100f3565b806304e48bd1146100f85780631a11cb231461012657806349d3c8e91461015557806351640fee14610184575b600080fd5b34801561010457600080fd5b5061010d6103d6565b60405161011d9493929190611b12565b60405180910390f35b34801561013257600080fd5b5061013b6106d2565b60405161014c959493929190611b73565b60405180910390f35b34801561016157600080fd5b5061016a610a47565b60405161017b959493929190611b73565b60405180910390f35b34801561019057600080fd5b506101ab60048036038101906101a69190611c29565b610dbc565b6040516101b89190611ca0565b60405180910390f35b3480156101cd57600080fd5b506101d6610e68565b6040516101e39190611d21565b60405180910390f35b3480156101f857600080fd5b50610201610e8e565b005b34801561020f57600080fd5b5061022a60048036038101906102259190611dd9565b610ea2565b005b34801561023857600080fd5b50610241610f3a565b60405161024e9190611e48565b60405180910390f35b34801561026357600080fd5b5061026c610f63565b60405161027b93929190611e72565b60405180910390f35b34801561029057600080fd5b506102ab60048036038101906102a69190611eb0565b611015565b6040516102b89190611ca0565b60405180910390f35b3480156102cd57600080fd5b506102e860048036038101906102e39190611efd565b6110c2565b6040516102f59190611fa1565b60405180910390f35b34801561030a57600080fd5b50610313611377565b6040516103209190611fdd565b60405180910390f35b34801561033557600080fd5b5061033e61139d565b60405161034b9190612019565b60405180910390f35b61036e60048036038101906103699190611c29565b6113c3565b005b34801561037c57600080fd5b5061039760048036038101906103929190612034565b611575565b6040516103a49190611ca0565b60405180910390f35b3480156103b957600080fd5b506103d460048036038101906103cf91906120f5565b61162f565b005b6060806060806000600160009054906101000a900473ffffffffffffffffffffffffffffffffffffffff1673ffffffffffffffffffffffffffffffffffffffff1663fbd8e3976040518163ffffffff1660e01b8152600401600060405180830381865afa15801561044b573d6000803e3d6000fd5b505050506040513d6000823e3d601f19601f820116820180604052508101906104749190612275565b90506000815190508067ffffffffffffffff81111561049657610495612122565b5b6040519080825280602002602001820160405280156104c957816020015b60608152602001906001900390816104b45790505b5094508067ffffffffffffffff8111156104e6576104e5612122565b5b6040519080825280602002602001820160405280156105145781602001602082028036833780820191505090505b5093508067ffffffffffffffff81111561053157610530612122565b5b60405190808252806020026020018201604052801561055f5781602001602082028036833780820191505090505b50925060005b818110156106c657600160009054906101000a900473ffffffffffffffffffffffffffffffffffffffff1673ffffffffffffffffffffffffffffffffffffffff1663610b31a68483815181106105be576105bd6122be565b5b60200260200101516040518263ffffffff1660e01b81526004016105e29190611fa1565b600060405180830381865afa1580156105ff573d6000803e3d6000fd5b505050506040513d6000823e3d601f19601f8201168201806040525081019061062891906123a8565b90915088848151811061063e5761063d6122be565b5b60200260200101888581518110610658576106576122be565b5b60200260200101888681518110610672576106716122be565b5b602002602001018373ffffffffffffffffffffffffffffffffffffffff1673ffffffffffffffffffffffffffffffffffffffff168152508381525083905250505080806106be90612476565b915050610565565b50819550505090919293565b60608060608060606000600260009054906101000a900473ffffffffffffffffffffffffffffffffffffffff1673ffffffffffffffffffffffffffffffffffffffff1663a64e398f336040518263ffffffff1660e01b81526004016107379190611e48565b600060405180830381865afa158015610754573d6000803e3d6000fd5b505050506040513d6000823e3d601f19601f8201168201806040525081019061077d9190612275565b90506000815190508067ffffffffffffffff81111561079f5761079e612122565b5b6040519080825280602002602001820160405280156107d257816020015b60608152602001906001900390816107bd5790505b5095508067ffffffffffffffff8111156107ef576107ee612122565b5b60405190808252806020026020018201604052801561081d5781602001602082028036833780820191505090505b5094508067ffffffffffffffff81111561083a57610839612122565b5b6040519080825280602002602001820160405280156108685781602001602082028036833780820191505090505b5093508067ffffffffffffffff81111561088557610884612122565b5b6040519080825280602002602001820160405280156108b857816020015b60608152602001906001900390816108a35790505b50925060005b81811015610a3a57600160009054906101000a900473ffffffffffffffffffffffffffffffffffffffff1673ffffffffffffffffffffffffffffffffffffffff1663610b31a6848381518110610917576109166122be565b5b60200260200101516040518263ffffffff1660e01b815260040161093b9190611fa1565b600060405180830381865afa158015610958573d6000803e3d6000fd5b505050506040513d6000823e3d601f19601f8201168201806040525081019061098191906123a8565b8a8581518110610994576109936122be565b5b602002602001018886815181106109ae576109ad6122be565b5b602002602001018b87815181106109c8576109c76122be565b5b602002602001018b88815181106109e2576109e16122be565b5b602002602001018473ffffffffffffffffffffffffffffffffffffffff1673ffffffffffffffffffffffffffffffffffffffff1681525084815250849052849052505050508080610a3290612476565b9150506108be565b5081965050509091929394565b60608060608060606000600260009054906101000a900473ffffffffffffffffffffffffffffffffffffffff1673ffffffffffffffffffffffffffffffffffffffff16630a5fa7f2336040518263ffffffff1660e01b8152600401610aac9190611e48565b600060405180830381865afa158015610ac9573d6000803e3d6000fd5b505050506040513d6000823e3d601f19601f82011682018060405250810190610af29190612275565b90506000815190508067ffffffffffffffff811115610b1457610b13612122565b5b604051908082528060200260200182016040528015610b4757816020015b6060815260200190600190039081610b325790505b5095508067ffffffffffffffff811115610b6457610b63612122565b5b604051908082528060200260200182016040528015610b925781602001602082028036833780820191505090505b5094508067ffffffffffffffff811115610baf57610bae612122565b5b604051908082528060200260200182016040528015610bdd5781602001602082028036833780820191505090505b5093508067ffffffffffffffff811115610bfa57610bf9612122565b5b604051908082528060200260200182016040528015610c2d57816020015b6060815260200190600190039081610c185790505b50925060005b81811015610daf57600160009054906101000a900473ffffffffffffffffffffffffffffffffffffffff1673ffffffffffffffffffffffffffffffffffffffff1663610b31a6848381518110610c8c57610c8b6122be565b5b60200260200101516040518263ffffffff1660e01b8152600401610cb09190611fa1565b600060405180830381865afa158015610ccd573d6000803e3d6000fd5b505050506040513d6000823e3d601f19601f82011682018060405250810190610cf691906123a8565b8a8581518110610d0957610d086122be565b5b60200260200101888681518110610d2357610d226122be565b5b602002602001018b8781518110610d3d57610d3c6122be565b5b602002602001018b8881518110610d5757610d566122be565b5b602002602001018473ffffffffffffffffffffffffffffffffffffffff1673ffffffffffffffffffffffffffffffffffffffff1681525084815250849052849052505050508080610da790612476565b915050610c33565b5081965050509091929394565b6060600360009054906101000a900473ffffffffffffffffffffffffffffffffffffffff1673ffffffffffffffffffffffffffffffffffffffff1663817bb33133846040518363ffffffff1660e01b8152600401610e1b9291906124be565b600060405180830381865afa158015610e38573d6000803e3d6000fd5b505050506040513d6000823e3d601f19601f82011682018060405250810190610e6191906124e7565b9050919050565b600260009054906101000a900473ffffffffffffffffffffffffffffffffffffffff1681565b610e966116b5565b610ea0600061173c565b565b600260009054906101000a900473ffffffffffffffffffffffffffffffffffffffff1673ffffffffffffffffffffffffffffffffffffffff16631897c0bc338585856040518563ffffffff1660e01b8152600401610f03949392919061256c565b600060405180830381600087803b158015610f1d57600080fd5b505af1158015610f31573d6000803e3d6000fd5b50505050505050565b60008060009054906101000a900473ffffffffffffffffffffffffffffffffffffffff16905090565b600060606000600260009054906101000a900473ffffffffffffffffffffffffffffffffffffffff1673ffffffffffffffffffffffffffffffffffffffff1663ffc9896b336040518263ffffffff1660e01b8152600401610fc49190611e48565b600060405180830381865afa158015610fe1573d6000803e3d6000fd5b505050506040513d6000823e3d601f19601f8201168201806040525081019061100a91906125c1565b925092509250909192565b6060600360009054906101000a900473ffffffffffffffffffffffffffffffffffffffff1673ffffffffffffffffffffffffffffffffffffffff1663a1b1e84c84846040518363ffffffff1660e01b8152600401611074929190612630565b600060405180830381865afa158015611091573d6000803e3d6000fd5b505050506040513d6000823e3d601f19601f820116820180604052508101906110ba91906124e7565b905092915050565b6000600260009054906101000a900473ffffffffffffffffffffffffffffffffffffffff1673ffffffffffffffffffffffffffffffffffffffff1663c3c5a547336040518263ffffffff1660e01b815260040161111f9190611e48565b602060405180830381865afa15801561113c573d6000803e3d6000fd5b505050506040513d601f19601f820116820180604052508101906111609190612654565b61119f576040517f08c379a0000000000000000000000000000000000000000000000000000000008152600401611196906126cd565b60405180910390fd5b600260009054906101000a900473ffffffffffffffffffffffffffffffffffffffff1673ffffffffffffffffffffffffffffffffffffffff1663a3afcea2336040518263ffffffff1660e01b81526004016111fa9190611e48565b602060405180830381865afa158015611217573d6000803e3d6000fd5b505050506040513d601f19601f8201168201806040525081019061123b9190612654565b61127a576040517f08c379a000000000000000000000000000000000000000000000000000000000815260040161127190612739565b60405180910390fd5b6000600160009054906101000a900473ffffffffffffffffffffffffffffffffffffffff1673ffffffffffffffffffffffffffffffffffffffff1663a1b66b6c8888888888336040518763ffffffff1660e01b81526004016112e196959493929190612759565b6020604051808303816000875af1158015611300573d6000803e3d6000fd5b505050506040513d601f19601f8201168201806040525081019061132491906127b0565b90503373ffffffffffffffffffffffffffffffffffffffff16817fa68f79aa37f9cdc81c2757cfb3e11e9d7d89ca0a5410fbcf1b61125bc17fb1b760405160405180910390a38091505095945050505050565b600160009054906101000a900473ffffffffffffffffffffffffffffffffffffffff1681565b600360009054906101000a900473ffffffffffffffffffffffffffffffffffffffff1681565b600260009054906101000a900473ffffffffffffffffffffffffffffffffffffffff1673ffffffffffffffffffffffffffffffffffffffff1663c3c5a547336040518263ffffffff1660e01b815260040161141e9190611e48565b602060405180830381865afa15801561143b573d6000803e3d6000fd5b505050506040513d601f19601f8201168201806040525081019061145f9190612654565b61149e576040517f08c379a0000000000000000000000000000000000000000000000000000000008152600401611495906126cd565b60405180910390fd5b600160009054906101000a900473ffffffffffffffffffffffffffffffffffffffff1673ffffffffffffffffffffffffffffffffffffffff1663985bf63a3483336040518463ffffffff1660e01b81526004016114fc9291906127dd565b6000604051808303818588803b15801561151557600080fd5b505af1158015611529573d6000803e3d6000fd5b50505050503373ffffffffffffffffffffffffffffffffffffffff16817f8120f2f8a682e2fd88bad8beb5760b02b7fec7a59d2d9bebb84b3e277bc152d260405160405180910390a350565b6060600360009054906101000a900473ffffffffffffffffffffffffffffffffffffffff1673ffffffffffffffffffffffffffffffffffffffff1663e0a5f6273388888888886040518763ffffffff1660e01b81526004016115dc96959493929190612806565b6000604051808303816000875af11580156115fb573d6000803e3d6000fd5b505050506040513d6000823e3d601f19601f8201168201806040525081019061162491906124e7565b905095945050505050565b6116376116b5565b600073ffffffffffffffffffffffffffffffffffffffff168173ffffffffffffffffffffffffffffffffffffffff16036116a95760006040517f1e4fbdf70000000000000000000000000000000000000000000000000000000081526004016116a09190611e48565b60405180910390fd5b6116b28161173c565b50565b6116bd611800565b73ffffffffffffffffffffffffffffffffffffffff166116db610f3a565b73ffffffffffffffffffffffffffffffffffffffff161461173a576116fe611800565b6040517f118cdaa70000000000000000000000000000000000000000000000000000000081526004016117319190611e48565b60405180910390fd5b565b60008060009054906101000a900473ffffffffffffffffffffffffffffffffffffffff169050816000806101000a81548173ffffffffffffffffffffffffffffffffffffffff021916908373ffffffffffffffffffffffffffffffffffffffff1602179055508173ffffffffffffffffffffffffffffffffffffffff168173ffffffffffffffffffffffffffffffffffffffff167f8be0079c531659141344cd1fd0a4f28419497f9722a3daafe3b4186f6b6457e060405160405180910390a35050565b600033905090565b600081519050919050565b600082825260208201905092915050565b6000819050602082019050919050565b6000819050919050565b61184781611834565b82525050565b6000611859838361183e565b60208301905092915050565b6000602082019050919050565b600061187d82611808565b6118878185611813565b935061189283611824565b8060005b838110156118c35781516118aa888261184d565b97506118b583611865565b925050600181019050611896565b5085935050505092915050565b600081519050919050565b600082825260208201905092915050565b6000819050602082019050919050565b600081519050919050565b600082825260208201905092915050565b60005b8381101561193657808201518184015260208101905061191b565b60008484015250505050565b6000601f19601f8301169050919050565b600061195e826118fc565b6119688185611907565b9350611978818560208601611918565b61198181611942565b840191505092915050565b60006119988383611953565b905092915050565b6000602082019050919050565b60006119b8826118d0565b6119c281856118db565b9350836020820285016119d4856118ec565b8060005b85811015611a1057848403895281516119f1858261198c565b94506119fc836119a0565b925060208a019950506001810190506119d8565b50829750879550505050505092915050565b600081519050919050565b600082825260208201905092915050565b6000819050602082019050919050565b600073ffffffffffffffffffffffffffffffffffffffff82169050919050565b6000611a7982611a4e565b9050919050565b611a8981611a6e565b82525050565b6000611a9b8383611a80565b60208301905092915050565b6000602082019050919050565b6000611abf82611a22565b611ac98185611a2d565b9350611ad483611a3e565b8060005b83811015611b05578151611aec8882611a8f565b9750611af783611aa7565b925050600181019050611ad8565b5085935050505092915050565b60006080820190508181036000830152611b2c8187611872565b90508181036020830152611b4081866119ad565b90508181036040830152611b548185611872565b90508181036060830152611b688184611ab4565b905095945050505050565b600060a0820190508181036000830152611b8d8188611872565b90508181036020830152611ba181876119ad565b90508181036040830152611bb58186611872565b90508181036060830152611bc98185611ab4565b90508181036080830152611bdd81846119ad565b90509695505050505050565b6000604051905090565b600080fd5b600080fd5b611c0681611834565b8114611c1157600080fd5b50565b600081359050611c2381611bfd565b92915050565b600060208284031215611c3f57611c3e611bf3565b5b6000611c4d84828501611c14565b91505092915050565b600082825260208201905092915050565b6000611c72826118fc565b611c7c8185611c56565b9350611c8c818560208601611918565b611c9581611942565b840191505092915050565b60006020820190508181036000830152611cba8184611c67565b905092915050565b6000819050919050565b6000611ce7611ce2611cdd84611a4e565b611cc2565b611a4e565b9050919050565b6000611cf982611ccc565b9050919050565b6000611d0b82611cee565b9050919050565b611d1b81611d00565b82525050565b6000602082019050611d366000830184611d12565b92915050565b600080fd5b600080fd5b600080fd5b60008083601f840112611d6157611d60611d3c565b5b8235905067ffffffffffffffff811115611d7e57611d7d611d41565b5b602083019150836001820283011115611d9a57611d99611d46565b5b9250929050565b60008115159050919050565b611db681611da1565b8114611dc157600080fd5b50565b600081359050611dd381611dad565b92915050565b600080600060408486031215611df257611df1611bf3565b5b600084013567ffffffffffffffff811115611e1057611e0f611bf8565b5b611e1c86828701611d4b565b93509350506020611e2f86828701611dc4565b9150509250925092565b611e4281611a6e565b82525050565b6000602082019050611e5d6000830184611e39565b92915050565b611e6c81611da1565b82525050565b6000606082019050611e876000830186611e39565b8181036020830152611e998185611c67565b9050611ea86040830184611e63565b949350505050565b60008060208385031215611ec757611ec6611bf3565b5b600083013567ffffffffffffffff811115611ee557611ee4611bf8565b5b611ef185828601611d4b565b92509250509250929050565b600080600080600060608688031215611f1957611f18611bf3565b5b600086013567ffffffffffffffff811115611f3757611f36611bf8565b5b611f4388828901611d4b565b9550955050602086013567ffffffffffffffff811115611f6657611f65611bf8565b5b611f7288828901611d4b565b93509350506040611f8588828901611c14565b9150509295509295909350565b611f9b81611834565b82525050565b6000602082019050611fb66000830184611f92565b92915050565b6000611fc782611cee565b9050919050565b611fd781611fbc565b82525050565b6000602082019050611ff26000830184611fce565b92915050565b600061200382611cee565b9050919050565b61201381611ff8565b82525050565b600060208201905061202e600083018461200a565b92915050565b6000806000806000606086880312156120505761204f611bf3565b5b600061205e88828901611c14565b955050602086013567ffffffffffffffff81111561207f5761207e611bf8565b5b61208b88828901611d4b565b9450945050604086013567ffffffffffffffff8111156120ae576120ad611bf8565b5b6120ba88828901611d4b565b92509250509295509295909350565b6120d281611a6e565b81146120dd57600080fd5b50565b6000813590506120ef816120c9565b92915050565b60006020828403121561210b5761210a611bf3565b5b6000612119848285016120e0565b91505092915050565b7f4e487b7100000000000000000000000000000000000000000000000000000000600052604160045260246000fd5b61215a82611942565b810181811067ffffffffffffffff8211171561217957612178612122565b5b80604052505050565b600061218c611be9565b90506121988282612151565b919050565b600067ffffffffffffffff8211156121b8576121b7612122565b5b602082029050602081019050919050565b6000815190506121d881611bfd565b92915050565b60006121f16121ec8461219d565b612182565b9050808382526020820190506020840283018581111561221457612213611d46565b5b835b8181101561223d578061222988826121c9565b845260208401935050602081019050612216565b5050509392505050565b600082601f83011261225c5761225b611d3c565b5b815161226c8482602086016121de565b91505092915050565b60006020828403121561228b5761228a611bf3565b5b600082015167ffffffffffffffff8111156122a9576122a8611bf8565b5b6122b584828501612247565b91505092915050565b7f4e487b7100000000000000000000000000000000000000000000000000000000600052603260045260246000fd5b600080fd5b600067ffffffffffffffff82111561230d5761230c612122565b5b61231682611942565b9050602081019050919050565b6000612336612331846122f2565b612182565b905082815260208101848484011115612352576123516122ed565b5b61235d848285611918565b509392505050565b600082601f83011261237a57612379611d3c565b5b815161238a848260208601612323565b91505092915050565b6000815190506123a2816120c9565b92915050565b600080600080608085870312156123c2576123c1611bf3565b5b600085015167ffffffffffffffff8111156123e0576123df611bf8565b5b6123ec87828801612365565b945050602085015167ffffffffffffffff81111561240d5761240c611bf8565b5b61241987828801612365565b935050604061242a878288016121c9565b925050606061243b87828801612393565b91505092959194509250565b7f4e487b7100000000000000000000000000000000000000000000000000000000600052601160045260246000fd5b600061248182611834565b91507fffffffffffffffffffffffffffffffffffffffffffffffffffffffffffffffff82036124b3576124b2612447565b5b600182019050919050565b60006040820190506124d36000830185611e39565b6124e06020830184611f92565b9392505050565b6000602082840312156124fd576124fc611bf3565b5b600082015167ffffffffffffffff81111561251b5761251a611bf8565b5b61252784828501612365565b91505092915050565b82818337600083830152505050565b600061254b8385611c56565b9350612558838584612530565b61256183611942565b840190509392505050565b60006060820190506125816000830187611e39565b818103602083015261259481858761253f565b90506125a36040830184611e63565b95945050505050565b6000815190506125bb81611dad565b92915050565b6000806000606084860312156125da576125d9611bf3565b5b60006125e886828701612393565b935050602084015167ffffffffffffffff81111561260957612608611bf8565b5b61261586828701612365565b9250506040612626868287016125ac565b9150509250925092565b6000602082019050818103600083015261264b81848661253f565b90509392505050565b60006020828403121561266a57612669611bf3565b5b6000612678848285016125ac565b91505092915050565b7f55736572206e6f74207265676973746572656400000000000000000000000000600082015250565b60006126b7601383611c56565b91506126c282612681565b602082019050919050565b600060208201905081810360008301526126e6816126aa565b9050919050565b7f55736572206e6f7420696e7374727563746f7200000000000000000000000000600082015250565b6000612723601383611c56565b915061272e826126ed565b602082019050919050565b6000602082019050818103600083015261275281612716565b9050919050565b6000608082019050818103600083015261277481888a61253f565b9050818103602083015261278981868861253f565b90506127986040830185611f92565b6127a56060830184611e39565b979650505050505050565b6000602082840312156127c6576127c5611bf3565b5b60006127d4848285016121c9565b91505092915050565b60006040820190506127f26000830185611f92565b6127ff6020830184611e39565b9392505050565b600060808201905061281b6000830189611e39565b6128286020830188611f92565b818103604083015261283b81868861253f565b9050818103606083015261285081848661253f565b905097965050505050505056fea2646970667358221220d4a5ec8fc3480b60f619931e70fa0183f0dd0c79e0b9ebcb5a278eba95d64bec64736f6c6343000814003360806040523480156200001157600080fd5b5033604051806020016040528060008152506200003481620000ca60201b60201c565b50600073ffffffffffffffffffffffffffffffffffffffff168173ffffffffffffffffffffffffffffffffffffffff1603620000aa5760006040517f1e4fbdf7000000000000000000000000000000000000000000000000000000008152600401620000a19190620001ea565b60405180910390fd5b620000bb81620000df60201b60201c565b50600060068190555062000568565b8060029081620000db919062000481565b5050565b6000600360009054906101000a900473ffffffffffffffffffffffffffffffffffffffff16905081600360006101000a81548173ffffffffffffffffffffffffffffffffffffffff021916908373ffffffffffffffffffffffffffffffffffffffff1602179055508173ffffffffffffffffffffffffffffffffffffffff168173ffffffffffffffffffffffffffffffffffffffff167f8be0079c531659141344cd1fd0a4f28419497f9722a3daafe3b4186f6b6457e060405160405180910390a35050565b600073ffffffffffffffffffffffffffffffffffffffff82169050919050565b6000620001d282620001a5565b9050919050565b620001e481620001c5565b82525050565b6000602082019050620002016000830184620001d9565b92915050565b600081519050919050565b7f4e487b7100000000000000000000000000000000000000000000000000000000600052604160045260246000fd5b7f4e487b7100000000000000000000000000000000000000000000000000000000600052602260045260246000fd5b600060028204905060018216806200028957607f821691505b6020821081036200029f576200029e62000241565b5b50919050565b60008190508160005260206000209050919050565b60006020601f8301049050919050565b600082821b905092915050565b600060088302620003097fffffffffffffffffffffffffffffffffffffffffffffffffffffffffffffffff82620002ca565b620003158683620002ca565b95508019841693508086168417925050509392505050565b6000819050919050565b6000819050919050565b6000620003626200035c62000356846200032d565b62000337565b6200032d565b9050919050565b6000819050919050565b6200037e8362000341565b620003966200038d8262000369565b848454620002d7565b825550505050565b600090565b620003ad6200039e565b620003ba81848462000373565b505050565b5b81811015620003e257620003d6600082620003a3565b600181019050620003c0565b5050565b601f8211156200043157620003fb81620002a5565b6200040684620002ba565b8101602085101562000416578190505b6200042e6200042585620002ba565b830182620003bf565b50505b505050565b600082821c905092915050565b6000620004566000198460080262000436565b1980831691505092915050565b600062000471838362000443565b9150826002028217905092915050565b6200048c8262000207565b67ffffffffffffffff811115620004a857620004a762000212565b5b620004b4825462000270565b620004c1828285620003e6565b600060209050601f831160018114620004f95760008415620004e4578287015190505b620004f0858262000463565b86555062000560565b601f1984166200050986620002a5565b60005b8281101562000533578489015182556001820191506020850194506020810190506200050c565b868310156200055357848901516200054f601f89168262000443565b8355505b6001600288020188555050505b505050505050565b613a6d80620005786000396000f3fe6080604052600436106100fd5760003560e01c80638da5cb5b11610095578063c6530e4111610064578063c6530e4114610360578063e985e9c51461039d578063f242432a146103da578063f2fde38b14610403578063fbd8e3971461042c576100fd565b80638da5cb5b146102b3578063985bf63a146102de578063a1b66b6c146102fa578063a22cb46514610337576100fd565b80634e1273f4116100d15780634e1273f4146101e2578063610b31a61461021f578063715018a61461025f5780637eb1499014610276576100fd565b8062fdd58e1461010257806301ffc9a71461013f5780630e89341c1461017c5780632eb2c2d6146101b9575b600080fd5b34801561010e57600080fd5b5061012960048036038101906101249190612749565b610457565b6040516101369190612798565b60405180910390f35b34801561014b57600080fd5b506101666004803603810190610161919061280b565b6104b1565b6040516101739190612853565b60405180910390f35b34801561018857600080fd5b506101a3600480360381019061019e919061286e565b610593565b6040516101b0919061292b565b60405180910390f35b3480156101c557600080fd5b506101e060048036038101906101db9190612b4a565b6107a7565b005b3480156101ee57600080fd5b5061020960048036038101906102049190612cdc565b61084f565b6040516102169190612e12565b60405180910390f35b34801561022b57600080fd5b506102466004803603810190610241919061286e565b61095e565b6040516102569493929190612e43565b60405180910390f35b34801561026b57600080fd5b50610274610b8d565b005b34801561028257600080fd5b5061029d60048036038101906102989190612749565b610ba1565b6040516102aa9190612853565b60405180910390f35b3480156102bf57600080fd5b506102c8610dde565b6040516102d59190612e96565b60405180910390f35b6102f860048036038101906102f39190612eb1565b610e08565b005b34801561030657600080fd5b50610321600480360381019061031c9190612f4c565b6111ac565b60405161032e9190612798565b60405180910390f35b34801561034357600080fd5b5061035e6004803603810190610359919061301f565b611460565b005b34801561036c57600080fd5b5061038760048036038101906103829190612749565b611476565b6040516103949190612853565b60405180910390f35b3480156103a957600080fd5b506103c460048036038101906103bf919061305f565b61169c565b6040516103d19190612853565b60405180910390f35b3480156103e657600080fd5b5061040160048036038101906103fc919061309f565b611730565b005b34801561040f57600080fd5b5061042a60048036038101906104259190613136565b6117d8565b005b34801561043857600080fd5b5061044161185e565b60405161044e9190612e12565b60405180910390f35b600080600083815260200190815260200160002060008473ffffffffffffffffffffffffffffffffffffffff1673ffffffffffffffffffffffffffffffffffffffff16815260200190815260200160002054905092915050565b60007fd9b67a26000000000000000000000000000000000000000000000000000000007bffffffffffffffffffffffffffffffffffffffffffffffffffffffff1916827bffffffffffffffffffffffffffffffffffffffffffffffffffffffff1916148061057c57507f0e89341c000000000000000000000000000000000000000000000000000000007bffffffffffffffffffffffffffffffffffffffffffffffffffffffff1916827bffffffffffffffffffffffffffffffffffffffffffffffffffffffff1916145b8061058c575061058b826118b6565b5b9050919050565b60606000600560008481526020019081526020016000206040518060a00160405290816000820180546105c590613192565b80601f01602080910402602001604051908101604052809291908181526020018280546105f190613192565b801561063e5780601f106106135761010080835404028352916020019161063e565b820191906000526020600020905b81548152906001019060200180831161062157829003601f168201915b5050505050815260200160018201805461065790613192565b80601f016020809104026020016040519081016040528092919081815260200182805461068390613192565b80156106d05780601f106106a5576101008083540402835291602001916106d0565b820191906000526020600020905b8154815290600101906020018083116106b357829003601f168201915b50505050508152602001600282015481526020016003820160009054906101000a900473ffffffffffffffffffffffffffffffffffffffff1673ffffffffffffffffffffffffffffffffffffffff1673ffffffffffffffffffffffffffffffffffffffff1681526020016003820160149054906101000a900460ff1615151515815250509050806080015161079a576040517f08c379a00000000000000000000000000000000000000000000000000000000081526004016107919061320f565b60405180910390fd5b8060200151915050919050565b60006107b1611920565b90508073ffffffffffffffffffffffffffffffffffffffff168673ffffffffffffffffffffffffffffffffffffffff16141580156107f657506107f4868261169c565b155b1561083a5780866040517fe237d92200000000000000000000000000000000000000000000000000000000815260040161083192919061322f565b60405180910390fd5b6108478686868686611928565b505050505050565b6060815183511461089b57815183516040517f5b059991000000000000000000000000000000000000000000000000000000008152600401610892929190613258565b60405180910390fd5b6000835167ffffffffffffffff8111156108b8576108b7612952565b5b6040519080825280602002602001820160405280156108e65781602001602082028036833780820191505090505b50905060005b84518110156109535761092361090b8287611a2090919063ffffffff16565b61091e8387611a3490919063ffffffff16565b610457565b82828151811061093657610935613281565b5b6020026020010181815250508061094c906132df565b90506108ec565b508091505092915050565b6060806000806000600560008781526020019081526020016000206040518060a001604052908160008201805461099490613192565b80601f01602080910402602001604051908101604052809291908181526020018280546109c090613192565b8015610a0d5780601f106109e257610100808354040283529160200191610a0d565b820191906000526020600020905b8154815290600101906020018083116109f057829003601f168201915b50505050508152602001600182018054610a2690613192565b80601f0160208091040260200160405190810160405280929190818152602001828054610a5290613192565b8015610a9f5780601f10610a7457610100808354040283529160200191610a9f565b820191906000526020600020905b815481529060010190602001808311610a8257829003601f168201915b50505050508152602001600282015481526020016003820160009054906101000a900473ffffffffffffffffffffffffffffffffffffffff1673ffffffffffffffffffffffffffffffffffffffff1673ffffffffffffffffffffffffffffffffffffffff1681526020016003820160149054906101000a900460ff16151515158152505090508060800151610b69576040517f08c379a0000000000000000000000000000000000000000000000000000000008152600401610b6090613373565b60405180910390fd5b80600001518160200151826040015183606001519450945094509450509193509193565b610b95611a48565b610b9f6000611acf565b565b600080600560008481526020019081526020016000206040518060a0016040529081600082018054610bd290613192565b80601f0160208091040260200160405190810160405280929190818152602001828054610bfe90613192565b8015610c4b5780601f10610c2057610100808354040283529160200191610c4b565b820191906000526020600020905b815481529060010190602001808311610c2e57829003601f168201915b50505050508152602001600182018054610c6490613192565b80601f0160208091040260200160405190810160405280929190818152602001828054610c9090613192565b8015610cdd5780601f10610cb257610100808354040283529160200191610cdd565b820191906000526020600020905b815481529060010190602001808311610cc057829003601f168201915b50505050508152602001600282015481526020016003820160009054906101000a900473ffffffffffffffffffffffffffffffffffffffff1673ffffffffffffffffffffffffffffffffffffffff1673ffffffffffffffffffffffffffffffffffffffff1681526020016003820160149054906101000a900460ff16151515158152505090508060800151610d76576000915050610dd8565b6004600084815260200190815260200160002060008573ffffffffffffffffffffffffffffffffffffffff1673ffffffffffffffffffffffffffffffffffffffff16815260200190815260200160002060009054906101000a900460ff169150505b92915050565b6000600360009054906101000a900473ffffffffffffffffffffffffffffffffffffffff16905090565b6000600560008481526020019081526020016000206040518060a0016040529081600082018054610e3890613192565b80601f0160208091040260200160405190810160405280929190818152602001828054610e6490613192565b8015610eb15780601f10610e8657610100808354040283529160200191610eb1565b820191906000526020600020905b815481529060010190602001808311610e9457829003601f168201915b50505050508152602001600182018054610eca90613192565b80601f0160208091040260200160405190810160405280929190818152602001828054610ef690613192565b8015610f435780601f10610f1857610100808354040283529160200191610f43565b820191906000526020600020905b815481529060010190602001808311610f2657829003601f168201915b50505050508152602001600282015481526020016003820160009054906101000a900473ffffffffffffffffffffffffffffffffffffffff1673ffffffffffffffffffffffffffffffffffffffff1673ffffffffffffffffffffffffffffffffffffffff1681526020016003820160149054906101000a900460ff1615151515815250509050806080015161100d576040517f08c379a000000000000000000000000000000000000000000000000000000000815260040161100490613373565b60405180910390fd5b80604001513414611053576040517f08c379a000000000000000000000000000000000000000000000000000000000815260040161104a906133df565b60405180910390fd5b600061105f8385610457565b1461109f576040517f08c379a00000000000000000000000000000000000000000000000000000000081526004016110969061344b565b60405180910390fd5b806060015173ffffffffffffffffffffffffffffffffffffffff166108fc349081150290604051600060405180830381858888f193505050501580156110e9573d6000803e3d6000fd5b506111068284600160405180602001604052806000815250611b95565b60016004600085815260200190815260200160002060008473ffffffffffffffffffffffffffffffffffffffff1673ffffffffffffffffffffffffffffffffffffffff16815260200190815260200160002060006101000a81548160ff021916908315150217905550827f8120f2f8a682e2fd88bad8beb5760b02b7fec7a59d2d9bebb84b3e277bc152d28360405161119f9190612e96565b60405180910390a2505050565b60008087879050116111f3576040517f08c379a00000000000000000000000000000000000000000000000000000000081526004016111ea906134b7565b60405180910390fd5b60008585905011611239576040517f08c379a000000000000000000000000000000000000000000000000000000000815260040161123090613523565b60405180910390fd5b60006006600081548092919061124e906132df565b9190505590506040518060a0016040528089898080601f016020809104026020016040519081016040528093929190818152602001838380828437600081840152601f19601f82011690508083019250505050505050815260200187878080601f016020809104026020016040519081016040528093929190818152602001838380828437600081840152601f19601f8201169050808301925050505050505081526020018581526020018473ffffffffffffffffffffffffffffffffffffffff1681526020016001151581525060056000838152602001908152602001600020600082015181600001908161134491906136ef565b50602082015181600101908161135a91906136ef565b506040820151816002015560608201518160030160006101000a81548173ffffffffffffffffffffffffffffffffffffffff021916908373ffffffffffffffffffffffffffffffffffffffff16021790555060808201518160030160146101000a81548160ff02191690831515021790555090505060078190806001815401808255809150506001900390600052602060002001600090919091909150556114148382600160405180602001604052806000815250611b95565b807f48ecb80c764507d9b513e5fbdba76e8b8177d246e4314b2718204d1027f996738989868860405161144a94939291906137ee565b60405180910390a2809150509695505050505050565b61147261146b611920565b8383611c2e565b5050565b600080600560008481526020019081526020016000206040518060a00160405290816000820180546114a790613192565b80601f01602080910402602001604051908101604052809291908181526020018280546114d390613192565b80156115205780601f106114f557610100808354040283529160200191611520565b820191906000526020600020905b81548152906001019060200180831161150357829003601f168201915b5050505050815260200160018201805461153990613192565b80601f016020809104026020016040519081016040528092919081815260200182805461156590613192565b80156115b25780601f10611587576101008083540402835291602001916115b2565b820191906000526020600020905b81548152906001019060200180831161159557829003601f168201915b50505050508152602001600282015481526020016003820160009054906101000a900473ffffffffffffffffffffffffffffffffffffffff1673ffffffffffffffffffffffffffffffffffffffff1673ffffffffffffffffffffffffffffffffffffffff1681526020016003820160149054906101000a900460ff1615151515815250509050806080015161164b576000915050611696565b8373ffffffffffffffffffffffffffffffffffffffff16816060015173ffffffffffffffffffffffffffffffffffffffff161480611692575060006116908585610457565b115b9150505b92915050565b6000600160008473ffffffffffffffffffffffffffffffffffffffff1673ffffffffffffffffffffffffffffffffffffffff16815260200190815260200160002060008373ffffffffffffffffffffffffffffffffffffffff1673ffffffffffffffffffffffffffffffffffffffff16815260200190815260200160002060009054906101000a900460ff16905092915050565b600061173a611920565b90508073ffffffffffffffffffffffffffffffffffffffff168673ffffffffffffffffffffffffffffffffffffffff161415801561177f575061177d868261169c565b155b156117c35780866040517fe237d9220000000000000000000000000000000000000000000000000000000081526004016117ba92919061322f565b60405180910390fd5b6117d08686868686611d9e565b505050505050565b6117e0611a48565b600073ffffffffffffffffffffffffffffffffffffffff168173ffffffffffffffffffffffffffffffffffffffff16036118525760006040517f1e4fbdf70000000000000000000000000000000000000000000000000000000081526004016118499190612e96565b60405180910390fd5b61185b81611acf565b50565b606060078054806020026020016040519081016040528092919081815260200182805480156118ac57602002820191906000526020600020905b815481526020019060010190808311611898575b5050505050905090565b60007f01ffc9a7000000000000000000000000000000000000000000000000000000007bffffffffffffffffffffffffffffffffffffffffffffffffffffffff1916827bffffffffffffffffffffffffffffffffffffffffffffffffffffffff1916149050919050565b600033905090565b600073ffffffffffffffffffffffffffffffffffffffff168473ffffffffffffffffffffffffffffffffffffffff160361199a5760006040517f57f447ce0000000000000000000000000000000000000000000000000000000081526004016119919190612e96565b60405180910390fd5b600073ffffffffffffffffffffffffffffffffffffffff168573ffffffffffffffffffffffffffffffffffffffff1603611a0c5760006040517f01a83514000000000000000000000000000000000000000000000000000000008152600401611a039190612e96565b60405180910390fd5b611a198585858585611ea9565b5050505050565b600060208202602084010151905092915050565b600060208202602084010151905092915050565b611a50611920565b73ffffffffffffffffffffffffffffffffffffffff16611a6e610dde565b73ffffffffffffffffffffffffffffffffffffffff1614611acd57611a91611920565b6040517f118cdaa7000000000000000000000000000000000000000000000000000000008152600401611ac49190612e96565b60405180910390fd5b565b6000600360009054906101000a900473ffffffffffffffffffffffffffffffffffffffff16905081600360006101000a81548173ffffffffffffffffffffffffffffffffffffffff021916908373ffffffffffffffffffffffffffffffffffffffff1602179055508173ffffffffffffffffffffffffffffffffffffffff168173ffffffffffffffffffffffffffffffffffffffff167f8be0079c531659141344cd1fd0a4f28419497f9722a3daafe3b4186f6b6457e060405160405180910390a35050565b600073ffffffffffffffffffffffffffffffffffffffff168473ffffffffffffffffffffffffffffffffffffffff1603611c075760006040517f57f447ce000000000000000000000000000000000000000000000000000000008152600401611bfe9190612e96565b60405180910390fd5b600080611c148585611f5b565b91509150611c26600087848487611ea9565b505050505050565b600073ffffffffffffffffffffffffffffffffffffffff168273ffffffffffffffffffffffffffffffffffffffff1603611ca05760006040517fced3e100000000000000000000000000000000000000000000000000000000008152600401611c979190612e96565b60405180910390fd5b80600160008573ffffffffffffffffffffffffffffffffffffffff1673ffffffffffffffffffffffffffffffffffffffff16815260200190815260200160002060008473ffffffffffffffffffffffffffffffffffffffff1673ffffffffffffffffffffffffffffffffffffffff16815260200190815260200160002060006101000a81548160ff0219169083151502179055508173ffffffffffffffffffffffffffffffffffffffff168373ffffffffffffffffffffffffffffffffffffffff167f17307eab39ab6107e8899845ad3d59bd9653f200f220920489ca2b5937696c3183604051611d919190612853565b60405180910390a3505050565b600073ffffffffffffffffffffffffffffffffffffffff168473ffffffffffffffffffffffffffffffffffffffff1603611e105760006040517f57f447ce000000000000000000000000000000000000000000000000000000008152600401611e079190612e96565b60405180910390fd5b600073ffffffffffffffffffffffffffffffffffffffff168573ffffffffffffffffffffffffffffffffffffffff1603611e825760006040517f01a83514000000000000000000000000000000000000000000000000000000008152600401611e799190612e96565b60405180910390fd5b600080611e8f8585611f5b565b91509150611ea08787848487611ea9565b50505050505050565b611eb585858585611f8b565b600073ffffffffffffffffffffffffffffffffffffffff168473ffffffffffffffffffffffffffffffffffffffff1614611f54576000611ef3611920565b90506001845103611f43576000611f14600086611a3490919063ffffffff16565b90506000611f2c600086611a3490919063ffffffff16565b9050611f3c838989858589612339565b5050611f52565b611f518187878787876124ed565b5b505b5050505050565b60608060405191506001825283602083015260408201905060018152826020820152604081016040529250929050565b8051825114611fd557815181516040517f5b059991000000000000000000000000000000000000000000000000000000008152600401611fcc929190613258565b60405180910390fd5b6000611fdf611920565b905060005b83518110156121f45760006120028286611a3490919063ffffffff16565b905060006120198386611a3490919063ffffffff16565b9050600073ffffffffffffffffffffffffffffffffffffffff168873ffffffffffffffffffffffffffffffffffffffff161461214657600080600084815260200190815260200160002060008a73ffffffffffffffffffffffffffffffffffffffff1673ffffffffffffffffffffffffffffffffffffffff168152602001908152602001600020549050818110156120ee57888183856040517f03dee4c50000000000000000000000000000000000000000000000000000000081526004016120e5949392919061382e565b60405180910390fd5b81810360008085815260200190815260200160002060008b73ffffffffffffffffffffffffffffffffffffffff1673ffffffffffffffffffffffffffffffffffffffff16815260200190815260200160002081905550505b600073ffffffffffffffffffffffffffffffffffffffff168773ffffffffffffffffffffffffffffffffffffffff16146121e1578060008084815260200190815260200160002060008973ffffffffffffffffffffffffffffffffffffffff1673ffffffffffffffffffffffffffffffffffffffff16815260200190815260200160002060008282546121d99190613873565b925050819055505b5050806121ed906132df565b9050611fe4565b5060018351036122b3576000612214600085611a3490919063ffffffff16565b9050600061222c600085611a3490919063ffffffff16565b90508573ffffffffffffffffffffffffffffffffffffffff168773ffffffffffffffffffffffffffffffffffffffff168473ffffffffffffffffffffffffffffffffffffffff167fc3d58168c5ae7397731d063d5bbf3d657854427343f4c083240f7aacaa2d0f6285856040516122a4929190613258565b60405180910390a45050612332565b8373ffffffffffffffffffffffffffffffffffffffff168573ffffffffffffffffffffffffffffffffffffffff168273ffffffffffffffffffffffffffffffffffffffff167f4a39dc06d4c0dbc64b70af90fd698a233a518aa5d07e595d983b8c0526c8f7fb86866040516123299291906138a7565b60405180910390a45b5050505050565b60008473ffffffffffffffffffffffffffffffffffffffff163b11156124e5578373ffffffffffffffffffffffffffffffffffffffff1663f23a6e6187878686866040518663ffffffff1660e01b815260040161239a959493929190613933565b6020604051808303816000875af19250505080156123d657506040513d601f19601f820116820180604052508101906123d391906139a2565b60015b61245a573d8060008114612406576040519150601f19603f3d011682016040523d82523d6000602084013e61240b565b606091505b50600081510361245257846040517f57f447ce0000000000000000000000000000000000000000000000000000000081526004016124499190612e96565b60405180910390fd5b805181602001fd5b63f23a6e6160e01b7bffffffffffffffffffffffffffffffffffffffffffffffffffffffff1916817bffffffffffffffffffffffffffffffffffffffffffffffffffffffff1916146124e357846040517f57f447ce0000000000000000000000000000000000000000000000000000000081526004016124da9190612e96565b60405180910390fd5b505b505050505050565b60008473ffffffffffffffffffffffffffffffffffffffff163b1115612699578373ffffffffffffffffffffffffffffffffffffffff1663bc197c8187878686866040518663ffffffff1660e01b815260040161254e9594939291906139cf565b6020604051808303816000875af192505050801561258a57506040513d601f19601f8201168201806040525081019061258791906139a2565b60015b61260e573d80600081146125ba576040519150601f19603f3d011682016040523d82523d6000602084013e6125bf565b606091505b50600081510361260657846040517f57f447ce0000000000000000000000000000000000000000000000000000000081526004016125fd9190612e96565b60405180910390fd5b805181602001fd5b63bc197c8160e01b7bffffffffffffffffffffffffffffffffffffffffffffffffffffffff1916817bffffffffffffffffffffffffffffffffffffffffffffffffffffffff19161461269757846040517f57f447ce00000000000000000000000000000000000000000000000000000000815260040161268e9190612e96565b60405180910390fd5b505b505050505050565b6000604051905090565b600080fd5b600080fd5b600073ffffffffffffffffffffffffffffffffffffffff82169050919050565b60006126e0826126b5565b9050919050565b6126f0816126d5565b81146126fb57600080fd5b50565b60008135905061270d816126e7565b92915050565b6000819050919050565b61272681612713565b811461273157600080fd5b50565b6000813590506127438161271d565b92915050565b600080604083850312156127605761275f6126ab565b5b600061276e858286016126fe565b925050602061277f85828601612734565b9150509250929050565b61279281612713565b82525050565b60006020820190506127ad6000830184612789565b92915050565b60007fffffffff0000000000000000000000000000000000000000000000000000000082169050919050565b6127e8816127b3565b81146127f357600080fd5b50565b600081359050612805816127df565b92915050565b600060208284031215612821576128206126ab565b5b600061282f848285016127f6565b91505092915050565b60008115159050919050565b61284d81612838565b82525050565b60006020820190506128686000830184612844565b92915050565b600060208284031215612884576128836126ab565b5b600061289284828501612734565b91505092915050565b600081519050919050565b600082825260208201905092915050565b60005b838110156128d55780820151818401526020810190506128ba565b60008484015250505050565b6000601f19601f8301169050919050565b60006128fd8261289b565b61290781856128a6565b93506129178185602086016128b7565b612920816128e1565b840191505092915050565b6000602082019050818103600083015261294581846128f2565b905092915050565b600080fd5b7f4e487b7100000000000000000000000000000000000000000000000000000000600052604160045260246000fd5b61298a826128e1565b810181811067ffffffffffffffff821117156129a9576129a8612952565b5b80604052505050565b60006129bc6126a1565b90506129c88282612981565b919050565b600067ffffffffffffffff8211156129e8576129e7612952565b5b602082029050602081019050919050565b600080fd5b6000612a11612a0c846129cd565b6129b2565b90508083825260208201905060208402830185811115612a3457612a336129f9565b5b835b81811015612a5d5780612a498882612734565b845260208401935050602081019050612a36565b5050509392505050565b600082601f830112612a7c57612a7b61294d565b5b8135612a8c8482602086016129fe565b91505092915050565b600080fd5b600067ffffffffffffffff821115612ab557612ab4612952565b5b612abe826128e1565b9050602081019050919050565b82818337600083830152505050565b6000612aed612ae884612a9a565b6129b2565b905082815260208101848484011115612b0957612b08612a95565b5b612b14848285612acb565b509392505050565b600082601f830112612b3157612b3061294d565b5b8135612b41848260208601612ada565b91505092915050565b600080600080600060a08688031215612b6657612b656126ab565b5b6000612b74888289016126fe565b9550506020612b85888289016126fe565b945050604086013567ffffffffffffffff811115612ba657612ba56126b0565b5b612bb288828901612a67565b935050606086013567ffffffffffffffff811115612bd357612bd26126b0565b5b612bdf88828901612a67565b925050608086013567ffffffffffffffff811115612c0057612bff6126b0565b5b612c0c88828901612b1c565b9150509295509295909350565b600067ffffffffffffffff821115612c3457612c33612952565b5b602082029050602081019050919050565b6000612c58612c5384612c19565b6129b2565b90508083825260208201905060208402830185811115612c7b57612c7a6129f9565b5b835b81811015612ca45780612c9088826126fe565b845260208401935050602081019050612c7d565b5050509392505050565b600082601f830112612cc357612cc261294d565b5b8135612cd3848260208601612c45565b91505092915050565b60008060408385031215612cf357612cf26126ab565b5b600083013567ffffffffffffffff811115612d1157612d106126b0565b5b612d1d85828601612cae565b925050602083013567ffffffffffffffff811115612d3e57612d3d6126b0565b5b612d4a85828601612a67565b9150509250929050565b600081519050919050565b600082825260208201905092915050565b6000819050602082019050919050565b612d8981612713565b82525050565b6000612d9b8383612d80565b60208301905092915050565b6000602082019050919050565b6000612dbf82612d54565b612dc98185612d5f565b9350612dd483612d70565b8060005b83811015612e05578151612dec8882612d8f565b9750612df783612da7565b925050600181019050612dd8565b5085935050505092915050565b60006020820190508181036000830152612e2c8184612db4565b905092915050565b612e3d816126d5565b82525050565b60006080820190508181036000830152612e5d81876128f2565b90508181036020830152612e7181866128f2565b9050612e806040830185612789565b612e8d6060830184612e34565b95945050505050565b6000602082019050612eab6000830184612e34565b92915050565b60008060408385031215612ec857612ec76126ab565b5b6000612ed685828601612734565b9250506020612ee7858286016126fe565b9150509250929050565b600080fd5b60008083601f840112612f0c57612f0b61294d565b5b8235905067ffffffffffffffff811115612f2957612f28612ef1565b5b602083019150836001820283011115612f4557612f446129f9565b5b9250929050565b60008060008060008060808789031215612f6957612f686126ab565b5b600087013567ffffffffffffffff811115612f8757612f866126b0565b5b612f9389828a01612ef6565b9650965050602087013567ffffffffffffffff811115612fb657612fb56126b0565b5b612fc289828a01612ef6565b94509450506040612fd589828a01612734565b9250506060612fe689828a016126fe565b9150509295509295509295565b612ffc81612838565b811461300757600080fd5b50565b60008135905061301981612ff3565b92915050565b60008060408385031215613036576130356126ab565b5b6000613044858286016126fe565b92505060206130558582860161300a565b9150509250929050565b60008060408385031215613076576130756126ab565b5b6000613084858286016126fe565b9250506020613095858286016126fe565b9150509250929050565b600080600080600060a086880312156130bb576130ba6126ab565b5b60006130c9888289016126fe565b95505060206130da888289016126fe565b94505060406130eb88828901612734565b93505060606130fc88828901612734565b925050608086013567ffffffffffffffff81111561311d5761311c6126b0565b5b61312988828901612b1c565b9150509295509295909350565b60006020828403121561314c5761314b6126ab565b5b600061315a848285016126fe565b91505092915050565b7f4e487b7100000000000000000000000000000000000000000000000000000000600052602260045260246000fd5b600060028204905060018216806131aa57607f821691505b6020821081036131bd576131bc613163565b5b50919050565b7f55524920717565727920666f72206e6f6e6578697374656e7420636f75727365600082015250565b60006131f96020836128a6565b9150613204826131c3565b602082019050919050565b60006020820190508181036000830152613228816131ec565b9050919050565b60006040820190506132446000830185612e34565b6132516020830184612e34565b9392505050565b600060408201905061326d6000830185612789565b61327a6020830184612789565b9392505050565b7f4e487b7100000000000000000000000000000000000000000000000000000000600052603260045260246000fd5b7f4e487b7100000000000000000000000000000000000000000000000000000000600052601160045260246000fd5b60006132ea82612713565b91507fffffffffffffffffffffffffffffffffffffffffffffffffffffffffffffffff820361331c5761331b6132b0565b5b600182019050919050565b7f436f7572736520646f6573206e6f742065786973740000000000000000000000600082015250565b600061335d6015836128a6565b915061336882613327565b602082019050919050565b6000602082019050818103600083015261338c81613350565b9050919050565b7f496e636f7272656374207061796d656e7420616d6f756e740000000000000000600082015250565b60006133c96018836128a6565b91506133d482613393565b602082019050919050565b600060208201905081810360008301526133f8816133bc565b9050919050565b7f416c726561647920707572636861736564207468697320636f75727365000000600082015250565b6000613435601d836128a6565b9150613440826133ff565b602082019050919050565b6000602082019050818103600083015261346481613428565b9050919050565b7f436f75727365206e616d652063616e6e6f7420626520656d7074790000000000600082015250565b60006134a1601b836128a6565b91506134ac8261346b565b602082019050919050565b600060208201905081810360008301526134d081613494565b9050919050565b7f49504653206c696e6b2063616e6e6f7420626520656d70747900000000000000600082015250565b600061350d6019836128a6565b9150613518826134d7565b602082019050919050565b6000602082019050818103600083015261353c81613500565b9050919050565b60008190508160005260206000209050919050565b60006020601f8301049050919050565b600082821b905092915050565b6000600883026135a57fffffffffffffffffffffffffffffffffffffffffffffffffffffffffffffffff82613568565b6135af8683613568565b95508019841693508086168417925050509392505050565b6000819050919050565b60006135ec6135e76135e284612713565b6135c7565b612713565b9050919050565b6000819050919050565b613606836135d1565b61361a613612826135f3565b848454613575565b825550505050565b600090565b61362f613622565b61363a8184846135fd565b505050565b5b8181101561365e57613653600082613627565b600181019050613640565b5050565b601f8211156136a35761367481613543565b61367d84613558565b8101602085101561368c578190505b6136a061369885613558565b83018261363f565b50505b505050565b600082821c905092915050565b60006136c6600019846008026136a8565b1980831691505092915050565b60006136df83836136b5565b9150826002028217905092915050565b6136f88261289b565b67ffffffffffffffff81111561371157613710612952565b5b61371b8254613192565b613726828285613662565b600060209050601f8311600181146137595760008415613747578287015190505b61375185826136d3565b8655506137b9565b601f19841661376786613543565b60005b8281101561378f5784890151825560018201915060208501945060208101905061376a565b868310156137ac57848901516137a8601f8916826136b5565b8355505b6001600288020188555050505b505050505050565b60006137cd83856128a6565b93506137da838584612acb565b6137e3836128e1565b840190509392505050565b600060608201905081810360008301526138098186886137c1565b90506138186020830185612e34565b6138256040830184612789565b95945050505050565b60006080820190506138436000830187612e34565b6138506020830186612789565b61385d6040830185612789565b61386a6060830184612789565b95945050505050565b600061387e82612713565b915061388983612713565b92508282019050808211156138a1576138a06132b0565b5b92915050565b600060408201905081810360008301526138c18185612db4565b905081810360208301526138d58184612db4565b90509392505050565b600081519050919050565b600082825260208201905092915050565b6000613905826138de565b61390f81856138e9565b935061391f8185602086016128b7565b613928816128e1565b840191505092915050565b600060a0820190506139486000830188612e34565b6139556020830187612e34565b6139626040830186612789565b61396f6060830185612789565b818103608083015261398181846138fa565b90509695505050505050565b60008151905061399c816127df565b92915050565b6000602082840312156139b8576139b76126ab565b5b60006139c68482850161398d565b91505092915050565b600060a0820190506139e46000830188612e34565b6139f16020830187612e34565b8181036040830152613a038186612db4565b90508181036060830152613a178185612db4565b90508181036080830152613a2b81846138fa565b9050969550505050505056fea264697066735822122089fd8332b9c4a24f52b41e7f3ca4ca77510808ba16b165b44c4e2f645a5c06cc64736f6c6343000814003360806040523480156200001157600080fd5b5033600073ffffffffffffffffffffffffffffffffffffffff168173ffffffffffffffffffffffffffffffffffffffff1603620000885760006040517f1e4fbdf70000000000000000000000000000000000000000000000000000000081526004016200007f9190620001b1565b60405180910390fd5b6200009981620000a860201b60201c565b506000600381905550620001ce565b60008060009054906101000a900473ffffffffffffffffffffffffffffffffffffffff169050816000806101000a81548173ffffffffffffffffffffffffffffffffffffffff021916908373ffffffffffffffffffffffffffffffffffffffff1602179055508173ffffffffffffffffffffffffffffffffffffffff168173ffffffffffffffffffffffffffffffffffffffff167f8be0079c531659141344cd1fd0a4f28419497f9722a3daafe3b4186f6b6457e060405160405180910390a35050565b600073ffffffffffffffffffffffffffffffffffffffff82169050919050565b600062000199826200016c565b9050919050565b620001ab816200018c565b82525050565b6000602082019050620001c86000830184620001a0565b92915050565b6121d180620001de6000396000f3fe608060405234801561001057600080fd5b50600436106100cf5760003560e01c8063a64e398f1161008c578063bff1f9e111610066578063bff1f9e114610216578063c3c5a54714610234578063f2fde38b14610264578063ffc9896b14610280576100cf565b8063a64e398f14610194578063a87430ba146101c4578063a998ffb3146101f8576100cf565b80630a5fa7f2146100d45780631897c0bc14610104578063715018a6146101205780638da5cb5b1461012a57806394e05dd714610148578063a3afcea214610164575b600080fd5b6100ee60048036038101906100e9919061140f565b6102b2565b6040516100fb9190611504565b60405180910390f35b61011e600480360381019061011991906115c3565b61064a565b005b61012861090b565b005b61013261091f565b60405161013f9190611646565b60405180910390f35b610162600480360381019061015d919061140f565b610948565b005b61017e6004803603810190610179919061140f565b610994565b60405161018b9190611670565b60405180910390f35b6101ae60048036038101906101a9919061140f565b6109ed565b6040516101bb9190611504565b60405180910390f35b6101de60048036038101906101d9919061140f565b610e86565b6040516101ef95949392919061172a565b60405180910390f35b610200610f7e565b60405161020d91906117e3565b60405180910390f35b61021e610fa4565b60405161022b91906117fe565b60405180910390f35b61024e6004803603810190610249919061140f565b610faa565b60405161025b9190611670565b60405180910390f35b61027e6004803603810190610279919061140f565b611003565b005b61029a6004803603810190610295919061140f565b611089565b6040516102a993929190611819565b60405180910390f35b6060600260008373ffffffffffffffffffffffffffffffffffffffff1673ffffffffffffffffffffffffffffffffffffffff16815260200190815260200160002060030160019054906101000a900460ff16610343576040517f08c379a000000000000000000000000000000000000000000000000000000000815260040161033a906118a3565b60405180910390fd5b6000600160009054906101000a900473ffffffffffffffffffffffffffffffffffffffff1673ffffffffffffffffffffffffffffffffffffffff1663fbd8e3976040518163ffffffff1660e01b8152600401600060405180830381865afa1580156103b2573d6000803e3d6000fd5b505050506040513d6000823e3d601f19601f820116820180604052508101906103db9190611a2d565b90506000805b82518110156104c957600160009054906101000a900473ffffffffffffffffffffffffffffffffffffffff1673ffffffffffffffffffffffffffffffffffffffff1663c6530e418685848151811061043c5761043b611a76565b5b60200260200101516040518363ffffffff1660e01b8152600401610461929190611aa5565b602060405180830381865afa15801561047e573d6000803e3d6000fd5b505050506040513d601f19601f820116820180604052508101906104a29190611ae3565b156104b65781806104b290611b3f565b9250505b80806104c190611b3f565b9150506103e1565b5060008167ffffffffffffffff8111156104e6576104e56118c3565b5b6040519080825280602002602001820160405280156105145781602001602082028036833780820191505090505b5090506000805b845181101561063d57600160009054906101000a900473ffffffffffffffffffffffffffffffffffffffff1673ffffffffffffffffffffffffffffffffffffffff1663c6530e418887848151811061057657610575611a76565b5b60200260200101516040518363ffffffff1660e01b815260040161059b929190611aa5565b602060405180830381865afa1580156105b8573d6000803e3d6000fd5b505050506040513d601f19601f820116820180604052508101906105dc9190611ae3565b1561062a578481815181106105f4576105f3611a76565b5b602002602001015183838151811061060f5761060e611a76565b5b602002602001018181525050818061062690611b3f565b9250505b808061063590611b3f565b91505061051b565b5081945050505050919050565b60008383905011610690576040517f08c379a000000000000000000000000000000000000000000000000000000000815260040161068790611bd3565b60405180910390fd5b600260008573ffffffffffffffffffffffffffffffffffffffff1673ffffffffffffffffffffffffffffffffffffffff16815260200190815260200160002060030160019054906101000a900460ff1615610720576040517f08c379a000000000000000000000000000000000000000000000000000000000815260040161071790611c3f565b60405180910390fd5b6040518060a001604052806003600081548092919061073e90611b3f565b9190505581526020018573ffffffffffffffffffffffffffffffffffffffff16815260200184848080601f016020809104026020016040519081016040528093929190818152602001838380828437600081840152601f19601f820116905080830192505050505050508152602001821515815260200160011515815250600260008673ffffffffffffffffffffffffffffffffffffffff1673ffffffffffffffffffffffffffffffffffffffff1681526020019081526020016000206000820151816000015560208201518160010160006101000a81548173ffffffffffffffffffffffffffffffffffffffff021916908373ffffffffffffffffffffffffffffffffffffffff16021790555060408201518160020190816108619190611e61565b5060608201518160030160006101000a81548160ff02191690831515021790555060808201518160030160016101000a81548160ff0219169083151502179055509050508373ffffffffffffffffffffffffffffffffffffffff167f89105a1c6a3c2fbd471255c66a31ccab604af5697f67d7e2e9a0028c5e4dbd91848460016003546108ee9190611f33565b6040516108fd93929190611fa3565b60405180910390a250505050565b61091361124a565b61091d60006112d1565b565b60008060009054906101000a900473ffffffffffffffffffffffffffffffffffffffff16905090565b61095061124a565b80600160006101000a81548173ffffffffffffffffffffffffffffffffffffffff021916908373ffffffffffffffffffffffffffffffffffffffff16021790555050565b6000600260008373ffffffffffffffffffffffffffffffffffffffff1673ffffffffffffffffffffffffffffffffffffffff16815260200190815260200160002060030160009054906101000a900460ff169050919050565b6060600260008373ffffffffffffffffffffffffffffffffffffffff1673ffffffffffffffffffffffffffffffffffffffff16815260200190815260200160002060030160019054906101000a900460ff16610a7e576040517f08c379a0000000000000000000000000000000000000000000000000000000008152600401610a75906118a3565b60405180910390fd5b600260008373ffffffffffffffffffffffffffffffffffffffff1673ffffffffffffffffffffffffffffffffffffffff16815260200190815260200160002060030160009054906101000a900460ff16610b0d576040517f08c379a0000000000000000000000000000000000000000000000000000000008152600401610b0490612021565b60405180910390fd5b6000600160009054906101000a900473ffffffffffffffffffffffffffffffffffffffff1673ffffffffffffffffffffffffffffffffffffffff1663fbd8e3976040518163ffffffff1660e01b8152600401600060405180830381865afa158015610b7c573d6000803e3d6000fd5b505050506040513d6000823e3d601f19601f82011682018060405250810190610ba59190611a2d565b90506000805b8251811015610ccc576000600160009054906101000a900473ffffffffffffffffffffffffffffffffffffffff1673ffffffffffffffffffffffffffffffffffffffff1663610b31a6858481518110610c0757610c06611a76565b5b60200260200101516040518263ffffffff1660e01b8152600401610c2b91906117fe565b600060405180830381865afa158015610c48573d6000803e3d6000fd5b505050506040513d6000823e3d601f19601f82011682018060405250810190610c7191906120fc565b93505050508573ffffffffffffffffffffffffffffffffffffffff168173ffffffffffffffffffffffffffffffffffffffff1603610cb8578280610cb490611b3f565b9350505b508080610cc490611b3f565b915050610bab565b5060008167ffffffffffffffff811115610ce957610ce86118c3565b5b604051908082528060200260200182016040528015610d175781602001602082028036833780820191505090505b5090506000805b8451811015610e79576000600160009054906101000a900473ffffffffffffffffffffffffffffffffffffffff1673ffffffffffffffffffffffffffffffffffffffff1663610b31a6878481518110610d7a57610d79611a76565b5b60200260200101516040518263ffffffff1660e01b8152600401610d9e91906117fe565b600060405180830381865afa158015610dbb573d6000803e3d6000fd5b505050506040513d6000823e3d601f19601f82011682018060405250810190610de491906120fc565b93505050508773ffffffffffffffffffffffffffffffffffffffff168173ffffffffffffffffffffffffffffffffffffffff1603610e6557858281518110610e2f57610e2e611a76565b5b6020026020010151848481518110610e4a57610e49611a76565b5b6020026020010181815250508280610e6190611b3f565b9350505b508080610e7190611b3f565b915050610d1e565b5081945050505050919050565b60026020528060005260406000206000915090508060000154908060010160009054906101000a900473ffffffffffffffffffffffffffffffffffffffff1690806002018054610ed590611c8e565b80601f0160208091040260200160405190810160405280929190818152602001828054610f0190611c8e565b8015610f4e5780601f10610f2357610100808354040283529160200191610f4e565b820191906000526020600020905b815481529060010190602001808311610f3157829003601f168201915b5050505050908060030160009054906101000a900460ff16908060030160019054906101000a900460ff16905085565b600160009054906101000a900473ffffffffffffffffffffffffffffffffffffffff1681565b60035481565b6000600260008373ffffffffffffffffffffffffffffffffffffffff1673ffffffffffffffffffffffffffffffffffffffff16815260200190815260200160002060030160019054906101000a900460ff169050919050565b61100b61124a565b600073ffffffffffffffffffffffffffffffffffffffff168173ffffffffffffffffffffffffffffffffffffffff160361107d5760006040517f1e4fbdf70000000000000000000000000000000000000000000000000000000081526004016110749190611646565b60405180910390fd5b611086816112d1565b50565b600060606000600260008573ffffffffffffffffffffffffffffffffffffffff1673ffffffffffffffffffffffffffffffffffffffff16815260200190815260200160002060030160019054906101000a900460ff1661111e576040517f08c379a0000000000000000000000000000000000000000000000000000000008152600401611115906118a3565b60405180910390fd5b83600260008673ffffffffffffffffffffffffffffffffffffffff1673ffffffffffffffffffffffffffffffffffffffff168152602001908152602001600020600201600260008773ffffffffffffffffffffffffffffffffffffffff1673ffffffffffffffffffffffffffffffffffffffff16815260200190815260200160002060030160009054906101000a900460ff168180546111bd90611c8e565b80601f01602080910402602001604051908101604052809291908181526020018280546111e990611c8e565b80156112365780601f1061120b57610100808354040283529160200191611236565b820191906000526020600020905b81548152906001019060200180831161121957829003601f168201915b505050505091509250925092509193909250565b611252611395565b73ffffffffffffffffffffffffffffffffffffffff1661127061091f565b73ffffffffffffffffffffffffffffffffffffffff16146112cf57611293611395565b6040517f118cdaa70000000000000000000000000000000000000000000000000000000081526004016112c69190611646565b60405180910390fd5b565b60008060009054906101000a900473ffffffffffffffffffffffffffffffffffffffff169050816000806101000a81548173ffffffffffffffffffffffffffffffffffffffff021916908373ffffffffffffffffffffffffffffffffffffffff1602179055508173ffffffffffffffffffffffffffffffffffffffff168173ffffffffffffffffffffffffffffffffffffffff167f8be0079c531659141344cd1fd0a4f28419497f9722a3daafe3b4186f6b6457e060405160405180910390a35050565b600033905090565b6000604051905090565b600080fd5b600080fd5b600073ffffffffffffffffffffffffffffffffffffffff82169050919050565b60006113dc826113b1565b9050919050565b6113ec816113d1565b81146113f757600080fd5b50565b600081359050611409816113e3565b92915050565b600060208284031215611425576114246113a7565b5b6000611433848285016113fa565b91505092915050565b600081519050919050565b600082825260208201905092915050565b6000819050602082019050919050565b6000819050919050565b61147b81611468565b82525050565b600061148d8383611472565b60208301905092915050565b6000602082019050919050565b60006114b18261143c565b6114bb8185611447565b93506114c683611458565b8060005b838110156114f75781516114de8882611481565b97506114e983611499565b9250506001810190506114ca565b5085935050505092915050565b6000602082019050818103600083015261151e81846114a6565b905092915050565b600080fd5b600080fd5b600080fd5b60008083601f84011261154b5761154a611526565b5b8235905067ffffffffffffffff8111156115685761156761152b565b5b60208301915083600182028301111561158457611583611530565b5b9250929050565b60008115159050919050565b6115a08161158b565b81146115ab57600080fd5b50565b6000813590506115bd81611597565b92915050565b600080600080606085870312156115dd576115dc6113a7565b5b60006115eb878288016113fa565b945050602085013567ffffffffffffffff81111561160c5761160b6113ac565b5b61161887828801611535565b9350935050604061162b878288016115ae565b91505092959194509250565b611640816113d1565b82525050565b600060208201905061165b6000830184611637565b92915050565b61166a8161158b565b82525050565b60006020820190506116856000830184611661565b92915050565b61169481611468565b82525050565b600081519050919050565b600082825260208201905092915050565b60005b838110156116d45780820151818401526020810190506116b9565b60008484015250505050565b6000601f19601f8301169050919050565b60006116fc8261169a565b61170681856116a5565b93506117168185602086016116b6565b61171f816116e0565b840191505092915050565b600060a08201905061173f600083018861168b565b61174c6020830187611637565b818103604083015261175e81866116f1565b905061176d6060830185611661565b61177a6080830184611661565b9695505050505050565b6000819050919050565b60006117a96117a461179f846113b1565b611784565b6113b1565b9050919050565b60006117bb8261178e565b9050919050565b60006117cd826117b0565b9050919050565b6117dd816117c2565b82525050565b60006020820190506117f860008301846117d4565b92915050565b6000602082019050611813600083018461168b565b92915050565b600060608201905061182e6000830186611637565b818103602083015261184081856116f1565b905061184f6040830184611661565b949350505050565b7f55736572206e6f74207265676973746572656400000000000000000000000000600082015250565b600061188d6013836116a5565b915061189882611857565b602082019050919050565b600060208201905081810360008301526118bc81611880565b9050919050565b7f4e487b7100000000000000000000000000000000000000000000000000000000600052604160045260246000fd5b6118fb826116e0565b810181811067ffffffffffffffff8211171561191a576119196118c3565b5b80604052505050565b600061192d61139d565b905061193982826118f2565b919050565b600067ffffffffffffffff821115611959576119586118c3565b5b602082029050602081019050919050565b61197381611468565b811461197e57600080fd5b50565b6000815190506119908161196a565b92915050565b60006119a96119a48461193e565b611923565b905080838252602082019050602084028301858111156119cc576119cb611530565b5b835b818110156119f557806119e18882611981565b8452602084019350506020810190506119ce565b5050509392505050565b600082601f830112611a1457611a13611526565b5b8151611a24848260208601611996565b91505092915050565b600060208284031215611a4357611a426113a7565b5b600082015167ffffffffffffffff811115611a6157611a606113ac565b5b611a6d848285016119ff565b91505092915050565b7f4e487b7100000000000000000000000000000000000000000000000000000000600052603260045260246000fd5b6000604082019050611aba6000830185611637565b611ac7602083018461168b565b9392505050565b600081519050611add81611597565b92915050565b600060208284031215611af957611af86113a7565b5b6000611b0784828501611ace565b91505092915050565b7f4e487b7100000000000000000000000000000000000000000000000000000000600052601160045260246000fd5b6000611b4a82611468565b91507fffffffffffffffffffffffffffffffffffffffffffffffffffffffffffffffff8203611b7c57611b7b611b10565b5b600182019050919050565b7f557365726e616d652063616e6e6f7420626520656d7074790000000000000000600082015250565b6000611bbd6018836116a5565b9150611bc882611b87565b602082019050919050565b60006020820190508181036000830152611bec81611bb0565b9050919050565b7f5573657220616c72656164792072656769737465726564000000000000000000600082015250565b6000611c296017836116a5565b9150611c3482611bf3565b602082019050919050565b60006020820190508181036000830152611c5881611c1c565b9050919050565b7f4e487b7100000000000000000000000000000000000000000000000000000000600052602260045260246000fd5b60006002820490506001821680611ca657607f821691505b602082108103611cb957611cb8611c5f565b5b50919050565b60008190508160005260206000209050919050565b60006020601f8301049050919050565b600082821b905092915050565b600060088302611d217fffffffffffffffffffffffffffffffffffffffffffffffffffffffffffffffff82611ce4565b611d2b8683611ce4565b95508019841693508086168417925050509392505050565b6000611d5e611d59611d5484611468565b611784565b611468565b9050919050565b6000819050919050565b611d7883611d43565b611d8c611d8482611d65565b848454611cf1565b825550505050565b600090565b611da1611d94565b611dac818484611d6f565b505050565b5b81811015611dd057611dc5600082611d99565b600181019050611db2565b5050565b601f821115611e1557611de681611cbf565b611def84611cd4565b81016020851015611dfe578190505b611e12611e0a85611cd4565b830182611db1565b50505b505050565b600082821c905092915050565b6000611e3860001984600802611e1a565b1980831691505092915050565b6000611e518383611e27565b9150826002028217905092915050565b611e6a8261169a565b67ffffffffffffffff811115611e8357611e826118c3565b5b611e8d8254611c8e565b611e98828285611dd4565b600060209050601f831160018114611ecb5760008415611eb9578287015190505b611ec38582611e45565b865550611f2b565b601f198416611ed986611cbf565b60005b82811015611f0157848901518255600182019150602085019450602081019050611edc565b86831015611f1e5784890151611f1a601f891682611e27565b8355505b6001600288020188555050505b505050505050565b6000611f3e82611468565b9150611f4983611468565b9250828203905081811115611f6157611f60611b10565b5b92915050565b82818337600083830152505050565b6000611f8283856116a5565b9350611f8f838584611f67565b611f98836116e0565b840190509392505050565b60006040820190508181036000830152611fbe818587611f76565b9050611fcd602083018461168b565b949350505050565b7f55736572206e6f7420496e7374727563746f7200000000000000000000000000600082015250565b600061200b6013836116a5565b915061201682611fd5565b602082019050919050565b6000602082019050818103600083015261203a81611ffe565b9050919050565b600080fd5b600067ffffffffffffffff821115612061576120606118c3565b5b61206a826116e0565b9050602081019050919050565b600061208a61208584612046565b611923565b9050828152602081018484840111156120a6576120a5612041565b5b6120b18482856116b6565b509392505050565b600082601f8301126120ce576120cd611526565b5b81516120de848260208601612077565b91505092915050565b6000815190506120f6816113e3565b92915050565b60008060008060808587031215612116576121156113a7565b5b600085015167ffffffffffffffff811115612134576121336113ac565b5b612140878288016120b9565b945050602085015167ffffffffffffffff811115612161576121606113ac565b5b61216d878288016120b9565b935050604061217e87828801611981565b925050606061218f878288016120e7565b9150509295919450925056fea2646970667358221220d264c5c80aeb6f69216cd71eed8c7f942549ac0b65c884dfcafbd00734ba107964736f6c6343000814003360806040523480156200001157600080fd5b5033600073ffffffffffffffffffffffffffffffffffffffff168173ffffffffffffffffffffffffffffffffffffffff1603620000885760006040517f1e4fbdf70000000000000000000000000000000000000000000000000000000081526004016200007f9190620001a9565b60405180910390fd5b6200009981620000a060201b60201c565b50620001c6565b60008060009054906101000a900473ffffffffffffffffffffffffffffffffffffffff169050816000806101000a81548173ffffffffffffffffffffffffffffffffffffffff021916908373ffffffffffffffffffffffffffffffffffffffff1602179055508173ffffffffffffffffffffffffffffffffffffffff168173ffffffffffffffffffffffffffffffffffffffff167f8be0079c531659141344cd1fd0a4f28419497f9722a3daafe3b4186f6b6457e060405160405180910390a35050565b600073ffffffffffffffffffffffffffffffffffffffff82169050919050565b6000620001918262000164565b9050919050565b620001a38162000184565b82525050565b6000602082019050620001c0600083018462000198565b92915050565b611d8a80620001d66000396000f3fe608060405234801561001057600080fd5b50600436106100a95760003560e01c806394e05dd71161007157806394e05dd71461016a578063a1b1e84c14610186578063a998ffb3146101b6578063e0a5f627146101d4578063eac449d914610204578063f2fde38b14610220576100a9565b806346f3141c146100ae578063555072ea146100e0578063715018a614610112578063817bb3311461011c5780638da5cb5b1461014c575b600080fd5b6100c860048036038101906100c3919061116a565b61023c565b6040516100d793929190611255565b60405180910390f35b6100fa60048036038101906100f591906113cf565b610390565b60405161010993929190611255565b60405180910390f35b61011a6104ed565b005b6101366004803603810190610131919061116a565b610501565b6040516101439190611418565b60405180910390f35b610154610687565b6040516101619190611449565b60405180910390f35b610184600480360381019061017f9190611464565b6106b0565b005b6101a0600480360381019061019b91906114f1565b6106fc565b6040516101ad9190611418565b60405180910390f35b6101be610822565b6040516101cb919061159d565b60405180910390f35b6101ee60048036038101906101e991906115b8565b610848565b6040516101fb9190611418565b60405180910390f35b61021e6004803603810190610219919061116a565b610c7a565b005b61023a60048036038101906102359190611464565b610ee9565b005b60036020528160005260406000206020528060005260406000206000915091505080600001805461026c9061168e565b80601f01602080910402602001604051908101604052809291908181526020018280546102989061168e565b80156102e55780601f106102ba576101008083540402835291602001916102e5565b820191906000526020600020905b8154815290600101906020018083116102c857829003601f168201915b5050505050908060010180546102fa9061168e565b80601f01602080910402602001604051908101604052809291908181526020018280546103269061168e565b80156103735780601f1061034857610100808354040283529160200191610373565b820191906000526020600020905b81548152906001019060200180831161035657829003601f168201915b5050505050908060020160009054906101000a900460ff16905083565b6002818051602081018201805184825260208301602085012081835280955050505050506000915090508060000180546103c99061168e565b80601f01602080910402602001604051908101604052809291908181526020018280546103f59061168e565b80156104425780601f1061041757610100808354040283529160200191610442565b820191906000526020600020905b81548152906001019060200180831161042557829003601f168201915b5050505050908060010180546104579061168e565b80601f01602080910402602001604051908101604052809291908181526020018280546104839061168e565b80156104d05780601f106104a5576101008083540402835291602001916104d0565b820191906000526020600020905b8154815290600101906020018083116104b357829003601f168201915b5050505050908060020160009054906101000a900460ff16905083565b6104f5610f6f565b6104ff6000610ff6565b565b6060600360008473ffffffffffffffffffffffffffffffffffffffff1673ffffffffffffffffffffffffffffffffffffffff168152602001908152602001600020600083815260200190815260200160002060020160009054906101000a900460ff166105a3576040517f08c379a000000000000000000000000000000000000000000000000000000000815260040161059a9061170b565b60405180910390fd5b600360008473ffffffffffffffffffffffffffffffffffffffff1673ffffffffffffffffffffffffffffffffffffffff168152602001908152602001600020600083815260200190815260200160002060000180546106019061168e565b80601f016020809104026020016040519081016040528092919081815260200182805461062d9061168e565b801561067a5780601f1061064f5761010080835404028352916020019161067a565b820191906000526020600020905b81548152906001019060200180831161065d57829003601f168201915b5050505050905092915050565b60008060009054906101000a900473ffffffffffffffffffffffffffffffffffffffff16905090565b6106b8610f6f565b80600160006101000a81548173ffffffffffffffffffffffffffffffffffffffff021916908373ffffffffffffffffffffffffffffffffffffffff16021790555050565b60606002838360405161071092919061175b565b908152602001604051809103902060020160009054906101000a900460ff1661076e576040517f08c379a00000000000000000000000000000000000000000000000000000000081526004016107659061170b565b60405180910390fd5b6002838360405161078092919061175b565b9081526020016040518091039020600101805461079c9061168e565b80601f01602080910402602001604051908101604052809291908181526020018280546107c89061168e565b80156108155780601f106107ea57610100808354040283529160200191610815565b820191906000526020600020905b8154815290600101906020018083116107f857829003601f168201915b5050505050905092915050565b600160009054906101000a900473ffffffffffffffffffffffffffffffffffffffff1681565b6060600160009054906101000a900473ffffffffffffffffffffffffffffffffffffffff1673ffffffffffffffffffffffffffffffffffffffff16637eb1499088886040518363ffffffff1660e01b81526004016108a7929190611783565b602060405180830381865afa1580156108c4573d6000803e3d6000fd5b505050506040513d601f19601f820116820180604052508101906108e891906117d8565b610927576040517f08c379a000000000000000000000000000000000000000000000000000000000815260040161091e90611851565b60405180910390fd5b6000600360008973ffffffffffffffffffffffffffffffffffffffff1673ffffffffffffffffffffffffffffffffffffffff168152602001908152602001600020600088815260200190815260200160002060010180546109879061168e565b9050146109c9576040517f08c379a00000000000000000000000000000000000000000000000000000000081526004016109c0906118bd565b60405180910390fd5b604051806060016040528084848080601f016020809104026020016040519081016040528093929190818152602001838380828437600081840152601f19601f82011690508083019250505050505050815260200186868080601f016020809104026020016040519081016040528093929190818152602001838380828437600081840152601f19601f82011690508083019250505050505050815260200160011515815250600360008973ffffffffffffffffffffffffffffffffffffffff1673ffffffffffffffffffffffffffffffffffffffff16815260200190815260200160002060008881526020019081526020016000206000820151816000019081610ad49190611a7f565b506020820151816001019081610aea9190611a7f565b5060408201518160020160006101000a81548160ff021916908315150217905550905050600360008873ffffffffffffffffffffffffffffffffffffffff1673ffffffffffffffffffffffffffffffffffffffff168152602001908152602001600020600087815260200190815260200160002060028484604051610b7092919061175b565b908152602001604051809103902060008201816000019081610b929190611b67565b5060018201816001019081610ba79190611b67565b506002820160009054906101000a900460ff168160020160006101000a81548160ff021916908315150217905550905050858773ffffffffffffffffffffffffffffffffffffffff167ffedda2a344a840797ab5daf76a4ffbe2e0bbe7b604b5c1c80cecc1282c8657e78787604051610c21929190611c7c565b60405180910390a382828080601f016020809104026020016040519081016040528093929190818152602001838380828437600081840152601f19601f8201169050808301925050505050505090509695505050505050565b600360008373ffffffffffffffffffffffffffffffffffffffff1673ffffffffffffffffffffffffffffffffffffffff168152602001908152602001600020600082815260200190815260200160002060020160009054906101000a900460ff16610d1a576040517f08c379a0000000000000000000000000000000000000000000000000000000008152600401610d1190611cec565b60405180910390fd5b6000600360008473ffffffffffffffffffffffffffffffffffffffff1673ffffffffffffffffffffffffffffffffffffffff168152602001908152602001600020600083815260200190815260200160002060020160006101000a81548160ff0219169083151502179055506000600360008473ffffffffffffffffffffffffffffffffffffffff1673ffffffffffffffffffffffffffffffffffffffff16815260200190815260200160002060008381526020019081526020016000206000018054610de69061168e565b80601f0160208091040260200160405190810160405280929190818152602001828054610e129061168e565b8015610e5f5780601f10610e3457610100808354040283529160200191610e5f565b820191906000526020600020905b815481529060010190602001808311610e4257829003601f168201915b505050505090506000600282604051610e789190611d3d565b908152602001604051809103902060020160006101000a81548160ff021916908315150217905550818373ffffffffffffffffffffffffffffffffffffffff167f713b90881ad62c4fa8ab6bd9197fa86481fc0c11b2edba60026514281b2dbac460405160405180910390a3505050565b610ef1610f6f565b600073ffffffffffffffffffffffffffffffffffffffff168173ffffffffffffffffffffffffffffffffffffffff1603610f635760006040517f1e4fbdf7000000000000000000000000000000000000000000000000000000008152600401610f5a9190611449565b60405180910390fd5b610f6c81610ff6565b50565b610f776110ba565b73ffffffffffffffffffffffffffffffffffffffff16610f95610687565b73ffffffffffffffffffffffffffffffffffffffff1614610ff457610fb86110ba565b6040517f118cdaa7000000000000000000000000000000000000000000000000000000008152600401610feb9190611449565b60405180910390fd5b565b60008060009054906101000a900473ffffffffffffffffffffffffffffffffffffffff169050816000806101000a81548173ffffffffffffffffffffffffffffffffffffffff021916908373ffffffffffffffffffffffffffffffffffffffff1602179055508173ffffffffffffffffffffffffffffffffffffffff168173ffffffffffffffffffffffffffffffffffffffff167f8be0079c531659141344cd1fd0a4f28419497f9722a3daafe3b4186f6b6457e060405160405180910390a35050565b600033905090565b6000604051905090565b600080fd5b600080fd5b600073ffffffffffffffffffffffffffffffffffffffff82169050919050565b6000611101826110d6565b9050919050565b611111816110f6565b811461111c57600080fd5b50565b60008135905061112e81611108565b92915050565b6000819050919050565b61114781611134565b811461115257600080fd5b50565b6000813590506111648161113e565b92915050565b60008060408385031215611181576111806110cc565b5b600061118f8582860161111f565b92505060206111a085828601611155565b9150509250929050565b600081519050919050565b600082825260208201905092915050565b60005b838110156111e45780820151818401526020810190506111c9565b60008484015250505050565b6000601f19601f8301169050919050565b600061120c826111aa565b61121681856111b5565b93506112268185602086016111c6565b61122f816111f0565b840191505092915050565b60008115159050919050565b61124f8161123a565b82525050565b6000606082019050818103600083015261126f8186611201565b905081810360208301526112838185611201565b90506112926040830184611246565b949350505050565b600080fd5b600080fd5b7f4e487b7100000000000000000000000000000000000000000000000000000000600052604160045260246000fd5b6112dc826111f0565b810181811067ffffffffffffffff821117156112fb576112fa6112a4565b5b80604052505050565b600061130e6110c2565b905061131a82826112d3565b919050565b600067ffffffffffffffff82111561133a576113396112a4565b5b611343826111f0565b9050602081019050919050565b82818337600083830152505050565b600061137261136d8461131f565b611304565b90508281526020810184848401111561138e5761138d61129f565b5b611399848285611350565b509392505050565b600082601f8301126113b6576113b561129a565b5b81356113c684826020860161135f565b91505092915050565b6000602082840312156113e5576113e46110cc565b5b600082013567ffffffffffffffff811115611403576114026110d1565b5b61140f848285016113a1565b91505092915050565b600060208201905081810360008301526114328184611201565b905092915050565b611443816110f6565b82525050565b600060208201905061145e600083018461143a565b92915050565b60006020828403121561147a576114796110cc565b5b60006114888482850161111f565b91505092915050565b600080fd5b600080fd5b60008083601f8401126114b1576114b061129a565b5b8235905067ffffffffffffffff8111156114ce576114cd611491565b5b6020830191508360018202830111156114ea576114e9611496565b5b9250929050565b60008060208385031215611508576115076110cc565b5b600083013567ffffffffffffffff811115611526576115256110d1565b5b6115328582860161149b565b92509250509250929050565b6000819050919050565b600061156361155e611559846110d6565b61153e565b6110d6565b9050919050565b600061157582611548565b9050919050565b60006115878261156a565b9050919050565b6115978161157c565b82525050565b60006020820190506115b2600083018461158e565b92915050565b600080600080600080608087890312156115d5576115d46110cc565b5b60006115e389828a0161111f565b96505060206115f489828a01611155565b955050604087013567ffffffffffffffff811115611615576116146110d1565b5b61162189828a0161149b565b9450945050606087013567ffffffffffffffff811115611644576116436110d1565b5b61165089828a0161149b565b92509250509295509295509295565b7f4e487b7100000000000000000000000000000000000000000000000000000000600052602260045260246000fd5b600060028204905060018216806116a657607f821691505b6020821081036116b9576116b861165f565b5b50919050565b7f436572746966696361746520696e76616c6964206f72207265766f6b65640000600082015250565b60006116f5601e836111b5565b9150611700826116bf565b602082019050919050565b60006020820190508181036000830152611724816116e8565b9050919050565b600081905092915050565b6000611742838561172b565b935061174f838584611350565b82840190509392505050565b6000611768828486611736565b91508190509392505050565b61177d81611134565b82525050565b6000604082019050611798600083018561143a565b6117a56020830184611774565b9392505050565b6117b58161123a565b81146117c057600080fd5b50565b6000815190506117d2816117ac565b92915050565b6000602082840312156117ee576117ed6110cc565b5b60006117fc848285016117c3565b91505092915050565b7f4e6f74206f726967696e616c20627579657220696620636f757273652e000000600082015250565b600061183b601d836111b5565b915061184682611805565b602082019050919050565b6000602082019050818103600083015261186a8161182e565b9050919050565b7f416c726561647920617474657374656400000000000000000000000000000000600082015250565b60006118a76010836111b5565b91506118b282611871565b602082019050919050565b600060208201905081810360008301526118d68161189a565b9050919050565b60008190508160005260206000209050919050565b60006020601f8301049050919050565b600082821b905092915050565b60006008830261193f7fffffffffffffffffffffffffffffffffffffffffffffffffffffffffffffffff82611902565b6119498683611902565b95508019841693508086168417925050509392505050565b600061197c61197761197284611134565b61153e565b611134565b9050919050565b6000819050919050565b61199683611961565b6119aa6119a282611983565b84845461190f565b825550505050565b600090565b6119bf6119b2565b6119ca81848461198d565b505050565b5b818110156119ee576119e36000826119b7565b6001810190506119d0565b5050565b601f821115611a3357611a04816118dd565b611a0d846118f2565b81016020851015611a1c578190505b611a30611a28856118f2565b8301826119cf565b50505b505050565b600082821c905092915050565b6000611a5660001984600802611a38565b1980831691505092915050565b6000611a6f8383611a45565b9150826002028217905092915050565b611a88826111aa565b67ffffffffffffffff811115611aa157611aa06112a4565b5b611aab825461168e565b611ab68282856119f2565b600060209050601f831160018114611ae95760008415611ad7578287015190505b611ae18582611a63565b865550611b49565b601f198416611af7866118dd565b60005b82811015611b1f57848901518255600182019150602085019450602081019050611afa565b86831015611b3c5784890151611b38601f891682611a45565b8355505b6001600288020188555050505b505050505050565b600081549050611b608161168e565b9050919050565b818103611b75575050611c4d565b611b7e82611b51565b67ffffffffffffffff811115611b9757611b966112a4565b5b611ba1825461168e565b611bac8282856119f2565b6000601f831160018114611bdb5760008415611bc9578287015490505b611bd38582611a63565b865550611c46565b601f198416611be9876118dd565b9650611bf4866118dd565b60005b82811015611c1c57848901548255600182019150600185019450602081019050611bf7565b86831015611c395784890154611c35601f891682611a45565b8355505b6001600288020188555050505b5050505050505b565b6000611c5b83856111b5565b9350611c68838584611350565b611c71836111f0565b840190509392505050565b60006020820190508181036000830152611c97818486611c4f565b90509392505050565b7f416c7265616479207265766f6b65640000000000000000000000000000000000600082015250565b6000611cd6600f836111b5565b9150611ce182611ca0565b602082019050919050565b60006020820190508181036000830152611d0581611cc9565b9050919050565b6000611d17826111aa565b611d21818561172b565b9350611d318185602086016111c6565b80840191505092915050565b6000611d498284611d0c565b91508190509291505056fea2646970667358221220c43ade0cc3f61dab35b748df014a8ba07e8e550068a21a11c8bfcc6191457bd364736f6c63430008140033",
  "linkReferences": {},
  "deployedLinkReferences": {}
}