{
  "_format": "hh-sol-artifact-1",
  "contractName": "Course",
  "sourceName": "contracts/Course.sol",
  "abi": [
    {
      "inputs": [
        {
          "internalType": "string",
          "name": "_courseName",
          "type": "string"
        },
        {
          "internalType": "string",
          "name": "_ipfsLink",
          "type": "string"
        },
        {
          "internalType": "address payable",
          "name": "_instructor",
          "type": "address"
        },
        {
          "internalType": "uint256",
          "name": "_courseId",
          "type": "uint256"
        },
        {
          "internalType": "uint256",
          "name": "_price",
          "type": "uint256"
        }
      ],
      "stateMutability": "nonpayable",
      "type": "constructor"
    },
    {
      "inputs": [
        {
          "internalType": "address",
          "name": "_buyer",
          "type": "address"
        }
      ],
      "name": "buyCourse",
      "outputs": [],
      "stateMutability": "payable",
      "type": "function"
    },
    {
      "inputs": [],
      "name": "courseId",
      "outputs": [
        {
          "internalType": "uint256",
          "name": "",
          "type": "uint256"
        }
      ],
      "stateMutability": "view",
      "type": "function"
    },
    {
      "inputs": [],
      "name": "courseName",
      "outputs": [
        {
          "internalType": "string",
          "name": "",
          "type": "string"
        }
      ],
      "stateMutability": "view",
      "type": "function"
    },
    {
      "inputs": [],
      "name": "getData",
      "outputs": [
        {
          "internalType": "address",
          "name": "",
          "type": "address"
        },
        {
          "internalType": "string",
          "name": "",
          "type": "string"
        },
        {
          "internalType": "string",
          "name": "",
          "type": "string"
        },
        {
          "internalType": "uint256",
          "name": "",
          "type": "uint256"
        }
      ],
      "stateMutability": "view",
      "type": "function"
    },
    {
      "inputs": [],
      "name": "instructor",
      "outputs": [
        {
          "internalType": "address payable",
          "name": "",
          "type": "address"
        }
      ],
      "stateMutability": "view",
      "type": "function"
    },
    {
      "inputs": [],
      "name": "ipfsLink",
      "outputs": [
        {
          "internalType": "string",
          "name": "",
          "type": "string"
        }
      ],
      "stateMutability": "view",
      "type": "function"
    },
    {
      "inputs": [],
      "name": "price",
      "outputs": [
        {
          "internalType": "uint256",
          "name": "",
          "type": "uint256"
        }
      ],
      "stateMutability": "view",
      "type": "function"
    }
  ],
  "bytecode": "0x60806040523480156200001157600080fd5b506040516200107b3803806200107b8339818101604052810190620000379190620002e8565b8460009081620000489190620005ef565b5083600190816200005a9190620005ef565b5082600460006101000a81548173ffffffffffffffffffffffffffffffffffffffff021916908373ffffffffffffffffffffffffffffffffffffffff16021790555081600281905550806003819055505050505050620006d6565b6000604051905090565b600080fd5b600080fd5b600080fd5b600080fd5b6000601f19601f8301169050919050565b7f4e487b7100000000000000000000000000000000000000000000000000000000600052604160045260246000fd5b6200011e82620000d3565b810181811067ffffffffffffffff8211171562000140576200013f620000e4565b5b80604052505050565b600062000155620000b5565b905062000163828262000113565b919050565b600067ffffffffffffffff821115620001865762000185620000e4565b5b6200019182620000d3565b9050602081019050919050565b60005b83811015620001be578082015181840152602081019050620001a1565b60008484015250505050565b6000620001e1620001db8462000168565b62000149565b9050828152602081018484840111156200020057620001ff620000ce565b5b6200020d8482856200019e565b509392505050565b600082601f8301126200022d576200022c620000c9565b5b81516200023f848260208601620001ca565b91505092915050565b600073ffffffffffffffffffffffffffffffffffffffff82169050919050565b6000620002758262000248565b9050919050565b620002878162000268565b81146200029357600080fd5b50565b600081519050620002a7816200027c565b92915050565b6000819050919050565b620002c281620002ad565b8114620002ce57600080fd5b50565b600081519050620002e281620002b7565b92915050565b600080600080600060a08688031215620003075762000306620000bf565b5b600086015167ffffffffffffffff811115620003285762000327620000c4565b5b620003368882890162000215565b955050602086015167ffffffffffffffff8111156200035a5762000359620000c4565b5b620003688882890162000215565b94505060406200037b8882890162000296565b93505060606200038e88828901620002d1565b9250506080620003a188828901620002d1565b9150509295509295909350565b600081519050919050565b7f4e487b7100000000000000000000000000000000000000000000000000000000600052602260045260246000fd5b600060028204905060018216806200040157607f821691505b602082108103620004175762000416620003b9565b5b50919050565b60008190508160005260206000209050919050565b60006020601f8301049050919050565b600082821b905092915050565b600060088302620004817fffffffffffffffffffffffffffffffffffffffffffffffffffffffffffffffff8262000442565b6200048d868362000442565b95508019841693508086168417925050509392505050565b6000819050919050565b6000620004d0620004ca620004c484620002ad565b620004a5565b620002ad565b9050919050565b6000819050919050565b620004ec83620004af565b62000504620004fb82620004d7565b8484546200044f565b825550505050565b600090565b6200051b6200050c565b62000528818484620004e1565b505050565b5b8181101562000550576200054460008262000511565b6001810190506200052e565b5050565b601f8211156200059f5762000569816200041d565b620005748462000432565b8101602085101562000584578190505b6200059c620005938562000432565b8301826200052d565b50505b505050565b600082821c905092915050565b6000620005c460001984600802620005a4565b1980831691505092915050565b6000620005df8383620005b1565b9150826002028217905092915050565b620005fa82620003ae565b67ffffffffffffffff811115620006165762000615620000e4565b5b620006228254620003e8565b6200062f82828562000554565b600060209050601f83116001811462000667576000841562000652578287015190505b6200065e8582620005d1565b865550620006ce565b601f19841662000677866200041d565b60005b82811015620006a1578489015182556001820191506020850194506020810190506200067a565b86831015620006c15784890151620006bd601f891682620005b1565b8355505b6001600288020188555050505b505050505050565b61099580620006e66000396000f3fe6080604052600436106100705760003560e01c806371ae413d1161004e57806371ae413d146100f957806389d10cc7146101245780639553de4e14610140578063a035b1fe1461016b57610070565b80632b9d8c9a146100755780633bc5de30146100a05780636e0f634b146100ce575b600080fd5b34801561008157600080fd5b5061008a610196565b60405161009791906106a3565b60405180910390f35b3480156100ac57600080fd5b506100b5610224565b6040516100c5949392919061071f565b60405180910390f35b3480156100da57600080fd5b506100e3610359565b6040516100f09190610772565b60405180910390f35b34801561010557600080fd5b5061010e61035f565b60405161011b91906107ae565b60405180910390f35b61013e600480360381019061013991906107fa565b610385565b005b34801561014c57600080fd5b5061015561057f565b60405161016291906106a3565b60405180910390f35b34801561017757600080fd5b5061018061060d565b60405161018d9190610772565b60405180910390f35b600180546101a390610856565b80601f01602080910402602001604051908101604052809291908181526020018280546101cf90610856565b801561021c5780601f106101f15761010080835404028352916020019161021c565b820191906000526020600020905b8154815290600101906020018083116101ff57829003601f168201915b505050505081565b60006060806000306000600160035482805461023f90610856565b80601f016020809104026020016040519081016040528092919081815260200182805461026b90610856565b80156102b85780601f1061028d576101008083540402835291602001916102b8565b820191906000526020600020905b81548152906001019060200180831161029b57829003601f168201915b505050505092508180546102cb90610856565b80601f01602080910402602001604051908101604052809291908181526020018280546102f790610856565b80156103445780601f1061031957610100808354040283529160200191610344565b820191906000526020600020905b81548152906001019060200180831161032757829003601f168201915b50505050509150935093509350935090919293565b60025481565b600460009054906101000a900473ffffffffffffffffffffffffffffffffffffffff1681565b60035434146103c9576040517f08c379a00000000000000000000000000000000000000000000000000000000081526004016103c0906108d3565b60405180910390fd5b600560008273ffffffffffffffffffffffffffffffffffffffff1673ffffffffffffffffffffffffffffffffffffffff16815260200190815260200160002060009054906101000a900460ff1615610456576040517f08c379a000000000000000000000000000000000000000000000000000000000815260040161044d9061093f565b60405180910390fd5b600460009054906101000a900473ffffffffffffffffffffffffffffffffffffffff1673ffffffffffffffffffffffffffffffffffffffff166108fc6003549081150290604051600060405180830381858888f193505050501580156104c0573d6000803e3d6000fd5b506001600560008373ffffffffffffffffffffffffffffffffffffffff1673ffffffffffffffffffffffffffffffffffffffff16815260200190815260200160002060006101000a81548160ff0219169083151502179055506006819080600181540180825580915050600190039060005260206000200160009091909190916101000a81548173ffffffffffffffffffffffffffffffffffffffff021916908373ffffffffffffffffffffffffffffffffffffffff16021790555050565b6000805461058c90610856565b80601f01602080910402602001604051908101604052809291908181526020018280546105b890610856565b80156106055780601f106105da57610100808354040283529160200191610605565b820191906000526020600020905b8154815290600101906020018083116105e857829003601f168201915b505050505081565b60035481565b600081519050919050565b600082825260208201905092915050565b60005b8381101561064d578082015181840152602081019050610632565b60008484015250505050565b6000601f19601f8301169050919050565b600061067582610613565b61067f818561061e565b935061068f81856020860161062f565b61069881610659565b840191505092915050565b600060208201905081810360008301526106bd818461066a565b905092915050565b600073ffffffffffffffffffffffffffffffffffffffff82169050919050565b60006106f0826106c5565b9050919050565b610700816106e5565b82525050565b6000819050919050565b61071981610706565b82525050565b600060808201905061073460008301876106f7565b8181036020830152610746818661066a565b9050818103604083015261075a818561066a565b90506107696060830184610710565b95945050505050565b60006020820190506107876000830184610710565b92915050565b6000610798826106c5565b9050919050565b6107a88161078d565b82525050565b60006020820190506107c3600083018461079f565b92915050565b600080fd5b6107d7816106e5565b81146107e257600080fd5b50565b6000813590506107f4816107ce565b92915050565b6000602082840312156108105761080f6107c9565b5b600061081e848285016107e5565b91505092915050565b7f4e487b7100000000000000000000000000000000000000000000000000000000600052602260045260246000fd5b6000600282049050600182168061086e57607f821691505b60208210810361088157610880610827565b5b50919050565b7f5061792074686520657861637420616d6f756e742e0000000000000000000000600082015250565b60006108bd60158361061e565b91506108c882610887565b602082019050919050565b600060208201905081810360008301526108ec816108b0565b9050919050565b7f436f7572736520416c726561647920426f756768740000000000000000000000600082015250565b600061092960158361061e565b9150610934826108f3565b602082019050919050565b600060208201905081810360008301526109588161091c565b905091905056fea2646970667358221220c4b04634002d47144ca22782f9e9ec0e6366304c25a38abd59a6d8982d805f7764736f6c63430008110033",
  "linkReferences": {},
  "deployedLinkReferences": {}
}