{
  "_format": "hh-sol-artifact-1",
  "contractName": "CourseFactory",
  "sourceName": "contracts/CourseFactory.sol",
  "abi": [
    {
      "inputs": [
        {
          "internalType": "address",
          "name": "_userFactory",
          "type": "address"
        }
      ],
      "stateMutability": "nonpayable",
      "type": "constructor"
    },
    {
      "inputs": [
        {
          "internalType": "address",
          "name": "_courseAddress",
          "type": "address"
        }
      ],
      "name": "buyCourse",
      "outputs": [],
      "stateMutability": "payable",
      "type": "function"
    },
    {
      "inputs": [
        {
          "internalType": "string",
          "name": "_courseName",
          "type": "string"
        },
        {
          "internalType": "string",
          "name": "_ipfsLink",
          "type": "string"
        },
        {
          "internalType": "uint256",
          "name": "_price",
          "type": "uint256"
        }
      ],
      "name": "createCourse",
      "outputs": [],
      "stateMutability": "nonpayable",
      "type": "function"
    },
    {
      "inputs": [],
      "name": "getAllCourses",
      "outputs": [
        {
          "internalType": "address[]",
          "name": "",
          "type": "address[]"
        },
        {
          "internalType": "string[]",
          "name": "",
          "type": "string[]"
        },
        {
          "internalType": "string[]",
          "name": "",
          "type": "string[]"
        },
        {
          "internalType": "uint256[]",
          "name": "",
          "type": "uint256[]"
        }
      ],
      "stateMutability": "view",
      "type": "function"
    },
    {
      "inputs": [],
      "name": "userFactory",
      "outputs": [
        {
          "internalType": "contract IUserFactory",
          "name": "",
          "type": "address"
        }
      ],
      "stateMutability": "view",
      "type": "function"
    }
  ],
  "bytecode": "0x60806040523480156200001157600080fd5b506040516200265b3803806200265b83398181016040528101906200003791906200017f565b6000600181905550806000806101000a81548173ffffffffffffffffffffffffffffffffffffffff021916908373ffffffffffffffffffffffffffffffffffffffff16021790555060008054906101000a900473ffffffffffffffffffffffffffffffffffffffff1673ffffffffffffffffffffffffffffffffffffffff166393c7fde8306040518263ffffffff1660e01b8152600401620000da9190620001c2565b600060405180830381600087803b158015620000f557600080fd5b505af11580156200010a573d6000803e3d6000fd5b5050505050620001df565b600080fd5b600073ffffffffffffffffffffffffffffffffffffffff82169050919050565b600062000147826200011a565b9050919050565b62000159816200013a565b81146200016557600080fd5b50565b60008151905062000179816200014e565b92915050565b60006020828403121562000198576200019762000115565b5b6000620001a88482850162000168565b91505092915050565b620001bc816200013a565b82525050565b6000602082019050620001d96000830184620001b1565b92915050565b61246c80620001ef6000396000f3fe608060405260043610620000445760003560e01c806304e48bd11462000049578063283097ab146200007c57806389d10cc714620000ac578063a4adb24b14620000cc575b600080fd5b3480156200005657600080fd5b5062000061620000fa565b60405162000073949392919062000c53565b60405180910390f35b3480156200008957600080fd5b506200009462000404565b604051620000a3919062000d27565b60405180910390f35b620000ca6004803603810190620000c4919062000d89565b62000428565b005b348015620000d957600080fd5b50620000f86004803603810190620000f2919062000e5a565b6200063c565b005b6060806060806000600380549050905060008167ffffffffffffffff81111562000129576200012862000efe565b5b604051908082528060200260200182016040528015620001585781602001602082028036833780820191505090505b50905060008267ffffffffffffffff8111156200017a576200017962000efe565b5b604051908082528060200260200182016040528015620001af57816020015b6060815260200190600190039081620001995790505b50905060008367ffffffffffffffff811115620001d157620001d062000efe565b5b6040519080825280602002602001820160405280156200020657816020015b6060815260200190600190039081620001f05790505b50905060008467ffffffffffffffff81111562000228576200022762000efe565b5b604051908082528060200260200182016040528015620002575781602001602082028036833780820191505090505b50905060005b85811015620003ec576000600382815481106200027f576200027e62000f2d565b5b9060005260206000200160009054906101000a900473ffffffffffffffffffffffffffffffffffffffff1690508073ffffffffffffffffffffffffffffffffffffffff16633bc5de306040518163ffffffff1660e01b8152600401600060405180830381865afa158015620002f8573d6000803e3d6000fd5b505050506040513d6000823e3d601f19601f8201168201806040525081019062000323919062001098565b89868151811062000339576200033862000f2d565b5b6020026020010189878151811062000356576200035562000f2d565b5b6020026020010189888151811062000373576200037262000f2d565b5b6020026020010189898151811062000390576200038f62000f2d565b5b60200260200101848152508490528490528473ffffffffffffffffffffffffffffffffffffffff1673ffffffffffffffffffffffffffffffffffffffff1681525050505050508080620003e39062001177565b9150506200025d565b50838383839850985098509850505050505090919293565b60008054906101000a900473ffffffffffffffffffffffffffffffffffffffff1681565b600073ffffffffffffffffffffffffffffffffffffffff1660008054906101000a900473ffffffffffffffffffffffffffffffffffffffff1673ffffffffffffffffffffffffffffffffffffffff16634d6849d2336040518263ffffffff1660e01b81526004016200049b9190620011d5565b602060405180830381865afa158015620004b9573d6000803e3d6000fd5b505050506040513d601f19601f82011682018060405250810190620004df9190620011f2565b73ffffffffffffffffffffffffffffffffffffffff160362000538576040517f08c379a00000000000000000000000000000000000000000000000000000000081526004016200052f9062001285565b60405180910390fd5b8073ffffffffffffffffffffffffffffffffffffffff166389d10cc734336040518363ffffffff1660e01b8152600401620005749190620011d5565b6000604051808303818588803b1580156200058e57600080fd5b505af1158015620005a3573d6000803e3d6000fd5b505050505060008054906101000a900473ffffffffffffffffffffffffffffffffffffffff1673ffffffffffffffffffffffffffffffffffffffff16631419db5933836040518363ffffffff1660e01b815260040162000605929190620012a7565b600060405180830381600087803b1580156200062057600080fd5b505af115801562000635573d6000803e3d6000fd5b5050505050565b600073ffffffffffffffffffffffffffffffffffffffff1660008054906101000a900473ffffffffffffffffffffffffffffffffffffffff1673ffffffffffffffffffffffffffffffffffffffff16634d6849d2336040518263ffffffff1660e01b8152600401620006af9190620011d5565b602060405180830381865afa158015620006cd573d6000803e3d6000fd5b505050506040513d601f19601f82011682018060405250810190620006f39190620011f2565b73ffffffffffffffffffffffffffffffffffffffff16036200074c576040517f08c379a0000000000000000000000000000000000000000000000000000000008152600401620007439062001285565b60405180910390fd5b6000858585853360016000815480929190620007689062001177565b91905055876040516200077b9062000901565b6200078d97969594939291906200134c565b604051809103906000f080158015620007aa573d6000803e3d6000fd5b5090506001600260008373ffffffffffffffffffffffffffffffffffffffff1673ffffffffffffffffffffffffffffffffffffffff16815260200190815260200160002060006101000a81548160ff0219169083151502179055506003819080600181540180825580915050600190039060005260206000200160009091909190916101000a81548173ffffffffffffffffffffffffffffffffffffffff021916908373ffffffffffffffffffffffffffffffffffffffff16021790555060008054906101000a900473ffffffffffffffffffffffffffffffffffffffff1673ffffffffffffffffffffffffffffffffffffffff1663a9707b0f33836040518363ffffffff1660e01b8152600401620008c5929190620012a7565b600060405180830381600087803b158015620008e057600080fd5b505af1158015620008f5573d6000803e3d6000fd5b50505050505050505050565b61107b80620013bc83390190565b600081519050919050565b600082825260208201905092915050565b6000819050602082019050919050565b600073ffffffffffffffffffffffffffffffffffffffff82169050919050565b600062000968826200093b565b9050919050565b6200097a816200095b565b82525050565b60006200098e83836200096f565b60208301905092915050565b6000602082019050919050565b6000620009b4826200090f565b620009c081856200091a565b9350620009cd836200092b565b8060005b8381101562000a04578151620009e8888262000980565b9750620009f5836200099a565b925050600181019050620009d1565b5085935050505092915050565b600081519050919050565b600082825260208201905092915050565b6000819050602082019050919050565b600081519050919050565b600082825260208201905092915050565b60005b8381101562000a7957808201518184015260208101905062000a5c565b60008484015250505050565b6000601f19601f8301169050919050565b600062000aa38262000a3d565b62000aaf818562000a48565b935062000ac181856020860162000a59565b62000acc8162000a85565b840191505092915050565b600062000ae5838362000a96565b905092915050565b6000602082019050919050565b600062000b078262000a11565b62000b13818562000a1c565b93508360208202850162000b278562000a2d565b8060005b8581101562000b69578484038952815162000b47858262000ad7565b945062000b548362000aed565b925060208a0199505060018101905062000b2b565b50829750879550505050505092915050565b600081519050919050565b600082825260208201905092915050565b6000819050602082019050919050565b6000819050919050565b62000bbc8162000ba7565b82525050565b600062000bd0838362000bb1565b60208301905092915050565b6000602082019050919050565b600062000bf68262000b7b565b62000c02818562000b86565b935062000c0f8362000b97565b8060005b8381101562000c4657815162000c2a888262000bc2565b975062000c378362000bdc565b92505060018101905062000c13565b5085935050505092915050565b6000608082019050818103600083015262000c6f8187620009a7565b9050818103602083015262000c85818662000afa565b9050818103604083015262000c9b818562000afa565b9050818103606083015262000cb1818462000be9565b905095945050505050565b6000819050919050565b600062000ce762000ce162000cdb846200093b565b62000cbc565b6200093b565b9050919050565b600062000cfb8262000cc6565b9050919050565b600062000d0f8262000cee565b9050919050565b62000d218162000d02565b82525050565b600060208201905062000d3e600083018462000d16565b92915050565b6000604051905090565b600080fd5b600080fd5b62000d63816200095b565b811462000d6f57600080fd5b50565b60008135905062000d838162000d58565b92915050565b60006020828403121562000da25762000da162000d4e565b5b600062000db28482850162000d72565b91505092915050565b600080fd5b600080fd5b600080fd5b60008083601f84011262000de35762000de262000dbb565b5b8235905067ffffffffffffffff81111562000e035762000e0262000dc0565b5b60208301915083600182028301111562000e225762000e2162000dc5565b5b9250929050565b62000e348162000ba7565b811462000e4057600080fd5b50565b60008135905062000e548162000e29565b92915050565b60008060008060006060868803121562000e795762000e7862000d4e565b5b600086013567ffffffffffffffff81111562000e9a5762000e9962000d53565b5b62000ea88882890162000dca565b9550955050602086013567ffffffffffffffff81111562000ece5762000ecd62000d53565b5b62000edc8882890162000dca565b9350935050604062000ef18882890162000e43565b9150509295509295909350565b7f4e487b7100000000000000000000000000000000000000000000000000000000600052604160045260246000fd5b7f4e487b7100000000000000000000000000000000000000000000000000000000600052603260045260246000fd5b60008151905062000f6d8162000d58565b92915050565b600080fd5b62000f838262000a85565b810181811067ffffffffffffffff8211171562000fa55762000fa462000efe565b5b80604052505050565b600062000fba62000d44565b905062000fc8828262000f78565b919050565b600067ffffffffffffffff82111562000feb5762000fea62000efe565b5b62000ff68262000a85565b9050602081019050919050565b60006200101a620010148462000fcd565b62000fae565b90508281526020810184848401111562001039576200103862000f73565b5b6200104684828562000a59565b509392505050565b600082601f83011262001066576200106562000dbb565b5b81516200107884826020860162001003565b91505092915050565b600081519050620010928162000e29565b92915050565b60008060008060808587031215620010b557620010b462000d4e565b5b6000620010c58782880162000f5c565b945050602085015167ffffffffffffffff811115620010e957620010e862000d53565b5b620010f7878288016200104e565b935050604085015167ffffffffffffffff8111156200111b576200111a62000d53565b5b62001129878288016200104e565b92505060606200113c8782880162001081565b91505092959194509250565b7f4e487b7100000000000000000000000000000000000000000000000000000000600052601160045260246000fd5b6000620011848262000ba7565b91507fffffffffffffffffffffffffffffffffffffffffffffffffffffffffffffffff8203620011b957620011b862001148565b5b600182019050919050565b620011cf816200095b565b82525050565b6000602082019050620011ec6000830184620011c4565b92915050565b6000602082840312156200120b576200120a62000d4e565b5b60006200121b8482850162000f5c565b91505092915050565b600082825260208201905092915050565b7f55736572206e6f74207265676973746572656400000000000000000000000000600082015250565b60006200126d60138362001224565b91506200127a8262001235565b602082019050919050565b60006020820190508181036000830152620012a0816200125e565b9050919050565b6000604082019050620012be6000830185620011c4565b620012cd6020830184620011c4565b9392505050565b82818337600083830152505050565b6000620012f1838562001224565b935062001300838584620012d4565b6200130b8362000a85565b840190509392505050565b600062001323826200093b565b9050919050565b620013358162001316565b82525050565b620013468162000ba7565b82525050565b600060a08201905081810360008301526200136981898b620012e3565b9050818103602083015262001380818789620012e3565b90506200139160408301866200132a565b620013a060608301856200133b565b620013af60808301846200133b565b9897505050505050505056fe60806040523480156200001157600080fd5b506040516200107b3803806200107b8339818101604052810190620000379190620002e8565b8460009081620000489190620005ef565b5083600190816200005a9190620005ef565b5082600460006101000a81548173ffffffffffffffffffffffffffffffffffffffff021916908373ffffffffffffffffffffffffffffffffffffffff16021790555081600281905550806003819055505050505050620006d6565b6000604051905090565b600080fd5b600080fd5b600080fd5b600080fd5b6000601f19601f8301169050919050565b7f4e487b7100000000000000000000000000000000000000000000000000000000600052604160045260246000fd5b6200011e82620000d3565b810181811067ffffffffffffffff8211171562000140576200013f620000e4565b5b80604052505050565b600062000155620000b5565b905062000163828262000113565b919050565b600067ffffffffffffffff821115620001865762000185620000e4565b5b6200019182620000d3565b9050602081019050919050565b60005b83811015620001be578082015181840152602081019050620001a1565b60008484015250505050565b6000620001e1620001db8462000168565b62000149565b9050828152602081018484840111156200020057620001ff620000ce565b5b6200020d8482856200019e565b509392505050565b600082601f8301126200022d576200022c620000c9565b5b81516200023f848260208601620001ca565b91505092915050565b600073ffffffffffffffffffffffffffffffffffffffff82169050919050565b6000620002758262000248565b9050919050565b620002878162000268565b81146200029357600080fd5b50565b600081519050620002a7816200027c565b92915050565b6000819050919050565b620002c281620002ad565b8114620002ce57600080fd5b50565b600081519050620002e281620002b7565b92915050565b600080600080600060a08688031215620003075762000306620000bf565b5b600086015167ffffffffffffffff811115620003285762000327620000c4565b5b620003368882890162000215565b955050602086015167ffffffffffffffff8111156200035a5762000359620000c4565b5b620003688882890162000215565b94505060406200037b8882890162000296565b93505060606200038e88828901620002d1565b9250506080620003a188828901620002d1565b9150509295509295909350565b600081519050919050565b7f4e487b7100000000000000000000000000000000000000000000000000000000600052602260045260246000fd5b600060028204905060018216806200040157607f821691505b602082108103620004175762000416620003b9565b5b50919050565b60008190508160005260206000209050919050565b60006020601f8301049050919050565b600082821b905092915050565b600060088302620004817fffffffffffffffffffffffffffffffffffffffffffffffffffffffffffffffff8262000442565b6200048d868362000442565b95508019841693508086168417925050509392505050565b6000819050919050565b6000620004d0620004ca620004c484620002ad565b620004a5565b620002ad565b9050919050565b6000819050919050565b620004ec83620004af565b62000504620004fb82620004d7565b8484546200044f565b825550505050565b600090565b6200051b6200050c565b62000528818484620004e1565b505050565b5b8181101562000550576200054460008262000511565b6001810190506200052e565b5050565b601f8211156200059f5762000569816200041d565b620005748462000432565b8101602085101562000584578190505b6200059c620005938562000432565b8301826200052d565b50505b505050565b600082821c905092915050565b6000620005c460001984600802620005a4565b1980831691505092915050565b6000620005df8383620005b1565b9150826002028217905092915050565b620005fa82620003ae565b67ffffffffffffffff811115620006165762000615620000e4565b5b620006228254620003e8565b6200062f82828562000554565b600060209050601f83116001811462000667576000841562000652578287015190505b6200065e8582620005d1565b865550620006ce565b601f19841662000677866200041d565b60005b82811015620006a1578489015182556001820191506020850194506020810190506200067a565b86831015620006c15784890151620006bd601f891682620005b1565b8355505b6001600288020188555050505b505050505050565b61099580620006e66000396000f3fe6080604052600436106100705760003560e01c806371ae413d1161004e57806371ae413d146100f957806389d10cc7146101245780639553de4e14610140578063a035b1fe1461016b57610070565b80632b9d8c9a146100755780633bc5de30146100a05780636e0f634b146100ce575b600080fd5b34801561008157600080fd5b5061008a610196565b60405161009791906106a3565b60405180910390f35b3480156100ac57600080fd5b506100b5610224565b6040516100c5949392919061071f565b60405180910390f35b3480156100da57600080fd5b506100e3610359565b6040516100f09190610772565b60405180910390f35b34801561010557600080fd5b5061010e61035f565b60405161011b91906107ae565b60405180910390f35b61013e600480360381019061013991906107fa565b610385565b005b34801561014c57600080fd5b5061015561057f565b60405161016291906106a3565b60405180910390f35b34801561017757600080fd5b5061018061060d565b60405161018d9190610772565b60405180910390f35b600180546101a390610856565b80601f01602080910402602001604051908101604052809291908181526020018280546101cf90610856565b801561021c5780601f106101f15761010080835404028352916020019161021c565b820191906000526020600020905b8154815290600101906020018083116101ff57829003601f168201915b505050505081565b60006060806000306000600160035482805461023f90610856565b80601f016020809104026020016040519081016040528092919081815260200182805461026b90610856565b80156102b85780601f1061028d576101008083540402835291602001916102b8565b820191906000526020600020905b81548152906001019060200180831161029b57829003601f168201915b505050505092508180546102cb90610856565b80601f01602080910402602001604051908101604052809291908181526020018280546102f790610856565b80156103445780601f1061031957610100808354040283529160200191610344565b820191906000526020600020905b81548152906001019060200180831161032757829003601f168201915b50505050509150935093509350935090919293565b60025481565b600460009054906101000a900473ffffffffffffffffffffffffffffffffffffffff1681565b60035434146103c9576040517f08c379a00000000000000000000000000000000000000000000000000000000081526004016103c0906108d3565b60405180910390fd5b600560008273ffffffffffffffffffffffffffffffffffffffff1673ffffffffffffffffffffffffffffffffffffffff16815260200190815260200160002060009054906101000a900460ff1615610456576040517f08c379a000000000000000000000000000000000000000000000000000000000815260040161044d9061093f565b60405180910390fd5b600460009054906101000a900473ffffffffffffffffffffffffffffffffffffffff1673ffffffffffffffffffffffffffffffffffffffff166108fc6003549081150290604051600060405180830381858888f193505050501580156104c0573d6000803e3d6000fd5b506001600560008373ffffffffffffffffffffffffffffffffffffffff1673ffffffffffffffffffffffffffffffffffffffff16815260200190815260200160002060006101000a81548160ff0219169083151502179055506006819080600181540180825580915050600190039060005260206000200160009091909190916101000a81548173ffffffffffffffffffffffffffffffffffffffff021916908373ffffffffffffffffffffffffffffffffffffffff16021790555050565b6000805461058c90610856565b80601f01602080910402602001604051908101604052809291908181526020018280546105b890610856565b80156106055780601f106105da57610100808354040283529160200191610605565b820191906000526020600020905b8154815290600101906020018083116105e857829003601f168201915b505050505081565b60035481565b600081519050919050565b600082825260208201905092915050565b60005b8381101561064d578082015181840152602081019050610632565b60008484015250505050565b6000601f19601f8301169050919050565b600061067582610613565b61067f818561061e565b935061068f81856020860161062f565b61069881610659565b840191505092915050565b600060208201905081810360008301526106bd818461066a565b905092915050565b600073ffffffffffffffffffffffffffffffffffffffff82169050919050565b60006106f0826106c5565b9050919050565b610700816106e5565b82525050565b6000819050919050565b61071981610706565b82525050565b600060808201905061073460008301876106f7565b8181036020830152610746818661066a565b9050818103604083015261075a818561066a565b90506107696060830184610710565b95945050505050565b60006020820190506107876000830184610710565b92915050565b6000610798826106c5565b9050919050565b6107a88161078d565b82525050565b60006020820190506107c3600083018461079f565b92915050565b600080fd5b6107d7816106e5565b81146107e257600080fd5b50565b6000813590506107f4816107ce565b92915050565b6000602082840312156108105761080f6107c9565b5b600061081e848285016107e5565b91505092915050565b7f4e487b7100000000000000000000000000000000000000000000000000000000600052602260045260246000fd5b6000600282049050600182168061086e57607f821691505b60208210810361088157610880610827565b5b50919050565b7f5061792074686520657861637420616d6f756e742e0000000000000000000000600082015250565b60006108bd60158361061e565b91506108c882610887565b602082019050919050565b600060208201905081810360008301526108ec816108b0565b9050919050565b7f436f7572736520416c726561647920426f756768740000000000000000000000600082015250565b600061092960158361061e565b9150610934826108f3565b602082019050919050565b600060208201905081810360008301526109588161091c565b905091905056fea2646970667358221220c4b04634002d47144ca22782f9e9ec0e6366304c25a38abd59a6d8982d805f7764736f6c63430008110033a2646970667358221220be284e2ca9f8b18a3d25839d715f9b9f13a8bdc1669ab89bd9d216c1deb5482164736f6c63430008110033",
  "linkReferences": {},
  "deployedLinkReferences": {}
}