{
  "_format": "hh-sol-artifact-1",
  "contractName": "CourseMarketplace",
  "sourceName": "contracts/CourseMarketplace.sol",
  "abi": [
    {
      "inputs": [],
      "stateMutability": "nonpayable",
      "type": "constructor"
    },
    {
      "inputs": [
        {
          "internalType": "address",
          "name": "owner",
          "type": "address"
        }
      ],
      "name": "OwnableInvalidOwner",
      "type": "error"
    },
    {
      "inputs": [
        {
          "internalType": "address",
          "name": "account",
          "type": "address"
        }
      ],
      "name": "OwnableUnauthorizedAccount",
      "type": "error"
    },
    {
      "anonymous": false,
      "inputs": [
        {
          "indexed": true,
          "internalType": "uint256",
          "name": "courseId",
          "type": "uint256"
        },
        {
          "indexed": true,
          "internalType": "address",
          "name": "instructor",
          "type": "address"
        }
      ],
      "name": "CourseCreated",
      "type": "event"
    },
    {
      "anonymous": false,
      "inputs": [
        {
          "indexed": true,
          "internalType": "uint256",
          "name": "courseId",
          "type": "uint256"
        },
        {
          "indexed": true,
          "internalType": "address",
          "name": "buyer",
          "type": "address"
        }
      ],
      "name": "CoursePurchased",
      "type": "event"
    },
    {
      "anonymous": false,
      "inputs": [
        {
          "indexed": true,
          "internalType": "address",
          "name": "previousOwner",
          "type": "address"
        },
        {
          "indexed": true,
          "internalType": "address",
          "name": "newOwner",
          "type": "address"
        }
      ],
      "name": "OwnershipTransferred",
      "type": "event"
    },
    {
      "inputs": [],
      "name": "courseNFT",
      "outputs": [
        {
          "internalType": "contract CourseNFT",
          "name": "",
          "type": "address"
        }
      ],
      "stateMutability": "view",
      "type": "function"
    },
    {
      "inputs": [
        {
          "internalType": "string",
          "name": "_courseName",
          "type": "string"
        },
        {
          "internalType": "string",
          "name": "_ipfsLink",
          "type": "string"
        },
        {
          "internalType": "uint256",
          "name": "_price",
          "type": "uint256"
        }
      ],
      "name": "createCourse",
      "outputs": [
        {
          "internalType": "uint256",
          "name": "",
          "type": "uint256"
        }
      ],
      "stateMutability": "nonpayable",
      "type": "function"
    },
    {
      "inputs": [],
      "name": "getAllCourses",
      "outputs": [
        {
          "internalType": "uint256[]",
          "name": "courseIds",
          "type": "uint256[]"
        },
        {
          "internalType": "string[]",
          "name": "names",
          "type": "string[]"
        },
        {
          "internalType": "uint256[]",
          "name": "prices",
          "type": "uint256[]"
        },
        {
          "internalType": "address[]",
          "name": "instructors",
          "type": "address[]"
        }
      ],
      "stateMutability": "view",
      "type": "function"
    },
    {
      "inputs": [],
      "name": "getCreatedCourses",
      "outputs": [
        {
          "internalType": "uint256[]",
          "name": "courseIds",
          "type": "uint256[]"
        },
        {
          "internalType": "string[]",
          "name": "names",
          "type": "string[]"
        },
        {
          "internalType": "uint256[]",
          "name": "prices",
          "type": "uint256[]"
        },
        {
          "internalType": "address[]",
          "name": "instructors",
          "type": "address[]"
        },
        {
          "internalType": "string[]",
          "name": "ipfsLinks",
          "type": "string[]"
        }
      ],
      "stateMutability": "view",
      "type": "function"
    },
    {
      "inputs": [],
      "name": "getPurchasedCourses",
      "outputs": [
        {
          "internalType": "uint256[]",
          "name": "courseIds",
          "type": "uint256[]"
        },
        {
          "internalType": "string[]",
          "name": "names",
          "type": "string[]"
        },
        {
          "internalType": "uint256[]",
          "name": "prices",
          "type": "uint256[]"
        },
        {
          "internalType": "address[]",
          "name": "instructors",
          "type": "address[]"
        },
        {
          "internalType": "string[]",
          "name": "ipfsLinks",
          "type": "string[]"
        }
      ],
      "stateMutability": "view",
      "type": "function"
    },
    {
      "inputs": [],
      "name": "loginUser",
      "outputs": [
        {
          "internalType": "address",
          "name": "",
          "type": "address"
        },
        {
          "internalType": "string",
          "name": "",
          "type": "string"
        }
      ],
      "stateMutability": "view",
      "type": "function"
    },
    {
      "inputs": [],
      "name": "owner",
      "outputs": [
        {
          "internalType": "address",
          "name": "",
          "type": "address"
        }
      ],
      "stateMutability": "view",
      "type": "function"
    },
    {
      "inputs": [
        {
          "internalType": "uint256",
          "name": "_courseId",
          "type": "uint256"
        }
      ],
      "name": "purchaseCourse",
      "outputs": [],
      "stateMutability": "payable",
      "type": "function"
    },
    {
      "inputs": [
        {
          "internalType": "string",
          "name": "_username",
          "type": "string"
        }
      ],
      "name": "registerUser",
      "outputs": [],
      "stateMutability": "nonpayable",
      "type": "function"
    },
    {
      "inputs": [],
      "name": "renounceOwnership",
      "outputs": [],
      "stateMutability": "nonpayable",
      "type": "function"
    },
    {
      "inputs": [
        {
          "internalType": "address",
          "name": "newOwner",
          "type": "address"
        }
      ],
      "name": "transferOwnership",
      "outputs": [],
      "stateMutability": "nonpayable",
      "type": "function"
    },
    {
      "inputs": [],
      "name": "userRegistry",
      "outputs": [
        {
          "internalType": "contract UserRegistry",
          "name": "",
          "type": "address"
        }
      ],
      "stateMutability": "view",
      "type": "function"
    }
  ],
  "bytecode": "0x60806040523480156200001157600080fd5b5033600073ffffffffffffffffffffffffffffffffffffffff168173ffffffffffffffffffffffffffffffffffffffff1603620000885760006040517f1e4fbdf70000000000000000000000000000000000000000000000000000000081526004016200007f919062000350565b60405180910390fd5b62000099816200022b60201b60201c565b50604051620000a890620002ef565b604051809103906000f080158015620000c5573d6000803e3d6000fd5b50600160006101000a81548173ffffffffffffffffffffffffffffffffffffffff021916908373ffffffffffffffffffffffffffffffffffffffff1602179055506040516200011490620002fd565b604051809103906000f08015801562000131573d6000803e3d6000fd5b50600260006101000a81548173ffffffffffffffffffffffffffffffffffffffff021916908373ffffffffffffffffffffffffffffffffffffffff160217905550600260009054906101000a900473ffffffffffffffffffffffffffffffffffffffff1673ffffffffffffffffffffffffffffffffffffffff166394e05dd7600160009054906101000a900473ffffffffffffffffffffffffffffffffffffffff166040518263ffffffff1660e01b8152600401620001f1919062000350565b600060405180830381600087803b1580156200020c57600080fd5b505af115801562000221573d6000803e3d6000fd5b505050506200036d565b60008060009054906101000a900473ffffffffffffffffffffffffffffffffffffffff169050816000806101000a81548173ffffffffffffffffffffffffffffffffffffffff021916908373ffffffffffffffffffffffffffffffffffffffff1602179055508173ffffffffffffffffffffffffffffffffffffffff168173ffffffffffffffffffffffffffffffffffffffff167f8be0079c531659141344cd1fd0a4f28419497f9722a3daafe3b4186f6b6457e060405160405180910390a35050565b613cf780620024c683390190565b61213780620061bd83390190565b600073ffffffffffffffffffffffffffffffffffffffff82169050919050565b600062000338826200030b565b9050919050565b6200034a816200032b565b82525050565b60006020820190506200036760008301846200033f565b92915050565b612149806200037d6000396000f3fe6080604052600436106100a75760003560e01c80638da5cb5b116100645780638da5cb5b146101a3578063a19ed686146101ce578063a4adb24b146101fa578063a998ffb314610237578063cd13193814610262578063f2fde38b1461027e576100a7565b806304e48bd1146100ac5780631a11cb23146100da57806349d3c8e9146101095780635c7460d614610138578063704f1b9414610163578063715018a61461018c575b600080fd5b3480156100b857600080fd5b506100c16102a7565b6040516100d194939291906116c7565b60405180910390f35b3480156100e657600080fd5b506100ef6105a3565b604051610100959493929190611728565b60405180910390f35b34801561011557600080fd5b5061011e610918565b60405161012f959493929190611728565b60405180910390f35b34801561014457600080fd5b5061014d610c8d565b60405161015a91906117fd565b60405180910390f35b34801561016f57600080fd5b5061018a60048036038101906101859190611891565b610cb3565b005b34801561019857600080fd5b506101a1610d48565b005b3480156101af57600080fd5b506101b8610d5c565b6040516101c591906118ed565b60405180910390f35b3480156101da57600080fd5b506101e3610d85565b6040516101f1929190611952565b60405180910390f35b34801561020657600080fd5b50610221600480360381019061021c91906119ae565b610e32565b60405161022e9190611a52565b60405180910390f35b34801561024357600080fd5b5061024c61100c565b6040516102599190611a8e565b60405180910390f35b61027c60048036038101906102779190611aa9565b611032565b005b34801561028a57600080fd5b506102a560048036038101906102a09190611b02565b6111e4565b005b6060806060806000600160009054906101000a900473ffffffffffffffffffffffffffffffffffffffff1673ffffffffffffffffffffffffffffffffffffffff1663fbd8e3976040518163ffffffff1660e01b8152600401600060405180830381865afa15801561031c573d6000803e3d6000fd5b505050506040513d6000823e3d601f19601f820116820180604052508101906103459190611c82565b90506000815190508067ffffffffffffffff81111561036757610366611b2f565b5b60405190808252806020026020018201604052801561039a57816020015b60608152602001906001900390816103855790505b5094508067ffffffffffffffff8111156103b7576103b6611b2f565b5b6040519080825280602002602001820160405280156103e55781602001602082028036833780820191505090505b5093508067ffffffffffffffff81111561040257610401611b2f565b5b6040519080825280602002602001820160405280156104305781602001602082028036833780820191505090505b50925060005b8181101561059757600160009054906101000a900473ffffffffffffffffffffffffffffffffffffffff1673ffffffffffffffffffffffffffffffffffffffff1663610b31a684838151811061048f5761048e611ccb565b5b60200260200101516040518263ffffffff1660e01b81526004016104b39190611a52565b600060405180830381865afa1580156104d0573d6000803e3d6000fd5b505050506040513d6000823e3d601f19601f820116820180604052508101906104f99190611db5565b90915088848151811061050f5761050e611ccb565b5b6020026020010188858151811061052957610528611ccb565b5b6020026020010188868151811061054357610542611ccb565b5b602002602001018373ffffffffffffffffffffffffffffffffffffffff1673ffffffffffffffffffffffffffffffffffffffff1681525083815250839052505050808061058f90611e83565b915050610436565b50819550505090919293565b60608060608060606000600260009054906101000a900473ffffffffffffffffffffffffffffffffffffffff1673ffffffffffffffffffffffffffffffffffffffff1663a64e398f336040518263ffffffff1660e01b815260040161060891906118ed565b600060405180830381865afa158015610625573d6000803e3d6000fd5b505050506040513d6000823e3d601f19601f8201168201806040525081019061064e9190611c82565b90506000815190508067ffffffffffffffff8111156106705761066f611b2f565b5b6040519080825280602002602001820160405280156106a357816020015b606081526020019060019003908161068e5790505b5095508067ffffffffffffffff8111156106c0576106bf611b2f565b5b6040519080825280602002602001820160405280156106ee5781602001602082028036833780820191505090505b5094508067ffffffffffffffff81111561070b5761070a611b2f565b5b6040519080825280602002602001820160405280156107395781602001602082028036833780820191505090505b5093508067ffffffffffffffff81111561075657610755611b2f565b5b60405190808252806020026020018201604052801561078957816020015b60608152602001906001900390816107745790505b50925060005b8181101561090b57600160009054906101000a900473ffffffffffffffffffffffffffffffffffffffff1673ffffffffffffffffffffffffffffffffffffffff1663610b31a68483815181106107e8576107e7611ccb565b5b60200260200101516040518263ffffffff1660e01b815260040161080c9190611a52565b600060405180830381865afa158015610829573d6000803e3d6000fd5b505050506040513d6000823e3d601f19601f820116820180604052508101906108529190611db5565b8a858151811061086557610864611ccb565b5b6020026020010188868151811061087f5761087e611ccb565b5b602002602001018b878151811061089957610898611ccb565b5b602002602001018b88815181106108b3576108b2611ccb565b5b602002602001018473ffffffffffffffffffffffffffffffffffffffff1673ffffffffffffffffffffffffffffffffffffffff168152508481525084905284905250505050808061090390611e83565b91505061078f565b5081965050509091929394565b60608060608060606000600260009054906101000a900473ffffffffffffffffffffffffffffffffffffffff1673ffffffffffffffffffffffffffffffffffffffff16630a5fa7f2336040518263ffffffff1660e01b815260040161097d91906118ed565b600060405180830381865afa15801561099a573d6000803e3d6000fd5b505050506040513d6000823e3d601f19601f820116820180604052508101906109c39190611c82565b90506000815190508067ffffffffffffffff8111156109e5576109e4611b2f565b5b604051908082528060200260200182016040528015610a1857816020015b6060815260200190600190039081610a035790505b5095508067ffffffffffffffff811115610a3557610a34611b2f565b5b604051908082528060200260200182016040528015610a635781602001602082028036833780820191505090505b5094508067ffffffffffffffff811115610a8057610a7f611b2f565b5b604051908082528060200260200182016040528015610aae5781602001602082028036833780820191505090505b5093508067ffffffffffffffff811115610acb57610aca611b2f565b5b604051908082528060200260200182016040528015610afe57816020015b6060815260200190600190039081610ae95790505b50925060005b81811015610c8057600160009054906101000a900473ffffffffffffffffffffffffffffffffffffffff1673ffffffffffffffffffffffffffffffffffffffff1663610b31a6848381518110610b5d57610b5c611ccb565b5b60200260200101516040518263ffffffff1660e01b8152600401610b819190611a52565b600060405180830381865afa158015610b9e573d6000803e3d6000fd5b505050506040513d6000823e3d601f19601f82011682018060405250810190610bc79190611db5565b8a8581518110610bda57610bd9611ccb565b5b60200260200101888681518110610bf457610bf3611ccb565b5b602002602001018b8781518110610c0e57610c0d611ccb565b5b602002602001018b8881518110610c2857610c27611ccb565b5b602002602001018473ffffffffffffffffffffffffffffffffffffffff1673ffffffffffffffffffffffffffffffffffffffff1681525084815250849052849052505050508080610c7890611e83565b915050610b04565b5081965050509091929394565b600260009054906101000a900473ffffffffffffffffffffffffffffffffffffffff1681565b600260009054906101000a900473ffffffffffffffffffffffffffffffffffffffff1673ffffffffffffffffffffffffffffffffffffffff166332434a2e3384846040518463ffffffff1660e01b8152600401610d1293929190611f07565b600060405180830381600087803b158015610d2c57600080fd5b505af1158015610d40573d6000803e3d6000fd5b505050505050565b610d5061126a565b610d5a60006112f1565b565b60008060009054906101000a900473ffffffffffffffffffffffffffffffffffffffff16905090565b60006060600260009054906101000a900473ffffffffffffffffffffffffffffffffffffffff1673ffffffffffffffffffffffffffffffffffffffff1663ffc9896b336040518263ffffffff1660e01b8152600401610de491906118ed565b600060405180830381865afa158015610e01573d6000803e3d6000fd5b505050506040513d6000823e3d601f19601f82011682018060405250810190610e2a9190611f39565b915091509091565b6000600260009054906101000a900473ffffffffffffffffffffffffffffffffffffffff1673ffffffffffffffffffffffffffffffffffffffff1663c3c5a547336040518263ffffffff1660e01b8152600401610e8f91906118ed565b602060405180830381865afa158015610eac573d6000803e3d6000fd5b505050506040513d601f19601f82011682018060405250810190610ed09190611fcd565b610f0f576040517f08c379a0000000000000000000000000000000000000000000000000000000008152600401610f0690612046565b60405180910390fd5b6000600160009054906101000a900473ffffffffffffffffffffffffffffffffffffffff1673ffffffffffffffffffffffffffffffffffffffff1663a1b66b6c8888888888336040518763ffffffff1660e01b8152600401610f7696959493929190612066565b6020604051808303816000875af1158015610f95573d6000803e3d6000fd5b505050506040513d601f19601f82011682018060405250810190610fb991906120bd565b90503373ffffffffffffffffffffffffffffffffffffffff16817fa68f79aa37f9cdc81c2757cfb3e11e9d7d89ca0a5410fbcf1b61125bc17fb1b760405160405180910390a38091505095945050505050565b600160009054906101000a900473ffffffffffffffffffffffffffffffffffffffff1681565b600260009054906101000a900473ffffffffffffffffffffffffffffffffffffffff1673ffffffffffffffffffffffffffffffffffffffff1663c3c5a547336040518263ffffffff1660e01b815260040161108d91906118ed565b602060405180830381865afa1580156110aa573d6000803e3d6000fd5b505050506040513d601f19601f820116820180604052508101906110ce9190611fcd565b61110d576040517f08c379a000000000000000000000000000000000000000000000000000000000815260040161110490612046565b60405180910390fd5b600160009054906101000a900473ffffffffffffffffffffffffffffffffffffffff1673ffffffffffffffffffffffffffffffffffffffff1663985bf63a3483336040518463ffffffff1660e01b815260040161116b9291906120ea565b6000604051808303818588803b15801561118457600080fd5b505af1158015611198573d6000803e3d6000fd5b50505050503373ffffffffffffffffffffffffffffffffffffffff16817f8120f2f8a682e2fd88bad8beb5760b02b7fec7a59d2d9bebb84b3e277bc152d260405160405180910390a350565b6111ec61126a565b600073ffffffffffffffffffffffffffffffffffffffff168173ffffffffffffffffffffffffffffffffffffffff160361125e5760006040517f1e4fbdf700000000000000000000000000000000000000000000000000000000815260040161125591906118ed565b60405180910390fd5b611267816112f1565b50565b6112726113b5565b73ffffffffffffffffffffffffffffffffffffffff16611290610d5c565b73ffffffffffffffffffffffffffffffffffffffff16146112ef576112b36113b5565b6040517f118cdaa70000000000000000000000000000000000000000000000000000000081526004016112e691906118ed565b60405180910390fd5b565b60008060009054906101000a900473ffffffffffffffffffffffffffffffffffffffff169050816000806101000a81548173ffffffffffffffffffffffffffffffffffffffff021916908373ffffffffffffffffffffffffffffffffffffffff1602179055508173ffffffffffffffffffffffffffffffffffffffff168173ffffffffffffffffffffffffffffffffffffffff167f8be0079c531659141344cd1fd0a4f28419497f9722a3daafe3b4186f6b6457e060405160405180910390a35050565b600033905090565b600081519050919050565b600082825260208201905092915050565b6000819050602082019050919050565b6000819050919050565b6113fc816113e9565b82525050565b600061140e83836113f3565b60208301905092915050565b6000602082019050919050565b6000611432826113bd565b61143c81856113c8565b9350611447836113d9565b8060005b8381101561147857815161145f8882611402565b975061146a8361141a565b92505060018101905061144b565b5085935050505092915050565b600081519050919050565b600082825260208201905092915050565b6000819050602082019050919050565b600081519050919050565b600082825260208201905092915050565b60005b838110156114eb5780820151818401526020810190506114d0565b60008484015250505050565b6000601f19601f8301169050919050565b6000611513826114b1565b61151d81856114bc565b935061152d8185602086016114cd565b611536816114f7565b840191505092915050565b600061154d8383611508565b905092915050565b6000602082019050919050565b600061156d82611485565b6115778185611490565b935083602082028501611589856114a1565b8060005b858110156115c557848403895281516115a68582611541565b94506115b183611555565b925060208a0199505060018101905061158d565b50829750879550505050505092915050565b600081519050919050565b600082825260208201905092915050565b6000819050602082019050919050565b600073ffffffffffffffffffffffffffffffffffffffff82169050919050565b600061162e82611603565b9050919050565b61163e81611623565b82525050565b60006116508383611635565b60208301905092915050565b6000602082019050919050565b6000611674826115d7565b61167e81856115e2565b9350611689836115f3565b8060005b838110156116ba5781516116a18882611644565b97506116ac8361165c565b92505060018101905061168d565b5085935050505092915050565b600060808201905081810360008301526116e18187611427565b905081810360208301526116f58186611562565b905081810360408301526117098185611427565b9050818103606083015261171d8184611669565b905095945050505050565b600060a08201905081810360008301526117428188611427565b905081810360208301526117568187611562565b9050818103604083015261176a8186611427565b9050818103606083015261177e8185611669565b905081810360808301526117928184611562565b90509695505050505050565b6000819050919050565b60006117c36117be6117b984611603565b61179e565b611603565b9050919050565b60006117d5826117a8565b9050919050565b60006117e7826117ca565b9050919050565b6117f7816117dc565b82525050565b600060208201905061181260008301846117ee565b92915050565b6000604051905090565b600080fd5b600080fd5b600080fd5b600080fd5b600080fd5b60008083601f8401126118515761185061182c565b5b8235905067ffffffffffffffff81111561186e5761186d611831565b5b60208301915083600182028301111561188a57611889611836565b5b9250929050565b600080602083850312156118a8576118a7611822565b5b600083013567ffffffffffffffff8111156118c6576118c5611827565b5b6118d28582860161183b565b92509250509250929050565b6118e781611623565b82525050565b600060208201905061190260008301846118de565b92915050565b600082825260208201905092915050565b6000611924826114b1565b61192e8185611908565b935061193e8185602086016114cd565b611947816114f7565b840191505092915050565b600060408201905061196760008301856118de565b81810360208301526119798184611919565b90509392505050565b61198b816113e9565b811461199657600080fd5b50565b6000813590506119a881611982565b92915050565b6000806000806000606086880312156119ca576119c9611822565b5b600086013567ffffffffffffffff8111156119e8576119e7611827565b5b6119f48882890161183b565b9550955050602086013567ffffffffffffffff811115611a1757611a16611827565b5b611a238882890161183b565b93509350506040611a3688828901611999565b9150509295509295909350565b611a4c816113e9565b82525050565b6000602082019050611a676000830184611a43565b92915050565b6000611a78826117ca565b9050919050565b611a8881611a6d565b82525050565b6000602082019050611aa36000830184611a7f565b92915050565b600060208284031215611abf57611abe611822565b5b6000611acd84828501611999565b91505092915050565b611adf81611623565b8114611aea57600080fd5b50565b600081359050611afc81611ad6565b92915050565b600060208284031215611b1857611b17611822565b5b6000611b2684828501611aed565b91505092915050565b7f4e487b7100000000000000000000000000000000000000000000000000000000600052604160045260246000fd5b611b67826114f7565b810181811067ffffffffffffffff82111715611b8657611b85611b2f565b5b80604052505050565b6000611b99611818565b9050611ba58282611b5e565b919050565b600067ffffffffffffffff821115611bc557611bc4611b2f565b5b602082029050602081019050919050565b600081519050611be581611982565b92915050565b6000611bfe611bf984611baa565b611b8f565b90508083825260208201905060208402830185811115611c2157611c20611836565b5b835b81811015611c4a5780611c368882611bd6565b845260208401935050602081019050611c23565b5050509392505050565b600082601f830112611c6957611c6861182c565b5b8151611c79848260208601611beb565b91505092915050565b600060208284031215611c9857611c97611822565b5b600082015167ffffffffffffffff811115611cb657611cb5611827565b5b611cc284828501611c54565b91505092915050565b7f4e487b7100000000000000000000000000000000000000000000000000000000600052603260045260246000fd5b600080fd5b600067ffffffffffffffff821115611d1a57611d19611b2f565b5b611d23826114f7565b9050602081019050919050565b6000611d43611d3e84611cff565b611b8f565b905082815260208101848484011115611d5f57611d5e611cfa565b5b611d6a8482856114cd565b509392505050565b600082601f830112611d8757611d8661182c565b5b8151611d97848260208601611d30565b91505092915050565b600081519050611daf81611ad6565b92915050565b60008060008060808587031215611dcf57611dce611822565b5b600085015167ffffffffffffffff811115611ded57611dec611827565b5b611df987828801611d72565b945050602085015167ffffffffffffffff811115611e1a57611e19611827565b5b611e2687828801611d72565b9350506040611e3787828801611bd6565b9250506060611e4887828801611da0565b91505092959194509250565b7f4e487b7100000000000000000000000000000000000000000000000000000000600052601160045260246000fd5b6000611e8e826113e9565b91507fffffffffffffffffffffffffffffffffffffffffffffffffffffffffffffffff8203611ec057611ebf611e54565b5b600182019050919050565b82818337600083830152505050565b6000611ee68385611908565b9350611ef3838584611ecb565b611efc836114f7565b840190509392505050565b6000604082019050611f1c60008301866118de565b8181036020830152611f2f818486611eda565b9050949350505050565b60008060408385031215611f5057611f4f611822565b5b6000611f5e85828601611da0565b925050602083015167ffffffffffffffff811115611f7f57611f7e611827565b5b611f8b85828601611d72565b9150509250929050565b60008115159050919050565b611faa81611f95565b8114611fb557600080fd5b50565b600081519050611fc781611fa1565b92915050565b600060208284031215611fe357611fe2611822565b5b6000611ff184828501611fb8565b91505092915050565b7f55736572206e6f74207265676973746572656400000000000000000000000000600082015250565b6000612030601383611908565b915061203b82611ffa565b602082019050919050565b6000602082019050818103600083015261205f81612023565b9050919050565b6000608082019050818103600083015261208181888a611eda565b90508181036020830152612096818688611eda565b90506120a56040830185611a43565b6120b260608301846118de565b979650505050505050565b6000602082840312156120d3576120d2611822565b5b60006120e184828501611bd6565b91505092915050565b60006040820190506120ff6000830185611a43565b61210c60208301846118de565b939250505056fea2646970667358221220afdea57e05009d452c316a837f7e9e0a623fedac25ade5a02ab9a7b53356f8b264736f6c6343000814003360806040523480156200001157600080fd5b5033604051806020016040528060008152506200003481620000ca60201b60201c565b50600073ffffffffffffffffffffffffffffffffffffffff168173ffffffffffffffffffffffffffffffffffffffff1603620000aa5760006040517f1e4fbdf7000000000000000000000000000000000000000000000000000000008152600401620000a19190620001ea565b60405180910390fd5b620000bb81620000df60201b60201c565b50600060058190555062000568565b8060029081620000db919062000481565b5050565b6000600360009054906101000a900473ffffffffffffffffffffffffffffffffffffffff16905081600360006101000a81548173ffffffffffffffffffffffffffffffffffffffff021916908373ffffffffffffffffffffffffffffffffffffffff1602179055508173ffffffffffffffffffffffffffffffffffffffff168173ffffffffffffffffffffffffffffffffffffffff167f8be0079c531659141344cd1fd0a4f28419497f9722a3daafe3b4186f6b6457e060405160405180910390a35050565b600073ffffffffffffffffffffffffffffffffffffffff82169050919050565b6000620001d282620001a5565b9050919050565b620001e481620001c5565b82525050565b6000602082019050620002016000830184620001d9565b92915050565b600081519050919050565b7f4e487b7100000000000000000000000000000000000000000000000000000000600052604160045260246000fd5b7f4e487b7100000000000000000000000000000000000000000000000000000000600052602260045260246000fd5b600060028204905060018216806200028957607f821691505b6020821081036200029f576200029e62000241565b5b50919050565b60008190508160005260206000209050919050565b60006020601f8301049050919050565b600082821b905092915050565b600060088302620003097fffffffffffffffffffffffffffffffffffffffffffffffffffffffffffffffff82620002ca565b620003158683620002ca565b95508019841693508086168417925050509392505050565b6000819050919050565b6000819050919050565b6000620003626200035c62000356846200032d565b62000337565b6200032d565b9050919050565b6000819050919050565b6200037e8362000341565b620003966200038d8262000369565b848454620002d7565b825550505050565b600090565b620003ad6200039e565b620003ba81848462000373565b505050565b5b81811015620003e257620003d6600082620003a3565b600181019050620003c0565b5050565b601f8211156200043157620003fb81620002a5565b6200040684620002ba565b8101602085101562000416578190505b6200042e6200042585620002ba565b830182620003bf565b50505b505050565b600082821c905092915050565b6000620004566000198460080262000436565b1980831691505092915050565b600062000471838362000443565b9150826002028217905092915050565b6200048c8262000207565b67ffffffffffffffff811115620004a857620004a762000212565b5b620004b4825462000270565b620004c1828285620003e6565b600060209050601f831160018114620004f95760008415620004e4578287015190505b620004f0858262000463565b86555062000560565b601f1984166200050986620002a5565b60005b8281101562000533578489015182556001820191506020850194506020810190506200050c565b868310156200055357848901516200054f601f89168262000443565b8355505b6001600288020188555050505b505050505050565b61377f80620005786000396000f3fe6080604052600436106100f25760003560e01c8063985bf63a1161008a578063e985e9c511610059578063e985e9c514610355578063f242432a14610392578063f2fde38b146103bb578063fbd8e397146103e4576100f2565b8063985bf63a14610296578063a1b66b6c146102b2578063a22cb465146102ef578063c6530e4114610318576100f2565b80634e1273f4116100c65780634e1273f4146101d7578063610b31a614610214578063715018a6146102545780638da5cb5b1461026b576100f2565b8062fdd58e146100f757806301ffc9a7146101345780630e89341c146101715780632eb2c2d6146101ae575b600080fd5b34801561010357600080fd5b5061011e6004803603810190610119919061245b565b61040f565b60405161012b91906124aa565b60405180910390f35b34801561014057600080fd5b5061015b6004803603810190610156919061251d565b610469565b6040516101689190612565565b60405180910390f35b34801561017d57600080fd5b5061019860048036038101906101939190612580565b61054b565b6040516101a5919061263d565b60405180910390f35b3480156101ba57600080fd5b506101d560048036038101906101d0919061285c565b61075f565b005b3480156101e357600080fd5b506101fe60048036038101906101f991906129ee565b610807565b60405161020b9190612b24565b60405180910390f35b34801561022057600080fd5b5061023b60048036038101906102369190612580565b610916565b60405161024b9493929190612b55565b60405180910390f35b34801561026057600080fd5b50610269610b45565b005b34801561027757600080fd5b50610280610b59565b60405161028d9190612ba8565b60405180910390f35b6102b060048036038101906102ab9190612bc3565b610b83565b005b3480156102be57600080fd5b506102d960048036038101906102d49190612c5e565b610ebe565b6040516102e691906124aa565b60405180910390f35b3480156102fb57600080fd5b5061031660048036038101906103119190612d31565b611172565b005b34801561032457600080fd5b5061033f600480360381019061033a919061245b565b611188565b60405161034c9190612565565b60405180910390f35b34801561036157600080fd5b5061037c60048036038101906103779190612d71565b6113ae565b6040516103899190612565565b60405180910390f35b34801561039e57600080fd5b506103b960048036038101906103b49190612db1565b611442565b005b3480156103c757600080fd5b506103e260048036038101906103dd9190612e48565b6114ea565b005b3480156103f057600080fd5b506103f9611570565b6040516104069190612b24565b60405180910390f35b600080600083815260200190815260200160002060008473ffffffffffffffffffffffffffffffffffffffff1673ffffffffffffffffffffffffffffffffffffffff16815260200190815260200160002054905092915050565b60007fd9b67a26000000000000000000000000000000000000000000000000000000007bffffffffffffffffffffffffffffffffffffffffffffffffffffffff1916827bffffffffffffffffffffffffffffffffffffffffffffffffffffffff1916148061053457507f0e89341c000000000000000000000000000000000000000000000000000000007bffffffffffffffffffffffffffffffffffffffffffffffffffffffff1916827bffffffffffffffffffffffffffffffffffffffffffffffffffffffff1916145b806105445750610543826115c8565b5b9050919050565b60606000600460008481526020019081526020016000206040518060a001604052908160008201805461057d90612ea4565b80601f01602080910402602001604051908101604052809291908181526020018280546105a990612ea4565b80156105f65780601f106105cb576101008083540402835291602001916105f6565b820191906000526020600020905b8154815290600101906020018083116105d957829003601f168201915b5050505050815260200160018201805461060f90612ea4565b80601f016020809104026020016040519081016040528092919081815260200182805461063b90612ea4565b80156106885780601f1061065d57610100808354040283529160200191610688565b820191906000526020600020905b81548152906001019060200180831161066b57829003601f168201915b50505050508152602001600282015481526020016003820160009054906101000a900473ffffffffffffffffffffffffffffffffffffffff1673ffffffffffffffffffffffffffffffffffffffff1673ffffffffffffffffffffffffffffffffffffffff1681526020016003820160149054906101000a900460ff16151515158152505090508060800151610752576040517f08c379a000000000000000000000000000000000000000000000000000000000815260040161074990612f21565b60405180910390fd5b8060200151915050919050565b6000610769611632565b90508073ffffffffffffffffffffffffffffffffffffffff168673ffffffffffffffffffffffffffffffffffffffff16141580156107ae57506107ac86826113ae565b155b156107f25780866040517fe237d9220000000000000000000000000000000000000000000000000000000081526004016107e9929190612f41565b60405180910390fd5b6107ff868686868661163a565b505050505050565b6060815183511461085357815183516040517f5b05999100000000000000000000000000000000000000000000000000000000815260040161084a929190612f6a565b60405180910390fd5b6000835167ffffffffffffffff8111156108705761086f612664565b5b60405190808252806020026020018201604052801561089e5781602001602082028036833780820191505090505b50905060005b845181101561090b576108db6108c3828761173290919063ffffffff16565b6108d6838761174690919063ffffffff16565b61040f565b8282815181106108ee576108ed612f93565b5b6020026020010181815250508061090490612ff1565b90506108a4565b508091505092915050565b6060806000806000600460008781526020019081526020016000206040518060a001604052908160008201805461094c90612ea4565b80601f016020809104026020016040519081016040528092919081815260200182805461097890612ea4565b80156109c55780601f1061099a576101008083540402835291602001916109c5565b820191906000526020600020905b8154815290600101906020018083116109a857829003601f168201915b505050505081526020016001820180546109de90612ea4565b80601f0160208091040260200160405190810160405280929190818152602001828054610a0a90612ea4565b8015610a575780601f10610a2c57610100808354040283529160200191610a57565b820191906000526020600020905b815481529060010190602001808311610a3a57829003601f168201915b50505050508152602001600282015481526020016003820160009054906101000a900473ffffffffffffffffffffffffffffffffffffffff1673ffffffffffffffffffffffffffffffffffffffff1673ffffffffffffffffffffffffffffffffffffffff1681526020016003820160149054906101000a900460ff16151515158152505090508060800151610b21576040517f08c379a0000000000000000000000000000000000000000000000000000000008152600401610b1890613085565b60405180910390fd5b80600001518160200151826040015183606001519450945094509450509193509193565b610b4d61175a565b610b5760006117e1565b565b6000600360009054906101000a900473ffffffffffffffffffffffffffffffffffffffff16905090565b6000600460008481526020019081526020016000206040518060a0016040529081600082018054610bb390612ea4565b80601f0160208091040260200160405190810160405280929190818152602001828054610bdf90612ea4565b8015610c2c5780601f10610c0157610100808354040283529160200191610c2c565b820191906000526020600020905b815481529060010190602001808311610c0f57829003601f168201915b50505050508152602001600182018054610c4590612ea4565b80601f0160208091040260200160405190810160405280929190818152602001828054610c7190612ea4565b8015610cbe5780601f10610c9357610100808354040283529160200191610cbe565b820191906000526020600020905b815481529060010190602001808311610ca157829003601f168201915b50505050508152602001600282015481526020016003820160009054906101000a900473ffffffffffffffffffffffffffffffffffffffff1673ffffffffffffffffffffffffffffffffffffffff1673ffffffffffffffffffffffffffffffffffffffff1681526020016003820160149054906101000a900460ff16151515158152505090508060800151610d88576040517f08c379a0000000000000000000000000000000000000000000000000000000008152600401610d7f90613085565b60405180910390fd5b80604001513414610dce576040517f08c379a0000000000000000000000000000000000000000000000000000000008152600401610dc5906130f1565b60405180910390fd5b6000610dda838561040f565b14610e1a576040517f08c379a0000000000000000000000000000000000000000000000000000000008152600401610e119061315d565b60405180910390fd5b806060015173ffffffffffffffffffffffffffffffffffffffff166108fc349081150290604051600060405180830381858888f19350505050158015610e64573d6000803e3d6000fd5b50610e8182846001604051806020016040528060008152506118a7565b827f8120f2f8a682e2fd88bad8beb5760b02b7fec7a59d2d9bebb84b3e277bc152d283604051610eb19190612ba8565b60405180910390a2505050565b6000808787905011610f05576040517f08c379a0000000000000000000000000000000000000000000000000000000008152600401610efc906131c9565b60405180910390fd5b60008585905011610f4b576040517f08c379a0000000000000000000000000000000000000000000000000000000008152600401610f4290613235565b60405180910390fd5b600060056000815480929190610f6090612ff1565b9190505590506040518060a0016040528089898080601f016020809104026020016040519081016040528093929190818152602001838380828437600081840152601f19601f82011690508083019250505050505050815260200187878080601f016020809104026020016040519081016040528093929190818152602001838380828437600081840152601f19601f8201169050808301925050505050505081526020018581526020018473ffffffffffffffffffffffffffffffffffffffff168152602001600115158152506004600083815260200190815260200160002060008201518160000190816110569190613401565b50602082015181600101908161106c9190613401565b506040820151816002015560608201518160030160006101000a81548173ffffffffffffffffffffffffffffffffffffffff021916908373ffffffffffffffffffffffffffffffffffffffff16021790555060808201518160030160146101000a81548160ff021916908315150217905550905050600681908060018154018082558091505060019003906000526020600020016000909190919091505561112683826001604051806020016040528060008152506118a7565b807f48ecb80c764507d9b513e5fbdba76e8b8177d246e4314b2718204d1027f996738989868860405161115c9493929190613500565b60405180910390a2809150509695505050505050565b61118461117d611632565b8383611940565b5050565b600080600460008481526020019081526020016000206040518060a00160405290816000820180546111b990612ea4565b80601f01602080910402602001604051908101604052809291908181526020018280546111e590612ea4565b80156112325780601f1061120757610100808354040283529160200191611232565b820191906000526020600020905b81548152906001019060200180831161121557829003601f168201915b5050505050815260200160018201805461124b90612ea4565b80601f016020809104026020016040519081016040528092919081815260200182805461127790612ea4565b80156112c45780601f10611299576101008083540402835291602001916112c4565b820191906000526020600020905b8154815290600101906020018083116112a757829003601f168201915b50505050508152602001600282015481526020016003820160009054906101000a900473ffffffffffffffffffffffffffffffffffffffff1673ffffffffffffffffffffffffffffffffffffffff1673ffffffffffffffffffffffffffffffffffffffff1681526020016003820160149054906101000a900460ff1615151515815250509050806080015161135d5760009150506113a8565b8373ffffffffffffffffffffffffffffffffffffffff16816060015173ffffffffffffffffffffffffffffffffffffffff1614806113a4575060006113a2858561040f565b115b9150505b92915050565b6000600160008473ffffffffffffffffffffffffffffffffffffffff1673ffffffffffffffffffffffffffffffffffffffff16815260200190815260200160002060008373ffffffffffffffffffffffffffffffffffffffff1673ffffffffffffffffffffffffffffffffffffffff16815260200190815260200160002060009054906101000a900460ff16905092915050565b600061144c611632565b90508073ffffffffffffffffffffffffffffffffffffffff168673ffffffffffffffffffffffffffffffffffffffff1614158015611491575061148f86826113ae565b155b156114d55780866040517fe237d9220000000000000000000000000000000000000000000000000000000081526004016114cc929190612f41565b60405180910390fd5b6114e28686868686611ab0565b505050505050565b6114f261175a565b600073ffffffffffffffffffffffffffffffffffffffff168173ffffffffffffffffffffffffffffffffffffffff16036115645760006040517f1e4fbdf700000000000000000000000000000000000000000000000000000000815260040161155b9190612ba8565b60405180910390fd5b61156d816117e1565b50565b606060068054806020026020016040519081016040528092919081815260200182805480156115be57602002820191906000526020600020905b8154815260200190600101908083116115aa575b5050505050905090565b60007f01ffc9a7000000000000000000000000000000000000000000000000000000007bffffffffffffffffffffffffffffffffffffffffffffffffffffffff1916827bffffffffffffffffffffffffffffffffffffffffffffffffffffffff1916149050919050565b600033905090565b600073ffffffffffffffffffffffffffffffffffffffff168473ffffffffffffffffffffffffffffffffffffffff16036116ac5760006040517f57f447ce0000000000000000000000000000000000000000000000000000000081526004016116a39190612ba8565b60405180910390fd5b600073ffffffffffffffffffffffffffffffffffffffff168573ffffffffffffffffffffffffffffffffffffffff160361171e5760006040517f01a835140000000000000000000000000000000000000000000000000000000081526004016117159190612ba8565b60405180910390fd5b61172b8585858585611bbb565b5050505050565b600060208202602084010151905092915050565b600060208202602084010151905092915050565b611762611632565b73ffffffffffffffffffffffffffffffffffffffff16611780610b59565b73ffffffffffffffffffffffffffffffffffffffff16146117df576117a3611632565b6040517f118cdaa70000000000000000000000000000000000000000000000000000000081526004016117d69190612ba8565b60405180910390fd5b565b6000600360009054906101000a900473ffffffffffffffffffffffffffffffffffffffff16905081600360006101000a81548173ffffffffffffffffffffffffffffffffffffffff021916908373ffffffffffffffffffffffffffffffffffffffff1602179055508173ffffffffffffffffffffffffffffffffffffffff168173ffffffffffffffffffffffffffffffffffffffff167f8be0079c531659141344cd1fd0a4f28419497f9722a3daafe3b4186f6b6457e060405160405180910390a35050565b600073ffffffffffffffffffffffffffffffffffffffff168473ffffffffffffffffffffffffffffffffffffffff16036119195760006040517f57f447ce0000000000000000000000000000000000000000000000000000000081526004016119109190612ba8565b60405180910390fd5b6000806119268585611c6d565b91509150611938600087848487611bbb565b505050505050565b600073ffffffffffffffffffffffffffffffffffffffff168273ffffffffffffffffffffffffffffffffffffffff16036119b25760006040517fced3e1000000000000000000000000000000000000000000000000000000000081526004016119a99190612ba8565b60405180910390fd5b80600160008573ffffffffffffffffffffffffffffffffffffffff1673ffffffffffffffffffffffffffffffffffffffff16815260200190815260200160002060008473ffffffffffffffffffffffffffffffffffffffff1673ffffffffffffffffffffffffffffffffffffffff16815260200190815260200160002060006101000a81548160ff0219169083151502179055508173ffffffffffffffffffffffffffffffffffffffff168373ffffffffffffffffffffffffffffffffffffffff167f17307eab39ab6107e8899845ad3d59bd9653f200f220920489ca2b5937696c3183604051611aa39190612565565b60405180910390a3505050565b600073ffffffffffffffffffffffffffffffffffffffff168473ffffffffffffffffffffffffffffffffffffffff1603611b225760006040517f57f447ce000000000000000000000000000000000000000000000000000000008152600401611b199190612ba8565b60405180910390fd5b600073ffffffffffffffffffffffffffffffffffffffff168573ffffffffffffffffffffffffffffffffffffffff1603611b945760006040517f01a83514000000000000000000000000000000000000000000000000000000008152600401611b8b9190612ba8565b60405180910390fd5b600080611ba18585611c6d565b91509150611bb28787848487611bbb565b50505050505050565b611bc785858585611c9d565b600073ffffffffffffffffffffffffffffffffffffffff168473ffffffffffffffffffffffffffffffffffffffff1614611c66576000611c05611632565b90506001845103611c55576000611c2660008661174690919063ffffffff16565b90506000611c3e60008661174690919063ffffffff16565b9050611c4e83898985858961204b565b5050611c64565b611c638187878787876121ff565b5b505b5050505050565b60608060405191506001825283602083015260408201905060018152826020820152604081016040529250929050565b8051825114611ce757815181516040517f5b059991000000000000000000000000000000000000000000000000000000008152600401611cde929190612f6a565b60405180910390fd5b6000611cf1611632565b905060005b8351811015611f06576000611d14828661174690919063ffffffff16565b90506000611d2b838661174690919063ffffffff16565b9050600073ffffffffffffffffffffffffffffffffffffffff168873ffffffffffffffffffffffffffffffffffffffff1614611e5857600080600084815260200190815260200160002060008a73ffffffffffffffffffffffffffffffffffffffff1673ffffffffffffffffffffffffffffffffffffffff16815260200190815260200160002054905081811015611e0057888183856040517f03dee4c5000000000000000000000000000000000000000000000000000000008152600401611df79493929190613540565b60405180910390fd5b81810360008085815260200190815260200160002060008b73ffffffffffffffffffffffffffffffffffffffff1673ffffffffffffffffffffffffffffffffffffffff16815260200190815260200160002081905550505b600073ffffffffffffffffffffffffffffffffffffffff168773ffffffffffffffffffffffffffffffffffffffff1614611ef3578060008084815260200190815260200160002060008973ffffffffffffffffffffffffffffffffffffffff1673ffffffffffffffffffffffffffffffffffffffff1681526020019081526020016000206000828254611eeb9190613585565b925050819055505b505080611eff90612ff1565b9050611cf6565b506001835103611fc5576000611f2660008561174690919063ffffffff16565b90506000611f3e60008561174690919063ffffffff16565b90508573ffffffffffffffffffffffffffffffffffffffff168773ffffffffffffffffffffffffffffffffffffffff168473ffffffffffffffffffffffffffffffffffffffff167fc3d58168c5ae7397731d063d5bbf3d657854427343f4c083240f7aacaa2d0f628585604051611fb6929190612f6a565b60405180910390a45050612044565b8373ffffffffffffffffffffffffffffffffffffffff168573ffffffffffffffffffffffffffffffffffffffff168273ffffffffffffffffffffffffffffffffffffffff167f4a39dc06d4c0dbc64b70af90fd698a233a518aa5d07e595d983b8c0526c8f7fb868660405161203b9291906135b9565b60405180910390a45b5050505050565b60008473ffffffffffffffffffffffffffffffffffffffff163b11156121f7578373ffffffffffffffffffffffffffffffffffffffff1663f23a6e6187878686866040518663ffffffff1660e01b81526004016120ac959493929190613645565b6020604051808303816000875af19250505080156120e857506040513d601f19601f820116820180604052508101906120e591906136b4565b60015b61216c573d8060008114612118576040519150601f19603f3d011682016040523d82523d6000602084013e61211d565b606091505b50600081510361216457846040517f57f447ce00000000000000000000000000000000000000000000000000000000815260040161215b9190612ba8565b60405180910390fd5b805181602001fd5b63f23a6e6160e01b7bffffffffffffffffffffffffffffffffffffffffffffffffffffffff1916817bffffffffffffffffffffffffffffffffffffffffffffffffffffffff1916146121f557846040517f57f447ce0000000000000000000000000000000000000000000000000000000081526004016121ec9190612ba8565b60405180910390fd5b505b505050505050565b60008473ffffffffffffffffffffffffffffffffffffffff163b11156123ab578373ffffffffffffffffffffffffffffffffffffffff1663bc197c8187878686866040518663ffffffff1660e01b81526004016122609594939291906136e1565b6020604051808303816000875af192505050801561229c57506040513d601f19601f8201168201806040525081019061229991906136b4565b60015b612320573d80600081146122cc576040519150601f19603f3d011682016040523d82523d6000602084013e6122d1565b606091505b50600081510361231857846040517f57f447ce00000000000000000000000000000000000000000000000000000000815260040161230f9190612ba8565b60405180910390fd5b805181602001fd5b63bc197c8160e01b7bffffffffffffffffffffffffffffffffffffffffffffffffffffffff1916817bffffffffffffffffffffffffffffffffffffffffffffffffffffffff1916146123a957846040517f57f447ce0000000000000000000000000000000000000000000000000000000081526004016123a09190612ba8565b60405180910390fd5b505b505050505050565b6000604051905090565b600080fd5b600080fd5b600073ffffffffffffffffffffffffffffffffffffffff82169050919050565b60006123f2826123c7565b9050919050565b612402816123e7565b811461240d57600080fd5b50565b60008135905061241f816123f9565b92915050565b6000819050919050565b61243881612425565b811461244357600080fd5b50565b6000813590506124558161242f565b92915050565b60008060408385031215612472576124716123bd565b5b600061248085828601612410565b925050602061249185828601612446565b9150509250929050565b6124a481612425565b82525050565b60006020820190506124bf600083018461249b565b92915050565b60007fffffffff0000000000000000000000000000000000000000000000000000000082169050919050565b6124fa816124c5565b811461250557600080fd5b50565b600081359050612517816124f1565b92915050565b600060208284031215612533576125326123bd565b5b600061254184828501612508565b91505092915050565b60008115159050919050565b61255f8161254a565b82525050565b600060208201905061257a6000830184612556565b92915050565b600060208284031215612596576125956123bd565b5b60006125a484828501612446565b91505092915050565b600081519050919050565b600082825260208201905092915050565b60005b838110156125e75780820151818401526020810190506125cc565b60008484015250505050565b6000601f19601f8301169050919050565b600061260f826125ad565b61261981856125b8565b93506126298185602086016125c9565b612632816125f3565b840191505092915050565b600060208201905081810360008301526126578184612604565b905092915050565b600080fd5b7f4e487b7100000000000000000000000000000000000000000000000000000000600052604160045260246000fd5b61269c826125f3565b810181811067ffffffffffffffff821117156126bb576126ba612664565b5b80604052505050565b60006126ce6123b3565b90506126da8282612693565b919050565b600067ffffffffffffffff8211156126fa576126f9612664565b5b602082029050602081019050919050565b600080fd5b600061272361271e846126df565b6126c4565b905080838252602082019050602084028301858111156127465761274561270b565b5b835b8181101561276f578061275b8882612446565b845260208401935050602081019050612748565b5050509392505050565b600082601f83011261278e5761278d61265f565b5b813561279e848260208601612710565b91505092915050565b600080fd5b600067ffffffffffffffff8211156127c7576127c6612664565b5b6127d0826125f3565b9050602081019050919050565b82818337600083830152505050565b60006127ff6127fa846127ac565b6126c4565b90508281526020810184848401111561281b5761281a6127a7565b5b6128268482856127dd565b509392505050565b600082601f8301126128435761284261265f565b5b81356128538482602086016127ec565b91505092915050565b600080600080600060a08688031215612878576128776123bd565b5b600061288688828901612410565b955050602061289788828901612410565b945050604086013567ffffffffffffffff8111156128b8576128b76123c2565b5b6128c488828901612779565b935050606086013567ffffffffffffffff8111156128e5576128e46123c2565b5b6128f188828901612779565b925050608086013567ffffffffffffffff811115612912576129116123c2565b5b61291e8882890161282e565b9150509295509295909350565b600067ffffffffffffffff82111561294657612945612664565b5b602082029050602081019050919050565b600061296a6129658461292b565b6126c4565b9050808382526020820190506020840283018581111561298d5761298c61270b565b5b835b818110156129b657806129a28882612410565b84526020840193505060208101905061298f565b5050509392505050565b600082601f8301126129d5576129d461265f565b5b81356129e5848260208601612957565b91505092915050565b60008060408385031215612a0557612a046123bd565b5b600083013567ffffffffffffffff811115612a2357612a226123c2565b5b612a2f858286016129c0565b925050602083013567ffffffffffffffff811115612a5057612a4f6123c2565b5b612a5c85828601612779565b9150509250929050565b600081519050919050565b600082825260208201905092915050565b6000819050602082019050919050565b612a9b81612425565b82525050565b6000612aad8383612a92565b60208301905092915050565b6000602082019050919050565b6000612ad182612a66565b612adb8185612a71565b9350612ae683612a82565b8060005b83811015612b17578151612afe8882612aa1565b9750612b0983612ab9565b925050600181019050612aea565b5085935050505092915050565b60006020820190508181036000830152612b3e8184612ac6565b905092915050565b612b4f816123e7565b82525050565b60006080820190508181036000830152612b6f8187612604565b90508181036020830152612b838186612604565b9050612b92604083018561249b565b612b9f6060830184612b46565b95945050505050565b6000602082019050612bbd6000830184612b46565b92915050565b60008060408385031215612bda57612bd96123bd565b5b6000612be885828601612446565b9250506020612bf985828601612410565b9150509250929050565b600080fd5b60008083601f840112612c1e57612c1d61265f565b5b8235905067ffffffffffffffff811115612c3b57612c3a612c03565b5b602083019150836001820283011115612c5757612c5661270b565b5b9250929050565b60008060008060008060808789031215612c7b57612c7a6123bd565b5b600087013567ffffffffffffffff811115612c9957612c986123c2565b5b612ca589828a01612c08565b9650965050602087013567ffffffffffffffff811115612cc857612cc76123c2565b5b612cd489828a01612c08565b94509450506040612ce789828a01612446565b9250506060612cf889828a01612410565b9150509295509295509295565b612d0e8161254a565b8114612d1957600080fd5b50565b600081359050612d2b81612d05565b92915050565b60008060408385031215612d4857612d476123bd565b5b6000612d5685828601612410565b9250506020612d6785828601612d1c565b9150509250929050565b60008060408385031215612d8857612d876123bd565b5b6000612d9685828601612410565b9250506020612da785828601612410565b9150509250929050565b600080600080600060a08688031215612dcd57612dcc6123bd565b5b6000612ddb88828901612410565b9550506020612dec88828901612410565b9450506040612dfd88828901612446565b9350506060612e0e88828901612446565b925050608086013567ffffffffffffffff811115612e2f57612e2e6123c2565b5b612e3b8882890161282e565b9150509295509295909350565b600060208284031215612e5e57612e5d6123bd565b5b6000612e6c84828501612410565b91505092915050565b7f4e487b7100000000000000000000000000000000000000000000000000000000600052602260045260246000fd5b60006002820490506001821680612ebc57607f821691505b602082108103612ecf57612ece612e75565b5b50919050565b7f55524920717565727920666f72206e6f6e6578697374656e7420636f75727365600082015250565b6000612f0b6020836125b8565b9150612f1682612ed5565b602082019050919050565b60006020820190508181036000830152612f3a81612efe565b9050919050565b6000604082019050612f566000830185612b46565b612f636020830184612b46565b9392505050565b6000604082019050612f7f600083018561249b565b612f8c602083018461249b565b9392505050565b7f4e487b7100000000000000000000000000000000000000000000000000000000600052603260045260246000fd5b7f4e487b7100000000000000000000000000000000000000000000000000000000600052601160045260246000fd5b6000612ffc82612425565b91507fffffffffffffffffffffffffffffffffffffffffffffffffffffffffffffffff820361302e5761302d612fc2565b5b600182019050919050565b7f436f7572736520646f6573206e6f742065786973740000000000000000000000600082015250565b600061306f6015836125b8565b915061307a82613039565b602082019050919050565b6000602082019050818103600083015261309e81613062565b9050919050565b7f496e636f7272656374207061796d656e7420616d6f756e740000000000000000600082015250565b60006130db6018836125b8565b91506130e6826130a5565b602082019050919050565b6000602082019050818103600083015261310a816130ce565b9050919050565b7f416c726561647920707572636861736564207468697320636f75727365000000600082015250565b6000613147601d836125b8565b915061315282613111565b602082019050919050565b600060208201905081810360008301526131768161313a565b9050919050565b7f436f75727365206e616d652063616e6e6f7420626520656d7074790000000000600082015250565b60006131b3601b836125b8565b91506131be8261317d565b602082019050919050565b600060208201905081810360008301526131e2816131a6565b9050919050565b7f49504653206c696e6b2063616e6e6f7420626520656d70747900000000000000600082015250565b600061321f6019836125b8565b915061322a826131e9565b602082019050919050565b6000602082019050818103600083015261324e81613212565b9050919050565b60008190508160005260206000209050919050565b60006020601f8301049050919050565b600082821b905092915050565b6000600883026132b77fffffffffffffffffffffffffffffffffffffffffffffffffffffffffffffffff8261327a565b6132c1868361327a565b95508019841693508086168417925050509392505050565b6000819050919050565b60006132fe6132f96132f484612425565b6132d9565b612425565b9050919050565b6000819050919050565b613318836132e3565b61332c61332482613305565b848454613287565b825550505050565b600090565b613341613334565b61334c81848461330f565b505050565b5b8181101561337057613365600082613339565b600181019050613352565b5050565b601f8211156133b55761338681613255565b61338f8461326a565b8101602085101561339e578190505b6133b26133aa8561326a565b830182613351565b50505b505050565b600082821c905092915050565b60006133d8600019846008026133ba565b1980831691505092915050565b60006133f183836133c7565b9150826002028217905092915050565b61340a826125ad565b67ffffffffffffffff81111561342357613422612664565b5b61342d8254612ea4565b613438828285613374565b600060209050601f83116001811461346b5760008415613459578287015190505b61346385826133e5565b8655506134cb565b601f19841661347986613255565b60005b828110156134a15784890151825560018201915060208501945060208101905061347c565b868310156134be57848901516134ba601f8916826133c7565b8355505b6001600288020188555050505b505050505050565b60006134df83856125b8565b93506134ec8385846127dd565b6134f5836125f3565b840190509392505050565b6000606082019050818103600083015261351b8186886134d3565b905061352a6020830185612b46565b613537604083018461249b565b95945050505050565b60006080820190506135556000830187612b46565b613562602083018661249b565b61356f604083018561249b565b61357c606083018461249b565b95945050505050565b600061359082612425565b915061359b83612425565b92508282019050808211156135b3576135b2612fc2565b5b92915050565b600060408201905081810360008301526135d38185612ac6565b905081810360208301526135e78184612ac6565b90509392505050565b600081519050919050565b600082825260208201905092915050565b6000613617826135f0565b61362181856135fb565b93506136318185602086016125c9565b61363a816125f3565b840191505092915050565b600060a08201905061365a6000830188612b46565b6136676020830187612b46565b613674604083018661249b565b613681606083018561249b565b8181036080830152613693818461360c565b90509695505050505050565b6000815190506136ae816124f1565b92915050565b6000602082840312156136ca576136c96123bd565b5b60006136d88482850161369f565b91505092915050565b600060a0820190506136f66000830188612b46565b6137036020830187612b46565b81810360408301526137158186612ac6565b905081810360608301526137298185612ac6565b9050818103608083015261373d818461360c565b9050969550505050505056fea2646970667358221220e78de4fce79fe6894250eac35d151129d1766782b1774687993750faa857720d64736f6c6343000814003360806040523480156200001157600080fd5b5033600073ffffffffffffffffffffffffffffffffffffffff168173ffffffffffffffffffffffffffffffffffffffff1603620000885760006040517f1e4fbdf70000000000000000000000000000000000000000000000000000000081526004016200007f9190620001b1565b60405180910390fd5b6200009981620000a860201b60201c565b506000600381905550620001ce565b60008060009054906101000a900473ffffffffffffffffffffffffffffffffffffffff169050816000806101000a81548173ffffffffffffffffffffffffffffffffffffffff021916908373ffffffffffffffffffffffffffffffffffffffff1602179055508173ffffffffffffffffffffffffffffffffffffffff168173ffffffffffffffffffffffffffffffffffffffff167f8be0079c531659141344cd1fd0a4f28419497f9722a3daafe3b4186f6b6457e060405160405180910390a35050565b600073ffffffffffffffffffffffffffffffffffffffff82169050919050565b600062000199826200016c565b9050919050565b620001ab816200018c565b82525050565b6000602082019050620001c86000830184620001a0565b92915050565b611f5980620001de6000396000f3fe608060405234801561001057600080fd5b50600436106100b45760003560e01c8063a87430ba11610071578063a87430ba14610179578063a998ffb3146101ac578063bff1f9e1146101ca578063c3c5a547146101e8578063f2fde38b14610218578063ffc9896b14610234576100b4565b80630a5fa7f2146100b957806332434a2e146100e9578063715018a6146101055780638da5cb5b1461010f57806394e05dd71461012d578063a64e398f14610149575b600080fd5b6100d360048036038101906100ce9190611248565b610265565b6040516100e0919061133d565b60405180910390f35b61010360048036038101906100fe91906113c4565b6105fd565b005b61010d610895565b005b6101176108a9565b6040516101249190611433565b60405180910390f35b61014760048036038101906101429190611248565b6108d2565b005b610163600480360381019061015e9190611248565b61091e565b604051610170919061133d565b60405180910390f35b610193600480360381019061018e9190611248565b610d28565b6040516101a39493929190611508565b60405180910390f35b6101b4610e0d565b6040516101c191906115b3565b60405180910390f35b6101d2610e33565b6040516101df91906115ce565b60405180910390f35b61020260048036038101906101fd9190611248565b610e39565b60405161020f91906115e9565b60405180910390f35b610232600480360381019061022d9190611248565b610e92565b005b61024e60048036038101906102499190611248565b610f18565b60405161025c929190611604565b60405180910390f35b6060600260008373ffffffffffffffffffffffffffffffffffffffff1673ffffffffffffffffffffffffffffffffffffffff16815260200190815260200160002060030160009054906101000a900460ff166102f6576040517f08c379a00000000000000000000000000000000000000000000000000000000081526004016102ed90611680565b60405180910390fd5b6000600160009054906101000a900473ffffffffffffffffffffffffffffffffffffffff1673ffffffffffffffffffffffffffffffffffffffff1663fbd8e3976040518163ffffffff1660e01b8152600401600060405180830381865afa158015610365573d6000803e3d6000fd5b505050506040513d6000823e3d601f19601f8201168201806040525081019061038e919061180a565b90506000805b825181101561047c57600160009054906101000a900473ffffffffffffffffffffffffffffffffffffffff1673ffffffffffffffffffffffffffffffffffffffff1663c6530e41868584815181106103ef576103ee611853565b5b60200260200101516040518363ffffffff1660e01b8152600401610414929190611882565b602060405180830381865afa158015610431573d6000803e3d6000fd5b505050506040513d601f19601f8201168201806040525081019061045591906118d7565b1561046957818061046590611933565b9250505b808061047490611933565b915050610394565b5060008167ffffffffffffffff811115610499576104986116a0565b5b6040519080825280602002602001820160405280156104c75781602001602082028036833780820191505090505b5090506000805b84518110156105f057600160009054906101000a900473ffffffffffffffffffffffffffffffffffffffff1673ffffffffffffffffffffffffffffffffffffffff1663c6530e418887848151811061052957610528611853565b5b60200260200101516040518363ffffffff1660e01b815260040161054e929190611882565b602060405180830381865afa15801561056b573d6000803e3d6000fd5b505050506040513d601f19601f8201168201806040525081019061058f91906118d7565b156105dd578481815181106105a7576105a6611853565b5b60200260200101518383815181106105c2576105c1611853565b5b60200260200101818152505081806105d990611933565b9250505b80806105e890611933565b9150506104ce565b5081945050505050919050565b60008282905011610643576040517f08c379a000000000000000000000000000000000000000000000000000000000815260040161063a906119c7565b60405180910390fd5b600260008473ffffffffffffffffffffffffffffffffffffffff1673ffffffffffffffffffffffffffffffffffffffff16815260200190815260200160002060030160009054906101000a900460ff16156106d3576040517f08c379a00000000000000000000000000000000000000000000000000000000081526004016106ca90611a33565b60405180910390fd5b6040518060800160405280600360008154809291906106f190611933565b9190505581526020018473ffffffffffffffffffffffffffffffffffffffff16815260200183838080601f016020809104026020016040519081016040528093929190818152602001838380828437600081840152601f19601f82011690508083019250505050505050815260200160011515815250600260008573ffffffffffffffffffffffffffffffffffffffff1673ffffffffffffffffffffffffffffffffffffffff1681526020019081526020016000206000820151816000015560208201518160010160006101000a81548173ffffffffffffffffffffffffffffffffffffffff021916908373ffffffffffffffffffffffffffffffffffffffff160217905550604082015181600201908161080c9190611c55565b5060608201518160030160006101000a81548160ff0219169083151502179055509050508273ffffffffffffffffffffffffffffffffffffffff167f89105a1c6a3c2fbd471255c66a31ccab604af5697f67d7e2e9a0028c5e4dbd91838360016003546108799190611d27565b60405161088893929190611d97565b60405180910390a2505050565b61089d611083565b6108a7600061110a565b565b60008060009054906101000a900473ffffffffffffffffffffffffffffffffffffffff16905090565b6108da611083565b80600160006101000a81548173ffffffffffffffffffffffffffffffffffffffff021916908373ffffffffffffffffffffffffffffffffffffffff16021790555050565b6060600260008373ffffffffffffffffffffffffffffffffffffffff1673ffffffffffffffffffffffffffffffffffffffff16815260200190815260200160002060030160009054906101000a900460ff166109af576040517f08c379a00000000000000000000000000000000000000000000000000000000081526004016109a690611680565b60405180910390fd5b6000600160009054906101000a900473ffffffffffffffffffffffffffffffffffffffff1673ffffffffffffffffffffffffffffffffffffffff1663fbd8e3976040518163ffffffff1660e01b8152600401600060405180830381865afa158015610a1e573d6000803e3d6000fd5b505050506040513d6000823e3d601f19601f82011682018060405250810190610a47919061180a565b90506000805b8251811015610b6e576000600160009054906101000a900473ffffffffffffffffffffffffffffffffffffffff1673ffffffffffffffffffffffffffffffffffffffff1663610b31a6858481518110610aa957610aa8611853565b5b60200260200101516040518263ffffffff1660e01b8152600401610acd91906115ce565b600060405180830381865afa158015610aea573d6000803e3d6000fd5b505050506040513d6000823e3d601f19601f82011682018060405250810190610b139190611e84565b93505050508573ffffffffffffffffffffffffffffffffffffffff168173ffffffffffffffffffffffffffffffffffffffff1603610b5a578280610b5690611933565b9350505b508080610b6690611933565b915050610a4d565b5060008167ffffffffffffffff811115610b8b57610b8a6116a0565b5b604051908082528060200260200182016040528015610bb95781602001602082028036833780820191505090505b5090506000805b8451811015610d1b576000600160009054906101000a900473ffffffffffffffffffffffffffffffffffffffff1673ffffffffffffffffffffffffffffffffffffffff1663610b31a6878481518110610c1c57610c1b611853565b5b60200260200101516040518263ffffffff1660e01b8152600401610c4091906115ce565b600060405180830381865afa158015610c5d573d6000803e3d6000fd5b505050506040513d6000823e3d601f19601f82011682018060405250810190610c869190611e84565b93505050508773ffffffffffffffffffffffffffffffffffffffff168173ffffffffffffffffffffffffffffffffffffffff1603610d0757858281518110610cd157610cd0611853565b5b6020026020010151848481518110610cec57610ceb611853565b5b6020026020010181815250508280610d0390611933565b9350505b508080610d1390611933565b915050610bc0565b5081945050505050919050565b60026020528060005260406000206000915090508060000154908060010160009054906101000a900473ffffffffffffffffffffffffffffffffffffffff1690806002018054610d7790611a82565b80601f0160208091040260200160405190810160405280929190818152602001828054610da390611a82565b8015610df05780601f10610dc557610100808354040283529160200191610df0565b820191906000526020600020905b815481529060010190602001808311610dd357829003601f168201915b5050505050908060030160009054906101000a900460ff16905084565b600160009054906101000a900473ffffffffffffffffffffffffffffffffffffffff1681565b60035481565b6000600260008373ffffffffffffffffffffffffffffffffffffffff1673ffffffffffffffffffffffffffffffffffffffff16815260200190815260200160002060030160009054906101000a900460ff169050919050565b610e9a611083565b600073ffffffffffffffffffffffffffffffffffffffff168173ffffffffffffffffffffffffffffffffffffffff1603610f0c5760006040517f1e4fbdf7000000000000000000000000000000000000000000000000000000008152600401610f039190611433565b60405180910390fd5b610f158161110a565b50565b60006060600260008473ffffffffffffffffffffffffffffffffffffffff1673ffffffffffffffffffffffffffffffffffffffff16815260200190815260200160002060030160009054906101000a900460ff16610fab576040517f08c379a0000000000000000000000000000000000000000000000000000000008152600401610fa290611680565b60405180910390fd5b82600260008573ffffffffffffffffffffffffffffffffffffffff1673ffffffffffffffffffffffffffffffffffffffff168152602001908152602001600020600201808054610ffa90611a82565b80601f016020809104026020016040519081016040528092919081815260200182805461102690611a82565b80156110735780601f1061104857610100808354040283529160200191611073565b820191906000526020600020905b81548152906001019060200180831161105657829003601f168201915b5050505050905091509150915091565b61108b6111ce565b73ffffffffffffffffffffffffffffffffffffffff166110a96108a9565b73ffffffffffffffffffffffffffffffffffffffff1614611108576110cc6111ce565b6040517f118cdaa70000000000000000000000000000000000000000000000000000000081526004016110ff9190611433565b60405180910390fd5b565b60008060009054906101000a900473ffffffffffffffffffffffffffffffffffffffff169050816000806101000a81548173ffffffffffffffffffffffffffffffffffffffff021916908373ffffffffffffffffffffffffffffffffffffffff1602179055508173ffffffffffffffffffffffffffffffffffffffff168173ffffffffffffffffffffffffffffffffffffffff167f8be0079c531659141344cd1fd0a4f28419497f9722a3daafe3b4186f6b6457e060405160405180910390a35050565b600033905090565b6000604051905090565b600080fd5b600080fd5b600073ffffffffffffffffffffffffffffffffffffffff82169050919050565b6000611215826111ea565b9050919050565b6112258161120a565b811461123057600080fd5b50565b6000813590506112428161121c565b92915050565b60006020828403121561125e5761125d6111e0565b5b600061126c84828501611233565b91505092915050565b600081519050919050565b600082825260208201905092915050565b6000819050602082019050919050565b6000819050919050565b6112b4816112a1565b82525050565b60006112c683836112ab565b60208301905092915050565b6000602082019050919050565b60006112ea82611275565b6112f48185611280565b93506112ff83611291565b8060005b8381101561133057815161131788826112ba565b9750611322836112d2565b925050600181019050611303565b5085935050505092915050565b6000602082019050818103600083015261135781846112df565b905092915050565b600080fd5b600080fd5b600080fd5b60008083601f8401126113845761138361135f565b5b8235905067ffffffffffffffff8111156113a1576113a0611364565b5b6020830191508360018202830111156113bd576113bc611369565b5b9250929050565b6000806000604084860312156113dd576113dc6111e0565b5b60006113eb86828701611233565b935050602084013567ffffffffffffffff81111561140c5761140b6111e5565b5b6114188682870161136e565b92509250509250925092565b61142d8161120a565b82525050565b60006020820190506114486000830184611424565b92915050565b611457816112a1565b82525050565b600081519050919050565b600082825260208201905092915050565b60005b8381101561149757808201518184015260208101905061147c565b60008484015250505050565b6000601f19601f8301169050919050565b60006114bf8261145d565b6114c98185611468565b93506114d9818560208601611479565b6114e2816114a3565b840191505092915050565b60008115159050919050565b611502816114ed565b82525050565b600060808201905061151d600083018761144e565b61152a6020830186611424565b818103604083015261153c81856114b4565b905061154b60608301846114f9565b95945050505050565b6000819050919050565b600061157961157461156f846111ea565b611554565b6111ea565b9050919050565b600061158b8261155e565b9050919050565b600061159d82611580565b9050919050565b6115ad81611592565b82525050565b60006020820190506115c860008301846115a4565b92915050565b60006020820190506115e3600083018461144e565b92915050565b60006020820190506115fe60008301846114f9565b92915050565b60006040820190506116196000830185611424565b818103602083015261162b81846114b4565b90509392505050565b7f55736572206e6f74207265676973746572656400000000000000000000000000600082015250565b600061166a601383611468565b915061167582611634565b602082019050919050565b600060208201905081810360008301526116998161165d565b9050919050565b7f4e487b7100000000000000000000000000000000000000000000000000000000600052604160045260246000fd5b6116d8826114a3565b810181811067ffffffffffffffff821117156116f7576116f66116a0565b5b80604052505050565b600061170a6111d6565b905061171682826116cf565b919050565b600067ffffffffffffffff821115611736576117356116a0565b5b602082029050602081019050919050565b611750816112a1565b811461175b57600080fd5b50565b60008151905061176d81611747565b92915050565b60006117866117818461171b565b611700565b905080838252602082019050602084028301858111156117a9576117a8611369565b5b835b818110156117d257806117be888261175e565b8452602084019350506020810190506117ab565b5050509392505050565b600082601f8301126117f1576117f061135f565b5b8151611801848260208601611773565b91505092915050565b6000602082840312156118205761181f6111e0565b5b600082015167ffffffffffffffff81111561183e5761183d6111e5565b5b61184a848285016117dc565b91505092915050565b7f4e487b7100000000000000000000000000000000000000000000000000000000600052603260045260246000fd5b60006040820190506118976000830185611424565b6118a4602083018461144e565b9392505050565b6118b4816114ed565b81146118bf57600080fd5b50565b6000815190506118d1816118ab565b92915050565b6000602082840312156118ed576118ec6111e0565b5b60006118fb848285016118c2565b91505092915050565b7f4e487b7100000000000000000000000000000000000000000000000000000000600052601160045260246000fd5b600061193e826112a1565b91507fffffffffffffffffffffffffffffffffffffffffffffffffffffffffffffffff82036119705761196f611904565b5b600182019050919050565b7f557365726e616d652063616e6e6f7420626520656d7074790000000000000000600082015250565b60006119b1601883611468565b91506119bc8261197b565b602082019050919050565b600060208201905081810360008301526119e0816119a4565b9050919050565b7f5573657220616c72656164792072656769737465726564000000000000000000600082015250565b6000611a1d601783611468565b9150611a28826119e7565b602082019050919050565b60006020820190508181036000830152611a4c81611a10565b9050919050565b7f4e487b7100000000000000000000000000000000000000000000000000000000600052602260045260246000fd5b60006002820490506001821680611a9a57607f821691505b602082108103611aad57611aac611a53565b5b50919050565b60008190508160005260206000209050919050565b60006020601f8301049050919050565b600082821b905092915050565b600060088302611b157fffffffffffffffffffffffffffffffffffffffffffffffffffffffffffffffff82611ad8565b611b1f8683611ad8565b95508019841693508086168417925050509392505050565b6000611b52611b4d611b48846112a1565b611554565b6112a1565b9050919050565b6000819050919050565b611b6c83611b37565b611b80611b7882611b59565b848454611ae5565b825550505050565b600090565b611b95611b88565b611ba0818484611b63565b505050565b5b81811015611bc457611bb9600082611b8d565b600181019050611ba6565b5050565b601f821115611c0957611bda81611ab3565b611be384611ac8565b81016020851015611bf2578190505b611c06611bfe85611ac8565b830182611ba5565b50505b505050565b600082821c905092915050565b6000611c2c60001984600802611c0e565b1980831691505092915050565b6000611c458383611c1b565b9150826002028217905092915050565b611c5e8261145d565b67ffffffffffffffff811115611c7757611c766116a0565b5b611c818254611a82565b611c8c828285611bc8565b600060209050601f831160018114611cbf5760008415611cad578287015190505b611cb78582611c39565b865550611d1f565b601f198416611ccd86611ab3565b60005b82811015611cf557848901518255600182019150602085019450602081019050611cd0565b86831015611d125784890151611d0e601f891682611c1b565b8355505b6001600288020188555050505b505050505050565b6000611d32826112a1565b9150611d3d836112a1565b9250828203905081811115611d5557611d54611904565b5b92915050565b82818337600083830152505050565b6000611d768385611468565b9350611d83838584611d5b565b611d8c836114a3565b840190509392505050565b60006040820190508181036000830152611db2818587611d6a565b9050611dc1602083018461144e565b949350505050565b600080fd5b600067ffffffffffffffff821115611de957611de86116a0565b5b611df2826114a3565b9050602081019050919050565b6000611e12611e0d84611dce565b611700565b905082815260208101848484011115611e2e57611e2d611dc9565b5b611e39848285611479565b509392505050565b600082601f830112611e5657611e5561135f565b5b8151611e66848260208601611dff565b91505092915050565b600081519050611e7e8161121c565b92915050565b60008060008060808587031215611e9e57611e9d6111e0565b5b600085015167ffffffffffffffff811115611ebc57611ebb6111e5565b5b611ec887828801611e41565b945050602085015167ffffffffffffffff811115611ee957611ee86111e5565b5b611ef587828801611e41565b9350506040611f068782880161175e565b9250506060611f1787828801611e6f565b9150509295919450925056fea264697066735822122030c4cb9aa3c924e57bbdef747329205d13f286511dd090e61f070d888a39b7c864736f6c63430008140033",
  "linkReferences": {},
  "deployedLinkReferences": {}
}