{
  "_format": "hh-sol-artifact-1",
  "contractName": "CourseMarketplace",
  "sourceName": "contracts/CourseMarketplace.sol",
  "abi": [
    {
      "inputs": [],
      "stateMutability": "nonpayable",
      "type": "constructor"
    },
    {
      "inputs": [
        {
          "internalType": "address",
          "name": "owner",
          "type": "address"
        }
      ],
      "name": "OwnableInvalidOwner",
      "type": "error"
    },
    {
      "inputs": [
        {
          "internalType": "address",
          "name": "account",
          "type": "address"
        }
      ],
      "name": "OwnableUnauthorizedAccount",
      "type": "error"
    },
    {
      "anonymous": false,
      "inputs": [
        {
          "indexed": true,
          "internalType": "uint256",
          "name": "courseId",
          "type": "uint256"
        },
        {
          "indexed": true,
          "internalType": "address",
          "name": "instructor",
          "type": "address"
        }
      ],
      "name": "CourseCreated",
      "type": "event"
    },
    {
      "anonymous": false,
      "inputs": [
        {
          "indexed": true,
          "internalType": "uint256",
          "name": "courseId",
          "type": "uint256"
        },
        {
          "indexed": true,
          "internalType": "address",
          "name": "buyer",
          "type": "address"
        }
      ],
      "name": "CoursePurchased",
      "type": "event"
    },
    {
      "anonymous": false,
      "inputs": [
        {
          "indexed": true,
          "internalType": "address",
          "name": "previousOwner",
          "type": "address"
        },
        {
          "indexed": true,
          "internalType": "address",
          "name": "newOwner",
          "type": "address"
        }
      ],
      "name": "OwnershipTransferred",
      "type": "event"
    },
    {
      "inputs": [],
      "name": "certificateSBT",
      "outputs": [
        {
          "internalType": "contract CertificateSBT",
          "name": "",
          "type": "address"
        }
      ],
      "stateMutability": "view",
      "type": "function"
    },
    {
      "inputs": [],
      "name": "courseNFT",
      "outputs": [
        {
          "internalType": "contract CourseNFT",
          "name": "",
          "type": "address"
        }
      ],
      "stateMutability": "view",
      "type": "function"
    },
    {
      "inputs": [
        {
          "internalType": "string",
          "name": "_courseName",
          "type": "string"
        },
        {
          "internalType": "string",
          "name": "_ipfsLink",
          "type": "string"
        },
        {
          "internalType": "uint256",
          "name": "_price",
          "type": "uint256"
        }
      ],
      "name": "createCourse",
      "outputs": [
        {
          "internalType": "uint256",
          "name": "",
          "type": "uint256"
        }
      ],
      "stateMutability": "nonpayable",
      "type": "function"
    },
    {
      "inputs": [],
      "name": "getAllCourses",
      "outputs": [
        {
          "internalType": "uint256[]",
          "name": "courseIds",
          "type": "uint256[]"
        },
        {
          "internalType": "string[]",
          "name": "names",
          "type": "string[]"
        },
        {
          "internalType": "uint256[]",
          "name": "prices",
          "type": "uint256[]"
        },
        {
          "internalType": "address[]",
          "name": "instructors",
          "type": "address[]"
        }
      ],
      "stateMutability": "view",
      "type": "function"
    },
    {
      "inputs": [
        {
          "internalType": "uint256",
          "name": "courseId",
          "type": "uint256"
        }
      ],
      "name": "getCertificate",
      "outputs": [
        {
          "internalType": "uint256",
          "name": "",
          "type": "uint256"
        }
      ],
      "stateMutability": "view",
      "type": "function"
    },
    {
      "inputs": [
        {
          "internalType": "uint256",
          "name": "certificateId",
          "type": "uint256"
        }
      ],
      "name": "getCertificateURL",
      "outputs": [
        {
          "internalType": "string",
          "name": "",
          "type": "string"
        }
      ],
      "stateMutability": "view",
      "type": "function"
    },
    {
      "inputs": [],
      "name": "getCreatedCourses",
      "outputs": [
        {
          "internalType": "uint256[]",
          "name": "courseIds",
          "type": "uint256[]"
        },
        {
          "internalType": "string[]",
          "name": "names",
          "type": "string[]"
        },
        {
          "internalType": "uint256[]",
          "name": "prices",
          "type": "uint256[]"
        },
        {
          "internalType": "address[]",
          "name": "instructors",
          "type": "address[]"
        },
        {
          "internalType": "string[]",
          "name": "ipfsLinks",
          "type": "string[]"
        }
      ],
      "stateMutability": "view",
      "type": "function"
    },
    {
      "inputs": [],
      "name": "getPurchasedCourses",
      "outputs": [
        {
          "internalType": "uint256[]",
          "name": "courseIds",
          "type": "uint256[]"
        },
        {
          "internalType": "string[]",
          "name": "names",
          "type": "string[]"
        },
        {
          "internalType": "uint256[]",
          "name": "prices",
          "type": "uint256[]"
        },
        {
          "internalType": "address[]",
          "name": "instructors",
          "type": "address[]"
        },
        {
          "internalType": "string[]",
          "name": "ipfsLinks",
          "type": "string[]"
        }
      ],
      "stateMutability": "view",
      "type": "function"
    },
    {
      "inputs": [
        {
          "internalType": "uint256",
          "name": "courseId",
          "type": "uint256"
        },
        {
          "internalType": "string",
          "name": "uri",
          "type": "string"
        }
      ],
      "name": "issueCertificate",
      "outputs": [
        {
          "internalType": "uint256",
          "name": "",
          "type": "uint256"
        }
      ],
      "stateMutability": "nonpayable",
      "type": "function"
    },
    {
      "inputs": [],
      "name": "loginUser",
      "outputs": [
        {
          "internalType": "address",
          "name": "",
          "type": "address"
        },
        {
          "internalType": "string",
          "name": "",
          "type": "string"
        },
        {
          "internalType": "bool",
          "name": "isInstructor",
          "type": "bool"
        }
      ],
      "stateMutability": "view",
      "type": "function"
    },
    {
      "inputs": [],
      "name": "owner",
      "outputs": [
        {
          "internalType": "address",
          "name": "",
          "type": "address"
        }
      ],
      "stateMutability": "view",
      "type": "function"
    },
    {
      "inputs": [
        {
          "internalType": "uint256",
          "name": "_courseId",
          "type": "uint256"
        }
      ],
      "name": "purchaseCourse",
      "outputs": [],
      "stateMutability": "payable",
      "type": "function"
    },
    {
      "inputs": [
        {
          "internalType": "string",
          "name": "_username",
          "type": "string"
        },
        {
          "internalType": "bool",
          "name": "_isInstructor",
          "type": "bool"
        }
      ],
      "name": "registerUser",
      "outputs": [],
      "stateMutability": "nonpayable",
      "type": "function"
    },
    {
      "inputs": [],
      "name": "renounceOwnership",
      "outputs": [],
      "stateMutability": "nonpayable",
      "type": "function"
    },
    {
      "inputs": [
        {
          "internalType": "address",
          "name": "newOwner",
          "type": "address"
        }
      ],
      "name": "transferOwnership",
      "outputs": [],
      "stateMutability": "nonpayable",
      "type": "function"
    },
    {
      "inputs": [],
      "name": "userRegistry",
      "outputs": [
        {
          "internalType": "contract UserRegistry",
          "name": "",
          "type": "address"
        }
      ],
      "stateMutability": "view",
      "type": "function"
    }
  ],
  "bytecode": "0x60806040523480156200001157600080fd5b5033600073ffffffffffffffffffffffffffffffffffffffff168173ffffffffffffffffffffffffffffffffffffffff1603620000885760006040517f1e4fbdf70000000000000000000000000000000000000000000000000000000081526004016200007f91906200047d565b60405180910390fd5b62000099816200034a60201b60201c565b50604051620000a8906200040e565b604051809103906000f080158015620000c5573d6000803e3d6000fd5b50600160006101000a81548173ffffffffffffffffffffffffffffffffffffffff021916908373ffffffffffffffffffffffffffffffffffffffff16021790555060405162000114906200041c565b604051809103906000f08015801562000131573d6000803e3d6000fd5b50600260006101000a81548173ffffffffffffffffffffffffffffffffffffffff021916908373ffffffffffffffffffffffffffffffffffffffff16021790555060405162000180906200042a565b604051809103906000f0801580156200019d573d6000803e3d6000fd5b50600360006101000a81548173ffffffffffffffffffffffffffffffffffffffff021916908373ffffffffffffffffffffffffffffffffffffffff160217905550600360009054906101000a900473ffffffffffffffffffffffffffffffffffffffff1673ffffffffffffffffffffffffffffffffffffffff166394e05dd7600160009054906101000a900473ffffffffffffffffffffffffffffffffffffffff166040518263ffffffff1660e01b81526004016200025d91906200047d565b600060405180830381600087803b1580156200027857600080fd5b505af11580156200028d573d6000803e3d6000fd5b50505050600260009054906101000a900473ffffffffffffffffffffffffffffffffffffffff1673ffffffffffffffffffffffffffffffffffffffff166394e05dd7600160009054906101000a900473ffffffffffffffffffffffffffffffffffffffff166040518263ffffffff1660e01b81526004016200031091906200047d565b600060405180830381600087803b1580156200032b57600080fd5b505af115801562000340573d6000803e3d6000fd5b505050506200049a565b60008060009054906101000a900473ffffffffffffffffffffffffffffffffffffffff169050816000806101000a81548173ffffffffffffffffffffffffffffffffffffffff021916908373ffffffffffffffffffffffffffffffffffffffff1602179055508173ffffffffffffffffffffffffffffffffffffffff168173ffffffffffffffffffffffffffffffffffffffff167f8be0079c531659141344cd1fd0a4f28419497f9722a3daafe3b4186f6b6457e060405160405180910390a35050565b613fe58062002cd483390190565b6123af8062006cb983390190565b611b0d806200906883390190565b600073ffffffffffffffffffffffffffffffffffffffff82169050919050565b6000620004658262000438565b9050919050565b620004778162000458565b82525050565b60006020820190506200049460008301846200046c565b92915050565b61282a80620004aa6000396000f3fe6080604052600436106100f35760003560e01c8063862807ff1161008a578063a998ffb311610059578063a998ffb31461033b578063c078c03014610366578063cd13193814610391578063f2fde38b146103ad576100f3565b8063862807ff146102695780638da5cb5b146102a6578063a19ed686146102d1578063a4adb24b146102fe576100f3565b806351640fee116100c657806351640fee146101c15780635c7460d6146101fe578063715018a61461022957806379b233db14610240576100f3565b806304e48bd1146100f85780630c816de4146101265780631a11cb231461016357806349d3c8e914610192575b600080fd5b34801561010457600080fd5b5061010d6103d6565b60405161011d9493929190611afc565b60405180910390f35b34801561013257600080fd5b5061014d60048036038101906101489190611cd2565b6106d2565b60405161015a9190611d3d565b60405180910390f35b34801561016f57600080fd5b5061017861077e565b604051610189959493929190611d58565b60405180910390f35b34801561019e57600080fd5b506101a7610af3565b6040516101b8959493929190611d58565b60405180910390f35b3480156101cd57600080fd5b506101e860048036038101906101e39190611dce565b610e68565b6040516101f59190611d3d565b60405180910390f35b34801561020a57600080fd5b50610213610f0f565b6040516102209190611e5a565b60405180910390f35b34801561023557600080fd5b5061023e610f35565b005b34801561024c57600080fd5b5061026760048036038101906102629190611f0d565b610f49565b005b34801561027557600080fd5b50610290600480360381019061028b9190611dce565b610fe1565b60405161029d9190611fb7565b60405180910390f35b3480156102b257600080fd5b506102bb61108b565b6040516102c89190611fe8565b60405180910390f35b3480156102dd57600080fd5b506102e66110b4565b6040516102f593929190612012565b60405180910390f35b34801561030a57600080fd5b5061032560048036038101906103209190612050565b611166565b6040516103329190611d3d565b60405180910390f35b34801561034757600080fd5b5061035061141b565b60405161035d9190612106565b60405180910390f35b34801561037257600080fd5b5061037b611441565b6040516103889190612142565b60405180910390f35b6103ab60048036038101906103a69190611dce565b611467565b005b3480156103b957600080fd5b506103d460048036038101906103cf9190612189565b611619565b005b6060806060806000600160009054906101000a900473ffffffffffffffffffffffffffffffffffffffff1673ffffffffffffffffffffffffffffffffffffffff1663fbd8e3976040518163ffffffff1660e01b8152600401600060405180830381865afa15801561044b573d6000803e3d6000fd5b505050506040513d6000823e3d601f19601f82011682018060405250810190610474919061228e565b90506000815190508067ffffffffffffffff81111561049657610495611ba7565b5b6040519080825280602002602001820160405280156104c957816020015b60608152602001906001900390816104b45790505b5094508067ffffffffffffffff8111156104e6576104e5611ba7565b5b6040519080825280602002602001820160405280156105145781602001602082028036833780820191505090505b5093508067ffffffffffffffff81111561053157610530611ba7565b5b60405190808252806020026020018201604052801561055f5781602001602082028036833780820191505090505b50925060005b818110156106c657600160009054906101000a900473ffffffffffffffffffffffffffffffffffffffff1673ffffffffffffffffffffffffffffffffffffffff1663610b31a68483815181106105be576105bd6122d7565b5b60200260200101516040518263ffffffff1660e01b81526004016105e29190611d3d565b600060405180830381865afa1580156105ff573d6000803e3d6000fd5b505050506040513d6000823e3d601f19601f82011682018060405250810190610628919061238b565b90915088848151811061063e5761063d6122d7565b5b60200260200101888581518110610658576106576122d7565b5b60200260200101888681518110610672576106716122d7565b5b602002602001018373ffffffffffffffffffffffffffffffffffffffff1673ffffffffffffffffffffffffffffffffffffffff168152508381525083905250505080806106be90612459565b915050610565565b50819550505090919293565b6000600360009054906101000a900473ffffffffffffffffffffffffffffffffffffffff1673ffffffffffffffffffffffffffffffffffffffff16631cff57823385856040518463ffffffff1660e01b8152600401610733939291906124a1565b6020604051808303816000875af1158015610752573d6000803e3d6000fd5b505050506040513d601f19601f8201168201806040525081019061077691906124df565b905092915050565b60608060608060606000600260009054906101000a900473ffffffffffffffffffffffffffffffffffffffff1673ffffffffffffffffffffffffffffffffffffffff1663a64e398f336040518263ffffffff1660e01b81526004016107e39190611fe8565b600060405180830381865afa158015610800573d6000803e3d6000fd5b505050506040513d6000823e3d601f19601f82011682018060405250810190610829919061228e565b90506000815190508067ffffffffffffffff81111561084b5761084a611ba7565b5b60405190808252806020026020018201604052801561087e57816020015b60608152602001906001900390816108695790505b5095508067ffffffffffffffff81111561089b5761089a611ba7565b5b6040519080825280602002602001820160405280156108c95781602001602082028036833780820191505090505b5094508067ffffffffffffffff8111156108e6576108e5611ba7565b5b6040519080825280602002602001820160405280156109145781602001602082028036833780820191505090505b5093508067ffffffffffffffff81111561093157610930611ba7565b5b60405190808252806020026020018201604052801561096457816020015b606081526020019060019003908161094f5790505b50925060005b81811015610ae657600160009054906101000a900473ffffffffffffffffffffffffffffffffffffffff1673ffffffffffffffffffffffffffffffffffffffff1663610b31a68483815181106109c3576109c26122d7565b5b60200260200101516040518263ffffffff1660e01b81526004016109e79190611d3d565b600060405180830381865afa158015610a04573d6000803e3d6000fd5b505050506040513d6000823e3d601f19601f82011682018060405250810190610a2d919061238b565b8a8581518110610a4057610a3f6122d7565b5b60200260200101888681518110610a5a57610a596122d7565b5b602002602001018b8781518110610a7457610a736122d7565b5b602002602001018b8881518110610a8e57610a8d6122d7565b5b602002602001018473ffffffffffffffffffffffffffffffffffffffff1673ffffffffffffffffffffffffffffffffffffffff1681525084815250849052849052505050508080610ade90612459565b91505061096a565b5081965050509091929394565b60608060608060606000600260009054906101000a900473ffffffffffffffffffffffffffffffffffffffff1673ffffffffffffffffffffffffffffffffffffffff16630a5fa7f2336040518263ffffffff1660e01b8152600401610b589190611fe8565b600060405180830381865afa158015610b75573d6000803e3d6000fd5b505050506040513d6000823e3d601f19601f82011682018060405250810190610b9e919061228e565b90506000815190508067ffffffffffffffff811115610bc057610bbf611ba7565b5b604051908082528060200260200182016040528015610bf357816020015b6060815260200190600190039081610bde5790505b5095508067ffffffffffffffff811115610c1057610c0f611ba7565b5b604051908082528060200260200182016040528015610c3e5781602001602082028036833780820191505090505b5094508067ffffffffffffffff811115610c5b57610c5a611ba7565b5b604051908082528060200260200182016040528015610c895781602001602082028036833780820191505090505b5093508067ffffffffffffffff811115610ca657610ca5611ba7565b5b604051908082528060200260200182016040528015610cd957816020015b6060815260200190600190039081610cc45790505b50925060005b81811015610e5b57600160009054906101000a900473ffffffffffffffffffffffffffffffffffffffff1673ffffffffffffffffffffffffffffffffffffffff1663610b31a6848381518110610d3857610d376122d7565b5b60200260200101516040518263ffffffff1660e01b8152600401610d5c9190611d3d565b600060405180830381865afa158015610d79573d6000803e3d6000fd5b505050506040513d6000823e3d601f19601f82011682018060405250810190610da2919061238b565b8a8581518110610db557610db46122d7565b5b60200260200101888681518110610dcf57610dce6122d7565b5b602002602001018b8781518110610de957610de86122d7565b5b602002602001018b8881518110610e0357610e026122d7565b5b602002602001018473ffffffffffffffffffffffffffffffffffffffff1673ffffffffffffffffffffffffffffffffffffffff1681525084815250849052849052505050508080610e5390612459565b915050610cdf565b5081965050509091929394565b6000600360009054906101000a900473ffffffffffffffffffffffffffffffffffffffff1673ffffffffffffffffffffffffffffffffffffffff1663817bb33133846040518363ffffffff1660e01b8152600401610ec792919061250c565b602060405180830381865afa158015610ee4573d6000803e3d6000fd5b505050506040513d601f19601f82011682018060405250810190610f0891906124df565b9050919050565b600260009054906101000a900473ffffffffffffffffffffffffffffffffffffffff1681565b610f3d61169f565b610f476000611726565b565b600260009054906101000a900473ffffffffffffffffffffffffffffffffffffffff1673ffffffffffffffffffffffffffffffffffffffff16631897c0bc338585856040518563ffffffff1660e01b8152600401610faa9493929190612562565b600060405180830381600087803b158015610fc457600080fd5b505af1158015610fd8573d6000803e3d6000fd5b50505050505050565b6060600360009054906101000a900473ffffffffffffffffffffffffffffffffffffffff1673ffffffffffffffffffffffffffffffffffffffff1663862807ff836040518263ffffffff1660e01b815260040161103e9190611d3d565b600060405180830381865afa15801561105b573d6000803e3d6000fd5b505050506040513d6000823e3d601f19601f8201168201806040525081019061108491906125a2565b9050919050565b60008060009054906101000a900473ffffffffffffffffffffffffffffffffffffffff16905090565b600060606000600260009054906101000a900473ffffffffffffffffffffffffffffffffffffffff1673ffffffffffffffffffffffffffffffffffffffff1663ffc9896b336040518263ffffffff1660e01b81526004016111159190611fe8565b600060405180830381865afa158015611132573d6000803e3d6000fd5b505050506040513d6000823e3d601f19601f8201168201806040525081019061115b9190612600565b925092509250909192565b6000600260009054906101000a900473ffffffffffffffffffffffffffffffffffffffff1673ffffffffffffffffffffffffffffffffffffffff1663c3c5a547336040518263ffffffff1660e01b81526004016111c39190611fe8565b602060405180830381865afa1580156111e0573d6000803e3d6000fd5b505050506040513d601f19601f82011682018060405250810190611204919061266f565b611243576040517f08c379a000000000000000000000000000000000000000000000000000000000815260040161123a906126e8565b60405180910390fd5b600260009054906101000a900473ffffffffffffffffffffffffffffffffffffffff1673ffffffffffffffffffffffffffffffffffffffff1663a3afcea2336040518263ffffffff1660e01b815260040161129e9190611fe8565b602060405180830381865afa1580156112bb573d6000803e3d6000fd5b505050506040513d601f19601f820116820180604052508101906112df919061266f565b61131e576040517f08c379a000000000000000000000000000000000000000000000000000000000815260040161131590612754565b60405180910390fd5b6000600160009054906101000a900473ffffffffffffffffffffffffffffffffffffffff1673ffffffffffffffffffffffffffffffffffffffff1663a1b66b6c8888888888336040518763ffffffff1660e01b815260040161138596959493929190612774565b6020604051808303816000875af11580156113a4573d6000803e3d6000fd5b505050506040513d601f19601f820116820180604052508101906113c891906124df565b90503373ffffffffffffffffffffffffffffffffffffffff16817fa68f79aa37f9cdc81c2757cfb3e11e9d7d89ca0a5410fbcf1b61125bc17fb1b760405160405180910390a38091505095945050505050565b600160009054906101000a900473ffffffffffffffffffffffffffffffffffffffff1681565b600360009054906101000a900473ffffffffffffffffffffffffffffffffffffffff1681565b600260009054906101000a900473ffffffffffffffffffffffffffffffffffffffff1673ffffffffffffffffffffffffffffffffffffffff1663c3c5a547336040518263ffffffff1660e01b81526004016114c29190611fe8565b602060405180830381865afa1580156114df573d6000803e3d6000fd5b505050506040513d601f19601f82011682018060405250810190611503919061266f565b611542576040517f08c379a0000000000000000000000000000000000000000000000000000000008152600401611539906126e8565b60405180910390fd5b600160009054906101000a900473ffffffffffffffffffffffffffffffffffffffff1673ffffffffffffffffffffffffffffffffffffffff1663985bf63a3483336040518463ffffffff1660e01b81526004016115a09291906127cb565b6000604051808303818588803b1580156115b957600080fd5b505af11580156115cd573d6000803e3d6000fd5b50505050503373ffffffffffffffffffffffffffffffffffffffff16817f8120f2f8a682e2fd88bad8beb5760b02b7fec7a59d2d9bebb84b3e277bc152d260405160405180910390a350565b61162161169f565b600073ffffffffffffffffffffffffffffffffffffffff168173ffffffffffffffffffffffffffffffffffffffff16036116935760006040517f1e4fbdf700000000000000000000000000000000000000000000000000000000815260040161168a9190611fe8565b60405180910390fd5b61169c81611726565b50565b6116a76117ea565b73ffffffffffffffffffffffffffffffffffffffff166116c561108b565b73ffffffffffffffffffffffffffffffffffffffff1614611724576116e86117ea565b6040517f118cdaa700000000000000000000000000000000000000000000000000000000815260040161171b9190611fe8565b60405180910390fd5b565b60008060009054906101000a900473ffffffffffffffffffffffffffffffffffffffff169050816000806101000a81548173ffffffffffffffffffffffffffffffffffffffff021916908373ffffffffffffffffffffffffffffffffffffffff1602179055508173ffffffffffffffffffffffffffffffffffffffff168173ffffffffffffffffffffffffffffffffffffffff167f8be0079c531659141344cd1fd0a4f28419497f9722a3daafe3b4186f6b6457e060405160405180910390a35050565b600033905090565b600081519050919050565b600082825260208201905092915050565b6000819050602082019050919050565b6000819050919050565b6118318161181e565b82525050565b60006118438383611828565b60208301905092915050565b6000602082019050919050565b6000611867826117f2565b61187181856117fd565b935061187c8361180e565b8060005b838110156118ad5781516118948882611837565b975061189f8361184f565b925050600181019050611880565b5085935050505092915050565b600081519050919050565b600082825260208201905092915050565b6000819050602082019050919050565b600081519050919050565b600082825260208201905092915050565b60005b83811015611920578082015181840152602081019050611905565b60008484015250505050565b6000601f19601f8301169050919050565b6000611948826118e6565b61195281856118f1565b9350611962818560208601611902565b61196b8161192c565b840191505092915050565b6000611982838361193d565b905092915050565b6000602082019050919050565b60006119a2826118ba565b6119ac81856118c5565b9350836020820285016119be856118d6565b8060005b858110156119fa57848403895281516119db8582611976565b94506119e68361198a565b925060208a019950506001810190506119c2565b50829750879550505050505092915050565b600081519050919050565b600082825260208201905092915050565b6000819050602082019050919050565b600073ffffffffffffffffffffffffffffffffffffffff82169050919050565b6000611a6382611a38565b9050919050565b611a7381611a58565b82525050565b6000611a858383611a6a565b60208301905092915050565b6000602082019050919050565b6000611aa982611a0c565b611ab38185611a17565b9350611abe83611a28565b8060005b83811015611aef578151611ad68882611a79565b9750611ae183611a91565b925050600181019050611ac2565b5085935050505092915050565b60006080820190508181036000830152611b16818761185c565b90508181036020830152611b2a8186611997565b90508181036040830152611b3e818561185c565b90508181036060830152611b528184611a9e565b905095945050505050565b6000604051905090565b600080fd5b600080fd5b611b7a8161181e565b8114611b8557600080fd5b50565b600081359050611b9781611b71565b92915050565b600080fd5b600080fd5b7f4e487b7100000000000000000000000000000000000000000000000000000000600052604160045260246000fd5b611bdf8261192c565b810181811067ffffffffffffffff82111715611bfe57611bfd611ba7565b5b80604052505050565b6000611c11611b5d565b9050611c1d8282611bd6565b919050565b600067ffffffffffffffff821115611c3d57611c3c611ba7565b5b611c468261192c565b9050602081019050919050565b82818337600083830152505050565b6000611c75611c7084611c22565b611c07565b905082815260208101848484011115611c9157611c90611ba2565b5b611c9c848285611c53565b509392505050565b600082601f830112611cb957611cb8611b9d565b5b8135611cc9848260208601611c62565b91505092915050565b60008060408385031215611ce957611ce8611b67565b5b6000611cf785828601611b88565b925050602083013567ffffffffffffffff811115611d1857611d17611b6c565b5b611d2485828601611ca4565b9150509250929050565b611d378161181e565b82525050565b6000602082019050611d526000830184611d2e565b92915050565b600060a0820190508181036000830152611d72818861185c565b90508181036020830152611d868187611997565b90508181036040830152611d9a818661185c565b90508181036060830152611dae8185611a9e565b90508181036080830152611dc28184611997565b90509695505050505050565b600060208284031215611de457611de3611b67565b5b6000611df284828501611b88565b91505092915050565b6000819050919050565b6000611e20611e1b611e1684611a38565b611dfb565b611a38565b9050919050565b6000611e3282611e05565b9050919050565b6000611e4482611e27565b9050919050565b611e5481611e39565b82525050565b6000602082019050611e6f6000830184611e4b565b92915050565b600080fd5b600080fd5b60008083601f840112611e9557611e94611b9d565b5b8235905067ffffffffffffffff811115611eb257611eb1611e75565b5b602083019150836001820283011115611ece57611ecd611e7a565b5b9250929050565b60008115159050919050565b611eea81611ed5565b8114611ef557600080fd5b50565b600081359050611f0781611ee1565b92915050565b600080600060408486031215611f2657611f25611b67565b5b600084013567ffffffffffffffff811115611f4457611f43611b6c565b5b611f5086828701611e7f565b93509350506020611f6386828701611ef8565b9150509250925092565b600082825260208201905092915050565b6000611f89826118e6565b611f938185611f6d565b9350611fa3818560208601611902565b611fac8161192c565b840191505092915050565b60006020820190508181036000830152611fd18184611f7e565b905092915050565b611fe281611a58565b82525050565b6000602082019050611ffd6000830184611fd9565b92915050565b61200c81611ed5565b82525050565b60006060820190506120276000830186611fd9565b81810360208301526120398185611f7e565b90506120486040830184612003565b949350505050565b60008060008060006060868803121561206c5761206b611b67565b5b600086013567ffffffffffffffff81111561208a57612089611b6c565b5b61209688828901611e7f565b9550955050602086013567ffffffffffffffff8111156120b9576120b8611b6c565b5b6120c588828901611e7f565b935093505060406120d888828901611b88565b9150509295509295909350565b60006120f082611e27565b9050919050565b612100816120e5565b82525050565b600060208201905061211b60008301846120f7565b92915050565b600061212c82611e27565b9050919050565b61213c81612121565b82525050565b60006020820190506121576000830184612133565b92915050565b61216681611a58565b811461217157600080fd5b50565b6000813590506121838161215d565b92915050565b60006020828403121561219f5761219e611b67565b5b60006121ad84828501612174565b91505092915050565b600067ffffffffffffffff8211156121d1576121d0611ba7565b5b602082029050602081019050919050565b6000815190506121f181611b71565b92915050565b600061220a612205846121b6565b611c07565b9050808382526020820190506020840283018581111561222d5761222c611e7a565b5b835b81811015612256578061224288826121e2565b84526020840193505060208101905061222f565b5050509392505050565b600082601f83011261227557612274611b9d565b5b81516122858482602086016121f7565b91505092915050565b6000602082840312156122a4576122a3611b67565b5b600082015167ffffffffffffffff8111156122c2576122c1611b6c565b5b6122ce84828501612260565b91505092915050565b7f4e487b7100000000000000000000000000000000000000000000000000000000600052603260045260246000fd5b600061231961231484611c22565b611c07565b90508281526020810184848401111561233557612334611ba2565b5b612340848285611902565b509392505050565b600082601f83011261235d5761235c611b9d565b5b815161236d848260208601612306565b91505092915050565b6000815190506123858161215d565b92915050565b600080600080608085870312156123a5576123a4611b67565b5b600085015167ffffffffffffffff8111156123c3576123c2611b6c565b5b6123cf87828801612348565b945050602085015167ffffffffffffffff8111156123f0576123ef611b6c565b5b6123fc87828801612348565b935050604061240d878288016121e2565b925050606061241e87828801612376565b91505092959194509250565b7f4e487b7100000000000000000000000000000000000000000000000000000000600052601160045260246000fd5b60006124648261181e565b91507fffffffffffffffffffffffffffffffffffffffffffffffffffffffffffffffff82036124965761249561242a565b5b600182019050919050565b60006060820190506124b66000830186611fd9565b6124c36020830185611d2e565b81810360408301526124d58184611f7e565b9050949350505050565b6000602082840312156124f5576124f4611b67565b5b6000612503848285016121e2565b91505092915050565b60006040820190506125216000830185611fd9565b61252e6020830184611d2e565b9392505050565b60006125418385611f6d565b935061254e838584611c53565b6125578361192c565b840190509392505050565b60006060820190506125776000830187611fd9565b818103602083015261258a818587612535565b90506125996040830184612003565b95945050505050565b6000602082840312156125b8576125b7611b67565b5b600082015167ffffffffffffffff8111156125d6576125d5611b6c565b5b6125e284828501612348565b91505092915050565b6000815190506125fa81611ee1565b92915050565b60008060006060848603121561261957612618611b67565b5b600061262786828701612376565b935050602084015167ffffffffffffffff81111561264857612647611b6c565b5b61265486828701612348565b9250506040612665868287016125eb565b9150509250925092565b60006020828403121561268557612684611b67565b5b6000612693848285016125eb565b91505092915050565b7f55736572206e6f74207265676973746572656400000000000000000000000000600082015250565b60006126d2601383611f6d565b91506126dd8261269c565b602082019050919050565b60006020820190508181036000830152612701816126c5565b9050919050565b7f55736572206e6f7420696e7374727563746f7200000000000000000000000000600082015250565b600061273e601383611f6d565b915061274982612708565b602082019050919050565b6000602082019050818103600083015261276d81612731565b9050919050565b6000608082019050818103600083015261278f81888a612535565b905081810360208301526127a4818688612535565b90506127b36040830185611d2e565b6127c06060830184611fd9565b979650505050505050565b60006040820190506127e06000830185611d2e565b6127ed6020830184611fd9565b939250505056fea2646970667358221220f3a91076577f9672e11b0067918962092aba643d68ad830bcfad0b48ef9f98b064736f6c6343000814003360806040523480156200001157600080fd5b5033604051806020016040528060008152506200003481620000ca60201b60201c565b50600073ffffffffffffffffffffffffffffffffffffffff168173ffffffffffffffffffffffffffffffffffffffff1603620000aa5760006040517f1e4fbdf7000000000000000000000000000000000000000000000000000000008152600401620000a19190620001ea565b60405180910390fd5b620000bb81620000df60201b60201c565b50600060068190555062000568565b8060029081620000db919062000481565b5050565b6000600360009054906101000a900473ffffffffffffffffffffffffffffffffffffffff16905081600360006101000a81548173ffffffffffffffffffffffffffffffffffffffff021916908373ffffffffffffffffffffffffffffffffffffffff1602179055508173ffffffffffffffffffffffffffffffffffffffff168173ffffffffffffffffffffffffffffffffffffffff167f8be0079c531659141344cd1fd0a4f28419497f9722a3daafe3b4186f6b6457e060405160405180910390a35050565b600073ffffffffffffffffffffffffffffffffffffffff82169050919050565b6000620001d282620001a5565b9050919050565b620001e481620001c5565b82525050565b6000602082019050620002016000830184620001d9565b92915050565b600081519050919050565b7f4e487b7100000000000000000000000000000000000000000000000000000000600052604160045260246000fd5b7f4e487b7100000000000000000000000000000000000000000000000000000000600052602260045260246000fd5b600060028204905060018216806200028957607f821691505b6020821081036200029f576200029e62000241565b5b50919050565b60008190508160005260206000209050919050565b60006020601f8301049050919050565b600082821b905092915050565b600060088302620003097fffffffffffffffffffffffffffffffffffffffffffffffffffffffffffffffff82620002ca565b620003158683620002ca565b95508019841693508086168417925050509392505050565b6000819050919050565b6000819050919050565b6000620003626200035c62000356846200032d565b62000337565b6200032d565b9050919050565b6000819050919050565b6200037e8362000341565b620003966200038d8262000369565b848454620002d7565b825550505050565b600090565b620003ad6200039e565b620003ba81848462000373565b505050565b5b81811015620003e257620003d6600082620003a3565b600181019050620003c0565b5050565b601f8211156200043157620003fb81620002a5565b6200040684620002ba565b8101602085101562000416578190505b6200042e6200042585620002ba565b830182620003bf565b50505b505050565b600082821c905092915050565b6000620004566000198460080262000436565b1980831691505092915050565b600062000471838362000443565b9150826002028217905092915050565b6200048c8262000207565b67ffffffffffffffff811115620004a857620004a762000212565b5b620004b4825462000270565b620004c1828285620003e6565b600060209050601f831160018114620004f95760008415620004e4578287015190505b620004f0858262000463565b86555062000560565b601f1984166200050986620002a5565b60005b8281101562000533578489015182556001820191506020850194506020810190506200050c565b868310156200055357848901516200054f601f89168262000443565b8355505b6001600288020188555050505b505050505050565b613a6d80620005786000396000f3fe6080604052600436106100fd5760003560e01c80638da5cb5b11610095578063c6530e4111610064578063c6530e4114610360578063e985e9c51461039d578063f242432a146103da578063f2fde38b14610403578063fbd8e3971461042c576100fd565b80638da5cb5b146102b3578063985bf63a146102de578063a1b66b6c146102fa578063a22cb46514610337576100fd565b80634e1273f4116100d15780634e1273f4146101e2578063610b31a61461021f578063715018a61461025f5780637eb1499014610276576100fd565b8062fdd58e1461010257806301ffc9a71461013f5780630e89341c1461017c5780632eb2c2d6146101b9575b600080fd5b34801561010e57600080fd5b5061012960048036038101906101249190612749565b610457565b6040516101369190612798565b60405180910390f35b34801561014b57600080fd5b506101666004803603810190610161919061280b565b6104b1565b6040516101739190612853565b60405180910390f35b34801561018857600080fd5b506101a3600480360381019061019e919061286e565b610593565b6040516101b0919061292b565b60405180910390f35b3480156101c557600080fd5b506101e060048036038101906101db9190612b4a565b6107a7565b005b3480156101ee57600080fd5b5061020960048036038101906102049190612cdc565b61084f565b6040516102169190612e12565b60405180910390f35b34801561022b57600080fd5b506102466004803603810190610241919061286e565b61095e565b6040516102569493929190612e43565b60405180910390f35b34801561026b57600080fd5b50610274610b8d565b005b34801561028257600080fd5b5061029d60048036038101906102989190612749565b610ba1565b6040516102aa9190612853565b60405180910390f35b3480156102bf57600080fd5b506102c8610dde565b6040516102d59190612e96565b60405180910390f35b6102f860048036038101906102f39190612eb1565b610e08565b005b34801561030657600080fd5b50610321600480360381019061031c9190612f4c565b6111ac565b60405161032e9190612798565b60405180910390f35b34801561034357600080fd5b5061035e6004803603810190610359919061301f565b611460565b005b34801561036c57600080fd5b5061038760048036038101906103829190612749565b611476565b6040516103949190612853565b60405180910390f35b3480156103a957600080fd5b506103c460048036038101906103bf919061305f565b61169c565b6040516103d19190612853565b60405180910390f35b3480156103e657600080fd5b5061040160048036038101906103fc919061309f565b611730565b005b34801561040f57600080fd5b5061042a60048036038101906104259190613136565b6117d8565b005b34801561043857600080fd5b5061044161185e565b60405161044e9190612e12565b60405180910390f35b600080600083815260200190815260200160002060008473ffffffffffffffffffffffffffffffffffffffff1673ffffffffffffffffffffffffffffffffffffffff16815260200190815260200160002054905092915050565b60007fd9b67a26000000000000000000000000000000000000000000000000000000007bffffffffffffffffffffffffffffffffffffffffffffffffffffffff1916827bffffffffffffffffffffffffffffffffffffffffffffffffffffffff1916148061057c57507f0e89341c000000000000000000000000000000000000000000000000000000007bffffffffffffffffffffffffffffffffffffffffffffffffffffffff1916827bffffffffffffffffffffffffffffffffffffffffffffffffffffffff1916145b8061058c575061058b826118b6565b5b9050919050565b60606000600560008481526020019081526020016000206040518060a00160405290816000820180546105c590613192565b80601f01602080910402602001604051908101604052809291908181526020018280546105f190613192565b801561063e5780601f106106135761010080835404028352916020019161063e565b820191906000526020600020905b81548152906001019060200180831161062157829003601f168201915b5050505050815260200160018201805461065790613192565b80601f016020809104026020016040519081016040528092919081815260200182805461068390613192565b80156106d05780601f106106a5576101008083540402835291602001916106d0565b820191906000526020600020905b8154815290600101906020018083116106b357829003601f168201915b50505050508152602001600282015481526020016003820160009054906101000a900473ffffffffffffffffffffffffffffffffffffffff1673ffffffffffffffffffffffffffffffffffffffff1673ffffffffffffffffffffffffffffffffffffffff1681526020016003820160149054906101000a900460ff1615151515815250509050806080015161079a576040517f08c379a00000000000000000000000000000000000000000000000000000000081526004016107919061320f565b60405180910390fd5b8060200151915050919050565b60006107b1611920565b90508073ffffffffffffffffffffffffffffffffffffffff168673ffffffffffffffffffffffffffffffffffffffff16141580156107f657506107f4868261169c565b155b1561083a5780866040517fe237d92200000000000000000000000000000000000000000000000000000000815260040161083192919061322f565b60405180910390fd5b6108478686868686611928565b505050505050565b6060815183511461089b57815183516040517f5b059991000000000000000000000000000000000000000000000000000000008152600401610892929190613258565b60405180910390fd5b6000835167ffffffffffffffff8111156108b8576108b7612952565b5b6040519080825280602002602001820160405280156108e65781602001602082028036833780820191505090505b50905060005b84518110156109535761092361090b8287611a2090919063ffffffff16565b61091e8387611a3490919063ffffffff16565b610457565b82828151811061093657610935613281565b5b6020026020010181815250508061094c906132df565b90506108ec565b508091505092915050565b6060806000806000600560008781526020019081526020016000206040518060a001604052908160008201805461099490613192565b80601f01602080910402602001604051908101604052809291908181526020018280546109c090613192565b8015610a0d5780601f106109e257610100808354040283529160200191610a0d565b820191906000526020600020905b8154815290600101906020018083116109f057829003601f168201915b50505050508152602001600182018054610a2690613192565b80601f0160208091040260200160405190810160405280929190818152602001828054610a5290613192565b8015610a9f5780601f10610a7457610100808354040283529160200191610a9f565b820191906000526020600020905b815481529060010190602001808311610a8257829003601f168201915b50505050508152602001600282015481526020016003820160009054906101000a900473ffffffffffffffffffffffffffffffffffffffff1673ffffffffffffffffffffffffffffffffffffffff1673ffffffffffffffffffffffffffffffffffffffff1681526020016003820160149054906101000a900460ff16151515158152505090508060800151610b69576040517f08c379a0000000000000000000000000000000000000000000000000000000008152600401610b6090613373565b60405180910390fd5b80600001518160200151826040015183606001519450945094509450509193509193565b610b95611a48565b610b9f6000611acf565b565b600080600560008481526020019081526020016000206040518060a0016040529081600082018054610bd290613192565b80601f0160208091040260200160405190810160405280929190818152602001828054610bfe90613192565b8015610c4b5780601f10610c2057610100808354040283529160200191610c4b565b820191906000526020600020905b815481529060010190602001808311610c2e57829003601f168201915b50505050508152602001600182018054610c6490613192565b80601f0160208091040260200160405190810160405280929190818152602001828054610c9090613192565b8015610cdd5780601f10610cb257610100808354040283529160200191610cdd565b820191906000526020600020905b815481529060010190602001808311610cc057829003601f168201915b50505050508152602001600282015481526020016003820160009054906101000a900473ffffffffffffffffffffffffffffffffffffffff1673ffffffffffffffffffffffffffffffffffffffff1673ffffffffffffffffffffffffffffffffffffffff1681526020016003820160149054906101000a900460ff16151515158152505090508060800151610d76576000915050610dd8565b6004600084815260200190815260200160002060008573ffffffffffffffffffffffffffffffffffffffff1673ffffffffffffffffffffffffffffffffffffffff16815260200190815260200160002060009054906101000a900460ff169150505b92915050565b6000600360009054906101000a900473ffffffffffffffffffffffffffffffffffffffff16905090565b6000600560008481526020019081526020016000206040518060a0016040529081600082018054610e3890613192565b80601f0160208091040260200160405190810160405280929190818152602001828054610e6490613192565b8015610eb15780601f10610e8657610100808354040283529160200191610eb1565b820191906000526020600020905b815481529060010190602001808311610e9457829003601f168201915b50505050508152602001600182018054610eca90613192565b80601f0160208091040260200160405190810160405280929190818152602001828054610ef690613192565b8015610f435780601f10610f1857610100808354040283529160200191610f43565b820191906000526020600020905b815481529060010190602001808311610f2657829003601f168201915b50505050508152602001600282015481526020016003820160009054906101000a900473ffffffffffffffffffffffffffffffffffffffff1673ffffffffffffffffffffffffffffffffffffffff1673ffffffffffffffffffffffffffffffffffffffff1681526020016003820160149054906101000a900460ff1615151515815250509050806080015161100d576040517f08c379a000000000000000000000000000000000000000000000000000000000815260040161100490613373565b60405180910390fd5b80604001513414611053576040517f08c379a000000000000000000000000000000000000000000000000000000000815260040161104a906133df565b60405180910390fd5b600061105f8385610457565b1461109f576040517f08c379a00000000000000000000000000000000000000000000000000000000081526004016110969061344b565b60405180910390fd5b806060015173ffffffffffffffffffffffffffffffffffffffff166108fc349081150290604051600060405180830381858888f193505050501580156110e9573d6000803e3d6000fd5b506111068284600160405180602001604052806000815250611b95565b60016004600085815260200190815260200160002060008473ffffffffffffffffffffffffffffffffffffffff1673ffffffffffffffffffffffffffffffffffffffff16815260200190815260200160002060006101000a81548160ff021916908315150217905550827f8120f2f8a682e2fd88bad8beb5760b02b7fec7a59d2d9bebb84b3e277bc152d28360405161119f9190612e96565b60405180910390a2505050565b60008087879050116111f3576040517f08c379a00000000000000000000000000000000000000000000000000000000081526004016111ea906134b7565b60405180910390fd5b60008585905011611239576040517f08c379a000000000000000000000000000000000000000000000000000000000815260040161123090613523565b60405180910390fd5b60006006600081548092919061124e906132df565b9190505590506040518060a0016040528089898080601f016020809104026020016040519081016040528093929190818152602001838380828437600081840152601f19601f82011690508083019250505050505050815260200187878080601f016020809104026020016040519081016040528093929190818152602001838380828437600081840152601f19601f8201169050808301925050505050505081526020018581526020018473ffffffffffffffffffffffffffffffffffffffff1681526020016001151581525060056000838152602001908152602001600020600082015181600001908161134491906136ef565b50602082015181600101908161135a91906136ef565b506040820151816002015560608201518160030160006101000a81548173ffffffffffffffffffffffffffffffffffffffff021916908373ffffffffffffffffffffffffffffffffffffffff16021790555060808201518160030160146101000a81548160ff02191690831515021790555090505060078190806001815401808255809150506001900390600052602060002001600090919091909150556114148382600160405180602001604052806000815250611b95565b807f48ecb80c764507d9b513e5fbdba76e8b8177d246e4314b2718204d1027f996738989868860405161144a94939291906137ee565b60405180910390a2809150509695505050505050565b61147261146b611920565b8383611c2e565b5050565b600080600560008481526020019081526020016000206040518060a00160405290816000820180546114a790613192565b80601f01602080910402602001604051908101604052809291908181526020018280546114d390613192565b80156115205780601f106114f557610100808354040283529160200191611520565b820191906000526020600020905b81548152906001019060200180831161150357829003601f168201915b5050505050815260200160018201805461153990613192565b80601f016020809104026020016040519081016040528092919081815260200182805461156590613192565b80156115b25780601f10611587576101008083540402835291602001916115b2565b820191906000526020600020905b81548152906001019060200180831161159557829003601f168201915b50505050508152602001600282015481526020016003820160009054906101000a900473ffffffffffffffffffffffffffffffffffffffff1673ffffffffffffffffffffffffffffffffffffffff1673ffffffffffffffffffffffffffffffffffffffff1681526020016003820160149054906101000a900460ff1615151515815250509050806080015161164b576000915050611696565b8373ffffffffffffffffffffffffffffffffffffffff16816060015173ffffffffffffffffffffffffffffffffffffffff161480611692575060006116908585610457565b115b9150505b92915050565b6000600160008473ffffffffffffffffffffffffffffffffffffffff1673ffffffffffffffffffffffffffffffffffffffff16815260200190815260200160002060008373ffffffffffffffffffffffffffffffffffffffff1673ffffffffffffffffffffffffffffffffffffffff16815260200190815260200160002060009054906101000a900460ff16905092915050565b600061173a611920565b90508073ffffffffffffffffffffffffffffffffffffffff168673ffffffffffffffffffffffffffffffffffffffff161415801561177f575061177d868261169c565b155b156117c35780866040517fe237d9220000000000000000000000000000000000000000000000000000000081526004016117ba92919061322f565b60405180910390fd5b6117d08686868686611d9e565b505050505050565b6117e0611a48565b600073ffffffffffffffffffffffffffffffffffffffff168173ffffffffffffffffffffffffffffffffffffffff16036118525760006040517f1e4fbdf70000000000000000000000000000000000000000000000000000000081526004016118499190612e96565b60405180910390fd5b61185b81611acf565b50565b606060078054806020026020016040519081016040528092919081815260200182805480156118ac57602002820191906000526020600020905b815481526020019060010190808311611898575b5050505050905090565b60007f01ffc9a7000000000000000000000000000000000000000000000000000000007bffffffffffffffffffffffffffffffffffffffffffffffffffffffff1916827bffffffffffffffffffffffffffffffffffffffffffffffffffffffff1916149050919050565b600033905090565b600073ffffffffffffffffffffffffffffffffffffffff168473ffffffffffffffffffffffffffffffffffffffff160361199a5760006040517f57f447ce0000000000000000000000000000000000000000000000000000000081526004016119919190612e96565b60405180910390fd5b600073ffffffffffffffffffffffffffffffffffffffff168573ffffffffffffffffffffffffffffffffffffffff1603611a0c5760006040517f01a83514000000000000000000000000000000000000000000000000000000008152600401611a039190612e96565b60405180910390fd5b611a198585858585611ea9565b5050505050565b600060208202602084010151905092915050565b600060208202602084010151905092915050565b611a50611920565b73ffffffffffffffffffffffffffffffffffffffff16611a6e610dde565b73ffffffffffffffffffffffffffffffffffffffff1614611acd57611a91611920565b6040517f118cdaa7000000000000000000000000000000000000000000000000000000008152600401611ac49190612e96565b60405180910390fd5b565b6000600360009054906101000a900473ffffffffffffffffffffffffffffffffffffffff16905081600360006101000a81548173ffffffffffffffffffffffffffffffffffffffff021916908373ffffffffffffffffffffffffffffffffffffffff1602179055508173ffffffffffffffffffffffffffffffffffffffff168173ffffffffffffffffffffffffffffffffffffffff167f8be0079c531659141344cd1fd0a4f28419497f9722a3daafe3b4186f6b6457e060405160405180910390a35050565b600073ffffffffffffffffffffffffffffffffffffffff168473ffffffffffffffffffffffffffffffffffffffff1603611c075760006040517f57f447ce000000000000000000000000000000000000000000000000000000008152600401611bfe9190612e96565b60405180910390fd5b600080611c148585611f5b565b91509150611c26600087848487611ea9565b505050505050565b600073ffffffffffffffffffffffffffffffffffffffff168273ffffffffffffffffffffffffffffffffffffffff1603611ca05760006040517fced3e100000000000000000000000000000000000000000000000000000000008152600401611c979190612e96565b60405180910390fd5b80600160008573ffffffffffffffffffffffffffffffffffffffff1673ffffffffffffffffffffffffffffffffffffffff16815260200190815260200160002060008473ffffffffffffffffffffffffffffffffffffffff1673ffffffffffffffffffffffffffffffffffffffff16815260200190815260200160002060006101000a81548160ff0219169083151502179055508173ffffffffffffffffffffffffffffffffffffffff168373ffffffffffffffffffffffffffffffffffffffff167f17307eab39ab6107e8899845ad3d59bd9653f200f220920489ca2b5937696c3183604051611d919190612853565b60405180910390a3505050565b600073ffffffffffffffffffffffffffffffffffffffff168473ffffffffffffffffffffffffffffffffffffffff1603611e105760006040517f57f447ce000000000000000000000000000000000000000000000000000000008152600401611e079190612e96565b60405180910390fd5b600073ffffffffffffffffffffffffffffffffffffffff168573ffffffffffffffffffffffffffffffffffffffff1603611e825760006040517f01a83514000000000000000000000000000000000000000000000000000000008152600401611e799190612e96565b60405180910390fd5b600080611e8f8585611f5b565b91509150611ea08787848487611ea9565b50505050505050565b611eb585858585611f8b565b600073ffffffffffffffffffffffffffffffffffffffff168473ffffffffffffffffffffffffffffffffffffffff1614611f54576000611ef3611920565b90506001845103611f43576000611f14600086611a3490919063ffffffff16565b90506000611f2c600086611a3490919063ffffffff16565b9050611f3c838989858589612339565b5050611f52565b611f518187878787876124ed565b5b505b5050505050565b60608060405191506001825283602083015260408201905060018152826020820152604081016040529250929050565b8051825114611fd557815181516040517f5b059991000000000000000000000000000000000000000000000000000000008152600401611fcc929190613258565b60405180910390fd5b6000611fdf611920565b905060005b83518110156121f45760006120028286611a3490919063ffffffff16565b905060006120198386611a3490919063ffffffff16565b9050600073ffffffffffffffffffffffffffffffffffffffff168873ffffffffffffffffffffffffffffffffffffffff161461214657600080600084815260200190815260200160002060008a73ffffffffffffffffffffffffffffffffffffffff1673ffffffffffffffffffffffffffffffffffffffff168152602001908152602001600020549050818110156120ee57888183856040517f03dee4c50000000000000000000000000000000000000000000000000000000081526004016120e5949392919061382e565b60405180910390fd5b81810360008085815260200190815260200160002060008b73ffffffffffffffffffffffffffffffffffffffff1673ffffffffffffffffffffffffffffffffffffffff16815260200190815260200160002081905550505b600073ffffffffffffffffffffffffffffffffffffffff168773ffffffffffffffffffffffffffffffffffffffff16146121e1578060008084815260200190815260200160002060008973ffffffffffffffffffffffffffffffffffffffff1673ffffffffffffffffffffffffffffffffffffffff16815260200190815260200160002060008282546121d99190613873565b925050819055505b5050806121ed906132df565b9050611fe4565b5060018351036122b3576000612214600085611a3490919063ffffffff16565b9050600061222c600085611a3490919063ffffffff16565b90508573ffffffffffffffffffffffffffffffffffffffff168773ffffffffffffffffffffffffffffffffffffffff168473ffffffffffffffffffffffffffffffffffffffff167fc3d58168c5ae7397731d063d5bbf3d657854427343f4c083240f7aacaa2d0f6285856040516122a4929190613258565b60405180910390a45050612332565b8373ffffffffffffffffffffffffffffffffffffffff168573ffffffffffffffffffffffffffffffffffffffff168273ffffffffffffffffffffffffffffffffffffffff167f4a39dc06d4c0dbc64b70af90fd698a233a518aa5d07e595d983b8c0526c8f7fb86866040516123299291906138a7565b60405180910390a45b5050505050565b60008473ffffffffffffffffffffffffffffffffffffffff163b11156124e5578373ffffffffffffffffffffffffffffffffffffffff1663f23a6e6187878686866040518663ffffffff1660e01b815260040161239a959493929190613933565b6020604051808303816000875af19250505080156123d657506040513d601f19601f820116820180604052508101906123d391906139a2565b60015b61245a573d8060008114612406576040519150601f19603f3d011682016040523d82523d6000602084013e61240b565b606091505b50600081510361245257846040517f57f447ce0000000000000000000000000000000000000000000000000000000081526004016124499190612e96565b60405180910390fd5b805181602001fd5b63f23a6e6160e01b7bffffffffffffffffffffffffffffffffffffffffffffffffffffffff1916817bffffffffffffffffffffffffffffffffffffffffffffffffffffffff1916146124e357846040517f57f447ce0000000000000000000000000000000000000000000000000000000081526004016124da9190612e96565b60405180910390fd5b505b505050505050565b60008473ffffffffffffffffffffffffffffffffffffffff163b1115612699578373ffffffffffffffffffffffffffffffffffffffff1663bc197c8187878686866040518663ffffffff1660e01b815260040161254e9594939291906139cf565b6020604051808303816000875af192505050801561258a57506040513d601f19601f8201168201806040525081019061258791906139a2565b60015b61260e573d80600081146125ba576040519150601f19603f3d011682016040523d82523d6000602084013e6125bf565b606091505b50600081510361260657846040517f57f447ce0000000000000000000000000000000000000000000000000000000081526004016125fd9190612e96565b60405180910390fd5b805181602001fd5b63bc197c8160e01b7bffffffffffffffffffffffffffffffffffffffffffffffffffffffff1916817bffffffffffffffffffffffffffffffffffffffffffffffffffffffff19161461269757846040517f57f447ce00000000000000000000000000000000000000000000000000000000815260040161268e9190612e96565b60405180910390fd5b505b505050505050565b6000604051905090565b600080fd5b600080fd5b600073ffffffffffffffffffffffffffffffffffffffff82169050919050565b60006126e0826126b5565b9050919050565b6126f0816126d5565b81146126fb57600080fd5b50565b60008135905061270d816126e7565b92915050565b6000819050919050565b61272681612713565b811461273157600080fd5b50565b6000813590506127438161271d565b92915050565b600080604083850312156127605761275f6126ab565b5b600061276e858286016126fe565b925050602061277f85828601612734565b9150509250929050565b61279281612713565b82525050565b60006020820190506127ad6000830184612789565b92915050565b60007fffffffff0000000000000000000000000000000000000000000000000000000082169050919050565b6127e8816127b3565b81146127f357600080fd5b50565b600081359050612805816127df565b92915050565b600060208284031215612821576128206126ab565b5b600061282f848285016127f6565b91505092915050565b60008115159050919050565b61284d81612838565b82525050565b60006020820190506128686000830184612844565b92915050565b600060208284031215612884576128836126ab565b5b600061289284828501612734565b91505092915050565b600081519050919050565b600082825260208201905092915050565b60005b838110156128d55780820151818401526020810190506128ba565b60008484015250505050565b6000601f19601f8301169050919050565b60006128fd8261289b565b61290781856128a6565b93506129178185602086016128b7565b612920816128e1565b840191505092915050565b6000602082019050818103600083015261294581846128f2565b905092915050565b600080fd5b7f4e487b7100000000000000000000000000000000000000000000000000000000600052604160045260246000fd5b61298a826128e1565b810181811067ffffffffffffffff821117156129a9576129a8612952565b5b80604052505050565b60006129bc6126a1565b90506129c88282612981565b919050565b600067ffffffffffffffff8211156129e8576129e7612952565b5b602082029050602081019050919050565b600080fd5b6000612a11612a0c846129cd565b6129b2565b90508083825260208201905060208402830185811115612a3457612a336129f9565b5b835b81811015612a5d5780612a498882612734565b845260208401935050602081019050612a36565b5050509392505050565b600082601f830112612a7c57612a7b61294d565b5b8135612a8c8482602086016129fe565b91505092915050565b600080fd5b600067ffffffffffffffff821115612ab557612ab4612952565b5b612abe826128e1565b9050602081019050919050565b82818337600083830152505050565b6000612aed612ae884612a9a565b6129b2565b905082815260208101848484011115612b0957612b08612a95565b5b612b14848285612acb565b509392505050565b600082601f830112612b3157612b3061294d565b5b8135612b41848260208601612ada565b91505092915050565b600080600080600060a08688031215612b6657612b656126ab565b5b6000612b74888289016126fe565b9550506020612b85888289016126fe565b945050604086013567ffffffffffffffff811115612ba657612ba56126b0565b5b612bb288828901612a67565b935050606086013567ffffffffffffffff811115612bd357612bd26126b0565b5b612bdf88828901612a67565b925050608086013567ffffffffffffffff811115612c0057612bff6126b0565b5b612c0c88828901612b1c565b9150509295509295909350565b600067ffffffffffffffff821115612c3457612c33612952565b5b602082029050602081019050919050565b6000612c58612c5384612c19565b6129b2565b90508083825260208201905060208402830185811115612c7b57612c7a6129f9565b5b835b81811015612ca45780612c9088826126fe565b845260208401935050602081019050612c7d565b5050509392505050565b600082601f830112612cc357612cc261294d565b5b8135612cd3848260208601612c45565b91505092915050565b60008060408385031215612cf357612cf26126ab565b5b600083013567ffffffffffffffff811115612d1157612d106126b0565b5b612d1d85828601612cae565b925050602083013567ffffffffffffffff811115612d3e57612d3d6126b0565b5b612d4a85828601612a67565b9150509250929050565b600081519050919050565b600082825260208201905092915050565b6000819050602082019050919050565b612d8981612713565b82525050565b6000612d9b8383612d80565b60208301905092915050565b6000602082019050919050565b6000612dbf82612d54565b612dc98185612d5f565b9350612dd483612d70565b8060005b83811015612e05578151612dec8882612d8f565b9750612df783612da7565b925050600181019050612dd8565b5085935050505092915050565b60006020820190508181036000830152612e2c8184612db4565b905092915050565b612e3d816126d5565b82525050565b60006080820190508181036000830152612e5d81876128f2565b90508181036020830152612e7181866128f2565b9050612e806040830185612789565b612e8d6060830184612e34565b95945050505050565b6000602082019050612eab6000830184612e34565b92915050565b60008060408385031215612ec857612ec76126ab565b5b6000612ed685828601612734565b9250506020612ee7858286016126fe565b9150509250929050565b600080fd5b60008083601f840112612f0c57612f0b61294d565b5b8235905067ffffffffffffffff811115612f2957612f28612ef1565b5b602083019150836001820283011115612f4557612f446129f9565b5b9250929050565b60008060008060008060808789031215612f6957612f686126ab565b5b600087013567ffffffffffffffff811115612f8757612f866126b0565b5b612f9389828a01612ef6565b9650965050602087013567ffffffffffffffff811115612fb657612fb56126b0565b5b612fc289828a01612ef6565b94509450506040612fd589828a01612734565b9250506060612fe689828a016126fe565b9150509295509295509295565b612ffc81612838565b811461300757600080fd5b50565b60008135905061301981612ff3565b92915050565b60008060408385031215613036576130356126ab565b5b6000613044858286016126fe565b92505060206130558582860161300a565b9150509250929050565b60008060408385031215613076576130756126ab565b5b6000613084858286016126fe565b9250506020613095858286016126fe565b9150509250929050565b600080600080600060a086880312156130bb576130ba6126ab565b5b60006130c9888289016126fe565b95505060206130da888289016126fe565b94505060406130eb88828901612734565b93505060606130fc88828901612734565b925050608086013567ffffffffffffffff81111561311d5761311c6126b0565b5b61312988828901612b1c565b9150509295509295909350565b60006020828403121561314c5761314b6126ab565b5b600061315a848285016126fe565b91505092915050565b7f4e487b7100000000000000000000000000000000000000000000000000000000600052602260045260246000fd5b600060028204905060018216806131aa57607f821691505b6020821081036131bd576131bc613163565b5b50919050565b7f55524920717565727920666f72206e6f6e6578697374656e7420636f75727365600082015250565b60006131f96020836128a6565b9150613204826131c3565b602082019050919050565b60006020820190508181036000830152613228816131ec565b9050919050565b60006040820190506132446000830185612e34565b6132516020830184612e34565b9392505050565b600060408201905061326d6000830185612789565b61327a6020830184612789565b9392505050565b7f4e487b7100000000000000000000000000000000000000000000000000000000600052603260045260246000fd5b7f4e487b7100000000000000000000000000000000000000000000000000000000600052601160045260246000fd5b60006132ea82612713565b91507fffffffffffffffffffffffffffffffffffffffffffffffffffffffffffffffff820361331c5761331b6132b0565b5b600182019050919050565b7f436f7572736520646f6573206e6f742065786973740000000000000000000000600082015250565b600061335d6015836128a6565b915061336882613327565b602082019050919050565b6000602082019050818103600083015261338c81613350565b9050919050565b7f496e636f7272656374207061796d656e7420616d6f756e740000000000000000600082015250565b60006133c96018836128a6565b91506133d482613393565b602082019050919050565b600060208201905081810360008301526133f8816133bc565b9050919050565b7f416c726561647920707572636861736564207468697320636f75727365000000600082015250565b6000613435601d836128a6565b9150613440826133ff565b602082019050919050565b6000602082019050818103600083015261346481613428565b9050919050565b7f436f75727365206e616d652063616e6e6f7420626520656d7074790000000000600082015250565b60006134a1601b836128a6565b91506134ac8261346b565b602082019050919050565b600060208201905081810360008301526134d081613494565b9050919050565b7f49504653206c696e6b2063616e6e6f7420626520656d70747900000000000000600082015250565b600061350d6019836128a6565b9150613518826134d7565b602082019050919050565b6000602082019050818103600083015261353c81613500565b9050919050565b60008190508160005260206000209050919050565b60006020601f8301049050919050565b600082821b905092915050565b6000600883026135a57fffffffffffffffffffffffffffffffffffffffffffffffffffffffffffffffff82613568565b6135af8683613568565b95508019841693508086168417925050509392505050565b6000819050919050565b60006135ec6135e76135e284612713565b6135c7565b612713565b9050919050565b6000819050919050565b613606836135d1565b61361a613612826135f3565b848454613575565b825550505050565b600090565b61362f613622565b61363a8184846135fd565b505050565b5b8181101561365e57613653600082613627565b600181019050613640565b5050565b601f8211156136a35761367481613543565b61367d84613558565b8101602085101561368c578190505b6136a061369885613558565b83018261363f565b50505b505050565b600082821c905092915050565b60006136c6600019846008026136a8565b1980831691505092915050565b60006136df83836136b5565b9150826002028217905092915050565b6136f88261289b565b67ffffffffffffffff81111561371157613710612952565b5b61371b8254613192565b613726828285613662565b600060209050601f8311600181146137595760008415613747578287015190505b61375185826136d3565b8655506137b9565b601f19841661376786613543565b60005b8281101561378f5784890151825560018201915060208501945060208101905061376a565b868310156137ac57848901516137a8601f8916826136b5565b8355505b6001600288020188555050505b505050505050565b60006137cd83856128a6565b93506137da838584612acb565b6137e3836128e1565b840190509392505050565b600060608201905081810360008301526138098186886137c1565b90506138186020830185612e34565b6138256040830184612789565b95945050505050565b60006080820190506138436000830187612e34565b6138506020830186612789565b61385d6040830185612789565b61386a6060830184612789565b95945050505050565b600061387e82612713565b915061388983612713565b92508282019050808211156138a1576138a06132b0565b5b92915050565b600060408201905081810360008301526138c18185612db4565b905081810360208301526138d58184612db4565b90509392505050565b600081519050919050565b600082825260208201905092915050565b6000613905826138de565b61390f81856138e9565b935061391f8185602086016128b7565b613928816128e1565b840191505092915050565b600060a0820190506139486000830188612e34565b6139556020830187612e34565b6139626040830186612789565b61396f6060830185612789565b818103608083015261398181846138fa565b90509695505050505050565b60008151905061399c816127df565b92915050565b6000602082840312156139b8576139b76126ab565b5b60006139c68482850161398d565b91505092915050565b600060a0820190506139e46000830188612e34565b6139f16020830187612e34565b8181036040830152613a038186612db4565b90508181036060830152613a178185612db4565b90508181036080830152613a2b81846138fa565b9050969550505050505056fea264697066735822122089fd8332b9c4a24f52b41e7f3ca4ca77510808ba16b165b44c4e2f645a5c06cc64736f6c6343000814003360806040523480156200001157600080fd5b5033600073ffffffffffffffffffffffffffffffffffffffff168173ffffffffffffffffffffffffffffffffffffffff1603620000885760006040517f1e4fbdf70000000000000000000000000000000000000000000000000000000081526004016200007f9190620001b1565b60405180910390fd5b6200009981620000a860201b60201c565b506000600381905550620001ce565b60008060009054906101000a900473ffffffffffffffffffffffffffffffffffffffff169050816000806101000a81548173ffffffffffffffffffffffffffffffffffffffff021916908373ffffffffffffffffffffffffffffffffffffffff1602179055508173ffffffffffffffffffffffffffffffffffffffff168173ffffffffffffffffffffffffffffffffffffffff167f8be0079c531659141344cd1fd0a4f28419497f9722a3daafe3b4186f6b6457e060405160405180910390a35050565b600073ffffffffffffffffffffffffffffffffffffffff82169050919050565b600062000199826200016c565b9050919050565b620001ab816200018c565b82525050565b6000602082019050620001c86000830184620001a0565b92915050565b6121d180620001de6000396000f3fe608060405234801561001057600080fd5b50600436106100cf5760003560e01c8063a64e398f1161008c578063bff1f9e111610066578063bff1f9e114610216578063c3c5a54714610234578063f2fde38b14610264578063ffc9896b14610280576100cf565b8063a64e398f14610194578063a87430ba146101c4578063a998ffb3146101f8576100cf565b80630a5fa7f2146100d45780631897c0bc14610104578063715018a6146101205780638da5cb5b1461012a57806394e05dd714610148578063a3afcea214610164575b600080fd5b6100ee60048036038101906100e9919061140f565b6102b2565b6040516100fb9190611504565b60405180910390f35b61011e600480360381019061011991906115c3565b61064a565b005b61012861090b565b005b61013261091f565b60405161013f9190611646565b60405180910390f35b610162600480360381019061015d919061140f565b610948565b005b61017e6004803603810190610179919061140f565b610994565b60405161018b9190611670565b60405180910390f35b6101ae60048036038101906101a9919061140f565b6109ed565b6040516101bb9190611504565b60405180910390f35b6101de60048036038101906101d9919061140f565b610e86565b6040516101ef95949392919061172a565b60405180910390f35b610200610f7e565b60405161020d91906117e3565b60405180910390f35b61021e610fa4565b60405161022b91906117fe565b60405180910390f35b61024e6004803603810190610249919061140f565b610faa565b60405161025b9190611670565b60405180910390f35b61027e6004803603810190610279919061140f565b611003565b005b61029a6004803603810190610295919061140f565b611089565b6040516102a993929190611819565b60405180910390f35b6060600260008373ffffffffffffffffffffffffffffffffffffffff1673ffffffffffffffffffffffffffffffffffffffff16815260200190815260200160002060030160019054906101000a900460ff16610343576040517f08c379a000000000000000000000000000000000000000000000000000000000815260040161033a906118a3565b60405180910390fd5b6000600160009054906101000a900473ffffffffffffffffffffffffffffffffffffffff1673ffffffffffffffffffffffffffffffffffffffff1663fbd8e3976040518163ffffffff1660e01b8152600401600060405180830381865afa1580156103b2573d6000803e3d6000fd5b505050506040513d6000823e3d601f19601f820116820180604052508101906103db9190611a2d565b90506000805b82518110156104c957600160009054906101000a900473ffffffffffffffffffffffffffffffffffffffff1673ffffffffffffffffffffffffffffffffffffffff1663c6530e418685848151811061043c5761043b611a76565b5b60200260200101516040518363ffffffff1660e01b8152600401610461929190611aa5565b602060405180830381865afa15801561047e573d6000803e3d6000fd5b505050506040513d601f19601f820116820180604052508101906104a29190611ae3565b156104b65781806104b290611b3f565b9250505b80806104c190611b3f565b9150506103e1565b5060008167ffffffffffffffff8111156104e6576104e56118c3565b5b6040519080825280602002602001820160405280156105145781602001602082028036833780820191505090505b5090506000805b845181101561063d57600160009054906101000a900473ffffffffffffffffffffffffffffffffffffffff1673ffffffffffffffffffffffffffffffffffffffff1663c6530e418887848151811061057657610575611a76565b5b60200260200101516040518363ffffffff1660e01b815260040161059b929190611aa5565b602060405180830381865afa1580156105b8573d6000803e3d6000fd5b505050506040513d601f19601f820116820180604052508101906105dc9190611ae3565b1561062a578481815181106105f4576105f3611a76565b5b602002602001015183838151811061060f5761060e611a76565b5b602002602001018181525050818061062690611b3f565b9250505b808061063590611b3f565b91505061051b565b5081945050505050919050565b60008383905011610690576040517f08c379a000000000000000000000000000000000000000000000000000000000815260040161068790611bd3565b60405180910390fd5b600260008573ffffffffffffffffffffffffffffffffffffffff1673ffffffffffffffffffffffffffffffffffffffff16815260200190815260200160002060030160019054906101000a900460ff1615610720576040517f08c379a000000000000000000000000000000000000000000000000000000000815260040161071790611c3f565b60405180910390fd5b6040518060a001604052806003600081548092919061073e90611b3f565b9190505581526020018573ffffffffffffffffffffffffffffffffffffffff16815260200184848080601f016020809104026020016040519081016040528093929190818152602001838380828437600081840152601f19601f820116905080830192505050505050508152602001821515815260200160011515815250600260008673ffffffffffffffffffffffffffffffffffffffff1673ffffffffffffffffffffffffffffffffffffffff1681526020019081526020016000206000820151816000015560208201518160010160006101000a81548173ffffffffffffffffffffffffffffffffffffffff021916908373ffffffffffffffffffffffffffffffffffffffff16021790555060408201518160020190816108619190611e61565b5060608201518160030160006101000a81548160ff02191690831515021790555060808201518160030160016101000a81548160ff0219169083151502179055509050508373ffffffffffffffffffffffffffffffffffffffff167f89105a1c6a3c2fbd471255c66a31ccab604af5697f67d7e2e9a0028c5e4dbd91848460016003546108ee9190611f33565b6040516108fd93929190611fa3565b60405180910390a250505050565b61091361124a565b61091d60006112d1565b565b60008060009054906101000a900473ffffffffffffffffffffffffffffffffffffffff16905090565b61095061124a565b80600160006101000a81548173ffffffffffffffffffffffffffffffffffffffff021916908373ffffffffffffffffffffffffffffffffffffffff16021790555050565b6000600260008373ffffffffffffffffffffffffffffffffffffffff1673ffffffffffffffffffffffffffffffffffffffff16815260200190815260200160002060030160009054906101000a900460ff169050919050565b6060600260008373ffffffffffffffffffffffffffffffffffffffff1673ffffffffffffffffffffffffffffffffffffffff16815260200190815260200160002060030160019054906101000a900460ff16610a7e576040517f08c379a0000000000000000000000000000000000000000000000000000000008152600401610a75906118a3565b60405180910390fd5b600260008373ffffffffffffffffffffffffffffffffffffffff1673ffffffffffffffffffffffffffffffffffffffff16815260200190815260200160002060030160009054906101000a900460ff16610b0d576040517f08c379a0000000000000000000000000000000000000000000000000000000008152600401610b0490612021565b60405180910390fd5b6000600160009054906101000a900473ffffffffffffffffffffffffffffffffffffffff1673ffffffffffffffffffffffffffffffffffffffff1663fbd8e3976040518163ffffffff1660e01b8152600401600060405180830381865afa158015610b7c573d6000803e3d6000fd5b505050506040513d6000823e3d601f19601f82011682018060405250810190610ba59190611a2d565b90506000805b8251811015610ccc576000600160009054906101000a900473ffffffffffffffffffffffffffffffffffffffff1673ffffffffffffffffffffffffffffffffffffffff1663610b31a6858481518110610c0757610c06611a76565b5b60200260200101516040518263ffffffff1660e01b8152600401610c2b91906117fe565b600060405180830381865afa158015610c48573d6000803e3d6000fd5b505050506040513d6000823e3d601f19601f82011682018060405250810190610c7191906120fc565b93505050508573ffffffffffffffffffffffffffffffffffffffff168173ffffffffffffffffffffffffffffffffffffffff1603610cb8578280610cb490611b3f565b9350505b508080610cc490611b3f565b915050610bab565b5060008167ffffffffffffffff811115610ce957610ce86118c3565b5b604051908082528060200260200182016040528015610d175781602001602082028036833780820191505090505b5090506000805b8451811015610e79576000600160009054906101000a900473ffffffffffffffffffffffffffffffffffffffff1673ffffffffffffffffffffffffffffffffffffffff1663610b31a6878481518110610d7a57610d79611a76565b5b60200260200101516040518263ffffffff1660e01b8152600401610d9e91906117fe565b600060405180830381865afa158015610dbb573d6000803e3d6000fd5b505050506040513d6000823e3d601f19601f82011682018060405250810190610de491906120fc565b93505050508773ffffffffffffffffffffffffffffffffffffffff168173ffffffffffffffffffffffffffffffffffffffff1603610e6557858281518110610e2f57610e2e611a76565b5b6020026020010151848481518110610e4a57610e49611a76565b5b6020026020010181815250508280610e6190611b3f565b9350505b508080610e7190611b3f565b915050610d1e565b5081945050505050919050565b60026020528060005260406000206000915090508060000154908060010160009054906101000a900473ffffffffffffffffffffffffffffffffffffffff1690806002018054610ed590611c8e565b80601f0160208091040260200160405190810160405280929190818152602001828054610f0190611c8e565b8015610f4e5780601f10610f2357610100808354040283529160200191610f4e565b820191906000526020600020905b815481529060010190602001808311610f3157829003601f168201915b5050505050908060030160009054906101000a900460ff16908060030160019054906101000a900460ff16905085565b600160009054906101000a900473ffffffffffffffffffffffffffffffffffffffff1681565b60035481565b6000600260008373ffffffffffffffffffffffffffffffffffffffff1673ffffffffffffffffffffffffffffffffffffffff16815260200190815260200160002060030160019054906101000a900460ff169050919050565b61100b61124a565b600073ffffffffffffffffffffffffffffffffffffffff168173ffffffffffffffffffffffffffffffffffffffff160361107d5760006040517f1e4fbdf70000000000000000000000000000000000000000000000000000000081526004016110749190611646565b60405180910390fd5b611086816112d1565b50565b600060606000600260008573ffffffffffffffffffffffffffffffffffffffff1673ffffffffffffffffffffffffffffffffffffffff16815260200190815260200160002060030160019054906101000a900460ff1661111e576040517f08c379a0000000000000000000000000000000000000000000000000000000008152600401611115906118a3565b60405180910390fd5b83600260008673ffffffffffffffffffffffffffffffffffffffff1673ffffffffffffffffffffffffffffffffffffffff168152602001908152602001600020600201600260008773ffffffffffffffffffffffffffffffffffffffff1673ffffffffffffffffffffffffffffffffffffffff16815260200190815260200160002060030160009054906101000a900460ff168180546111bd90611c8e565b80601f01602080910402602001604051908101604052809291908181526020018280546111e990611c8e565b80156112365780601f1061120b57610100808354040283529160200191611236565b820191906000526020600020905b81548152906001019060200180831161121957829003601f168201915b505050505091509250925092509193909250565b611252611395565b73ffffffffffffffffffffffffffffffffffffffff1661127061091f565b73ffffffffffffffffffffffffffffffffffffffff16146112cf57611293611395565b6040517f118cdaa70000000000000000000000000000000000000000000000000000000081526004016112c69190611646565b60405180910390fd5b565b60008060009054906101000a900473ffffffffffffffffffffffffffffffffffffffff169050816000806101000a81548173ffffffffffffffffffffffffffffffffffffffff021916908373ffffffffffffffffffffffffffffffffffffffff1602179055508173ffffffffffffffffffffffffffffffffffffffff168173ffffffffffffffffffffffffffffffffffffffff167f8be0079c531659141344cd1fd0a4f28419497f9722a3daafe3b4186f6b6457e060405160405180910390a35050565b600033905090565b6000604051905090565b600080fd5b600080fd5b600073ffffffffffffffffffffffffffffffffffffffff82169050919050565b60006113dc826113b1565b9050919050565b6113ec816113d1565b81146113f757600080fd5b50565b600081359050611409816113e3565b92915050565b600060208284031215611425576114246113a7565b5b6000611433848285016113fa565b91505092915050565b600081519050919050565b600082825260208201905092915050565b6000819050602082019050919050565b6000819050919050565b61147b81611468565b82525050565b600061148d8383611472565b60208301905092915050565b6000602082019050919050565b60006114b18261143c565b6114bb8185611447565b93506114c683611458565b8060005b838110156114f75781516114de8882611481565b97506114e983611499565b9250506001810190506114ca565b5085935050505092915050565b6000602082019050818103600083015261151e81846114a6565b905092915050565b600080fd5b600080fd5b600080fd5b60008083601f84011261154b5761154a611526565b5b8235905067ffffffffffffffff8111156115685761156761152b565b5b60208301915083600182028301111561158457611583611530565b5b9250929050565b60008115159050919050565b6115a08161158b565b81146115ab57600080fd5b50565b6000813590506115bd81611597565b92915050565b600080600080606085870312156115dd576115dc6113a7565b5b60006115eb878288016113fa565b945050602085013567ffffffffffffffff81111561160c5761160b6113ac565b5b61161887828801611535565b9350935050604061162b878288016115ae565b91505092959194509250565b611640816113d1565b82525050565b600060208201905061165b6000830184611637565b92915050565b61166a8161158b565b82525050565b60006020820190506116856000830184611661565b92915050565b61169481611468565b82525050565b600081519050919050565b600082825260208201905092915050565b60005b838110156116d45780820151818401526020810190506116b9565b60008484015250505050565b6000601f19601f8301169050919050565b60006116fc8261169a565b61170681856116a5565b93506117168185602086016116b6565b61171f816116e0565b840191505092915050565b600060a08201905061173f600083018861168b565b61174c6020830187611637565b818103604083015261175e81866116f1565b905061176d6060830185611661565b61177a6080830184611661565b9695505050505050565b6000819050919050565b60006117a96117a461179f846113b1565b611784565b6113b1565b9050919050565b60006117bb8261178e565b9050919050565b60006117cd826117b0565b9050919050565b6117dd816117c2565b82525050565b60006020820190506117f860008301846117d4565b92915050565b6000602082019050611813600083018461168b565b92915050565b600060608201905061182e6000830186611637565b818103602083015261184081856116f1565b905061184f6040830184611661565b949350505050565b7f55736572206e6f74207265676973746572656400000000000000000000000000600082015250565b600061188d6013836116a5565b915061189882611857565b602082019050919050565b600060208201905081810360008301526118bc81611880565b9050919050565b7f4e487b7100000000000000000000000000000000000000000000000000000000600052604160045260246000fd5b6118fb826116e0565b810181811067ffffffffffffffff8211171561191a576119196118c3565b5b80604052505050565b600061192d61139d565b905061193982826118f2565b919050565b600067ffffffffffffffff821115611959576119586118c3565b5b602082029050602081019050919050565b61197381611468565b811461197e57600080fd5b50565b6000815190506119908161196a565b92915050565b60006119a96119a48461193e565b611923565b905080838252602082019050602084028301858111156119cc576119cb611530565b5b835b818110156119f557806119e18882611981565b8452602084019350506020810190506119ce565b5050509392505050565b600082601f830112611a1457611a13611526565b5b8151611a24848260208601611996565b91505092915050565b600060208284031215611a4357611a426113a7565b5b600082015167ffffffffffffffff811115611a6157611a606113ac565b5b611a6d848285016119ff565b91505092915050565b7f4e487b7100000000000000000000000000000000000000000000000000000000600052603260045260246000fd5b6000604082019050611aba6000830185611637565b611ac7602083018461168b565b9392505050565b600081519050611add81611597565b92915050565b600060208284031215611af957611af86113a7565b5b6000611b0784828501611ace565b91505092915050565b7f4e487b7100000000000000000000000000000000000000000000000000000000600052601160045260246000fd5b6000611b4a82611468565b91507fffffffffffffffffffffffffffffffffffffffffffffffffffffffffffffffff8203611b7c57611b7b611b10565b5b600182019050919050565b7f557365726e616d652063616e6e6f7420626520656d7074790000000000000000600082015250565b6000611bbd6018836116a5565b9150611bc882611b87565b602082019050919050565b60006020820190508181036000830152611bec81611bb0565b9050919050565b7f5573657220616c72656164792072656769737465726564000000000000000000600082015250565b6000611c296017836116a5565b9150611c3482611bf3565b602082019050919050565b60006020820190508181036000830152611c5881611c1c565b9050919050565b7f4e487b7100000000000000000000000000000000000000000000000000000000600052602260045260246000fd5b60006002820490506001821680611ca657607f821691505b602082108103611cb957611cb8611c5f565b5b50919050565b60008190508160005260206000209050919050565b60006020601f8301049050919050565b600082821b905092915050565b600060088302611d217fffffffffffffffffffffffffffffffffffffffffffffffffffffffffffffffff82611ce4565b611d2b8683611ce4565b95508019841693508086168417925050509392505050565b6000611d5e611d59611d5484611468565b611784565b611468565b9050919050565b6000819050919050565b611d7883611d43565b611d8c611d8482611d65565b848454611cf1565b825550505050565b600090565b611da1611d94565b611dac818484611d6f565b505050565b5b81811015611dd057611dc5600082611d99565b600181019050611db2565b5050565b601f821115611e1557611de681611cbf565b611def84611cd4565b81016020851015611dfe578190505b611e12611e0a85611cd4565b830182611db1565b50505b505050565b600082821c905092915050565b6000611e3860001984600802611e1a565b1980831691505092915050565b6000611e518383611e27565b9150826002028217905092915050565b611e6a8261169a565b67ffffffffffffffff811115611e8357611e826118c3565b5b611e8d8254611c8e565b611e98828285611dd4565b600060209050601f831160018114611ecb5760008415611eb9578287015190505b611ec38582611e45565b865550611f2b565b601f198416611ed986611cbf565b60005b82811015611f0157848901518255600182019150602085019450602081019050611edc565b86831015611f1e5784890151611f1a601f891682611e27565b8355505b6001600288020188555050505b505050505050565b6000611f3e82611468565b9150611f4983611468565b9250828203905081811115611f6157611f60611b10565b5b92915050565b82818337600083830152505050565b6000611f8283856116a5565b9350611f8f838584611f67565b611f98836116e0565b840190509392505050565b60006040820190508181036000830152611fbe818587611f76565b9050611fcd602083018461168b565b949350505050565b7f55736572206e6f7420496e7374727563746f7200000000000000000000000000600082015250565b600061200b6013836116a5565b915061201682611fd5565b602082019050919050565b6000602082019050818103600083015261203a81611ffe565b9050919050565b600080fd5b600067ffffffffffffffff821115612061576120606118c3565b5b61206a826116e0565b9050602081019050919050565b600061208a61208584612046565b611923565b9050828152602081018484840111156120a6576120a5612041565b5b6120b18482856116b6565b509392505050565b600082601f8301126120ce576120cd611526565b5b81516120de848260208601612077565b91505092915050565b6000815190506120f6816113e3565b92915050565b60008060008060808587031215612116576121156113a7565b5b600085015167ffffffffffffffff811115612134576121336113ac565b5b612140878288016120b9565b945050602085015167ffffffffffffffff811115612161576121606113ac565b5b61216d878288016120b9565b935050604061217e87828801611981565b925050606061218f878288016120e7565b9150509295919450925056fea2646970667358221220d264c5c80aeb6f69216cd71eed8c7f942549ac0b65c884dfcafbd00734ba107964736f6c6343000814003360806040523480156200001157600080fd5b5033600073ffffffffffffffffffffffffffffffffffffffff168173ffffffffffffffffffffffffffffffffffffffff1603620000885760006040517f1e4fbdf70000000000000000000000000000000000000000000000000000000081526004016200007f9190620001b2565b60405180910390fd5b6200009981620000a960201b60201c565b506124ef600181905550620001cf565b60008060009054906101000a900473ffffffffffffffffffffffffffffffffffffffff169050816000806101000a81548173ffffffffffffffffffffffffffffffffffffffff021916908373ffffffffffffffffffffffffffffffffffffffff1602179055508173ffffffffffffffffffffffffffffffffffffffff168173ffffffffffffffffffffffffffffffffffffffff167f8be0079c531659141344cd1fd0a4f28419497f9722a3daafe3b4186f6b6457e060405160405180910390a35050565b600073ffffffffffffffffffffffffffffffffffffffff82169050919050565b60006200019a826200016d565b9050919050565b620001ac816200018d565b82525050565b6000602082019050620001c96000830184620001a1565b92915050565b61192e80620001df6000396000f3fe608060405234801561001057600080fd5b50600436106100b45760003560e01c8063862807ff11610071578063862807ff146101a55780638da5cb5b146101d557806394e05dd7146101f3578063a998ffb31461020f578063eac449d91461022d578063f2fde38b14610249576100b4565b8063053c8e25146100b95780631cff5782146100eb578063390a5ba51461011b57806346f3141c14610139578063715018a61461016b578063817bb33114610175575b600080fd5b6100d360048036038101906100ce9190610e08565b610265565b6040516100e293929190610eef565b60405180910390f35b610105600480360381019061010091906110c0565b610324565b604051610112919061112f565b60405180910390f35b61012361067f565b604051610130919061112f565b60405180910390f35b610153600480360381019061014e919061114a565b610685565b60405161016293929190610eef565b60405180910390f35b610173610751565b005b61018f600480360381019061018a919061114a565b610765565b60405161019c919061112f565b60405180910390f35b6101bf60048036038101906101ba9190610e08565b610863565b6040516101cc919061118a565b60405180910390f35b6101dd61096e565b6040516101ea91906111bb565b60405180910390f35b61020d600480360381019061020891906111d6565b610997565b005b6102176109e3565b6040516102249190611262565b60405180910390f35b6102476004803603810190610242919061114a565b610a09565b005b610263600480360381019061025e91906111d6565b610be5565b005b600360205280600052604060002060009150905080600001549080600101805461028e906112ac565b80601f01602080910402602001604051908101604052809291908181526020018280546102ba906112ac565b80156103075780601f106102dc57610100808354040283529160200191610307565b820191906000526020600020905b8154815290600101906020018083116102ea57829003601f168201915b5050505050908060020160009054906101000a900460ff16905083565b6000600260009054906101000a900473ffffffffffffffffffffffffffffffffffffffff1673ffffffffffffffffffffffffffffffffffffffff16637eb1499085856040518363ffffffff1660e01b81526004016103839291906112dd565b602060405180830381865afa1580156103a0573d6000803e3d6000fd5b505050506040513d601f19601f820116820180604052508101906103c49190611332565b610403576040517f08c379a00000000000000000000000000000000000000000000000000000000081526004016103fa906113ab565b60405180910390fd5b6000600460008673ffffffffffffffffffffffffffffffffffffffff1673ffffffffffffffffffffffffffffffffffffffff16815260200190815260200160002060008581526020019081526020016000206001018054610463906112ac565b9050146104a5576040517f08c379a000000000000000000000000000000000000000000000000000000000815260040161049c90611417565b60405180910390fd5b600160008154809291906104b890611466565b91905055506040518060600160405280600154815260200183815260200160011515815250600460008673ffffffffffffffffffffffffffffffffffffffff1673ffffffffffffffffffffffffffffffffffffffff168152602001908152602001600020600085815260200190815260200160002060008201518160000155602082015181600101908161054c9190611650565b5060408201518160020160006101000a81548160ff021916908315150217905550905050600460008573ffffffffffffffffffffffffffffffffffffffff1673ffffffffffffffffffffffffffffffffffffffff168152602001908152602001600020600084815260200190815260200160002060036000600154815260200190815260200160002060008201548160000155600182018160010190816105f39190611738565b506002820160009054906101000a900460ff168160020160006101000a81548160ff021916908315150217905550905050828473ffffffffffffffffffffffffffffffffffffffff167ffedda2a344a840797ab5daf76a4ffbe2e0bbe7b604b5c1c80cecc1282c8657e78460405161066b919061118a565b60405180910390a360015490509392505050565b60015481565b6004602052816000526040600020602052806000526040600020600091509150508060000154908060010180546106bb906112ac565b80601f01602080910402602001604051908101604052809291908181526020018280546106e7906112ac565b80156107345780601f1061070957610100808354040283529160200191610734565b820191906000526020600020905b81548152906001019060200180831161071757829003601f168201915b5050505050908060020160009054906101000a900460ff16905083565b610759610c6b565b6107636000610cf2565b565b6000600460008473ffffffffffffffffffffffffffffffffffffffff1673ffffffffffffffffffffffffffffffffffffffff168152602001908152602001600020600083815260200190815260200160002060020160009054906101000a900460ff16610807576040517f08c379a00000000000000000000000000000000000000000000000000000000081526004016107fe9061186c565b60405180910390fd5b600460008473ffffffffffffffffffffffffffffffffffffffff1673ffffffffffffffffffffffffffffffffffffffff168152602001908152602001600020600083815260200190815260200160002060000154905092915050565b60606003600083815260200190815260200160002060020160009054906101000a900460ff166108c8576040517f08c379a00000000000000000000000000000000000000000000000000000000081526004016108bf9061186c565b60405180910390fd5b6003600083815260200190815260200160002060010180546108e9906112ac565b80601f0160208091040260200160405190810160405280929190818152602001828054610915906112ac565b80156109625780601f1061093757610100808354040283529160200191610962565b820191906000526020600020905b81548152906001019060200180831161094557829003601f168201915b50505050509050919050565b60008060009054906101000a900473ffffffffffffffffffffffffffffffffffffffff16905090565b61099f610c6b565b80600260006101000a81548173ffffffffffffffffffffffffffffffffffffffff021916908373ffffffffffffffffffffffffffffffffffffffff16021790555050565b600260009054906101000a900473ffffffffffffffffffffffffffffffffffffffff1681565b600460008373ffffffffffffffffffffffffffffffffffffffff1673ffffffffffffffffffffffffffffffffffffffff168152602001908152602001600020600082815260200190815260200160002060020160009054906101000a900460ff16610aa9576040517f08c379a0000000000000000000000000000000000000000000000000000000008152600401610aa0906118d8565b60405180910390fd5b6000600460008473ffffffffffffffffffffffffffffffffffffffff1673ffffffffffffffffffffffffffffffffffffffff168152602001908152602001600020600083815260200190815260200160002060020160006101000a81548160ff0219169083151502179055506000600460008473ffffffffffffffffffffffffffffffffffffffff1673ffffffffffffffffffffffffffffffffffffffff168152602001908152602001600020600083815260200190815260200160002060000154905060006003600083815260200190815260200160002060020160006101000a81548160ff021916908315150217905550818373ffffffffffffffffffffffffffffffffffffffff167f713b90881ad62c4fa8ab6bd9197fa86481fc0c11b2edba60026514281b2dbac460405160405180910390a3505050565b610bed610c6b565b600073ffffffffffffffffffffffffffffffffffffffff168173ffffffffffffffffffffffffffffffffffffffff1603610c5f5760006040517f1e4fbdf7000000000000000000000000000000000000000000000000000000008152600401610c5691906111bb565b60405180910390fd5b610c6881610cf2565b50565b610c73610db6565b73ffffffffffffffffffffffffffffffffffffffff16610c9161096e565b73ffffffffffffffffffffffffffffffffffffffff1614610cf057610cb4610db6565b6040517f118cdaa7000000000000000000000000000000000000000000000000000000008152600401610ce791906111bb565b60405180910390fd5b565b60008060009054906101000a900473ffffffffffffffffffffffffffffffffffffffff169050816000806101000a81548173ffffffffffffffffffffffffffffffffffffffff021916908373ffffffffffffffffffffffffffffffffffffffff1602179055508173ffffffffffffffffffffffffffffffffffffffff168173ffffffffffffffffffffffffffffffffffffffff167f8be0079c531659141344cd1fd0a4f28419497f9722a3daafe3b4186f6b6457e060405160405180910390a35050565b600033905090565b6000604051905090565b600080fd5b600080fd5b6000819050919050565b610de581610dd2565b8114610df057600080fd5b50565b600081359050610e0281610ddc565b92915050565b600060208284031215610e1e57610e1d610dc8565b5b6000610e2c84828501610df3565b91505092915050565b610e3e81610dd2565b82525050565b600081519050919050565b600082825260208201905092915050565b60005b83811015610e7e578082015181840152602081019050610e63565b60008484015250505050565b6000601f19601f8301169050919050565b6000610ea682610e44565b610eb08185610e4f565b9350610ec0818560208601610e60565b610ec981610e8a565b840191505092915050565b60008115159050919050565b610ee981610ed4565b82525050565b6000606082019050610f046000830186610e35565b8181036020830152610f168185610e9b565b9050610f256040830184610ee0565b949350505050565b600073ffffffffffffffffffffffffffffffffffffffff82169050919050565b6000610f5882610f2d565b9050919050565b610f6881610f4d565b8114610f7357600080fd5b50565b600081359050610f8581610f5f565b92915050565b600080fd5b600080fd5b7f4e487b7100000000000000000000000000000000000000000000000000000000600052604160045260246000fd5b610fcd82610e8a565b810181811067ffffffffffffffff82111715610fec57610feb610f95565b5b80604052505050565b6000610fff610dbe565b905061100b8282610fc4565b919050565b600067ffffffffffffffff82111561102b5761102a610f95565b5b61103482610e8a565b9050602081019050919050565b82818337600083830152505050565b600061106361105e84611010565b610ff5565b90508281526020810184848401111561107f5761107e610f90565b5b61108a848285611041565b509392505050565b600082601f8301126110a7576110a6610f8b565b5b81356110b7848260208601611050565b91505092915050565b6000806000606084860312156110d9576110d8610dc8565b5b60006110e786828701610f76565b93505060206110f886828701610df3565b925050604084013567ffffffffffffffff81111561111957611118610dcd565b5b61112586828701611092565b9150509250925092565b60006020820190506111446000830184610e35565b92915050565b6000806040838503121561116157611160610dc8565b5b600061116f85828601610f76565b925050602061118085828601610df3565b9150509250929050565b600060208201905081810360008301526111a48184610e9b565b905092915050565b6111b581610f4d565b82525050565b60006020820190506111d060008301846111ac565b92915050565b6000602082840312156111ec576111eb610dc8565b5b60006111fa84828501610f76565b91505092915050565b6000819050919050565b600061122861122361121e84610f2d565b611203565b610f2d565b9050919050565b600061123a8261120d565b9050919050565b600061124c8261122f565b9050919050565b61125c81611241565b82525050565b60006020820190506112776000830184611253565b92915050565b7f4e487b7100000000000000000000000000000000000000000000000000000000600052602260045260246000fd5b600060028204905060018216806112c457607f821691505b6020821081036112d7576112d661127d565b5b50919050565b60006040820190506112f260008301856111ac565b6112ff6020830184610e35565b9392505050565b61130f81610ed4565b811461131a57600080fd5b50565b60008151905061132c81611306565b92915050565b60006020828403121561134857611347610dc8565b5b60006113568482850161131d565b91505092915050565b7f4e6f74206f726967696e616c20627579657220696620636f757273652e000000600082015250565b6000611395601d83610e4f565b91506113a08261135f565b602082019050919050565b600060208201905081810360008301526113c481611388565b9050919050565b7f416c726561647920617474657374656400000000000000000000000000000000600082015250565b6000611401601083610e4f565b915061140c826113cb565b602082019050919050565b60006020820190508181036000830152611430816113f4565b9050919050565b7f4e487b7100000000000000000000000000000000000000000000000000000000600052601160045260246000fd5b600061147182610dd2565b91507fffffffffffffffffffffffffffffffffffffffffffffffffffffffffffffffff82036114a3576114a2611437565b5b600182019050919050565b60008190508160005260206000209050919050565b60006020601f8301049050919050565b600082821b905092915050565b6000600883026115107fffffffffffffffffffffffffffffffffffffffffffffffffffffffffffffffff826114d3565b61151a86836114d3565b95508019841693508086168417925050509392505050565b600061154d61154861154384610dd2565b611203565b610dd2565b9050919050565b6000819050919050565b61156783611532565b61157b61157382611554565b8484546114e0565b825550505050565b600090565b611590611583565b61159b81848461155e565b505050565b5b818110156115bf576115b4600082611588565b6001810190506115a1565b5050565b601f821115611604576115d5816114ae565b6115de846114c3565b810160208510156115ed578190505b6116016115f9856114c3565b8301826115a0565b50505b505050565b600082821c905092915050565b600061162760001984600802611609565b1980831691505092915050565b60006116408383611616565b9150826002028217905092915050565b61165982610e44565b67ffffffffffffffff81111561167257611671610f95565b5b61167c82546112ac565b6116878282856115c3565b600060209050601f8311600181146116ba57600084156116a8578287015190505b6116b28582611634565b86555061171a565b601f1984166116c8866114ae565b60005b828110156116f0578489015182556001820191506020850194506020810190506116cb565b8683101561170d5784890151611709601f891682611616565b8355505b6001600288020188555050505b505050505050565b600081549050611731816112ac565b9050919050565b81810361174657505061181e565b61174f82611722565b67ffffffffffffffff81111561176857611767610f95565b5b61177282546112ac565b61177d8282856115c3565b6000601f8311600181146117ac576000841561179a578287015490505b6117a48582611634565b865550611817565b601f1984166117ba876114ae565b96506117c5866114ae565b60005b828110156117ed578489015482556001820191506001850194506020810190506117c8565b8683101561180a5784890154611806601f891682611616565b8355505b6001600288020188555050505b5050505050505b565b7f436572746966696361746520696e76616c6964206f72207265766f6b65640000600082015250565b6000611856601e83610e4f565b915061186182611820565b602082019050919050565b6000602082019050818103600083015261188581611849565b9050919050565b7f416c7265616479207265766f6b65640000000000000000000000000000000000600082015250565b60006118c2600f83610e4f565b91506118cd8261188c565b602082019050919050565b600060208201905081810360008301526118f1816118b5565b905091905056fea26469706673582212208eb97964158d3b5dd902608cda371d5a1a788b5caf1d245c1ff87f7ff00ba35b64736f6c63430008140033",
  "linkReferences": {},
  "deployedLinkReferences": {}
}