{
  "_format": "hh-sol-artifact-1",
  "contractName": "CourseMarketplace",
  "sourceName": "contracts/CourseMarketplace.sol",
  "abi": [
    {
      "inputs": [],
      "stateMutability": "nonpayable",
      "type": "constructor"
    },
    {
      "inputs": [
        {
          "internalType": "address",
          "name": "owner",
          "type": "address"
        }
      ],
      "name": "OwnableInvalidOwner",
      "type": "error"
    },
    {
      "inputs": [
        {
          "internalType": "address",
          "name": "account",
          "type": "address"
        }
      ],
      "name": "OwnableUnauthorizedAccount",
      "type": "error"
    },
    {
      "anonymous": false,
      "inputs": [
        {
          "indexed": true,
          "internalType": "uint256",
          "name": "courseId",
          "type": "uint256"
        },
        {
          "indexed": true,
          "internalType": "address",
          "name": "instructor",
          "type": "address"
        }
      ],
      "name": "CourseCreated",
      "type": "event"
    },
    {
      "anonymous": false,
      "inputs": [
        {
          "indexed": true,
          "internalType": "uint256",
          "name": "courseId",
          "type": "uint256"
        },
        {
          "indexed": true,
          "internalType": "address",
          "name": "buyer",
          "type": "address"
        }
      ],
      "name": "CoursePurchased",
      "type": "event"
    },
    {
      "anonymous": false,
      "inputs": [
        {
          "indexed": true,
          "internalType": "address",
          "name": "previousOwner",
          "type": "address"
        },
        {
          "indexed": true,
          "internalType": "address",
          "name": "newOwner",
          "type": "address"
        }
      ],
      "name": "OwnershipTransferred",
      "type": "event"
    },
    {
      "inputs": [],
      "name": "certificateSBT",
      "outputs": [
        {
          "internalType": "contract CertificateSBT",
          "name": "",
          "type": "address"
        }
      ],
      "stateMutability": "view",
      "type": "function"
    },
    {
      "inputs": [],
      "name": "courseNFT",
      "outputs": [
        {
          "internalType": "contract CourseNFT",
          "name": "",
          "type": "address"
        }
      ],
      "stateMutability": "view",
      "type": "function"
    },
    {
      "inputs": [
        {
          "internalType": "string",
          "name": "_courseName",
          "type": "string"
        },
        {
          "internalType": "string",
          "name": "_ipfsLink",
          "type": "string"
        },
        {
          "internalType": "uint256",
          "name": "_price",
          "type": "uint256"
        }
      ],
      "name": "createCourse",
      "outputs": [
        {
          "internalType": "uint256",
          "name": "",
          "type": "uint256"
        }
      ],
      "stateMutability": "nonpayable",
      "type": "function"
    },
    {
      "inputs": [],
      "name": "getAllCourses",
      "outputs": [
        {
          "internalType": "uint256[]",
          "name": "courseIds",
          "type": "uint256[]"
        },
        {
          "internalType": "string[]",
          "name": "names",
          "type": "string[]"
        },
        {
          "internalType": "uint256[]",
          "name": "prices",
          "type": "uint256[]"
        },
        {
          "internalType": "address[]",
          "name": "instructors",
          "type": "address[]"
        }
      ],
      "stateMutability": "view",
      "type": "function"
    },
    {
      "inputs": [
        {
          "internalType": "uint256",
          "name": "courseId",
          "type": "uint256"
        }
      ],
      "name": "getCertificate",
      "outputs": [
        {
          "internalType": "uint256",
          "name": "",
          "type": "uint256"
        }
      ],
      "stateMutability": "view",
      "type": "function"
    },
    {
      "inputs": [
        {
          "internalType": "uint256",
          "name": "certificateId",
          "type": "uint256"
        }
      ],
      "name": "getCertificateURL",
      "outputs": [
        {
          "internalType": "string",
          "name": "",
          "type": "string"
        }
      ],
      "stateMutability": "view",
      "type": "function"
    },
    {
      "inputs": [],
      "name": "getCreatedCourses",
      "outputs": [
        {
          "internalType": "uint256[]",
          "name": "courseIds",
          "type": "uint256[]"
        },
        {
          "internalType": "string[]",
          "name": "names",
          "type": "string[]"
        },
        {
          "internalType": "uint256[]",
          "name": "prices",
          "type": "uint256[]"
        },
        {
          "internalType": "address[]",
          "name": "instructors",
          "type": "address[]"
        },
        {
          "internalType": "string[]",
          "name": "ipfsLinks",
          "type": "string[]"
        }
      ],
      "stateMutability": "view",
      "type": "function"
    },
    {
      "inputs": [],
      "name": "getPurchasedCourses",
      "outputs": [
        {
          "internalType": "uint256[]",
          "name": "courseIds",
          "type": "uint256[]"
        },
        {
          "internalType": "string[]",
          "name": "names",
          "type": "string[]"
        },
        {
          "internalType": "uint256[]",
          "name": "prices",
          "type": "uint256[]"
        },
        {
          "internalType": "address[]",
          "name": "instructors",
          "type": "address[]"
        },
        {
          "internalType": "string[]",
          "name": "ipfsLinks",
          "type": "string[]"
        }
      ],
      "stateMutability": "view",
      "type": "function"
    },
    {
      "inputs": [
        {
          "internalType": "uint256",
          "name": "courseId",
          "type": "uint256"
        },
        {
          "internalType": "string",
          "name": "uri",
          "type": "string"
        }
      ],
      "name": "issueCertificate",
      "outputs": [
        {
          "internalType": "uint256",
          "name": "",
          "type": "uint256"
        }
      ],
      "stateMutability": "nonpayable",
      "type": "function"
    },
    {
      "inputs": [],
      "name": "loginUser",
      "outputs": [
        {
          "internalType": "address",
          "name": "",
          "type": "address"
        },
        {
          "internalType": "string",
          "name": "",
          "type": "string"
        },
        {
          "internalType": "bool",
          "name": "isInstructor",
          "type": "bool"
        }
      ],
      "stateMutability": "view",
      "type": "function"
    },
    {
      "inputs": [],
      "name": "owner",
      "outputs": [
        {
          "internalType": "address",
          "name": "",
          "type": "address"
        }
      ],
      "stateMutability": "view",
      "type": "function"
    },
    {
      "inputs": [
        {
          "internalType": "uint256",
          "name": "_courseId",
          "type": "uint256"
        }
      ],
      "name": "purchaseCourse",
      "outputs": [],
      "stateMutability": "payable",
      "type": "function"
    },
    {
      "inputs": [
        {
          "internalType": "string",
          "name": "_username",
          "type": "string"
        },
        {
          "internalType": "bool",
          "name": "_isInstructor",
          "type": "bool"
        }
      ],
      "name": "registerUser",
      "outputs": [],
      "stateMutability": "nonpayable",
      "type": "function"
    },
    {
      "inputs": [],
      "name": "renounceOwnership",
      "outputs": [],
      "stateMutability": "nonpayable",
      "type": "function"
    },
    {
      "inputs": [
        {
          "internalType": "address",
          "name": "newOwner",
          "type": "address"
        }
      ],
      "name": "transferOwnership",
      "outputs": [],
      "stateMutability": "nonpayable",
      "type": "function"
    },
    {
      "inputs": [],
      "name": "userRegistry",
      "outputs": [
        {
          "internalType": "contract UserRegistry",
          "name": "",
          "type": "address"
        }
      ],
      "stateMutability": "view",
      "type": "function"
    }
  ],
  "bytecode": "0x60806040523480156200001157600080fd5b5033600073ffffffffffffffffffffffffffffffffffffffff168173ffffffffffffffffffffffffffffffffffffffff1603620000885760006040517f1e4fbdf70000000000000000000000000000000000000000000000000000000081526004016200007f9190620003ca565b60405180910390fd5b62000099816200029760201b60201c565b50604051620000a8906200035b565b604051809103906000f080158015620000c5573d6000803e3d6000fd5b50600160006101000a81548173ffffffffffffffffffffffffffffffffffffffff021916908373ffffffffffffffffffffffffffffffffffffffff160217905550604051620001149062000369565b604051809103906000f08015801562000131573d6000803e3d6000fd5b50600260006101000a81548173ffffffffffffffffffffffffffffffffffffffff021916908373ffffffffffffffffffffffffffffffffffffffff160217905550604051620001809062000377565b604051809103906000f0801580156200019d573d6000803e3d6000fd5b50600360006101000a81548173ffffffffffffffffffffffffffffffffffffffff021916908373ffffffffffffffffffffffffffffffffffffffff160217905550600260009054906101000a900473ffffffffffffffffffffffffffffffffffffffff1673ffffffffffffffffffffffffffffffffffffffff166394e05dd7600160009054906101000a900473ffffffffffffffffffffffffffffffffffffffff166040518263ffffffff1660e01b81526004016200025d9190620003ca565b600060405180830381600087803b1580156200027857600080fd5b505af11580156200028d573d6000803e3d6000fd5b50505050620003e7565b60008060009054906101000a900473ffffffffffffffffffffffffffffffffffffffff169050816000806101000a81548173ffffffffffffffffffffffffffffffffffffffff021916908373ffffffffffffffffffffffffffffffffffffffff1602179055508173ffffffffffffffffffffffffffffffffffffffff168173ffffffffffffffffffffffffffffffffffffffff167f8be0079c531659141344cd1fd0a4f28419497f9722a3daafe3b4186f6b6457e060405160405180910390a35050565b613cf78062002c2183390190565b6123af806200691883390190565b6113828062008cc783390190565b600073ffffffffffffffffffffffffffffffffffffffff82169050919050565b6000620003b28262000385565b9050919050565b620003c481620003a5565b82525050565b6000602082019050620003e16000830184620003b9565b92915050565b61282a80620003f76000396000f3fe6080604052600436106100f35760003560e01c8063862807ff1161008a578063a998ffb311610059578063a998ffb31461033b578063c078c03014610366578063cd13193814610391578063f2fde38b146103ad576100f3565b8063862807ff146102695780638da5cb5b146102a6578063a19ed686146102d1578063a4adb24b146102fe576100f3565b806351640fee116100c657806351640fee146101c15780635c7460d6146101fe578063715018a61461022957806379b233db14610240576100f3565b806304e48bd1146100f85780630c816de4146101265780631a11cb231461016357806349d3c8e914610192575b600080fd5b34801561010457600080fd5b5061010d6103d6565b60405161011d9493929190611afc565b60405180910390f35b34801561013257600080fd5b5061014d60048036038101906101489190611cd2565b6106d2565b60405161015a9190611d3d565b60405180910390f35b34801561016f57600080fd5b5061017861077e565b604051610189959493929190611d58565b60405180910390f35b34801561019e57600080fd5b506101a7610af3565b6040516101b8959493929190611d58565b60405180910390f35b3480156101cd57600080fd5b506101e860048036038101906101e39190611dce565b610e68565b6040516101f59190611d3d565b60405180910390f35b34801561020a57600080fd5b50610213610f0f565b6040516102209190611e5a565b60405180910390f35b34801561023557600080fd5b5061023e610f35565b005b34801561024c57600080fd5b5061026760048036038101906102629190611f0d565b610f49565b005b34801561027557600080fd5b50610290600480360381019061028b9190611dce565b610fe1565b60405161029d9190611fb7565b60405180910390f35b3480156102b257600080fd5b506102bb61108b565b6040516102c89190611fe8565b60405180910390f35b3480156102dd57600080fd5b506102e66110b4565b6040516102f593929190612012565b60405180910390f35b34801561030a57600080fd5b5061032560048036038101906103209190612050565b611166565b6040516103329190611d3d565b60405180910390f35b34801561034757600080fd5b5061035061141b565b60405161035d9190612106565b60405180910390f35b34801561037257600080fd5b5061037b611441565b6040516103889190612142565b60405180910390f35b6103ab60048036038101906103a69190611dce565b611467565b005b3480156103b957600080fd5b506103d460048036038101906103cf9190612189565b611619565b005b6060806060806000600160009054906101000a900473ffffffffffffffffffffffffffffffffffffffff1673ffffffffffffffffffffffffffffffffffffffff1663fbd8e3976040518163ffffffff1660e01b8152600401600060405180830381865afa15801561044b573d6000803e3d6000fd5b505050506040513d6000823e3d601f19601f82011682018060405250810190610474919061228e565b90506000815190508067ffffffffffffffff81111561049657610495611ba7565b5b6040519080825280602002602001820160405280156104c957816020015b60608152602001906001900390816104b45790505b5094508067ffffffffffffffff8111156104e6576104e5611ba7565b5b6040519080825280602002602001820160405280156105145781602001602082028036833780820191505090505b5093508067ffffffffffffffff81111561053157610530611ba7565b5b60405190808252806020026020018201604052801561055f5781602001602082028036833780820191505090505b50925060005b818110156106c657600160009054906101000a900473ffffffffffffffffffffffffffffffffffffffff1673ffffffffffffffffffffffffffffffffffffffff1663610b31a68483815181106105be576105bd6122d7565b5b60200260200101516040518263ffffffff1660e01b81526004016105e29190611d3d565b600060405180830381865afa1580156105ff573d6000803e3d6000fd5b505050506040513d6000823e3d601f19601f82011682018060405250810190610628919061238b565b90915088848151811061063e5761063d6122d7565b5b60200260200101888581518110610658576106576122d7565b5b60200260200101888681518110610672576106716122d7565b5b602002602001018373ffffffffffffffffffffffffffffffffffffffff1673ffffffffffffffffffffffffffffffffffffffff168152508381525083905250505080806106be90612459565b915050610565565b50819550505090919293565b6000600360009054906101000a900473ffffffffffffffffffffffffffffffffffffffff1673ffffffffffffffffffffffffffffffffffffffff16631cff57823385856040518463ffffffff1660e01b8152600401610733939291906124a1565b6020604051808303816000875af1158015610752573d6000803e3d6000fd5b505050506040513d601f19601f8201168201806040525081019061077691906124df565b905092915050565b60608060608060606000600260009054906101000a900473ffffffffffffffffffffffffffffffffffffffff1673ffffffffffffffffffffffffffffffffffffffff1663a64e398f336040518263ffffffff1660e01b81526004016107e39190611fe8565b600060405180830381865afa158015610800573d6000803e3d6000fd5b505050506040513d6000823e3d601f19601f82011682018060405250810190610829919061228e565b90506000815190508067ffffffffffffffff81111561084b5761084a611ba7565b5b60405190808252806020026020018201604052801561087e57816020015b60608152602001906001900390816108695790505b5095508067ffffffffffffffff81111561089b5761089a611ba7565b5b6040519080825280602002602001820160405280156108c95781602001602082028036833780820191505090505b5094508067ffffffffffffffff8111156108e6576108e5611ba7565b5b6040519080825280602002602001820160405280156109145781602001602082028036833780820191505090505b5093508067ffffffffffffffff81111561093157610930611ba7565b5b60405190808252806020026020018201604052801561096457816020015b606081526020019060019003908161094f5790505b50925060005b81811015610ae657600160009054906101000a900473ffffffffffffffffffffffffffffffffffffffff1673ffffffffffffffffffffffffffffffffffffffff1663610b31a68483815181106109c3576109c26122d7565b5b60200260200101516040518263ffffffff1660e01b81526004016109e79190611d3d565b600060405180830381865afa158015610a04573d6000803e3d6000fd5b505050506040513d6000823e3d601f19601f82011682018060405250810190610a2d919061238b565b8a8581518110610a4057610a3f6122d7565b5b60200260200101888681518110610a5a57610a596122d7565b5b602002602001018b8781518110610a7457610a736122d7565b5b602002602001018b8881518110610a8e57610a8d6122d7565b5b602002602001018473ffffffffffffffffffffffffffffffffffffffff1673ffffffffffffffffffffffffffffffffffffffff1681525084815250849052849052505050508080610ade90612459565b91505061096a565b5081965050509091929394565b60608060608060606000600260009054906101000a900473ffffffffffffffffffffffffffffffffffffffff1673ffffffffffffffffffffffffffffffffffffffff16630a5fa7f2336040518263ffffffff1660e01b8152600401610b589190611fe8565b600060405180830381865afa158015610b75573d6000803e3d6000fd5b505050506040513d6000823e3d601f19601f82011682018060405250810190610b9e919061228e565b90506000815190508067ffffffffffffffff811115610bc057610bbf611ba7565b5b604051908082528060200260200182016040528015610bf357816020015b6060815260200190600190039081610bde5790505b5095508067ffffffffffffffff811115610c1057610c0f611ba7565b5b604051908082528060200260200182016040528015610c3e5781602001602082028036833780820191505090505b5094508067ffffffffffffffff811115610c5b57610c5a611ba7565b5b604051908082528060200260200182016040528015610c895781602001602082028036833780820191505090505b5093508067ffffffffffffffff811115610ca657610ca5611ba7565b5b604051908082528060200260200182016040528015610cd957816020015b6060815260200190600190039081610cc45790505b50925060005b81811015610e5b57600160009054906101000a900473ffffffffffffffffffffffffffffffffffffffff1673ffffffffffffffffffffffffffffffffffffffff1663610b31a6848381518110610d3857610d376122d7565b5b60200260200101516040518263ffffffff1660e01b8152600401610d5c9190611d3d565b600060405180830381865afa158015610d79573d6000803e3d6000fd5b505050506040513d6000823e3d601f19601f82011682018060405250810190610da2919061238b565b8a8581518110610db557610db46122d7565b5b60200260200101888681518110610dcf57610dce6122d7565b5b602002602001018b8781518110610de957610de86122d7565b5b602002602001018b8881518110610e0357610e026122d7565b5b602002602001018473ffffffffffffffffffffffffffffffffffffffff1673ffffffffffffffffffffffffffffffffffffffff1681525084815250849052849052505050508080610e5390612459565b915050610cdf565b5081965050509091929394565b6000600360009054906101000a900473ffffffffffffffffffffffffffffffffffffffff1673ffffffffffffffffffffffffffffffffffffffff1663817bb33133846040518363ffffffff1660e01b8152600401610ec792919061250c565b602060405180830381865afa158015610ee4573d6000803e3d6000fd5b505050506040513d601f19601f82011682018060405250810190610f0891906124df565b9050919050565b600260009054906101000a900473ffffffffffffffffffffffffffffffffffffffff1681565b610f3d61169f565b610f476000611726565b565b600260009054906101000a900473ffffffffffffffffffffffffffffffffffffffff1673ffffffffffffffffffffffffffffffffffffffff16631897c0bc338585856040518563ffffffff1660e01b8152600401610faa9493929190612562565b600060405180830381600087803b158015610fc457600080fd5b505af1158015610fd8573d6000803e3d6000fd5b50505050505050565b6060600360009054906101000a900473ffffffffffffffffffffffffffffffffffffffff1673ffffffffffffffffffffffffffffffffffffffff1663862807ff836040518263ffffffff1660e01b815260040161103e9190611d3d565b600060405180830381865afa15801561105b573d6000803e3d6000fd5b505050506040513d6000823e3d601f19601f8201168201806040525081019061108491906125a2565b9050919050565b60008060009054906101000a900473ffffffffffffffffffffffffffffffffffffffff16905090565b600060606000600260009054906101000a900473ffffffffffffffffffffffffffffffffffffffff1673ffffffffffffffffffffffffffffffffffffffff1663ffc9896b336040518263ffffffff1660e01b81526004016111159190611fe8565b600060405180830381865afa158015611132573d6000803e3d6000fd5b505050506040513d6000823e3d601f19601f8201168201806040525081019061115b9190612600565b925092509250909192565b6000600260009054906101000a900473ffffffffffffffffffffffffffffffffffffffff1673ffffffffffffffffffffffffffffffffffffffff1663c3c5a547336040518263ffffffff1660e01b81526004016111c39190611fe8565b602060405180830381865afa1580156111e0573d6000803e3d6000fd5b505050506040513d601f19601f82011682018060405250810190611204919061266f565b611243576040517f08c379a000000000000000000000000000000000000000000000000000000000815260040161123a906126e8565b60405180910390fd5b600260009054906101000a900473ffffffffffffffffffffffffffffffffffffffff1673ffffffffffffffffffffffffffffffffffffffff1663a3afcea2336040518263ffffffff1660e01b815260040161129e9190611fe8565b602060405180830381865afa1580156112bb573d6000803e3d6000fd5b505050506040513d601f19601f820116820180604052508101906112df919061266f565b61131e576040517f08c379a000000000000000000000000000000000000000000000000000000000815260040161131590612754565b60405180910390fd5b6000600160009054906101000a900473ffffffffffffffffffffffffffffffffffffffff1673ffffffffffffffffffffffffffffffffffffffff1663a1b66b6c8888888888336040518763ffffffff1660e01b815260040161138596959493929190612774565b6020604051808303816000875af11580156113a4573d6000803e3d6000fd5b505050506040513d601f19601f820116820180604052508101906113c891906124df565b90503373ffffffffffffffffffffffffffffffffffffffff16817fa68f79aa37f9cdc81c2757cfb3e11e9d7d89ca0a5410fbcf1b61125bc17fb1b760405160405180910390a38091505095945050505050565b600160009054906101000a900473ffffffffffffffffffffffffffffffffffffffff1681565b600360009054906101000a900473ffffffffffffffffffffffffffffffffffffffff1681565b600260009054906101000a900473ffffffffffffffffffffffffffffffffffffffff1673ffffffffffffffffffffffffffffffffffffffff1663c3c5a547336040518263ffffffff1660e01b81526004016114c29190611fe8565b602060405180830381865afa1580156114df573d6000803e3d6000fd5b505050506040513d601f19601f82011682018060405250810190611503919061266f565b611542576040517f08c379a0000000000000000000000000000000000000000000000000000000008152600401611539906126e8565b60405180910390fd5b600160009054906101000a900473ffffffffffffffffffffffffffffffffffffffff1673ffffffffffffffffffffffffffffffffffffffff1663985bf63a3483336040518463ffffffff1660e01b81526004016115a09291906127cb565b6000604051808303818588803b1580156115b957600080fd5b505af11580156115cd573d6000803e3d6000fd5b50505050503373ffffffffffffffffffffffffffffffffffffffff16817f8120f2f8a682e2fd88bad8beb5760b02b7fec7a59d2d9bebb84b3e277bc152d260405160405180910390a350565b61162161169f565b600073ffffffffffffffffffffffffffffffffffffffff168173ffffffffffffffffffffffffffffffffffffffff16036116935760006040517f1e4fbdf700000000000000000000000000000000000000000000000000000000815260040161168a9190611fe8565b60405180910390fd5b61169c81611726565b50565b6116a76117ea565b73ffffffffffffffffffffffffffffffffffffffff166116c561108b565b73ffffffffffffffffffffffffffffffffffffffff1614611724576116e86117ea565b6040517f118cdaa700000000000000000000000000000000000000000000000000000000815260040161171b9190611fe8565b60405180910390fd5b565b60008060009054906101000a900473ffffffffffffffffffffffffffffffffffffffff169050816000806101000a81548173ffffffffffffffffffffffffffffffffffffffff021916908373ffffffffffffffffffffffffffffffffffffffff1602179055508173ffffffffffffffffffffffffffffffffffffffff168173ffffffffffffffffffffffffffffffffffffffff167f8be0079c531659141344cd1fd0a4f28419497f9722a3daafe3b4186f6b6457e060405160405180910390a35050565b600033905090565b600081519050919050565b600082825260208201905092915050565b6000819050602082019050919050565b6000819050919050565b6118318161181e565b82525050565b60006118438383611828565b60208301905092915050565b6000602082019050919050565b6000611867826117f2565b61187181856117fd565b935061187c8361180e565b8060005b838110156118ad5781516118948882611837565b975061189f8361184f565b925050600181019050611880565b5085935050505092915050565b600081519050919050565b600082825260208201905092915050565b6000819050602082019050919050565b600081519050919050565b600082825260208201905092915050565b60005b83811015611920578082015181840152602081019050611905565b60008484015250505050565b6000601f19601f8301169050919050565b6000611948826118e6565b61195281856118f1565b9350611962818560208601611902565b61196b8161192c565b840191505092915050565b6000611982838361193d565b905092915050565b6000602082019050919050565b60006119a2826118ba565b6119ac81856118c5565b9350836020820285016119be856118d6565b8060005b858110156119fa57848403895281516119db8582611976565b94506119e68361198a565b925060208a019950506001810190506119c2565b50829750879550505050505092915050565b600081519050919050565b600082825260208201905092915050565b6000819050602082019050919050565b600073ffffffffffffffffffffffffffffffffffffffff82169050919050565b6000611a6382611a38565b9050919050565b611a7381611a58565b82525050565b6000611a858383611a6a565b60208301905092915050565b6000602082019050919050565b6000611aa982611a0c565b611ab38185611a17565b9350611abe83611a28565b8060005b83811015611aef578151611ad68882611a79565b9750611ae183611a91565b925050600181019050611ac2565b5085935050505092915050565b60006080820190508181036000830152611b16818761185c565b90508181036020830152611b2a8186611997565b90508181036040830152611b3e818561185c565b90508181036060830152611b528184611a9e565b905095945050505050565b6000604051905090565b600080fd5b600080fd5b611b7a8161181e565b8114611b8557600080fd5b50565b600081359050611b9781611b71565b92915050565b600080fd5b600080fd5b7f4e487b7100000000000000000000000000000000000000000000000000000000600052604160045260246000fd5b611bdf8261192c565b810181811067ffffffffffffffff82111715611bfe57611bfd611ba7565b5b80604052505050565b6000611c11611b5d565b9050611c1d8282611bd6565b919050565b600067ffffffffffffffff821115611c3d57611c3c611ba7565b5b611c468261192c565b9050602081019050919050565b82818337600083830152505050565b6000611c75611c7084611c22565b611c07565b905082815260208101848484011115611c9157611c90611ba2565b5b611c9c848285611c53565b509392505050565b600082601f830112611cb957611cb8611b9d565b5b8135611cc9848260208601611c62565b91505092915050565b60008060408385031215611ce957611ce8611b67565b5b6000611cf785828601611b88565b925050602083013567ffffffffffffffff811115611d1857611d17611b6c565b5b611d2485828601611ca4565b9150509250929050565b611d378161181e565b82525050565b6000602082019050611d526000830184611d2e565b92915050565b600060a0820190508181036000830152611d72818861185c565b90508181036020830152611d868187611997565b90508181036040830152611d9a818661185c565b90508181036060830152611dae8185611a9e565b90508181036080830152611dc28184611997565b90509695505050505050565b600060208284031215611de457611de3611b67565b5b6000611df284828501611b88565b91505092915050565b6000819050919050565b6000611e20611e1b611e1684611a38565b611dfb565b611a38565b9050919050565b6000611e3282611e05565b9050919050565b6000611e4482611e27565b9050919050565b611e5481611e39565b82525050565b6000602082019050611e6f6000830184611e4b565b92915050565b600080fd5b600080fd5b60008083601f840112611e9557611e94611b9d565b5b8235905067ffffffffffffffff811115611eb257611eb1611e75565b5b602083019150836001820283011115611ece57611ecd611e7a565b5b9250929050565b60008115159050919050565b611eea81611ed5565b8114611ef557600080fd5b50565b600081359050611f0781611ee1565b92915050565b600080600060408486031215611f2657611f25611b67565b5b600084013567ffffffffffffffff811115611f4457611f43611b6c565b5b611f5086828701611e7f565b93509350506020611f6386828701611ef8565b9150509250925092565b600082825260208201905092915050565b6000611f89826118e6565b611f938185611f6d565b9350611fa3818560208601611902565b611fac8161192c565b840191505092915050565b60006020820190508181036000830152611fd18184611f7e565b905092915050565b611fe281611a58565b82525050565b6000602082019050611ffd6000830184611fd9565b92915050565b61200c81611ed5565b82525050565b60006060820190506120276000830186611fd9565b81810360208301526120398185611f7e565b90506120486040830184612003565b949350505050565b60008060008060006060868803121561206c5761206b611b67565b5b600086013567ffffffffffffffff81111561208a57612089611b6c565b5b61209688828901611e7f565b9550955050602086013567ffffffffffffffff8111156120b9576120b8611b6c565b5b6120c588828901611e7f565b935093505060406120d888828901611b88565b9150509295509295909350565b60006120f082611e27565b9050919050565b612100816120e5565b82525050565b600060208201905061211b60008301846120f7565b92915050565b600061212c82611e27565b9050919050565b61213c81612121565b82525050565b60006020820190506121576000830184612133565b92915050565b61216681611a58565b811461217157600080fd5b50565b6000813590506121838161215d565b92915050565b60006020828403121561219f5761219e611b67565b5b60006121ad84828501612174565b91505092915050565b600067ffffffffffffffff8211156121d1576121d0611ba7565b5b602082029050602081019050919050565b6000815190506121f181611b71565b92915050565b600061220a612205846121b6565b611c07565b9050808382526020820190506020840283018581111561222d5761222c611e7a565b5b835b81811015612256578061224288826121e2565b84526020840193505060208101905061222f565b5050509392505050565b600082601f83011261227557612274611b9d565b5b81516122858482602086016121f7565b91505092915050565b6000602082840312156122a4576122a3611b67565b5b600082015167ffffffffffffffff8111156122c2576122c1611b6c565b5b6122ce84828501612260565b91505092915050565b7f4e487b7100000000000000000000000000000000000000000000000000000000600052603260045260246000fd5b600061231961231484611c22565b611c07565b90508281526020810184848401111561233557612334611ba2565b5b612340848285611902565b509392505050565b600082601f83011261235d5761235c611b9d565b5b815161236d848260208601612306565b91505092915050565b6000815190506123858161215d565b92915050565b600080600080608085870312156123a5576123a4611b67565b5b600085015167ffffffffffffffff8111156123c3576123c2611b6c565b5b6123cf87828801612348565b945050602085015167ffffffffffffffff8111156123f0576123ef611b6c565b5b6123fc87828801612348565b935050604061240d878288016121e2565b925050606061241e87828801612376565b91505092959194509250565b7f4e487b7100000000000000000000000000000000000000000000000000000000600052601160045260246000fd5b60006124648261181e565b91507fffffffffffffffffffffffffffffffffffffffffffffffffffffffffffffffff82036124965761249561242a565b5b600182019050919050565b60006060820190506124b66000830186611fd9565b6124c36020830185611d2e565b81810360408301526124d58184611f7e565b9050949350505050565b6000602082840312156124f5576124f4611b67565b5b6000612503848285016121e2565b91505092915050565b60006040820190506125216000830185611fd9565b61252e6020830184611d2e565b9392505050565b60006125418385611f6d565b935061254e838584611c53565b6125578361192c565b840190509392505050565b60006060820190506125776000830187611fd9565b818103602083015261258a818587612535565b90506125996040830184612003565b95945050505050565b6000602082840312156125b8576125b7611b67565b5b600082015167ffffffffffffffff8111156125d6576125d5611b6c565b5b6125e284828501612348565b91505092915050565b6000815190506125fa81611ee1565b92915050565b60008060006060848603121561261957612618611b67565b5b600061262786828701612376565b935050602084015167ffffffffffffffff81111561264857612647611b6c565b5b61265486828701612348565b9250506040612665868287016125eb565b9150509250925092565b60006020828403121561268557612684611b67565b5b6000612693848285016125eb565b91505092915050565b7f55736572206e6f74207265676973746572656400000000000000000000000000600082015250565b60006126d2601383611f6d565b91506126dd8261269c565b602082019050919050565b60006020820190508181036000830152612701816126c5565b9050919050565b7f55736572206e6f7420696e7374727563746f7200000000000000000000000000600082015250565b600061273e601383611f6d565b915061274982612708565b602082019050919050565b6000602082019050818103600083015261276d81612731565b9050919050565b6000608082019050818103600083015261278f81888a612535565b905081810360208301526127a4818688612535565b90506127b36040830185611d2e565b6127c06060830184611fd9565b979650505050505050565b60006040820190506127e06000830185611d2e565b6127ed6020830184611fd9565b939250505056fea2646970667358221220749985b04735db3a218d949ede856431545ea06da764c577a2c01eef5e8a746464736f6c6343000814003360806040523480156200001157600080fd5b5033604051806020016040528060008152506200003481620000ca60201b60201c565b50600073ffffffffffffffffffffffffffffffffffffffff168173ffffffffffffffffffffffffffffffffffffffff1603620000aa5760006040517f1e4fbdf7000000000000000000000000000000000000000000000000000000008152600401620000a19190620001ea565b60405180910390fd5b620000bb81620000df60201b60201c565b50600060058190555062000568565b8060029081620000db919062000481565b5050565b6000600360009054906101000a900473ffffffffffffffffffffffffffffffffffffffff16905081600360006101000a81548173ffffffffffffffffffffffffffffffffffffffff021916908373ffffffffffffffffffffffffffffffffffffffff1602179055508173ffffffffffffffffffffffffffffffffffffffff168173ffffffffffffffffffffffffffffffffffffffff167f8be0079c531659141344cd1fd0a4f28419497f9722a3daafe3b4186f6b6457e060405160405180910390a35050565b600073ffffffffffffffffffffffffffffffffffffffff82169050919050565b6000620001d282620001a5565b9050919050565b620001e481620001c5565b82525050565b6000602082019050620002016000830184620001d9565b92915050565b600081519050919050565b7f4e487b7100000000000000000000000000000000000000000000000000000000600052604160045260246000fd5b7f4e487b7100000000000000000000000000000000000000000000000000000000600052602260045260246000fd5b600060028204905060018216806200028957607f821691505b6020821081036200029f576200029e62000241565b5b50919050565b60008190508160005260206000209050919050565b60006020601f8301049050919050565b600082821b905092915050565b600060088302620003097fffffffffffffffffffffffffffffffffffffffffffffffffffffffffffffffff82620002ca565b620003158683620002ca565b95508019841693508086168417925050509392505050565b6000819050919050565b6000819050919050565b6000620003626200035c62000356846200032d565b62000337565b6200032d565b9050919050565b6000819050919050565b6200037e8362000341565b620003966200038d8262000369565b848454620002d7565b825550505050565b600090565b620003ad6200039e565b620003ba81848462000373565b505050565b5b81811015620003e257620003d6600082620003a3565b600181019050620003c0565b5050565b601f8211156200043157620003fb81620002a5565b6200040684620002ba565b8101602085101562000416578190505b6200042e6200042585620002ba565b830182620003bf565b50505b505050565b600082821c905092915050565b6000620004566000198460080262000436565b1980831691505092915050565b600062000471838362000443565b9150826002028217905092915050565b6200048c8262000207565b67ffffffffffffffff811115620004a857620004a762000212565b5b620004b4825462000270565b620004c1828285620003e6565b600060209050601f831160018114620004f95760008415620004e4578287015190505b620004f0858262000463565b86555062000560565b601f1984166200050986620002a5565b60005b8281101562000533578489015182556001820191506020850194506020810190506200050c565b868310156200055357848901516200054f601f89168262000443565b8355505b6001600288020188555050505b505050505050565b61377f80620005786000396000f3fe6080604052600436106100f25760003560e01c8063985bf63a1161008a578063e985e9c511610059578063e985e9c514610355578063f242432a14610392578063f2fde38b146103bb578063fbd8e397146103e4576100f2565b8063985bf63a14610296578063a1b66b6c146102b2578063a22cb465146102ef578063c6530e4114610318576100f2565b80634e1273f4116100c65780634e1273f4146101d7578063610b31a614610214578063715018a6146102545780638da5cb5b1461026b576100f2565b8062fdd58e146100f757806301ffc9a7146101345780630e89341c146101715780632eb2c2d6146101ae575b600080fd5b34801561010357600080fd5b5061011e6004803603810190610119919061245b565b61040f565b60405161012b91906124aa565b60405180910390f35b34801561014057600080fd5b5061015b6004803603810190610156919061251d565b610469565b6040516101689190612565565b60405180910390f35b34801561017d57600080fd5b5061019860048036038101906101939190612580565b61054b565b6040516101a5919061263d565b60405180910390f35b3480156101ba57600080fd5b506101d560048036038101906101d0919061285c565b61075f565b005b3480156101e357600080fd5b506101fe60048036038101906101f991906129ee565b610807565b60405161020b9190612b24565b60405180910390f35b34801561022057600080fd5b5061023b60048036038101906102369190612580565b610916565b60405161024b9493929190612b55565b60405180910390f35b34801561026057600080fd5b50610269610b45565b005b34801561027757600080fd5b50610280610b59565b60405161028d9190612ba8565b60405180910390f35b6102b060048036038101906102ab9190612bc3565b610b83565b005b3480156102be57600080fd5b506102d960048036038101906102d49190612c5e565b610ebe565b6040516102e691906124aa565b60405180910390f35b3480156102fb57600080fd5b5061031660048036038101906103119190612d31565b611172565b005b34801561032457600080fd5b5061033f600480360381019061033a919061245b565b611188565b60405161034c9190612565565b60405180910390f35b34801561036157600080fd5b5061037c60048036038101906103779190612d71565b6113ae565b6040516103899190612565565b60405180910390f35b34801561039e57600080fd5b506103b960048036038101906103b49190612db1565b611442565b005b3480156103c757600080fd5b506103e260048036038101906103dd9190612e48565b6114ea565b005b3480156103f057600080fd5b506103f9611570565b6040516104069190612b24565b60405180910390f35b600080600083815260200190815260200160002060008473ffffffffffffffffffffffffffffffffffffffff1673ffffffffffffffffffffffffffffffffffffffff16815260200190815260200160002054905092915050565b60007fd9b67a26000000000000000000000000000000000000000000000000000000007bffffffffffffffffffffffffffffffffffffffffffffffffffffffff1916827bffffffffffffffffffffffffffffffffffffffffffffffffffffffff1916148061053457507f0e89341c000000000000000000000000000000000000000000000000000000007bffffffffffffffffffffffffffffffffffffffffffffffffffffffff1916827bffffffffffffffffffffffffffffffffffffffffffffffffffffffff1916145b806105445750610543826115c8565b5b9050919050565b60606000600460008481526020019081526020016000206040518060a001604052908160008201805461057d90612ea4565b80601f01602080910402602001604051908101604052809291908181526020018280546105a990612ea4565b80156105f65780601f106105cb576101008083540402835291602001916105f6565b820191906000526020600020905b8154815290600101906020018083116105d957829003601f168201915b5050505050815260200160018201805461060f90612ea4565b80601f016020809104026020016040519081016040528092919081815260200182805461063b90612ea4565b80156106885780601f1061065d57610100808354040283529160200191610688565b820191906000526020600020905b81548152906001019060200180831161066b57829003601f168201915b50505050508152602001600282015481526020016003820160009054906101000a900473ffffffffffffffffffffffffffffffffffffffff1673ffffffffffffffffffffffffffffffffffffffff1673ffffffffffffffffffffffffffffffffffffffff1681526020016003820160149054906101000a900460ff16151515158152505090508060800151610752576040517f08c379a000000000000000000000000000000000000000000000000000000000815260040161074990612f21565b60405180910390fd5b8060200151915050919050565b6000610769611632565b90508073ffffffffffffffffffffffffffffffffffffffff168673ffffffffffffffffffffffffffffffffffffffff16141580156107ae57506107ac86826113ae565b155b156107f25780866040517fe237d9220000000000000000000000000000000000000000000000000000000081526004016107e9929190612f41565b60405180910390fd5b6107ff868686868661163a565b505050505050565b6060815183511461085357815183516040517f5b05999100000000000000000000000000000000000000000000000000000000815260040161084a929190612f6a565b60405180910390fd5b6000835167ffffffffffffffff8111156108705761086f612664565b5b60405190808252806020026020018201604052801561089e5781602001602082028036833780820191505090505b50905060005b845181101561090b576108db6108c3828761173290919063ffffffff16565b6108d6838761174690919063ffffffff16565b61040f565b8282815181106108ee576108ed612f93565b5b6020026020010181815250508061090490612ff1565b90506108a4565b508091505092915050565b6060806000806000600460008781526020019081526020016000206040518060a001604052908160008201805461094c90612ea4565b80601f016020809104026020016040519081016040528092919081815260200182805461097890612ea4565b80156109c55780601f1061099a576101008083540402835291602001916109c5565b820191906000526020600020905b8154815290600101906020018083116109a857829003601f168201915b505050505081526020016001820180546109de90612ea4565b80601f0160208091040260200160405190810160405280929190818152602001828054610a0a90612ea4565b8015610a575780601f10610a2c57610100808354040283529160200191610a57565b820191906000526020600020905b815481529060010190602001808311610a3a57829003601f168201915b50505050508152602001600282015481526020016003820160009054906101000a900473ffffffffffffffffffffffffffffffffffffffff1673ffffffffffffffffffffffffffffffffffffffff1673ffffffffffffffffffffffffffffffffffffffff1681526020016003820160149054906101000a900460ff16151515158152505090508060800151610b21576040517f08c379a0000000000000000000000000000000000000000000000000000000008152600401610b1890613085565b60405180910390fd5b80600001518160200151826040015183606001519450945094509450509193509193565b610b4d61175a565b610b5760006117e1565b565b6000600360009054906101000a900473ffffffffffffffffffffffffffffffffffffffff16905090565b6000600460008481526020019081526020016000206040518060a0016040529081600082018054610bb390612ea4565b80601f0160208091040260200160405190810160405280929190818152602001828054610bdf90612ea4565b8015610c2c5780601f10610c0157610100808354040283529160200191610c2c565b820191906000526020600020905b815481529060010190602001808311610c0f57829003601f168201915b50505050508152602001600182018054610c4590612ea4565b80601f0160208091040260200160405190810160405280929190818152602001828054610c7190612ea4565b8015610cbe5780601f10610c9357610100808354040283529160200191610cbe565b820191906000526020600020905b815481529060010190602001808311610ca157829003601f168201915b50505050508152602001600282015481526020016003820160009054906101000a900473ffffffffffffffffffffffffffffffffffffffff1673ffffffffffffffffffffffffffffffffffffffff1673ffffffffffffffffffffffffffffffffffffffff1681526020016003820160149054906101000a900460ff16151515158152505090508060800151610d88576040517f08c379a0000000000000000000000000000000000000000000000000000000008152600401610d7f90613085565b60405180910390fd5b80604001513414610dce576040517f08c379a0000000000000000000000000000000000000000000000000000000008152600401610dc5906130f1565b60405180910390fd5b6000610dda838561040f565b14610e1a576040517f08c379a0000000000000000000000000000000000000000000000000000000008152600401610e119061315d565b60405180910390fd5b806060015173ffffffffffffffffffffffffffffffffffffffff166108fc349081150290604051600060405180830381858888f19350505050158015610e64573d6000803e3d6000fd5b50610e8182846001604051806020016040528060008152506118a7565b827f8120f2f8a682e2fd88bad8beb5760b02b7fec7a59d2d9bebb84b3e277bc152d283604051610eb19190612ba8565b60405180910390a2505050565b6000808787905011610f05576040517f08c379a0000000000000000000000000000000000000000000000000000000008152600401610efc906131c9565b60405180910390fd5b60008585905011610f4b576040517f08c379a0000000000000000000000000000000000000000000000000000000008152600401610f4290613235565b60405180910390fd5b600060056000815480929190610f6090612ff1565b9190505590506040518060a0016040528089898080601f016020809104026020016040519081016040528093929190818152602001838380828437600081840152601f19601f82011690508083019250505050505050815260200187878080601f016020809104026020016040519081016040528093929190818152602001838380828437600081840152601f19601f8201169050808301925050505050505081526020018581526020018473ffffffffffffffffffffffffffffffffffffffff168152602001600115158152506004600083815260200190815260200160002060008201518160000190816110569190613401565b50602082015181600101908161106c9190613401565b506040820151816002015560608201518160030160006101000a81548173ffffffffffffffffffffffffffffffffffffffff021916908373ffffffffffffffffffffffffffffffffffffffff16021790555060808201518160030160146101000a81548160ff021916908315150217905550905050600681908060018154018082558091505060019003906000526020600020016000909190919091505561112683826001604051806020016040528060008152506118a7565b807f48ecb80c764507d9b513e5fbdba76e8b8177d246e4314b2718204d1027f996738989868860405161115c9493929190613500565b60405180910390a2809150509695505050505050565b61118461117d611632565b8383611940565b5050565b600080600460008481526020019081526020016000206040518060a00160405290816000820180546111b990612ea4565b80601f01602080910402602001604051908101604052809291908181526020018280546111e590612ea4565b80156112325780601f1061120757610100808354040283529160200191611232565b820191906000526020600020905b81548152906001019060200180831161121557829003601f168201915b5050505050815260200160018201805461124b90612ea4565b80601f016020809104026020016040519081016040528092919081815260200182805461127790612ea4565b80156112c45780601f10611299576101008083540402835291602001916112c4565b820191906000526020600020905b8154815290600101906020018083116112a757829003601f168201915b50505050508152602001600282015481526020016003820160009054906101000a900473ffffffffffffffffffffffffffffffffffffffff1673ffffffffffffffffffffffffffffffffffffffff1673ffffffffffffffffffffffffffffffffffffffff1681526020016003820160149054906101000a900460ff1615151515815250509050806080015161135d5760009150506113a8565b8373ffffffffffffffffffffffffffffffffffffffff16816060015173ffffffffffffffffffffffffffffffffffffffff1614806113a4575060006113a2858561040f565b115b9150505b92915050565b6000600160008473ffffffffffffffffffffffffffffffffffffffff1673ffffffffffffffffffffffffffffffffffffffff16815260200190815260200160002060008373ffffffffffffffffffffffffffffffffffffffff1673ffffffffffffffffffffffffffffffffffffffff16815260200190815260200160002060009054906101000a900460ff16905092915050565b600061144c611632565b90508073ffffffffffffffffffffffffffffffffffffffff168673ffffffffffffffffffffffffffffffffffffffff1614158015611491575061148f86826113ae565b155b156114d55780866040517fe237d9220000000000000000000000000000000000000000000000000000000081526004016114cc929190612f41565b60405180910390fd5b6114e28686868686611ab0565b505050505050565b6114f261175a565b600073ffffffffffffffffffffffffffffffffffffffff168173ffffffffffffffffffffffffffffffffffffffff16036115645760006040517f1e4fbdf700000000000000000000000000000000000000000000000000000000815260040161155b9190612ba8565b60405180910390fd5b61156d816117e1565b50565b606060068054806020026020016040519081016040528092919081815260200182805480156115be57602002820191906000526020600020905b8154815260200190600101908083116115aa575b5050505050905090565b60007f01ffc9a7000000000000000000000000000000000000000000000000000000007bffffffffffffffffffffffffffffffffffffffffffffffffffffffff1916827bffffffffffffffffffffffffffffffffffffffffffffffffffffffff1916149050919050565b600033905090565b600073ffffffffffffffffffffffffffffffffffffffff168473ffffffffffffffffffffffffffffffffffffffff16036116ac5760006040517f57f447ce0000000000000000000000000000000000000000000000000000000081526004016116a39190612ba8565b60405180910390fd5b600073ffffffffffffffffffffffffffffffffffffffff168573ffffffffffffffffffffffffffffffffffffffff160361171e5760006040517f01a835140000000000000000000000000000000000000000000000000000000081526004016117159190612ba8565b60405180910390fd5b61172b8585858585611bbb565b5050505050565b600060208202602084010151905092915050565b600060208202602084010151905092915050565b611762611632565b73ffffffffffffffffffffffffffffffffffffffff16611780610b59565b73ffffffffffffffffffffffffffffffffffffffff16146117df576117a3611632565b6040517f118cdaa70000000000000000000000000000000000000000000000000000000081526004016117d69190612ba8565b60405180910390fd5b565b6000600360009054906101000a900473ffffffffffffffffffffffffffffffffffffffff16905081600360006101000a81548173ffffffffffffffffffffffffffffffffffffffff021916908373ffffffffffffffffffffffffffffffffffffffff1602179055508173ffffffffffffffffffffffffffffffffffffffff168173ffffffffffffffffffffffffffffffffffffffff167f8be0079c531659141344cd1fd0a4f28419497f9722a3daafe3b4186f6b6457e060405160405180910390a35050565b600073ffffffffffffffffffffffffffffffffffffffff168473ffffffffffffffffffffffffffffffffffffffff16036119195760006040517f57f447ce0000000000000000000000000000000000000000000000000000000081526004016119109190612ba8565b60405180910390fd5b6000806119268585611c6d565b91509150611938600087848487611bbb565b505050505050565b600073ffffffffffffffffffffffffffffffffffffffff168273ffffffffffffffffffffffffffffffffffffffff16036119b25760006040517fced3e1000000000000000000000000000000000000000000000000000000000081526004016119a99190612ba8565b60405180910390fd5b80600160008573ffffffffffffffffffffffffffffffffffffffff1673ffffffffffffffffffffffffffffffffffffffff16815260200190815260200160002060008473ffffffffffffffffffffffffffffffffffffffff1673ffffffffffffffffffffffffffffffffffffffff16815260200190815260200160002060006101000a81548160ff0219169083151502179055508173ffffffffffffffffffffffffffffffffffffffff168373ffffffffffffffffffffffffffffffffffffffff167f17307eab39ab6107e8899845ad3d59bd9653f200f220920489ca2b5937696c3183604051611aa39190612565565b60405180910390a3505050565b600073ffffffffffffffffffffffffffffffffffffffff168473ffffffffffffffffffffffffffffffffffffffff1603611b225760006040517f57f447ce000000000000000000000000000000000000000000000000000000008152600401611b199190612ba8565b60405180910390fd5b600073ffffffffffffffffffffffffffffffffffffffff168573ffffffffffffffffffffffffffffffffffffffff1603611b945760006040517f01a83514000000000000000000000000000000000000000000000000000000008152600401611b8b9190612ba8565b60405180910390fd5b600080611ba18585611c6d565b91509150611bb28787848487611bbb565b50505050505050565b611bc785858585611c9d565b600073ffffffffffffffffffffffffffffffffffffffff168473ffffffffffffffffffffffffffffffffffffffff1614611c66576000611c05611632565b90506001845103611c55576000611c2660008661174690919063ffffffff16565b90506000611c3e60008661174690919063ffffffff16565b9050611c4e83898985858961204b565b5050611c64565b611c638187878787876121ff565b5b505b5050505050565b60608060405191506001825283602083015260408201905060018152826020820152604081016040529250929050565b8051825114611ce757815181516040517f5b059991000000000000000000000000000000000000000000000000000000008152600401611cde929190612f6a565b60405180910390fd5b6000611cf1611632565b905060005b8351811015611f06576000611d14828661174690919063ffffffff16565b90506000611d2b838661174690919063ffffffff16565b9050600073ffffffffffffffffffffffffffffffffffffffff168873ffffffffffffffffffffffffffffffffffffffff1614611e5857600080600084815260200190815260200160002060008a73ffffffffffffffffffffffffffffffffffffffff1673ffffffffffffffffffffffffffffffffffffffff16815260200190815260200160002054905081811015611e0057888183856040517f03dee4c5000000000000000000000000000000000000000000000000000000008152600401611df79493929190613540565b60405180910390fd5b81810360008085815260200190815260200160002060008b73ffffffffffffffffffffffffffffffffffffffff1673ffffffffffffffffffffffffffffffffffffffff16815260200190815260200160002081905550505b600073ffffffffffffffffffffffffffffffffffffffff168773ffffffffffffffffffffffffffffffffffffffff1614611ef3578060008084815260200190815260200160002060008973ffffffffffffffffffffffffffffffffffffffff1673ffffffffffffffffffffffffffffffffffffffff1681526020019081526020016000206000828254611eeb9190613585565b925050819055505b505080611eff90612ff1565b9050611cf6565b506001835103611fc5576000611f2660008561174690919063ffffffff16565b90506000611f3e60008561174690919063ffffffff16565b90508573ffffffffffffffffffffffffffffffffffffffff168773ffffffffffffffffffffffffffffffffffffffff168473ffffffffffffffffffffffffffffffffffffffff167fc3d58168c5ae7397731d063d5bbf3d657854427343f4c083240f7aacaa2d0f628585604051611fb6929190612f6a565b60405180910390a45050612044565b8373ffffffffffffffffffffffffffffffffffffffff168573ffffffffffffffffffffffffffffffffffffffff168273ffffffffffffffffffffffffffffffffffffffff167f4a39dc06d4c0dbc64b70af90fd698a233a518aa5d07e595d983b8c0526c8f7fb868660405161203b9291906135b9565b60405180910390a45b5050505050565b60008473ffffffffffffffffffffffffffffffffffffffff163b11156121f7578373ffffffffffffffffffffffffffffffffffffffff1663f23a6e6187878686866040518663ffffffff1660e01b81526004016120ac959493929190613645565b6020604051808303816000875af19250505080156120e857506040513d601f19601f820116820180604052508101906120e591906136b4565b60015b61216c573d8060008114612118576040519150601f19603f3d011682016040523d82523d6000602084013e61211d565b606091505b50600081510361216457846040517f57f447ce00000000000000000000000000000000000000000000000000000000815260040161215b9190612ba8565b60405180910390fd5b805181602001fd5b63f23a6e6160e01b7bffffffffffffffffffffffffffffffffffffffffffffffffffffffff1916817bffffffffffffffffffffffffffffffffffffffffffffffffffffffff1916146121f557846040517f57f447ce0000000000000000000000000000000000000000000000000000000081526004016121ec9190612ba8565b60405180910390fd5b505b505050505050565b60008473ffffffffffffffffffffffffffffffffffffffff163b11156123ab578373ffffffffffffffffffffffffffffffffffffffff1663bc197c8187878686866040518663ffffffff1660e01b81526004016122609594939291906136e1565b6020604051808303816000875af192505050801561229c57506040513d601f19601f8201168201806040525081019061229991906136b4565b60015b612320573d80600081146122cc576040519150601f19603f3d011682016040523d82523d6000602084013e6122d1565b606091505b50600081510361231857846040517f57f447ce00000000000000000000000000000000000000000000000000000000815260040161230f9190612ba8565b60405180910390fd5b805181602001fd5b63bc197c8160e01b7bffffffffffffffffffffffffffffffffffffffffffffffffffffffff1916817bffffffffffffffffffffffffffffffffffffffffffffffffffffffff1916146123a957846040517f57f447ce0000000000000000000000000000000000000000000000000000000081526004016123a09190612ba8565b60405180910390fd5b505b505050505050565b6000604051905090565b600080fd5b600080fd5b600073ffffffffffffffffffffffffffffffffffffffff82169050919050565b60006123f2826123c7565b9050919050565b612402816123e7565b811461240d57600080fd5b50565b60008135905061241f816123f9565b92915050565b6000819050919050565b61243881612425565b811461244357600080fd5b50565b6000813590506124558161242f565b92915050565b60008060408385031215612472576124716123bd565b5b600061248085828601612410565b925050602061249185828601612446565b9150509250929050565b6124a481612425565b82525050565b60006020820190506124bf600083018461249b565b92915050565b60007fffffffff0000000000000000000000000000000000000000000000000000000082169050919050565b6124fa816124c5565b811461250557600080fd5b50565b600081359050612517816124f1565b92915050565b600060208284031215612533576125326123bd565b5b600061254184828501612508565b91505092915050565b60008115159050919050565b61255f8161254a565b82525050565b600060208201905061257a6000830184612556565b92915050565b600060208284031215612596576125956123bd565b5b60006125a484828501612446565b91505092915050565b600081519050919050565b600082825260208201905092915050565b60005b838110156125e75780820151818401526020810190506125cc565b60008484015250505050565b6000601f19601f8301169050919050565b600061260f826125ad565b61261981856125b8565b93506126298185602086016125c9565b612632816125f3565b840191505092915050565b600060208201905081810360008301526126578184612604565b905092915050565b600080fd5b7f4e487b7100000000000000000000000000000000000000000000000000000000600052604160045260246000fd5b61269c826125f3565b810181811067ffffffffffffffff821117156126bb576126ba612664565b5b80604052505050565b60006126ce6123b3565b90506126da8282612693565b919050565b600067ffffffffffffffff8211156126fa576126f9612664565b5b602082029050602081019050919050565b600080fd5b600061272361271e846126df565b6126c4565b905080838252602082019050602084028301858111156127465761274561270b565b5b835b8181101561276f578061275b8882612446565b845260208401935050602081019050612748565b5050509392505050565b600082601f83011261278e5761278d61265f565b5b813561279e848260208601612710565b91505092915050565b600080fd5b600067ffffffffffffffff8211156127c7576127c6612664565b5b6127d0826125f3565b9050602081019050919050565b82818337600083830152505050565b60006127ff6127fa846127ac565b6126c4565b90508281526020810184848401111561281b5761281a6127a7565b5b6128268482856127dd565b509392505050565b600082601f8301126128435761284261265f565b5b81356128538482602086016127ec565b91505092915050565b600080600080600060a08688031215612878576128776123bd565b5b600061288688828901612410565b955050602061289788828901612410565b945050604086013567ffffffffffffffff8111156128b8576128b76123c2565b5b6128c488828901612779565b935050606086013567ffffffffffffffff8111156128e5576128e46123c2565b5b6128f188828901612779565b925050608086013567ffffffffffffffff811115612912576129116123c2565b5b61291e8882890161282e565b9150509295509295909350565b600067ffffffffffffffff82111561294657612945612664565b5b602082029050602081019050919050565b600061296a6129658461292b565b6126c4565b9050808382526020820190506020840283018581111561298d5761298c61270b565b5b835b818110156129b657806129a28882612410565b84526020840193505060208101905061298f565b5050509392505050565b600082601f8301126129d5576129d461265f565b5b81356129e5848260208601612957565b91505092915050565b60008060408385031215612a0557612a046123bd565b5b600083013567ffffffffffffffff811115612a2357612a226123c2565b5b612a2f858286016129c0565b925050602083013567ffffffffffffffff811115612a5057612a4f6123c2565b5b612a5c85828601612779565b9150509250929050565b600081519050919050565b600082825260208201905092915050565b6000819050602082019050919050565b612a9b81612425565b82525050565b6000612aad8383612a92565b60208301905092915050565b6000602082019050919050565b6000612ad182612a66565b612adb8185612a71565b9350612ae683612a82565b8060005b83811015612b17578151612afe8882612aa1565b9750612b0983612ab9565b925050600181019050612aea565b5085935050505092915050565b60006020820190508181036000830152612b3e8184612ac6565b905092915050565b612b4f816123e7565b82525050565b60006080820190508181036000830152612b6f8187612604565b90508181036020830152612b838186612604565b9050612b92604083018561249b565b612b9f6060830184612b46565b95945050505050565b6000602082019050612bbd6000830184612b46565b92915050565b60008060408385031215612bda57612bd96123bd565b5b6000612be885828601612446565b9250506020612bf985828601612410565b9150509250929050565b600080fd5b60008083601f840112612c1e57612c1d61265f565b5b8235905067ffffffffffffffff811115612c3b57612c3a612c03565b5b602083019150836001820283011115612c5757612c5661270b565b5b9250929050565b60008060008060008060808789031215612c7b57612c7a6123bd565b5b600087013567ffffffffffffffff811115612c9957612c986123c2565b5b612ca589828a01612c08565b9650965050602087013567ffffffffffffffff811115612cc857612cc76123c2565b5b612cd489828a01612c08565b94509450506040612ce789828a01612446565b9250506060612cf889828a01612410565b9150509295509295509295565b612d0e8161254a565b8114612d1957600080fd5b50565b600081359050612d2b81612d05565b92915050565b60008060408385031215612d4857612d476123bd565b5b6000612d5685828601612410565b9250506020612d6785828601612d1c565b9150509250929050565b60008060408385031215612d8857612d876123bd565b5b6000612d9685828601612410565b9250506020612da785828601612410565b9150509250929050565b600080600080600060a08688031215612dcd57612dcc6123bd565b5b6000612ddb88828901612410565b9550506020612dec88828901612410565b9450506040612dfd88828901612446565b9350506060612e0e88828901612446565b925050608086013567ffffffffffffffff811115612e2f57612e2e6123c2565b5b612e3b8882890161282e565b9150509295509295909350565b600060208284031215612e5e57612e5d6123bd565b5b6000612e6c84828501612410565b91505092915050565b7f4e487b7100000000000000000000000000000000000000000000000000000000600052602260045260246000fd5b60006002820490506001821680612ebc57607f821691505b602082108103612ecf57612ece612e75565b5b50919050565b7f55524920717565727920666f72206e6f6e6578697374656e7420636f75727365600082015250565b6000612f0b6020836125b8565b9150612f1682612ed5565b602082019050919050565b60006020820190508181036000830152612f3a81612efe565b9050919050565b6000604082019050612f566000830185612b46565b612f636020830184612b46565b9392505050565b6000604082019050612f7f600083018561249b565b612f8c602083018461249b565b9392505050565b7f4e487b7100000000000000000000000000000000000000000000000000000000600052603260045260246000fd5b7f4e487b7100000000000000000000000000000000000000000000000000000000600052601160045260246000fd5b6000612ffc82612425565b91507fffffffffffffffffffffffffffffffffffffffffffffffffffffffffffffffff820361302e5761302d612fc2565b5b600182019050919050565b7f436f7572736520646f6573206e6f742065786973740000000000000000000000600082015250565b600061306f6015836125b8565b915061307a82613039565b602082019050919050565b6000602082019050818103600083015261309e81613062565b9050919050565b7f496e636f7272656374207061796d656e7420616d6f756e740000000000000000600082015250565b60006130db6018836125b8565b91506130e6826130a5565b602082019050919050565b6000602082019050818103600083015261310a816130ce565b9050919050565b7f416c726561647920707572636861736564207468697320636f75727365000000600082015250565b6000613147601d836125b8565b915061315282613111565b602082019050919050565b600060208201905081810360008301526131768161313a565b9050919050565b7f436f75727365206e616d652063616e6e6f7420626520656d7074790000000000600082015250565b60006131b3601b836125b8565b91506131be8261317d565b602082019050919050565b600060208201905081810360008301526131e2816131a6565b9050919050565b7f49504653206c696e6b2063616e6e6f7420626520656d70747900000000000000600082015250565b600061321f6019836125b8565b915061322a826131e9565b602082019050919050565b6000602082019050818103600083015261324e81613212565b9050919050565b60008190508160005260206000209050919050565b60006020601f8301049050919050565b600082821b905092915050565b6000600883026132b77fffffffffffffffffffffffffffffffffffffffffffffffffffffffffffffffff8261327a565b6132c1868361327a565b95508019841693508086168417925050509392505050565b6000819050919050565b60006132fe6132f96132f484612425565b6132d9565b612425565b9050919050565b6000819050919050565b613318836132e3565b61332c61332482613305565b848454613287565b825550505050565b600090565b613341613334565b61334c81848461330f565b505050565b5b8181101561337057613365600082613339565b600181019050613352565b5050565b601f8211156133b55761338681613255565b61338f8461326a565b8101602085101561339e578190505b6133b26133aa8561326a565b830182613351565b50505b505050565b600082821c905092915050565b60006133d8600019846008026133ba565b1980831691505092915050565b60006133f183836133c7565b9150826002028217905092915050565b61340a826125ad565b67ffffffffffffffff81111561342357613422612664565b5b61342d8254612ea4565b613438828285613374565b600060209050601f83116001811461346b5760008415613459578287015190505b61346385826133e5565b8655506134cb565b601f19841661347986613255565b60005b828110156134a15784890151825560018201915060208501945060208101905061347c565b868310156134be57848901516134ba601f8916826133c7565b8355505b6001600288020188555050505b505050505050565b60006134df83856125b8565b93506134ec8385846127dd565b6134f5836125f3565b840190509392505050565b6000606082019050818103600083015261351b8186886134d3565b905061352a6020830185612b46565b613537604083018461249b565b95945050505050565b60006080820190506135556000830187612b46565b613562602083018661249b565b61356f604083018561249b565b61357c606083018461249b565b95945050505050565b600061359082612425565b915061359b83612425565b92508282019050808211156135b3576135b2612fc2565b5b92915050565b600060408201905081810360008301526135d38185612ac6565b905081810360208301526135e78184612ac6565b90509392505050565b600081519050919050565b600082825260208201905092915050565b6000613617826135f0565b61362181856135fb565b93506136318185602086016125c9565b61363a816125f3565b840191505092915050565b600060a08201905061365a6000830188612b46565b6136676020830187612b46565b613674604083018661249b565b613681606083018561249b565b8181036080830152613693818461360c565b90509695505050505050565b6000815190506136ae816124f1565b92915050565b6000602082840312156136ca576136c96123bd565b5b60006136d88482850161369f565b91505092915050565b600060a0820190506136f66000830188612b46565b6137036020830187612b46565b81810360408301526137158186612ac6565b905081810360608301526137298185612ac6565b9050818103608083015261373d818461360c565b9050969550505050505056fea2646970667358221220b77bd46f3a4ba36f2ad9c2c4cbea1bc185a3306c1bceb6c3f1b50e740e784a7864736f6c6343000814003360806040523480156200001157600080fd5b5033600073ffffffffffffffffffffffffffffffffffffffff168173ffffffffffffffffffffffffffffffffffffffff1603620000885760006040517f1e4fbdf70000000000000000000000000000000000000000000000000000000081526004016200007f9190620001b1565b60405180910390fd5b6200009981620000a860201b60201c565b506000600381905550620001ce565b60008060009054906101000a900473ffffffffffffffffffffffffffffffffffffffff169050816000806101000a81548173ffffffffffffffffffffffffffffffffffffffff021916908373ffffffffffffffffffffffffffffffffffffffff1602179055508173ffffffffffffffffffffffffffffffffffffffff168173ffffffffffffffffffffffffffffffffffffffff167f8be0079c531659141344cd1fd0a4f28419497f9722a3daafe3b4186f6b6457e060405160405180910390a35050565b600073ffffffffffffffffffffffffffffffffffffffff82169050919050565b600062000199826200016c565b9050919050565b620001ab816200018c565b82525050565b6000602082019050620001c86000830184620001a0565b92915050565b6121d180620001de6000396000f3fe608060405234801561001057600080fd5b50600436106100cf5760003560e01c8063a64e398f1161008c578063bff1f9e111610066578063bff1f9e114610216578063c3c5a54714610234578063f2fde38b14610264578063ffc9896b14610280576100cf565b8063a64e398f14610194578063a87430ba146101c4578063a998ffb3146101f8576100cf565b80630a5fa7f2146100d45780631897c0bc14610104578063715018a6146101205780638da5cb5b1461012a57806394e05dd714610148578063a3afcea214610164575b600080fd5b6100ee60048036038101906100e9919061140f565b6102b2565b6040516100fb9190611504565b60405180910390f35b61011e600480360381019061011991906115c3565b61064a565b005b61012861090b565b005b61013261091f565b60405161013f9190611646565b60405180910390f35b610162600480360381019061015d919061140f565b610948565b005b61017e6004803603810190610179919061140f565b610994565b60405161018b9190611670565b60405180910390f35b6101ae60048036038101906101a9919061140f565b6109ed565b6040516101bb9190611504565b60405180910390f35b6101de60048036038101906101d9919061140f565b610e86565b6040516101ef95949392919061172a565b60405180910390f35b610200610f7e565b60405161020d91906117e3565b60405180910390f35b61021e610fa4565b60405161022b91906117fe565b60405180910390f35b61024e6004803603810190610249919061140f565b610faa565b60405161025b9190611670565b60405180910390f35b61027e6004803603810190610279919061140f565b611003565b005b61029a6004803603810190610295919061140f565b611089565b6040516102a993929190611819565b60405180910390f35b6060600260008373ffffffffffffffffffffffffffffffffffffffff1673ffffffffffffffffffffffffffffffffffffffff16815260200190815260200160002060030160019054906101000a900460ff16610343576040517f08c379a000000000000000000000000000000000000000000000000000000000815260040161033a906118a3565b60405180910390fd5b6000600160009054906101000a900473ffffffffffffffffffffffffffffffffffffffff1673ffffffffffffffffffffffffffffffffffffffff1663fbd8e3976040518163ffffffff1660e01b8152600401600060405180830381865afa1580156103b2573d6000803e3d6000fd5b505050506040513d6000823e3d601f19601f820116820180604052508101906103db9190611a2d565b90506000805b82518110156104c957600160009054906101000a900473ffffffffffffffffffffffffffffffffffffffff1673ffffffffffffffffffffffffffffffffffffffff1663c6530e418685848151811061043c5761043b611a76565b5b60200260200101516040518363ffffffff1660e01b8152600401610461929190611aa5565b602060405180830381865afa15801561047e573d6000803e3d6000fd5b505050506040513d601f19601f820116820180604052508101906104a29190611ae3565b156104b65781806104b290611b3f565b9250505b80806104c190611b3f565b9150506103e1565b5060008167ffffffffffffffff8111156104e6576104e56118c3565b5b6040519080825280602002602001820160405280156105145781602001602082028036833780820191505090505b5090506000805b845181101561063d57600160009054906101000a900473ffffffffffffffffffffffffffffffffffffffff1673ffffffffffffffffffffffffffffffffffffffff1663c6530e418887848151811061057657610575611a76565b5b60200260200101516040518363ffffffff1660e01b815260040161059b929190611aa5565b602060405180830381865afa1580156105b8573d6000803e3d6000fd5b505050506040513d601f19601f820116820180604052508101906105dc9190611ae3565b1561062a578481815181106105f4576105f3611a76565b5b602002602001015183838151811061060f5761060e611a76565b5b602002602001018181525050818061062690611b3f565b9250505b808061063590611b3f565b91505061051b565b5081945050505050919050565b60008383905011610690576040517f08c379a000000000000000000000000000000000000000000000000000000000815260040161068790611bd3565b60405180910390fd5b600260008573ffffffffffffffffffffffffffffffffffffffff1673ffffffffffffffffffffffffffffffffffffffff16815260200190815260200160002060030160019054906101000a900460ff1615610720576040517f08c379a000000000000000000000000000000000000000000000000000000000815260040161071790611c3f565b60405180910390fd5b6040518060a001604052806003600081548092919061073e90611b3f565b9190505581526020018573ffffffffffffffffffffffffffffffffffffffff16815260200184848080601f016020809104026020016040519081016040528093929190818152602001838380828437600081840152601f19601f820116905080830192505050505050508152602001821515815260200160011515815250600260008673ffffffffffffffffffffffffffffffffffffffff1673ffffffffffffffffffffffffffffffffffffffff1681526020019081526020016000206000820151816000015560208201518160010160006101000a81548173ffffffffffffffffffffffffffffffffffffffff021916908373ffffffffffffffffffffffffffffffffffffffff16021790555060408201518160020190816108619190611e61565b5060608201518160030160006101000a81548160ff02191690831515021790555060808201518160030160016101000a81548160ff0219169083151502179055509050508373ffffffffffffffffffffffffffffffffffffffff167f89105a1c6a3c2fbd471255c66a31ccab604af5697f67d7e2e9a0028c5e4dbd91848460016003546108ee9190611f33565b6040516108fd93929190611fa3565b60405180910390a250505050565b61091361124a565b61091d60006112d1565b565b60008060009054906101000a900473ffffffffffffffffffffffffffffffffffffffff16905090565b61095061124a565b80600160006101000a81548173ffffffffffffffffffffffffffffffffffffffff021916908373ffffffffffffffffffffffffffffffffffffffff16021790555050565b6000600260008373ffffffffffffffffffffffffffffffffffffffff1673ffffffffffffffffffffffffffffffffffffffff16815260200190815260200160002060030160009054906101000a900460ff169050919050565b6060600260008373ffffffffffffffffffffffffffffffffffffffff1673ffffffffffffffffffffffffffffffffffffffff16815260200190815260200160002060030160019054906101000a900460ff16610a7e576040517f08c379a0000000000000000000000000000000000000000000000000000000008152600401610a75906118a3565b60405180910390fd5b600260008373ffffffffffffffffffffffffffffffffffffffff1673ffffffffffffffffffffffffffffffffffffffff16815260200190815260200160002060030160009054906101000a900460ff16610b0d576040517f08c379a0000000000000000000000000000000000000000000000000000000008152600401610b0490612021565b60405180910390fd5b6000600160009054906101000a900473ffffffffffffffffffffffffffffffffffffffff1673ffffffffffffffffffffffffffffffffffffffff1663fbd8e3976040518163ffffffff1660e01b8152600401600060405180830381865afa158015610b7c573d6000803e3d6000fd5b505050506040513d6000823e3d601f19601f82011682018060405250810190610ba59190611a2d565b90506000805b8251811015610ccc576000600160009054906101000a900473ffffffffffffffffffffffffffffffffffffffff1673ffffffffffffffffffffffffffffffffffffffff1663610b31a6858481518110610c0757610c06611a76565b5b60200260200101516040518263ffffffff1660e01b8152600401610c2b91906117fe565b600060405180830381865afa158015610c48573d6000803e3d6000fd5b505050506040513d6000823e3d601f19601f82011682018060405250810190610c7191906120fc565b93505050508573ffffffffffffffffffffffffffffffffffffffff168173ffffffffffffffffffffffffffffffffffffffff1603610cb8578280610cb490611b3f565b9350505b508080610cc490611b3f565b915050610bab565b5060008167ffffffffffffffff811115610ce957610ce86118c3565b5b604051908082528060200260200182016040528015610d175781602001602082028036833780820191505090505b5090506000805b8451811015610e79576000600160009054906101000a900473ffffffffffffffffffffffffffffffffffffffff1673ffffffffffffffffffffffffffffffffffffffff1663610b31a6878481518110610d7a57610d79611a76565b5b60200260200101516040518263ffffffff1660e01b8152600401610d9e91906117fe565b600060405180830381865afa158015610dbb573d6000803e3d6000fd5b505050506040513d6000823e3d601f19601f82011682018060405250810190610de491906120fc565b93505050508773ffffffffffffffffffffffffffffffffffffffff168173ffffffffffffffffffffffffffffffffffffffff1603610e6557858281518110610e2f57610e2e611a76565b5b6020026020010151848481518110610e4a57610e49611a76565b5b6020026020010181815250508280610e6190611b3f565b9350505b508080610e7190611b3f565b915050610d1e565b5081945050505050919050565b60026020528060005260406000206000915090508060000154908060010160009054906101000a900473ffffffffffffffffffffffffffffffffffffffff1690806002018054610ed590611c8e565b80601f0160208091040260200160405190810160405280929190818152602001828054610f0190611c8e565b8015610f4e5780601f10610f2357610100808354040283529160200191610f4e565b820191906000526020600020905b815481529060010190602001808311610f3157829003601f168201915b5050505050908060030160009054906101000a900460ff16908060030160019054906101000a900460ff16905085565b600160009054906101000a900473ffffffffffffffffffffffffffffffffffffffff1681565b60035481565b6000600260008373ffffffffffffffffffffffffffffffffffffffff1673ffffffffffffffffffffffffffffffffffffffff16815260200190815260200160002060030160019054906101000a900460ff169050919050565b61100b61124a565b600073ffffffffffffffffffffffffffffffffffffffff168173ffffffffffffffffffffffffffffffffffffffff160361107d5760006040517f1e4fbdf70000000000000000000000000000000000000000000000000000000081526004016110749190611646565b60405180910390fd5b611086816112d1565b50565b600060606000600260008573ffffffffffffffffffffffffffffffffffffffff1673ffffffffffffffffffffffffffffffffffffffff16815260200190815260200160002060030160019054906101000a900460ff1661111e576040517f08c379a0000000000000000000000000000000000000000000000000000000008152600401611115906118a3565b60405180910390fd5b83600260008673ffffffffffffffffffffffffffffffffffffffff1673ffffffffffffffffffffffffffffffffffffffff168152602001908152602001600020600201600260008773ffffffffffffffffffffffffffffffffffffffff1673ffffffffffffffffffffffffffffffffffffffff16815260200190815260200160002060030160009054906101000a900460ff168180546111bd90611c8e565b80601f01602080910402602001604051908101604052809291908181526020018280546111e990611c8e565b80156112365780601f1061120b57610100808354040283529160200191611236565b820191906000526020600020905b81548152906001019060200180831161121957829003601f168201915b505050505091509250925092509193909250565b611252611395565b73ffffffffffffffffffffffffffffffffffffffff1661127061091f565b73ffffffffffffffffffffffffffffffffffffffff16146112cf57611293611395565b6040517f118cdaa70000000000000000000000000000000000000000000000000000000081526004016112c69190611646565b60405180910390fd5b565b60008060009054906101000a900473ffffffffffffffffffffffffffffffffffffffff169050816000806101000a81548173ffffffffffffffffffffffffffffffffffffffff021916908373ffffffffffffffffffffffffffffffffffffffff1602179055508173ffffffffffffffffffffffffffffffffffffffff168173ffffffffffffffffffffffffffffffffffffffff167f8be0079c531659141344cd1fd0a4f28419497f9722a3daafe3b4186f6b6457e060405160405180910390a35050565b600033905090565b6000604051905090565b600080fd5b600080fd5b600073ffffffffffffffffffffffffffffffffffffffff82169050919050565b60006113dc826113b1565b9050919050565b6113ec816113d1565b81146113f757600080fd5b50565b600081359050611409816113e3565b92915050565b600060208284031215611425576114246113a7565b5b6000611433848285016113fa565b91505092915050565b600081519050919050565b600082825260208201905092915050565b6000819050602082019050919050565b6000819050919050565b61147b81611468565b82525050565b600061148d8383611472565b60208301905092915050565b6000602082019050919050565b60006114b18261143c565b6114bb8185611447565b93506114c683611458565b8060005b838110156114f75781516114de8882611481565b97506114e983611499565b9250506001810190506114ca565b5085935050505092915050565b6000602082019050818103600083015261151e81846114a6565b905092915050565b600080fd5b600080fd5b600080fd5b60008083601f84011261154b5761154a611526565b5b8235905067ffffffffffffffff8111156115685761156761152b565b5b60208301915083600182028301111561158457611583611530565b5b9250929050565b60008115159050919050565b6115a08161158b565b81146115ab57600080fd5b50565b6000813590506115bd81611597565b92915050565b600080600080606085870312156115dd576115dc6113a7565b5b60006115eb878288016113fa565b945050602085013567ffffffffffffffff81111561160c5761160b6113ac565b5b61161887828801611535565b9350935050604061162b878288016115ae565b91505092959194509250565b611640816113d1565b82525050565b600060208201905061165b6000830184611637565b92915050565b61166a8161158b565b82525050565b60006020820190506116856000830184611661565b92915050565b61169481611468565b82525050565b600081519050919050565b600082825260208201905092915050565b60005b838110156116d45780820151818401526020810190506116b9565b60008484015250505050565b6000601f19601f8301169050919050565b60006116fc8261169a565b61170681856116a5565b93506117168185602086016116b6565b61171f816116e0565b840191505092915050565b600060a08201905061173f600083018861168b565b61174c6020830187611637565b818103604083015261175e81866116f1565b905061176d6060830185611661565b61177a6080830184611661565b9695505050505050565b6000819050919050565b60006117a96117a461179f846113b1565b611784565b6113b1565b9050919050565b60006117bb8261178e565b9050919050565b60006117cd826117b0565b9050919050565b6117dd816117c2565b82525050565b60006020820190506117f860008301846117d4565b92915050565b6000602082019050611813600083018461168b565b92915050565b600060608201905061182e6000830186611637565b818103602083015261184081856116f1565b905061184f6040830184611661565b949350505050565b7f55736572206e6f74207265676973746572656400000000000000000000000000600082015250565b600061188d6013836116a5565b915061189882611857565b602082019050919050565b600060208201905081810360008301526118bc81611880565b9050919050565b7f4e487b7100000000000000000000000000000000000000000000000000000000600052604160045260246000fd5b6118fb826116e0565b810181811067ffffffffffffffff8211171561191a576119196118c3565b5b80604052505050565b600061192d61139d565b905061193982826118f2565b919050565b600067ffffffffffffffff821115611959576119586118c3565b5b602082029050602081019050919050565b61197381611468565b811461197e57600080fd5b50565b6000815190506119908161196a565b92915050565b60006119a96119a48461193e565b611923565b905080838252602082019050602084028301858111156119cc576119cb611530565b5b835b818110156119f557806119e18882611981565b8452602084019350506020810190506119ce565b5050509392505050565b600082601f830112611a1457611a13611526565b5b8151611a24848260208601611996565b91505092915050565b600060208284031215611a4357611a426113a7565b5b600082015167ffffffffffffffff811115611a6157611a606113ac565b5b611a6d848285016119ff565b91505092915050565b7f4e487b7100000000000000000000000000000000000000000000000000000000600052603260045260246000fd5b6000604082019050611aba6000830185611637565b611ac7602083018461168b565b9392505050565b600081519050611add81611597565b92915050565b600060208284031215611af957611af86113a7565b5b6000611b0784828501611ace565b91505092915050565b7f4e487b7100000000000000000000000000000000000000000000000000000000600052601160045260246000fd5b6000611b4a82611468565b91507fffffffffffffffffffffffffffffffffffffffffffffffffffffffffffffffff8203611b7c57611b7b611b10565b5b600182019050919050565b7f557365726e616d652063616e6e6f7420626520656d7074790000000000000000600082015250565b6000611bbd6018836116a5565b9150611bc882611b87565b602082019050919050565b60006020820190508181036000830152611bec81611bb0565b9050919050565b7f5573657220616c72656164792072656769737465726564000000000000000000600082015250565b6000611c296017836116a5565b9150611c3482611bf3565b602082019050919050565b60006020820190508181036000830152611c5881611c1c565b9050919050565b7f4e487b7100000000000000000000000000000000000000000000000000000000600052602260045260246000fd5b60006002820490506001821680611ca657607f821691505b602082108103611cb957611cb8611c5f565b5b50919050565b60008190508160005260206000209050919050565b60006020601f8301049050919050565b600082821b905092915050565b600060088302611d217fffffffffffffffffffffffffffffffffffffffffffffffffffffffffffffffff82611ce4565b611d2b8683611ce4565b95508019841693508086168417925050509392505050565b6000611d5e611d59611d5484611468565b611784565b611468565b9050919050565b6000819050919050565b611d7883611d43565b611d8c611d8482611d65565b848454611cf1565b825550505050565b600090565b611da1611d94565b611dac818484611d6f565b505050565b5b81811015611dd057611dc5600082611d99565b600181019050611db2565b5050565b601f821115611e1557611de681611cbf565b611def84611cd4565b81016020851015611dfe578190505b611e12611e0a85611cd4565b830182611db1565b50505b505050565b600082821c905092915050565b6000611e3860001984600802611e1a565b1980831691505092915050565b6000611e518383611e27565b9150826002028217905092915050565b611e6a8261169a565b67ffffffffffffffff811115611e8357611e826118c3565b5b611e8d8254611c8e565b611e98828285611dd4565b600060209050601f831160018114611ecb5760008415611eb9578287015190505b611ec38582611e45565b865550611f2b565b601f198416611ed986611cbf565b60005b82811015611f0157848901518255600182019150602085019450602081019050611edc565b86831015611f1e5784890151611f1a601f891682611e27565b8355505b6001600288020188555050505b505050505050565b6000611f3e82611468565b9150611f4983611468565b9250828203905081811115611f6157611f60611b10565b5b92915050565b82818337600083830152505050565b6000611f8283856116a5565b9350611f8f838584611f67565b611f98836116e0565b840190509392505050565b60006040820190508181036000830152611fbe818587611f76565b9050611fcd602083018461168b565b949350505050565b7f55736572206e6f7420496e7374727563746f7200000000000000000000000000600082015250565b600061200b6013836116a5565b915061201682611fd5565b602082019050919050565b6000602082019050818103600083015261203a81611ffe565b9050919050565b600080fd5b600067ffffffffffffffff821115612061576120606118c3565b5b61206a826116e0565b9050602081019050919050565b600061208a61208584612046565b611923565b9050828152602081018484840111156120a6576120a5612041565b5b6120b18482856116b6565b509392505050565b600082601f8301126120ce576120cd611526565b5b81516120de848260208601612077565b91505092915050565b6000815190506120f6816113e3565b92915050565b60008060008060808587031215612116576121156113a7565b5b600085015167ffffffffffffffff811115612134576121336113ac565b5b612140878288016120b9565b945050602085015167ffffffffffffffff811115612161576121606113ac565b5b61216d878288016120b9565b935050604061217e87828801611981565b925050606061218f878288016120e7565b9150509295919450925056fea2646970667358221220616d336cdf3774f0b713b1a17aa65b8c81d4b0506831befa7b076bf6b23b330a64736f6c6343000814003360806040526124ef60005534801561001657600080fd5b5061135c806100266000396000f3fe608060405234801561001057600080fd5b506004361061007d5760003560e01c806346f3141c1161005b57806346f3141c14610102578063817bb33114610134578063862807ff14610164578063eac449d9146101945761007d565b8063053c8e25146100825780631cff5782146100b4578063390a5ba5146100e4575b600080fd5b61009c600480360381019061009791906109eb565b6101b0565b6040516100ab93929190610ad2565b60405180910390f35b6100ce60048036038101906100c99190610ca3565b61026f565b6040516100db9190610d12565b60405180910390f35b6100ec6104ea565b6040516100f99190610d12565b60405180910390f35b61011c60048036038101906101179190610d2d565b6104f0565b60405161012b93929190610ad2565b60405180910390f35b61014e60048036038101906101499190610d2d565b6105bc565b60405161015b9190610d12565b60405180910390f35b61017e600480360381019061017991906109eb565b6106ba565b60405161018b9190610d6d565b60405180910390f35b6101ae60048036038101906101a99190610d2d565b6107c5565b005b60016020528060005260406000206000915090508060000154908060010180546101d990610dbe565b80601f016020809104026020016040519081016040528092919081815260200182805461020590610dbe565b80156102525780601f1061022757610100808354040283529160200191610252565b820191906000526020600020905b81548152906001019060200180831161023557829003601f168201915b5050505050908060020160009054906101000a900460ff16905083565b600080600260008673ffffffffffffffffffffffffffffffffffffffff1673ffffffffffffffffffffffffffffffffffffffff168152602001908152602001600020600085815260200190815260200160002060010180546102d090610dbe565b905014610312576040517f08c379a000000000000000000000000000000000000000000000000000000000815260040161030990610e3b565b60405180910390fd5b60008081548092919061032490610e8a565b91905055506040518060600160405280600054815260200183815260200160011515815250600260008673ffffffffffffffffffffffffffffffffffffffff1673ffffffffffffffffffffffffffffffffffffffff16815260200190815260200160002060008581526020019081526020016000206000820151816000015560208201518160010190816103b8919061107e565b5060408201518160020160006101000a81548160ff021916908315150217905550905050600260008573ffffffffffffffffffffffffffffffffffffffff1673ffffffffffffffffffffffffffffffffffffffff16815260200190815260200160002060008481526020019081526020016000206001600080548152602001908152602001600020600082015481600001556001820181600101908161045e9190611166565b506002820160009054906101000a900460ff168160020160006101000a81548160ff021916908315150217905550905050828473ffffffffffffffffffffffffffffffffffffffff167ffedda2a344a840797ab5daf76a4ffbe2e0bbe7b604b5c1c80cecc1282c8657e7846040516104d69190610d6d565b60405180910390a360005490509392505050565b60005481565b60026020528160005260406000206020528060005260406000206000915091505080600001549080600101805461052690610dbe565b80601f016020809104026020016040519081016040528092919081815260200182805461055290610dbe565b801561059f5780601f106105745761010080835404028352916020019161059f565b820191906000526020600020905b81548152906001019060200180831161058257829003601f168201915b5050505050908060020160009054906101000a900460ff16905083565b6000600260008473ffffffffffffffffffffffffffffffffffffffff1673ffffffffffffffffffffffffffffffffffffffff168152602001908152602001600020600083815260200190815260200160002060020160009054906101000a900460ff1661065e576040517f08c379a00000000000000000000000000000000000000000000000000000000081526004016106559061129a565b60405180910390fd5b600260008473ffffffffffffffffffffffffffffffffffffffff1673ffffffffffffffffffffffffffffffffffffffff168152602001908152602001600020600083815260200190815260200160002060000154905092915050565b60606001600083815260200190815260200160002060020160009054906101000a900460ff1661071f576040517f08c379a00000000000000000000000000000000000000000000000000000000081526004016107169061129a565b60405180910390fd5b60016000838152602001908152602001600020600101805461074090610dbe565b80601f016020809104026020016040519081016040528092919081815260200182805461076c90610dbe565b80156107b95780601f1061078e576101008083540402835291602001916107b9565b820191906000526020600020905b81548152906001019060200180831161079c57829003601f168201915b50505050509050919050565b600260008373ffffffffffffffffffffffffffffffffffffffff1673ffffffffffffffffffffffffffffffffffffffff168152602001908152602001600020600082815260200190815260200160002060020160009054906101000a900460ff16610865576040517f08c379a000000000000000000000000000000000000000000000000000000000815260040161085c90611306565b60405180910390fd5b6000600260008473ffffffffffffffffffffffffffffffffffffffff1673ffffffffffffffffffffffffffffffffffffffff168152602001908152602001600020600083815260200190815260200160002060020160006101000a81548160ff0219169083151502179055506000600260008473ffffffffffffffffffffffffffffffffffffffff1673ffffffffffffffffffffffffffffffffffffffff168152602001908152602001600020600083815260200190815260200160002060000154905060006001600083815260200190815260200160002060020160006101000a81548160ff021916908315150217905550818373ffffffffffffffffffffffffffffffffffffffff167f713b90881ad62c4fa8ab6bd9197fa86481fc0c11b2edba60026514281b2dbac460405160405180910390a3505050565b6000604051905090565b600080fd5b600080fd5b6000819050919050565b6109c8816109b5565b81146109d357600080fd5b50565b6000813590506109e5816109bf565b92915050565b600060208284031215610a0157610a006109ab565b5b6000610a0f848285016109d6565b91505092915050565b610a21816109b5565b82525050565b600081519050919050565b600082825260208201905092915050565b60005b83811015610a61578082015181840152602081019050610a46565b60008484015250505050565b6000601f19601f8301169050919050565b6000610a8982610a27565b610a938185610a32565b9350610aa3818560208601610a43565b610aac81610a6d565b840191505092915050565b60008115159050919050565b610acc81610ab7565b82525050565b6000606082019050610ae76000830186610a18565b8181036020830152610af98185610a7e565b9050610b086040830184610ac3565b949350505050565b600073ffffffffffffffffffffffffffffffffffffffff82169050919050565b6000610b3b82610b10565b9050919050565b610b4b81610b30565b8114610b5657600080fd5b50565b600081359050610b6881610b42565b92915050565b600080fd5b600080fd5b7f4e487b7100000000000000000000000000000000000000000000000000000000600052604160045260246000fd5b610bb082610a6d565b810181811067ffffffffffffffff82111715610bcf57610bce610b78565b5b80604052505050565b6000610be26109a1565b9050610bee8282610ba7565b919050565b600067ffffffffffffffff821115610c0e57610c0d610b78565b5b610c1782610a6d565b9050602081019050919050565b82818337600083830152505050565b6000610c46610c4184610bf3565b610bd8565b905082815260208101848484011115610c6257610c61610b73565b5b610c6d848285610c24565b509392505050565b600082601f830112610c8a57610c89610b6e565b5b8135610c9a848260208601610c33565b91505092915050565b600080600060608486031215610cbc57610cbb6109ab565b5b6000610cca86828701610b59565b9350506020610cdb868287016109d6565b925050604084013567ffffffffffffffff811115610cfc57610cfb6109b0565b5b610d0886828701610c75565b9150509250925092565b6000602082019050610d276000830184610a18565b92915050565b60008060408385031215610d4457610d436109ab565b5b6000610d5285828601610b59565b9250506020610d63858286016109d6565b9150509250929050565b60006020820190508181036000830152610d878184610a7e565b905092915050565b7f4e487b7100000000000000000000000000000000000000000000000000000000600052602260045260246000fd5b60006002820490506001821680610dd657607f821691505b602082108103610de957610de8610d8f565b5b50919050565b7f416c726561647920617474657374656400000000000000000000000000000000600082015250565b6000610e25601083610a32565b9150610e3082610def565b602082019050919050565b60006020820190508181036000830152610e5481610e18565b9050919050565b7f4e487b7100000000000000000000000000000000000000000000000000000000600052601160045260246000fd5b6000610e95826109b5565b91507fffffffffffffffffffffffffffffffffffffffffffffffffffffffffffffffff8203610ec757610ec6610e5b565b5b600182019050919050565b60008190508160005260206000209050919050565b60006020601f8301049050919050565b600082821b905092915050565b600060088302610f347fffffffffffffffffffffffffffffffffffffffffffffffffffffffffffffffff82610ef7565b610f3e8683610ef7565b95508019841693508086168417925050509392505050565b6000819050919050565b6000610f7b610f76610f71846109b5565b610f56565b6109b5565b9050919050565b6000819050919050565b610f9583610f60565b610fa9610fa182610f82565b848454610f04565b825550505050565b600090565b610fbe610fb1565b610fc9818484610f8c565b505050565b5b81811015610fed57610fe2600082610fb6565b600181019050610fcf565b5050565b601f8211156110325761100381610ed2565b61100c84610ee7565b8101602085101561101b578190505b61102f61102785610ee7565b830182610fce565b50505b505050565b600082821c905092915050565b600061105560001984600802611037565b1980831691505092915050565b600061106e8383611044565b9150826002028217905092915050565b61108782610a27565b67ffffffffffffffff8111156110a05761109f610b78565b5b6110aa8254610dbe565b6110b5828285610ff1565b600060209050601f8311600181146110e857600084156110d6578287015190505b6110e08582611062565b865550611148565b601f1984166110f686610ed2565b60005b8281101561111e578489015182556001820191506020850194506020810190506110f9565b8683101561113b5784890151611137601f891682611044565b8355505b6001600288020188555050505b505050505050565b60008154905061115f81610dbe565b9050919050565b81810361117457505061124c565b61117d82611150565b67ffffffffffffffff81111561119657611195610b78565b5b6111a08254610dbe565b6111ab828285610ff1565b6000601f8311600181146111da57600084156111c8578287015490505b6111d28582611062565b865550611245565b601f1984166111e887610ed2565b96506111f386610ed2565b60005b8281101561121b578489015482556001820191506001850194506020810190506111f6565b868310156112385784890154611234601f891682611044565b8355505b6001600288020188555050505b5050505050505b565b7f436572746966696361746520696e76616c6964206f72207265766f6b65640000600082015250565b6000611284601e83610a32565b915061128f8261124e565b602082019050919050565b600060208201905081810360008301526112b381611277565b9050919050565b7f416c7265616479207265766f6b65640000000000000000000000000000000000600082015250565b60006112f0600f83610a32565b91506112fb826112ba565b602082019050919050565b6000602082019050818103600083015261131f816112e3565b905091905056fea2646970667358221220fbb8475106899779826b2a568b4e44d9d1cd6db6285d4499a5c5b1a88141b7aa64736f6c63430008140033",
  "linkReferences": {},
  "deployedLinkReferences": {}
}