{
  "_format": "hh-sol-artifact-1",
  "contractName": "UserFactory",
  "sourceName": "contracts/UserFactory.sol",
  "abi": [
    {
      "inputs": [],
      "stateMutability": "nonpayable",
      "type": "constructor"
    },
    {
      "inputs": [
        {
          "internalType": "address",
          "name": "user",
          "type": "address"
        },
        {
          "internalType": "address",
          "name": "courseAdd",
          "type": "address"
        }
      ],
      "name": "addBoughtCourse",
      "outputs": [],
      "stateMutability": "nonpayable",
      "type": "function"
    },
    {
      "inputs": [
        {
          "internalType": "address",
          "name": "user",
          "type": "address"
        },
        {
          "internalType": "address",
          "name": "courseAdd",
          "type": "address"
        }
      ],
      "name": "addOwnedCourse",
      "outputs": [],
      "stateMutability": "nonpayable",
      "type": "function"
    },
    {
      "inputs": [],
      "name": "getBoughtCourses",
      "outputs": [
        {
          "internalType": "address[]",
          "name": "",
          "type": "address[]"
        }
      ],
      "stateMutability": "view",
      "type": "function"
    },
    {
      "inputs": [],
      "name": "getOwnedCourses",
      "outputs": [
        {
          "internalType": "address[]",
          "name": "",
          "type": "address[]"
        }
      ],
      "stateMutability": "view",
      "type": "function"
    },
    {
      "inputs": [
        {
          "internalType": "address",
          "name": "user",
          "type": "address"
        }
      ],
      "name": "getUserAddress",
      "outputs": [
        {
          "internalType": "address",
          "name": "",
          "type": "address"
        }
      ],
      "stateMutability": "view",
      "type": "function"
    },
    {
      "inputs": [
        {
          "internalType": "address",
          "name": "",
          "type": "address"
        },
        {
          "internalType": "uint256",
          "name": "",
          "type": "uint256"
        }
      ],
      "name": "instructorOwnedCourses",
      "outputs": [
        {
          "internalType": "address",
          "name": "",
          "type": "address"
        }
      ],
      "stateMutability": "view",
      "type": "function"
    },
    {
      "inputs": [],
      "name": "login",
      "outputs": [
        {
          "components": [
            {
              "internalType": "uint256",
              "name": "userId",
              "type": "uint256"
            },
            {
              "internalType": "address",
              "name": "userAddress",
              "type": "address"
            },
            {
              "internalType": "string",
              "name": "username",
              "type": "string"
            }
          ],
          "internalType": "struct UserFactory.User",
          "name": "",
          "type": "tuple"
        }
      ],
      "stateMutability": "view",
      "type": "function"
    },
    {
      "inputs": [
        {
          "internalType": "string",
          "name": "_username",
          "type": "string"
        }
      ],
      "name": "register",
      "outputs": [],
      "stateMutability": "nonpayable",
      "type": "function"
    },
    {
      "inputs": [
        {
          "internalType": "address",
          "name": "_courseFactory",
          "type": "address"
        }
      ],
      "name": "setCourseFactory",
      "outputs": [],
      "stateMutability": "nonpayable",
      "type": "function"
    },
    {
      "inputs": [],
      "name": "totalUsers",
      "outputs": [
        {
          "internalType": "uint256",
          "name": "",
          "type": "uint256"
        }
      ],
      "stateMutability": "view",
      "type": "function"
    },
    {
      "inputs": [
        {
          "internalType": "address",
          "name": "",
          "type": "address"
        },
        {
          "internalType": "uint256",
          "name": "",
          "type": "uint256"
        }
      ],
      "name": "userBoughtCourses",
      "outputs": [
        {
          "internalType": "address",
          "name": "",
          "type": "address"
        }
      ],
      "stateMutability": "view",
      "type": "function"
    },
    {
      "inputs": [
        {
          "internalType": "address",
          "name": "",
          "type": "address"
        }
      ],
      "name": "userDB",
      "outputs": [
        {
          "internalType": "uint256",
          "name": "userId",
          "type": "uint256"
        },
        {
          "internalType": "address",
          "name": "userAddress",
          "type": "address"
        },
        {
          "internalType": "string",
          "name": "username",
          "type": "string"
        }
      ],
      "stateMutability": "view",
      "type": "function"
    }
  ],
  "bytecode": "0x608060405234801561001057600080fd5b50600060048190555061184f806100286000396000f3fe608060405234801561001057600080fd5b50600436106100b45760003560e01c8063b288832011610071578063b28883201461018b578063b34e97e8146101a9578063b46d9a68146101c7578063bff1f9e1146101f7578063caced8ac14610215578063f2c298be14610247576100b4565b80631419db59146100b95780634d6849d2146100d5578063763a38311461010557806384bab4d61461012357806393c7fde814610153578063a9707b0f1461016f575b600080fd5b6100d360048036038101906100ce9190610e17565b610263565b005b6100ef60048036038101906100ea9190610e57565b610395565b6040516100fc9190610e93565b60405180910390f35b61010d610401565b60405161011a9190610f6c565b60405180910390f35b61013d60048036038101906101389190610fc4565b6104cc565b60405161014a9190610e93565b60405180910390f35b61016d60048036038101906101689190610e57565b61051a565b005b61018960048036038101906101849190610e17565b6105ec565b005b61019361071e565b6040516101a09190610f6c565b60405180910390f35b6101b16107e9565b6040516101be91906110f3565b60405180910390f35b6101e160048036038101906101dc9190610fc4565b610a03565b6040516101ee9190610e93565b60405180910390f35b6101ff610a51565b60405161020c9190611124565b60405180910390f35b61022f600480360381019061022a9190610e57565b610a57565b60405161023e93929190611189565b60405180910390f35b610261600480360381019061025c919061122c565b610b29565b005b60008054906101000a900473ffffffffffffffffffffffffffffffffffffffff1673ffffffffffffffffffffffffffffffffffffffff163373ffffffffffffffffffffffffffffffffffffffff16146102f1576040517f08c379a00000000000000000000000000000000000000000000000000000000081526004016102e8906112c5565b60405180910390fd5b600260008373ffffffffffffffffffffffffffffffffffffffff1673ffffffffffffffffffffffffffffffffffffffff168152602001908152602001600020819080600181540180825580915050600190039060005260206000200160009091909190916101000a81548173ffffffffffffffffffffffffffffffffffffffff021916908373ffffffffffffffffffffffffffffffffffffffff1602179055505050565b6000600160008373ffffffffffffffffffffffffffffffffffffffff1673ffffffffffffffffffffffffffffffffffffffff16815260200190815260200160002060010160009054906101000a900473ffffffffffffffffffffffffffffffffffffffff169050919050565b6060600360003373ffffffffffffffffffffffffffffffffffffffff1673ffffffffffffffffffffffffffffffffffffffff1681526020019081526020016000208054806020026020016040519081016040528092919081815260200182805480156104c257602002820191906000526020600020905b8160009054906101000a900473ffffffffffffffffffffffffffffffffffffffff1673ffffffffffffffffffffffffffffffffffffffff1681526020019060010190808311610478575b5050505050905090565b600360205281600052604060002081815481106104e857600080fd5b906000526020600020016000915091509054906101000a900473ffffffffffffffffffffffffffffffffffffffff1681565b600073ffffffffffffffffffffffffffffffffffffffff1660008054906101000a900473ffffffffffffffffffffffffffffffffffffffff1673ffffffffffffffffffffffffffffffffffffffff16146105a9576040517f08c379a00000000000000000000000000000000000000000000000000000000081526004016105a090611331565b60405180910390fd5b806000806101000a81548173ffffffffffffffffffffffffffffffffffffffff021916908373ffffffffffffffffffffffffffffffffffffffff16021790555050565b60008054906101000a900473ffffffffffffffffffffffffffffffffffffffff1673ffffffffffffffffffffffffffffffffffffffff163373ffffffffffffffffffffffffffffffffffffffff161461067a576040517f08c379a0000000000000000000000000000000000000000000000000000000008152600401610671906112c5565b60405180910390fd5b600360008373ffffffffffffffffffffffffffffffffffffffff1673ffffffffffffffffffffffffffffffffffffffff168152602001908152602001600020819080600181540180825580915050600190039060005260206000200160009091909190916101000a81548173ffffffffffffffffffffffffffffffffffffffff021916908373ffffffffffffffffffffffffffffffffffffffff1602179055505050565b6060600260003373ffffffffffffffffffffffffffffffffffffffff1673ffffffffffffffffffffffffffffffffffffffff1681526020019081526020016000208054806020026020016040519081016040528092919081815260200182805480156107df57602002820191906000526020600020905b8160009054906101000a900473ffffffffffffffffffffffffffffffffffffffff1673ffffffffffffffffffffffffffffffffffffffff1681526020019060010190808311610795575b5050505050905090565b6107f1610d78565b600073ffffffffffffffffffffffffffffffffffffffff16600160003373ffffffffffffffffffffffffffffffffffffffff1673ffffffffffffffffffffffffffffffffffffffff16815260200190815260200160002060010160009054906101000a900473ffffffffffffffffffffffffffffffffffffffff1673ffffffffffffffffffffffffffffffffffffffff16036108c2576040517f08c379a00000000000000000000000000000000000000000000000000000000081526004016108b99061139d565b60405180910390fd5b600160003373ffffffffffffffffffffffffffffffffffffffff1673ffffffffffffffffffffffffffffffffffffffff168152602001908152602001600020604051806060016040529081600082015481526020016001820160009054906101000a900473ffffffffffffffffffffffffffffffffffffffff1673ffffffffffffffffffffffffffffffffffffffff1673ffffffffffffffffffffffffffffffffffffffff16815260200160028201805461097c906113ec565b80601f01602080910402602001604051908101604052809291908181526020018280546109a8906113ec565b80156109f55780601f106109ca576101008083540402835291602001916109f5565b820191906000526020600020905b8154815290600101906020018083116109d857829003601f168201915b505050505081525050905090565b60026020528160005260406000208181548110610a1f57600080fd5b906000526020600020016000915091509054906101000a900473ffffffffffffffffffffffffffffffffffffffff1681565b60045481565b60016020528060005260406000206000915090508060000154908060010160009054906101000a900473ffffffffffffffffffffffffffffffffffffffff1690806002018054610aa6906113ec565b80601f0160208091040260200160405190810160405280929190818152602001828054610ad2906113ec565b8015610b1f5780601f10610af457610100808354040283529160200191610b1f565b820191906000526020600020905b815481529060010190602001808311610b0257829003601f168201915b5050505050905083565b60008282905011610b6f576040517f08c379a0000000000000000000000000000000000000000000000000000000008152600401610b6690611469565b60405180910390fd5b600073ffffffffffffffffffffffffffffffffffffffff16600160003373ffffffffffffffffffffffffffffffffffffffff1673ffffffffffffffffffffffffffffffffffffffff16815260200190815260200160002060010160009054906101000a900473ffffffffffffffffffffffffffffffffffffffff1673ffffffffffffffffffffffffffffffffffffffff1614610c40576040517f08c379a0000000000000000000000000000000000000000000000000000000008152600401610c37906114d5565b60405180910390fd5b604051806060016040528060046000815480929190610c5e90611524565b9190505581526020013373ffffffffffffffffffffffffffffffffffffffff16815260200183838080601f016020809104026020016040519081016040528093929190818152602001838380828437600081840152601f19601f82011690508083019250505050505050815250600160003373ffffffffffffffffffffffffffffffffffffffff1673ffffffffffffffffffffffffffffffffffffffff1681526020019081526020016000206000820151816000015560208201518160010160006101000a81548173ffffffffffffffffffffffffffffffffffffffff021916908373ffffffffffffffffffffffffffffffffffffffff1602179055506040820151816002019081610d709190611747565b509050505050565b604051806060016040528060008152602001600073ffffffffffffffffffffffffffffffffffffffff168152602001606081525090565b600080fd5b600080fd5b600073ffffffffffffffffffffffffffffffffffffffff82169050919050565b6000610de482610db9565b9050919050565b610df481610dd9565b8114610dff57600080fd5b50565b600081359050610e1181610deb565b92915050565b60008060408385031215610e2e57610e2d610daf565b5b6000610e3c85828601610e02565b9250506020610e4d85828601610e02565b9150509250929050565b600060208284031215610e6d57610e6c610daf565b5b6000610e7b84828501610e02565b91505092915050565b610e8d81610dd9565b82525050565b6000602082019050610ea86000830184610e84565b92915050565b600081519050919050565b600082825260208201905092915050565b6000819050602082019050919050565b610ee381610dd9565b82525050565b6000610ef58383610eda565b60208301905092915050565b6000602082019050919050565b6000610f1982610eae565b610f238185610eb9565b9350610f2e83610eca565b8060005b83811015610f5f578151610f468882610ee9565b9750610f5183610f01565b925050600181019050610f32565b5085935050505092915050565b60006020820190508181036000830152610f868184610f0e565b905092915050565b6000819050919050565b610fa181610f8e565b8114610fac57600080fd5b50565b600081359050610fbe81610f98565b92915050565b60008060408385031215610fdb57610fda610daf565b5b6000610fe985828601610e02565b9250506020610ffa85828601610faf565b9150509250929050565b61100d81610f8e565b82525050565b600081519050919050565b600082825260208201905092915050565b60005b8381101561104d578082015181840152602081019050611032565b60008484015250505050565b6000601f19601f8301169050919050565b600061107582611013565b61107f818561101e565b935061108f81856020860161102f565b61109881611059565b840191505092915050565b60006060830160008301516110bb6000860182611004565b5060208301516110ce6020860182610eda565b50604083015184820360408601526110e6828261106a565b9150508091505092915050565b6000602082019050818103600083015261110d81846110a3565b905092915050565b61111e81610f8e565b82525050565b60006020820190506111396000830184611115565b92915050565b600082825260208201905092915050565b600061115b82611013565b611165818561113f565b935061117581856020860161102f565b61117e81611059565b840191505092915050565b600060608201905061119e6000830186611115565b6111ab6020830185610e84565b81810360408301526111bd8184611150565b9050949350505050565b600080fd5b600080fd5b600080fd5b60008083601f8401126111ec576111eb6111c7565b5b8235905067ffffffffffffffff811115611209576112086111cc565b5b602083019150836001820283011115611225576112246111d1565b5b9250929050565b6000806020838503121561124357611242610daf565b5b600083013567ffffffffffffffff81111561126157611260610db4565b5b61126d858286016111d6565b92509250509250929050565b7f4f6e6c7920436f75727365466163746f72792063616e2063616c6c0000000000600082015250565b60006112af601b8361113f565b91506112ba82611279565b602082019050919050565b600060208201905081810360008301526112de816112a2565b9050919050565b7f436f75727365466163746f727920616c72656164792073657400000000000000600082015250565b600061131b60198361113f565b9150611326826112e5565b602082019050919050565b6000602082019050818103600083015261134a8161130e565b9050919050565b7f55736572206e6f74207265676973746572656400000000000000000000000000600082015250565b600061138760138361113f565b915061139282611351565b602082019050919050565b600060208201905081810360008301526113b68161137a565b9050919050565b7f4e487b7100000000000000000000000000000000000000000000000000000000600052602260045260246000fd5b6000600282049050600182168061140457607f821691505b602082108103611417576114166113bd565b5b50919050565b7f557365726e616d652063616e6e6f7420626520656d7074790000000000000000600082015250565b600061145360188361113f565b915061145e8261141d565b602082019050919050565b6000602082019050818103600083015261148281611446565b9050919050565b7f5573657220616c72656164792065786973747300000000000000000000000000600082015250565b60006114bf60138361113f565b91506114ca82611489565b602082019050919050565b600060208201905081810360008301526114ee816114b2565b9050919050565b7f4e487b7100000000000000000000000000000000000000000000000000000000600052601160045260246000fd5b600061152f82610f8e565b91507fffffffffffffffffffffffffffffffffffffffffffffffffffffffffffffffff8203611561576115606114f5565b5b600182019050919050565b7f4e487b7100000000000000000000000000000000000000000000000000000000600052604160045260246000fd5b60008190508160005260206000209050919050565b60006020601f8301049050919050565b600082821b905092915050565b6000600883026115fd7fffffffffffffffffffffffffffffffffffffffffffffffffffffffffffffffff826115c0565b61160786836115c0565b95508019841693508086168417925050509392505050565b6000819050919050565b600061164461163f61163a84610f8e565b61161f565b610f8e565b9050919050565b6000819050919050565b61165e83611629565b61167261166a8261164b565b8484546115cd565b825550505050565b600090565b61168761167a565b611692818484611655565b505050565b5b818110156116b6576116ab60008261167f565b600181019050611698565b5050565b601f8211156116fb576116cc8161159b565b6116d5846115b0565b810160208510156116e4578190505b6116f86116f0856115b0565b830182611697565b50505b505050565b600082821c905092915050565b600061171e60001984600802611700565b1980831691505092915050565b6000611737838361170d565b9150826002028217905092915050565b61175082611013565b67ffffffffffffffff8111156117695761176861156c565b5b61177382546113ec565b61177e8282856116ba565b600060209050601f8311600181146117b1576000841561179f578287015190505b6117a9858261172b565b865550611811565b601f1984166117bf8661159b565b60005b828110156117e7578489015182556001820191506020850194506020810190506117c2565b868310156118045784890151611800601f89168261170d565b8355505b6001600288020188555050505b50505050505056fea2646970667358221220b741fde24e6b2f287f8b01b09dcafbbdd33b03a426aab7685d7a398d3c3c272d64736f6c63430008110033",
  "linkReferences": {},
  "deployedLinkReferences": {}
}