{
  "_format": "hh-sol-artifact-1",
  "contractName": "UserFactory",
  "sourceName": "contracts/UserFactory.sol",
  "abi": [
    {
      "inputs": [],
      "stateMutability": "nonpayable",
      "type": "constructor"
    },
    {
      "inputs": [
        {
          "internalType": "address",
          "name": "user",
          "type": "address"
        },
        {
          "internalType": "address",
          "name": "courseAdd",
          "type": "address"
        }
      ],
      "name": "addBoughtCourse",
      "outputs": [],
      "stateMutability": "nonpayable",
      "type": "function"
    },
    {
      "inputs": [
        {
          "internalType": "address",
          "name": "user",
          "type": "address"
        },
        {
          "internalType": "address",
          "name": "courseAdd",
          "type": "address"
        }
      ],
      "name": "addOwnedCourse",
      "outputs": [],
      "stateMutability": "nonpayable",
      "type": "function"
    },
    {
      "inputs": [],
      "name": "getBoughtCourses",
      "outputs": [
        {
          "internalType": "address[]",
          "name": "",
          "type": "address[]"
        }
      ],
      "stateMutability": "view",
      "type": "function"
    },
    {
      "inputs": [],
      "name": "getOwnedCourses",
      "outputs": [
        {
          "internalType": "address[]",
          "name": "",
          "type": "address[]"
        }
      ],
      "stateMutability": "view",
      "type": "function"
    },
    {
      "inputs": [
        {
          "internalType": "address",
          "name": "user",
          "type": "address"
        }
      ],
      "name": "getUserAddress",
      "outputs": [
        {
          "internalType": "address",
          "name": "",
          "type": "address"
        }
      ],
      "stateMutability": "view",
      "type": "function"
    },
    {
      "inputs": [
        {
          "internalType": "address",
          "name": "",
          "type": "address"
        },
        {
          "internalType": "uint256",
          "name": "",
          "type": "uint256"
        }
      ],
      "name": "instructorOwnedCourses",
      "outputs": [
        {
          "internalType": "address",
          "name": "",
          "type": "address"
        }
      ],
      "stateMutability": "view",
      "type": "function"
    },
    {
      "inputs": [],
      "name": "login",
      "outputs": [
        {
          "internalType": "bool",
          "name": "",
          "type": "bool"
        }
      ],
      "stateMutability": "view",
      "type": "function"
    },
    {
      "inputs": [
        {
          "internalType": "string",
          "name": "_username",
          "type": "string"
        }
      ],
      "name": "register",
      "outputs": [],
      "stateMutability": "nonpayable",
      "type": "function"
    },
    {
      "inputs": [
        {
          "internalType": "address",
          "name": "_courseFactory",
          "type": "address"
        }
      ],
      "name": "setCourseFactory",
      "outputs": [],
      "stateMutability": "nonpayable",
      "type": "function"
    },
    {
      "inputs": [],
      "name": "totalUsers",
      "outputs": [
        {
          "internalType": "uint256",
          "name": "",
          "type": "uint256"
        }
      ],
      "stateMutability": "view",
      "type": "function"
    },
    {
      "inputs": [
        {
          "internalType": "address",
          "name": "",
          "type": "address"
        },
        {
          "internalType": "uint256",
          "name": "",
          "type": "uint256"
        }
      ],
      "name": "userBoughtCourses",
      "outputs": [
        {
          "internalType": "address",
          "name": "",
          "type": "address"
        }
      ],
      "stateMutability": "view",
      "type": "function"
    },
    {
      "inputs": [
        {
          "internalType": "address",
          "name": "",
          "type": "address"
        }
      ],
      "name": "userDB",
      "outputs": [
        {
          "internalType": "uint256",
          "name": "userId",
          "type": "uint256"
        },
        {
          "internalType": "address",
          "name": "userAddress",
          "type": "address"
        },
        {
          "internalType": "string",
          "name": "username",
          "type": "string"
        }
      ],
      "stateMutability": "view",
      "type": "function"
    }
  ],
  "bytecode": "0x608060405234801561001057600080fd5b506000600481905550611596806100286000396000f3fe608060405234801561001057600080fd5b50600436106100b45760003560e01c8063b288832011610071578063b28883201461018b578063b34e97e8146101a9578063b46d9a68146101c7578063bff1f9e1146101f7578063caced8ac14610215578063f2c298be14610247576100b4565b80631419db59146100b95780634d6849d2146100d5578063763a38311461010557806384bab4d61461012357806393c7fde814610153578063a9707b0f1461016f575b600080fd5b6100d360048036038101906100ce9190610c5f565b610263565b005b6100ef60048036038101906100ea9190610c9f565b610395565b6040516100fc9190610cdb565b60405180910390f35b61010d610401565b60405161011a9190610db4565b60405180910390f35b61013d60048036038101906101389190610e0c565b6104cc565b60405161014a9190610cdb565b60405180910390f35b61016d60048036038101906101689190610c9f565b61051a565b005b61018960048036038101906101849190610c5f565b6105ec565b005b61019361071e565b6040516101a09190610db4565b60405180910390f35b6101b16107e9565b6040516101be9190610e67565b60405180910390f35b6101e160048036038101906101dc9190610e0c565b610882565b6040516101ee9190610cdb565b60405180910390f35b6101ff6108d0565b60405161020c9190610e91565b60405180910390f35b61022f600480360381019061022a9190610c9f565b6108d6565b60405161023e93929190610f3c565b60405180910390f35b610261600480360381019061025c9190610fdf565b6109a8565b005b60008054906101000a900473ffffffffffffffffffffffffffffffffffffffff1673ffffffffffffffffffffffffffffffffffffffff163373ffffffffffffffffffffffffffffffffffffffff16146102f1576040517f08c379a00000000000000000000000000000000000000000000000000000000081526004016102e890611078565b60405180910390fd5b600260008373ffffffffffffffffffffffffffffffffffffffff1673ffffffffffffffffffffffffffffffffffffffff168152602001908152602001600020819080600181540180825580915050600190039060005260206000200160009091909190916101000a81548173ffffffffffffffffffffffffffffffffffffffff021916908373ffffffffffffffffffffffffffffffffffffffff1602179055505050565b6000600160008373ffffffffffffffffffffffffffffffffffffffff1673ffffffffffffffffffffffffffffffffffffffff16815260200190815260200160002060010160009054906101000a900473ffffffffffffffffffffffffffffffffffffffff169050919050565b6060600360003373ffffffffffffffffffffffffffffffffffffffff1673ffffffffffffffffffffffffffffffffffffffff1681526020019081526020016000208054806020026020016040519081016040528092919081815260200182805480156104c257602002820191906000526020600020905b8160009054906101000a900473ffffffffffffffffffffffffffffffffffffffff1673ffffffffffffffffffffffffffffffffffffffff1681526020019060010190808311610478575b5050505050905090565b600360205281600052604060002081815481106104e857600080fd5b906000526020600020016000915091509054906101000a900473ffffffffffffffffffffffffffffffffffffffff1681565b600073ffffffffffffffffffffffffffffffffffffffff1660008054906101000a900473ffffffffffffffffffffffffffffffffffffffff1673ffffffffffffffffffffffffffffffffffffffff16146105a9576040517f08c379a00000000000000000000000000000000000000000000000000000000081526004016105a0906110e4565b60405180910390fd5b806000806101000a81548173ffffffffffffffffffffffffffffffffffffffff021916908373ffffffffffffffffffffffffffffffffffffffff16021790555050565b60008054906101000a900473ffffffffffffffffffffffffffffffffffffffff1673ffffffffffffffffffffffffffffffffffffffff163373ffffffffffffffffffffffffffffffffffffffff161461067a576040517f08c379a000000000000000000000000000000000000000000000000000000000815260040161067190611078565b60405180910390fd5b600360008373ffffffffffffffffffffffffffffffffffffffff1673ffffffffffffffffffffffffffffffffffffffff168152602001908152602001600020819080600181540180825580915050600190039060005260206000200160009091909190916101000a81548173ffffffffffffffffffffffffffffffffffffffff021916908373ffffffffffffffffffffffffffffffffffffffff1602179055505050565b6060600260003373ffffffffffffffffffffffffffffffffffffffff1673ffffffffffffffffffffffffffffffffffffffff1681526020019081526020016000208054806020026020016040519081016040528092919081815260200182805480156107df57602002820191906000526020600020905b8160009054906101000a900473ffffffffffffffffffffffffffffffffffffffff1673ffffffffffffffffffffffffffffffffffffffff1681526020019060010190808311610795575b5050505050905090565b60008073ffffffffffffffffffffffffffffffffffffffff16600160003373ffffffffffffffffffffffffffffffffffffffff1673ffffffffffffffffffffffffffffffffffffffff16815260200190815260200160002060010160009054906101000a900473ffffffffffffffffffffffffffffffffffffffff1673ffffffffffffffffffffffffffffffffffffffff161415905090565b6002602052816000526040600020818154811061089e57600080fd5b906000526020600020016000915091509054906101000a900473ffffffffffffffffffffffffffffffffffffffff1681565b60045481565b60016020528060005260406000206000915090508060000154908060010160009054906101000a900473ffffffffffffffffffffffffffffffffffffffff169080600201805461092590611133565b80601f016020809104026020016040519081016040528092919081815260200182805461095190611133565b801561099e5780601f106109735761010080835404028352916020019161099e565b820191906000526020600020905b81548152906001019060200180831161098157829003601f168201915b5050505050905083565b600082829050116109ee576040517f08c379a00000000000000000000000000000000000000000000000000000000081526004016109e5906111b0565b60405180910390fd5b600073ffffffffffffffffffffffffffffffffffffffff16600160003373ffffffffffffffffffffffffffffffffffffffff1673ffffffffffffffffffffffffffffffffffffffff16815260200190815260200160002060010160009054906101000a900473ffffffffffffffffffffffffffffffffffffffff1673ffffffffffffffffffffffffffffffffffffffff1614610abf576040517f08c379a0000000000000000000000000000000000000000000000000000000008152600401610ab69061121c565b60405180910390fd5b604051806060016040528060046000815480929190610add9061126b565b9190505581526020013373ffffffffffffffffffffffffffffffffffffffff16815260200183838080601f016020809104026020016040519081016040528093929190818152602001838380828437600081840152601f19601f82011690508083019250505050505050815250600160003373ffffffffffffffffffffffffffffffffffffffff1673ffffffffffffffffffffffffffffffffffffffff1681526020019081526020016000206000820151816000015560208201518160010160006101000a81548173ffffffffffffffffffffffffffffffffffffffff021916908373ffffffffffffffffffffffffffffffffffffffff1602179055506040820151816002019081610bef919061148e565b509050505050565b600080fd5b600080fd5b600073ffffffffffffffffffffffffffffffffffffffff82169050919050565b6000610c2c82610c01565b9050919050565b610c3c81610c21565b8114610c4757600080fd5b50565b600081359050610c5981610c33565b92915050565b60008060408385031215610c7657610c75610bf7565b5b6000610c8485828601610c4a565b9250506020610c9585828601610c4a565b9150509250929050565b600060208284031215610cb557610cb4610bf7565b5b6000610cc384828501610c4a565b91505092915050565b610cd581610c21565b82525050565b6000602082019050610cf06000830184610ccc565b92915050565b600081519050919050565b600082825260208201905092915050565b6000819050602082019050919050565b610d2b81610c21565b82525050565b6000610d3d8383610d22565b60208301905092915050565b6000602082019050919050565b6000610d6182610cf6565b610d6b8185610d01565b9350610d7683610d12565b8060005b83811015610da7578151610d8e8882610d31565b9750610d9983610d49565b925050600181019050610d7a565b5085935050505092915050565b60006020820190508181036000830152610dce8184610d56565b905092915050565b6000819050919050565b610de981610dd6565b8114610df457600080fd5b50565b600081359050610e0681610de0565b92915050565b60008060408385031215610e2357610e22610bf7565b5b6000610e3185828601610c4a565b9250506020610e4285828601610df7565b9150509250929050565b60008115159050919050565b610e6181610e4c565b82525050565b6000602082019050610e7c6000830184610e58565b92915050565b610e8b81610dd6565b82525050565b6000602082019050610ea66000830184610e82565b92915050565b600081519050919050565b600082825260208201905092915050565b60005b83811015610ee6578082015181840152602081019050610ecb565b60008484015250505050565b6000601f19601f8301169050919050565b6000610f0e82610eac565b610f188185610eb7565b9350610f28818560208601610ec8565b610f3181610ef2565b840191505092915050565b6000606082019050610f516000830186610e82565b610f5e6020830185610ccc565b8181036040830152610f708184610f03565b9050949350505050565b600080fd5b600080fd5b600080fd5b60008083601f840112610f9f57610f9e610f7a565b5b8235905067ffffffffffffffff811115610fbc57610fbb610f7f565b5b602083019150836001820283011115610fd857610fd7610f84565b5b9250929050565b60008060208385031215610ff657610ff5610bf7565b5b600083013567ffffffffffffffff81111561101457611013610bfc565b5b61102085828601610f89565b92509250509250929050565b7f4f6e6c7920436f75727365466163746f72792063616e2063616c6c0000000000600082015250565b6000611062601b83610eb7565b915061106d8261102c565b602082019050919050565b6000602082019050818103600083015261109181611055565b9050919050565b7f436f75727365466163746f727920616c72656164792073657400000000000000600082015250565b60006110ce601983610eb7565b91506110d982611098565b602082019050919050565b600060208201905081810360008301526110fd816110c1565b9050919050565b7f4e487b7100000000000000000000000000000000000000000000000000000000600052602260045260246000fd5b6000600282049050600182168061114b57607f821691505b60208210810361115e5761115d611104565b5b50919050565b7f557365726e616d652063616e6e6f7420626520656d7074790000000000000000600082015250565b600061119a601883610eb7565b91506111a582611164565b602082019050919050565b600060208201905081810360008301526111c98161118d565b9050919050565b7f5573657220616c72656164792065786973747300000000000000000000000000600082015250565b6000611206601383610eb7565b9150611211826111d0565b602082019050919050565b60006020820190508181036000830152611235816111f9565b9050919050565b7f4e487b7100000000000000000000000000000000000000000000000000000000600052601160045260246000fd5b600061127682610dd6565b91507fffffffffffffffffffffffffffffffffffffffffffffffffffffffffffffffff82036112a8576112a761123c565b5b600182019050919050565b7f4e487b7100000000000000000000000000000000000000000000000000000000600052604160045260246000fd5b60008190508160005260206000209050919050565b60006020601f8301049050919050565b600082821b905092915050565b6000600883026113447fffffffffffffffffffffffffffffffffffffffffffffffffffffffffffffffff82611307565b61134e8683611307565b95508019841693508086168417925050509392505050565b6000819050919050565b600061138b61138661138184610dd6565b611366565b610dd6565b9050919050565b6000819050919050565b6113a583611370565b6113b96113b182611392565b848454611314565b825550505050565b600090565b6113ce6113c1565b6113d981848461139c565b505050565b5b818110156113fd576113f26000826113c6565b6001810190506113df565b5050565b601f82111561144257611413816112e2565b61141c846112f7565b8101602085101561142b578190505b61143f611437856112f7565b8301826113de565b50505b505050565b600082821c905092915050565b600061146560001984600802611447565b1980831691505092915050565b600061147e8383611454565b9150826002028217905092915050565b61149782610eac565b67ffffffffffffffff8111156114b0576114af6112b3565b5b6114ba8254611133565b6114c5828285611401565b600060209050601f8311600181146114f857600084156114e6578287015190505b6114f08582611472565b865550611558565b601f198416611506866112e2565b60005b8281101561152e57848901518255600182019150602085019450602081019050611509565b8683101561154b5784890151611547601f891682611454565b8355505b6001600288020188555050505b50505050505056fea2646970667358221220d62ee70cebe554465a2882deee62f100221f5a870fd773b044f39966b1068d2e64736f6c63430008110033",
  "linkReferences": {},
  "deployedLinkReferences": {}
}