{
    "_format": "hh-sol-artifact-1",
    "contractName": "CourseFactory",
    "sourceName": "contracts/CourseFactory.sol",
    "abi": [
        {
            "inputs": [
                {
                    "internalType": "address",
                    "name": "_userFactory",
                    "type": "address"
                }
            ],
            "stateMutability": "nonpayable",
            "type": "constructor"
        },
        {
            "inputs": [
                {
                    "internalType": "address",
                    "name": "_courseAddress",
                    "type": "address"
                }
            ],
            "name": "buyCourse",
            "outputs": [],
            "stateMutability": "payable",
            "type": "function"
        },
        {
            "inputs": [
                {
                    "internalType": "string",
                    "name": "_courseName",
                    "type": "string"
                },
                {
                    "internalType": "string",
                    "name": "_ipfsLink",
                    "type": "string"
                },
                {
                    "internalType": "uint256",
                    "name": "_price",
                    "type": "uint256"
                }
            ],
            "name": "createCourse",
            "outputs": [],
            "stateMutability": "nonpayable",
            "type": "function"
        },
        {
            "inputs": [],
            "name": "userFactory",
            "outputs": [
                {
                    "internalType": "contract IUserFactory",
                    "name": "",
                    "type": "address"
                }
            ],
            "stateMutability": "view",
            "type": "function"
        }
    ],
    "bytecode": "0x60806040523480156200001157600080fd5b5060405162001b3438038062001b3483398181016040528101906200003791906200017f565b6000600181905550806000806101000a81548173ffffffffffffffffffffffffffffffffffffffff021916908373ffffffffffffffffffffffffffffffffffffffff16021790555060008054906101000a900473ffffffffffffffffffffffffffffffffffffffff1673ffffffffffffffffffffffffffffffffffffffff166393c7fde8306040518263ffffffff1660e01b8152600401620000da9190620001c2565b600060405180830381600087803b158015620000f557600080fd5b505af11580156200010a573d6000803e3d6000fd5b5050505050620001df565b600080fd5b600073ffffffffffffffffffffffffffffffffffffffff82169050919050565b600062000147826200011a565b9050919050565b62000159816200013a565b81146200016557600080fd5b50565b60008151905062000179816200014e565b92915050565b60006020828403121562000198576200019762000115565b5b6000620001a88482850162000168565b91505092915050565b620001bc816200013a565b82525050565b6000602082019050620001d96000830184620001b1565b92915050565b61194580620001ef6000396000f3fe608060405260043610620000385760003560e01c8063283097ab146200003d57806389d10cc7146200006d578063a4adb24b146200008d575b600080fd5b3480156200004a57600080fd5b5062000055620000bb565b604051620000649190620005ee565b60405180910390f35b6200008b60048036038101906200008591906200065a565b620000df565b005b3480156200009a57600080fd5b50620000b96004803603810190620000b3919062000735565b620002f3565b005b60008054906101000a900473ffffffffffffffffffffffffffffffffffffffff1681565b600073ffffffffffffffffffffffffffffffffffffffff1660008054906101000a900473ffffffffffffffffffffffffffffffffffffffff1673ffffffffffffffffffffffffffffffffffffffff16634d6849d2336040518263ffffffff1660e01b8152600401620001529190620007ea565b602060405180830381865afa15801562000170573d6000803e3d6000fd5b505050506040513d601f19601f820116820180604052508101906200019691906200081e565b73ffffffffffffffffffffffffffffffffffffffff1603620001ef576040517f08c379a0000000000000000000000000000000000000000000000000000000008152600401620001e690620008b1565b60405180910390fd5b8073ffffffffffffffffffffffffffffffffffffffff166389d10cc734336040518363ffffffff1660e01b81526004016200022b9190620007ea565b6000604051808303818588803b1580156200024557600080fd5b505af11580156200025a573d6000803e3d6000fd5b505050505060008054906101000a900473ffffffffffffffffffffffffffffffffffffffff1673ffffffffffffffffffffffffffffffffffffffff16631419db5933836040518363ffffffff1660e01b8152600401620002bc929190620008d3565b600060405180830381600087803b158015620002d757600080fd5b505af1158015620002ec573d6000803e3d6000fd5b5050505050565b600073ffffffffffffffffffffffffffffffffffffffff1660008054906101000a900473ffffffffffffffffffffffffffffffffffffffff1673ffffffffffffffffffffffffffffffffffffffff16634d6849d2336040518263ffffffff1660e01b8152600401620003669190620007ea565b602060405180830381865afa15801562000384573d6000803e3d6000fd5b505050506040513d601f19601f82011682018060405250810190620003aa91906200081e565b73ffffffffffffffffffffffffffffffffffffffff160362000403576040517f08c379a0000000000000000000000000000000000000000000000000000000008152600401620003fa90620008b1565b60405180910390fd5b60008585858533600160008154809291906200041f906200092f565b9190505587604051620004329062000555565b62000444979695949392919062000a05565b604051809103906000f08015801562000461573d6000803e3d6000fd5b5090506001600260008373ffffffffffffffffffffffffffffffffffffffff1673ffffffffffffffffffffffffffffffffffffffff16815260200190815260200160002060006101000a81548160ff02191690831515021790555060008054906101000a900473ffffffffffffffffffffffffffffffffffffffff1673ffffffffffffffffffffffffffffffffffffffff1663a9707b0f33836040518363ffffffff1660e01b815260040162000519929190620008d3565b600060405180830381600087803b1580156200053457600080fd5b505af115801562000549573d6000803e3d6000fd5b50505050505050505050565b610e9b8062000a7583390190565b600073ffffffffffffffffffffffffffffffffffffffff82169050919050565b6000819050919050565b6000620005ae620005a8620005a28462000563565b62000583565b62000563565b9050919050565b6000620005c2826200058d565b9050919050565b6000620005d682620005b5565b9050919050565b620005e881620005c9565b82525050565b6000602082019050620006056000830184620005dd565b92915050565b600080fd5b600080fd5b6000620006228262000563565b9050919050565b620006348162000615565b81146200064057600080fd5b50565b600081359050620006548162000629565b92915050565b6000602082840312156200067357620006726200060b565b5b6000620006838482850162000643565b91505092915050565b600080fd5b600080fd5b600080fd5b60008083601f840112620006b457620006b36200068c565b5b8235905067ffffffffffffffff811115620006d457620006d362000691565b5b602083019150836001820283011115620006f357620006f262000696565b5b9250929050565b6000819050919050565b6200070f81620006fa565b81146200071b57600080fd5b50565b6000813590506200072f8162000704565b92915050565b6000806000806000606086880312156200075457620007536200060b565b5b600086013567ffffffffffffffff81111562000775576200077462000610565b5b62000783888289016200069b565b9550955050602086013567ffffffffffffffff811115620007a957620007a862000610565b5b620007b7888289016200069b565b93509350506040620007cc888289016200071e565b9150509295509295909350565b620007e48162000615565b82525050565b6000602082019050620008016000830184620007d9565b92915050565b600081519050620008188162000629565b92915050565b6000602082840312156200083757620008366200060b565b5b6000620008478482850162000807565b91505092915050565b600082825260208201905092915050565b7f55736572206e6f74207265676973746572656400000000000000000000000000600082015250565b60006200089960138362000850565b9150620008a68262000861565b602082019050919050565b60006020820190508181036000830152620008cc816200088a565b9050919050565b6000604082019050620008ea6000830185620007d9565b620008f96020830184620007d9565b9392505050565b7f4e487b7100000000000000000000000000000000000000000000000000000000600052601160045260246000fd5b60006200093c82620006fa565b91507fffffffffffffffffffffffffffffffffffffffffffffffffffffffffffffffff820362000971576200097062000900565b5b600182019050919050565b82818337600083830152505050565b6000601f19601f8301169050919050565b6000620009aa838562000850565b9350620009b98385846200097c565b620009c4836200098b565b840190509392505050565b6000620009dc8262000563565b9050919050565b620009ee81620009cf565b82525050565b620009ff81620006fa565b82525050565b600060a082019050818103600083015262000a2281898b6200099c565b9050818103602083015262000a398187896200099c565b905062000a4a6040830186620009e3565b62000a596060830185620009f4565b62000a686080830184620009f4565b9897505050505050505056fe60806040523480156200001157600080fd5b5060405162000e9b38038062000e9b8339818101604052810190620000379190620002e8565b8460009081620000489190620005ef565b5083600190816200005a9190620005ef565b5082600460006101000a81548173ffffffffffffffffffffffffffffffffffffffff021916908373ffffffffffffffffffffffffffffffffffffffff16021790555081600281905550806003819055505050505050620006d6565b6000604051905090565b600080fd5b600080fd5b600080fd5b600080fd5b6000601f19601f8301169050919050565b7f4e487b7100000000000000000000000000000000000000000000000000000000600052604160045260246000fd5b6200011e82620000d3565b810181811067ffffffffffffffff8211171562000140576200013f620000e4565b5b80604052505050565b600062000155620000b5565b905062000163828262000113565b919050565b600067ffffffffffffffff821115620001865762000185620000e4565b5b6200019182620000d3565b9050602081019050919050565b60005b83811015620001be578082015181840152602081019050620001a1565b60008484015250505050565b6000620001e1620001db8462000168565b62000149565b9050828152602081018484840111156200020057620001ff620000ce565b5b6200020d8482856200019e565b509392505050565b600082601f8301126200022d576200022c620000c9565b5b81516200023f848260208601620001ca565b91505092915050565b600073ffffffffffffffffffffffffffffffffffffffff82169050919050565b6000620002758262000248565b9050919050565b620002878162000268565b81146200029357600080fd5b50565b600081519050620002a7816200027c565b92915050565b6000819050919050565b620002c281620002ad565b8114620002ce57600080fd5b50565b600081519050620002e281620002b7565b92915050565b600080600080600060a08688031215620003075762000306620000bf565b5b600086015167ffffffffffffffff811115620003285762000327620000c4565b5b620003368882890162000215565b955050602086015167ffffffffffffffff8111156200035a5762000359620000c4565b5b620003688882890162000215565b94505060406200037b8882890162000296565b93505060606200038e88828901620002d1565b9250506080620003a188828901620002d1565b9150509295509295909350565b600081519050919050565b7f4e487b7100000000000000000000000000000000000000000000000000000000600052602260045260246000fd5b600060028204905060018216806200040157607f821691505b602082108103620004175762000416620003b9565b5b50919050565b60008190508160005260206000209050919050565b60006020601f8301049050919050565b600082821b905092915050565b600060088302620004817fffffffffffffffffffffffffffffffffffffffffffffffffffffffffffffffff8262000442565b6200048d868362000442565b95508019841693508086168417925050509392505050565b6000819050919050565b6000620004d0620004ca620004c484620002ad565b620004a5565b620002ad565b9050919050565b6000819050919050565b620004ec83620004af565b62000504620004fb82620004d7565b8484546200044f565b825550505050565b600090565b6200051b6200050c565b62000528818484620004e1565b505050565b5b8181101562000550576200054460008262000511565b6001810190506200052e565b5050565b601f8211156200059f5762000569816200041d565b620005748462000432565b8101602085101562000584578190505b6200059c620005938562000432565b8301826200052d565b50505b505050565b600082821c905092915050565b6000620005c460001984600802620005a4565b1980831691505092915050565b6000620005df8383620005b1565b9150826002028217905092915050565b620005fa82620003ae565b67ffffffffffffffff811115620006165762000615620000e4565b5b620006228254620003e8565b6200062f82828562000554565b600060209050601f83116001811462000667576000841562000652578287015190505b6200065e8582620005d1565b865550620006ce565b601f19841662000677866200041d565b60005b82811015620006a1578489015182556001820191506020850194506020810190506200067a565b86831015620006c15784890151620006bd601f891682620005b1565b8355505b6001600288020188555050505b505050505050565b6107b580620006e66000396000f3fe6080604052600436106100555760003560e01c80632b9d8c9a1461005a5780636e0f634b1461008557806371ae413d146100b057806389d10cc7146100db5780639553de4e146100f7578063a035b1fe14610122575b600080fd5b34801561006657600080fd5b5061006f61014d565b60405161007c9190610525565b60405180910390f35b34801561009157600080fd5b5061009a6101db565b6040516100a79190610560565b60405180910390f35b3480156100bc57600080fd5b506100c56101e1565b6040516100d291906105bc565b60405180910390f35b6100f560048036038101906100f0919061061a565b610207565b005b34801561010357600080fd5b5061010c610401565b6040516101199190610525565b60405180910390f35b34801561012e57600080fd5b5061013761048f565b6040516101449190610560565b60405180910390f35b6001805461015a90610676565b80601f016020809104026020016040519081016040528092919081815260200182805461018690610676565b80156101d35780601f106101a8576101008083540402835291602001916101d3565b820191906000526020600020905b8154815290600101906020018083116101b657829003601f168201915b505050505081565b60025481565b600460009054906101000a900473ffffffffffffffffffffffffffffffffffffffff1681565b600354341461024b576040517f08c379a0000000000000000000000000000000000000000000000000000000008152600401610242906106f3565b60405180910390fd5b600560008273ffffffffffffffffffffffffffffffffffffffff1673ffffffffffffffffffffffffffffffffffffffff16815260200190815260200160002060009054906101000a900460ff16156102d8576040517f08c379a00000000000000000000000000000000000000000000000000000000081526004016102cf9061075f565b60405180910390fd5b600460009054906101000a900473ffffffffffffffffffffffffffffffffffffffff1673ffffffffffffffffffffffffffffffffffffffff166108fc6003549081150290604051600060405180830381858888f19350505050158015610342573d6000803e3d6000fd5b506001600560008373ffffffffffffffffffffffffffffffffffffffff1673ffffffffffffffffffffffffffffffffffffffff16815260200190815260200160002060006101000a81548160ff0219169083151502179055506006819080600181540180825580915050600190039060005260206000200160009091909190916101000a81548173ffffffffffffffffffffffffffffffffffffffff021916908373ffffffffffffffffffffffffffffffffffffffff16021790555050565b6000805461040e90610676565b80601f016020809104026020016040519081016040528092919081815260200182805461043a90610676565b80156104875780601f1061045c57610100808354040283529160200191610487565b820191906000526020600020905b81548152906001019060200180831161046a57829003601f168201915b505050505081565b60035481565b600081519050919050565b600082825260208201905092915050565b60005b838110156104cf5780820151818401526020810190506104b4565b60008484015250505050565b6000601f19601f8301169050919050565b60006104f782610495565b61050181856104a0565b93506105118185602086016104b1565b61051a816104db565b840191505092915050565b6000602082019050818103600083015261053f81846104ec565b905092915050565b6000819050919050565b61055a81610547565b82525050565b60006020820190506105756000830184610551565b92915050565b600073ffffffffffffffffffffffffffffffffffffffff82169050919050565b60006105a68261057b565b9050919050565b6105b68161059b565b82525050565b60006020820190506105d160008301846105ad565b92915050565b600080fd5b60006105e78261057b565b9050919050565b6105f7816105dc565b811461060257600080fd5b50565b600081359050610614816105ee565b92915050565b6000602082840312156106305761062f6105d7565b5b600061063e84828501610605565b91505092915050565b7f4e487b7100000000000000000000000000000000000000000000000000000000600052602260045260246000fd5b6000600282049050600182168061068e57607f821691505b6020821081036106a1576106a0610647565b5b50919050565b7f5061792074686520657861637420616d6f756e742e0000000000000000000000600082015250565b60006106dd6015836104a0565b91506106e8826106a7565b602082019050919050565b6000602082019050818103600083015261070c816106d0565b9050919050565b7f436f7572736520416c726561647920426f756768740000000000000000000000600082015250565b60006107496015836104a0565b915061075482610713565b602082019050919050565b600060208201905081810360008301526107788161073c565b905091905056fea264697066735822122081e9c5b5934e076d6f27535afb55e99c669ee6d33f6483a7a6a2f2812e698bcf64736f6c63430008110033a264697066735822122005e0ba1dffb26d98835c2fff09b69158120204954194aae89cf38f7b3e42b02364736f6c63430008110033",
    "linkReferences": {},
    "deployedLinkReferences": {}
}